{
  "address": "0xA1a91f02253B5B6D7792E3583FdEDfd11BE819d2",
  "abi": [
    {
      "inputs": [
        {
          "internalType": "address",
          "name": "_dao",
          "type": "address"
        },
        {
          "internalType": "uint32",
          "name": "_defaultFeeRate",
          "type": "uint32"
        }
      ],
      "stateMutability": "nonpayable",
      "type": "constructor"
    },
    {
      "anonymous": false,
      "inputs": [
        {
          "indexed": false,
          "internalType": "address",
          "name": "newCore",
          "type": "address"
        },
        {
          "indexed": false,
          "internalType": "address",
          "name": "pool",
          "type": "address"
        },
        {
          "indexed": false,
          "internalType": "address",
          "name": "poolSuperToken",
          "type": "address"
        }
      ],
      "name": "CoreCreated",
      "type": "event"
    },
    {
      "anonymous": false,
      "inputs": [
        {
          "indexed": false,
          "internalType": "address",
          "name": "newDAO",
          "type": "address"
        }
      ],
      "name": "DAOAddressChanged",
      "type": "event"
    },
    {
      "anonymous": false,
      "inputs": [
        {
          "indexed": false,
          "internalType": "uint32",
          "name": "newFeeRate",
          "type": "uint32"
        }
      ],
      "name": "FeeRateChanged",
      "type": "event"
    },
    {
      "anonymous": false,
      "inputs": [
        {
          "indexed": false,
          "internalType": "address",
          "name": "newImplementation",
          "type": "address"
        },
        {
          "indexed": false,
          "internalType": "string",
          "name": "message",
          "type": "string"
        }
      ],
      "name": "ImplementationChanged",
      "type": "event"
    },
    {
      "anonymous": false,
      "inputs": [
        {
          "indexed": true,
          "internalType": "address",
          "name": "previousOwner",
          "type": "address"
        },
        {
          "indexed": true,
          "internalType": "address",
          "name": "newOwner",
          "type": "address"
        }
      ],
      "name": "OwnershipTransferred",
      "type": "event"
    },
    {
      "inputs": [
        {
          "internalType": "address",
          "name": "",
          "type": "address"
        }
      ],
      "name": "cores",
      "outputs": [
        {
          "internalType": "address",
          "name": "",
          "type": "address"
        }
      ],
      "stateMutability": "view",
      "type": "function"
    },
    {
      "inputs": [
        {
          "internalType": "address",
          "name": "_dHedgePool",
          "type": "address"
        },
        {
          "internalType": "contract ISuperToken",
          "name": "_DHPTx",
          "type": "address"
        }
      ],
      "name": "createdHedgeCore",
      "outputs": [],
      "stateMutability": "nonpayable",
      "type": "function"
    },
    {
      "inputs": [],
      "name": "dao",
      "outputs": [
        {
          "internalType": "address",
          "name": "",
          "type": "address"
        }
      ],
      "stateMutability": "view",
      "type": "function"
    },
    {
      "inputs": [],
      "name": "defaultFeeRate",
      "outputs": [
        {
          "internalType": "uint32",
          "name": "",
          "type": "uint32"
        }
      ],
      "stateMutability": "view",
      "type": "function"
    },
    {
      "inputs": [],
      "name": "implementation",
      "outputs": [
        {
          "internalType": "address",
          "name": "",
          "type": "address"
        }
      ],
      "stateMutability": "view",
      "type": "function"
    },
    {
      "inputs": [],
      "name": "owner",
      "outputs": [
        {
          "internalType": "address",
          "name": "",
          "type": "address"
        }
      ],
      "stateMutability": "view",
      "type": "function"
    },
    {
      "inputs": [],
      "name": "renounceOwnership",
      "outputs": [],
      "stateMutability": "nonpayable",
      "type": "function"
    },
    {
      "inputs": [
        {
          "internalType": "address",
          "name": "_dao",
          "type": "address"
        }
      ],
      "name": "setDAOAddress",
      "outputs": [],
      "stateMutability": "nonpayable",
      "type": "function"
    },
    {
      "inputs": [
        {
          "internalType": "uint32",
          "name": "_defaultFeeRate",
          "type": "uint32"
        }
      ],
      "name": "setDefaultFeeRate",
      "outputs": [],
      "stateMutability": "nonpayable",
      "type": "function"
    },
    {
      "inputs": [
        {
          "internalType": "address",
          "name": "_implementation",
          "type": "address"
        },
        {
          "internalType": "string",
          "name": "_message",
          "type": "string"
        }
      ],
      "name": "setImplementation",
      "outputs": [],
      "stateMutability": "nonpayable",
      "type": "function"
    },
    {
      "inputs": [
        {
          "internalType": "address",
          "name": "newOwner",
          "type": "address"
        }
      ],
      "name": "transferOwnership",
      "outputs": [],
      "stateMutability": "nonpayable",
      "type": "function"
    }
  ],
  "transactionHash": "0x1eb83d6f0b768e783b6ec66748a09b0b339ca615b81c1b76e61472d5e7b589cd",
  "args": [
    "0x452181dAe31Cf9f42189df71eC64298993BEe6d3",
    "15000"
  ],
  "solcInputHash": "8d9c672e523fd3ad32b8fba72efee1d6",
  "bytecode": "0x60a0604052600160805234801561001557600080fd5b5060405161308038038061308083398101604081905261003491610111565b61003d336100b4565b60405161004990610104565b604051809103906000f080158015610065573d6000803e3d6000fd5b50600180546001600160a01b039283166001600160a01b031991821617909155600280549490921663ffffffff909316600160a01b02166001600160c01b03199093169290921717905561015d565b600080546001600160a01b038381166001600160a01b0319831681178455604051919092169283917f8be0079c531659141344cd1fd0a4f28419497f9722a3daafe3b4186f6b6457e09190a35050565b61265d80610a2383390190565b60008060408385031215610123578182fd5b82516001600160a01b0381168114610139578283fd5b602084015190925063ffffffff81168114610152578182fd5b809150509250929050565b6080516108ab61017860003960006103cd01526108ab6000f3fe608060405234801561001057600080fd5b50600436106100a95760003560e01c80635c60da1b116100715780635c60da1b14610145578063715018a61461015857806385ad32c4146101605780638da5cb5b14610189578063965afa891461019a578063f2fde38b146101ad57600080fd5b80630232159a146100ae57806307d33455146100c35780633310e049146100f45780634162169f146101075780635387400914610132575b600080fd5b6100c16100bc366004610747565b6101c0565b005b6002546100da90600160a01b900463ffffffff1681565b60405163ffffffff90911681526020015b60405180910390f35b6100c16101023660046107c7565b61024f565b60025461011a906001600160a01b031681565b6040516001600160a01b0390911681526020016100eb565b6100c161014036600461070f565b6102d4565b60015461011a906001600160a01b031681565b6100c16104b6565b61011a61016e3660046106ec565b6003602052600090815260409020546001600160a01b031681565b6000546001600160a01b031661011a565b6100c16101a83660046106ec565b6104ec565b6100c16101bb3660046106ec565b610564565b6000546001600160a01b031633146101f35760405162461bcd60e51b81526004016101ea9061082b565b60405180910390fd5b600180546001600160a01b0319166001600160a01b0385161790556040517f9c44143587e175f49750dc9f052fd1197902cd37dbf0acdb458f46f110c4866690610242908590859085906107eb565b60405180910390a1505050565b6000546001600160a01b031633146102795760405162461bcd60e51b81526004016101ea9061082b565b6002805463ffffffff60a01b1916600160a01b63ffffffff8416908102919091179091556040519081527f50cdd878435a7740fd0e2a9f496a4b02b6be5fabe2d5cdc4621ce34b0eb622cf906020015b60405180910390a150565b6001600160a01b0382811660009081526003602052604090205416156103325760405162461bcd60e51b8152602060048201526013602482015272436f726520616c72656164792065786973747360681b60448201526064016101ea565b60015460009061034a906001600160a01b03166105ff565b60405163485cc95560e01b81526001600160a01b03858116600483015284811660248301529192509082169063485cc95590604401600060405180830381600087803b15801561039957600080fd5b505af11580156103ad573d6000803e3d6000fd5b50506040516379b9982960e11b81526001600160a01b03841660048201527f00000000000000000000000000000000000000000000000000000000000000006024820152733e14dc1b13c488a8d5d310918780c983bd5982e7925063f37330529150604401600060405180830381600087803b15801561042c57600080fd5b505af1158015610440573d6000803e3d6000fd5b505050506001600160a01b0383811660008181526003602090815260409182902080546001600160a01b031916868616908117909155825190815290810192909252918416918101919091527f868c3df5a35363022243f570d6994cbc4bd23970d31dfacc958e1136c1aefa1b90606001610242565b6000546001600160a01b031633146104e05760405162461bcd60e51b81526004016101ea9061082b565b6104ea600061069c565b565b6000546001600160a01b031633146105165760405162461bcd60e51b81526004016101ea9061082b565b600280546001600160a01b0319166001600160a01b0383169081179091556040519081527fecff1e63d1353a6547ccbdf184f5c70679a70ef4982fb945f9cfc59e2718d200906020016102c9565b6000546001600160a01b0316331461058e5760405162461bcd60e51b81526004016101ea9061082b565b6001600160a01b0381166105f35760405162461bcd60e51b815260206004820152602660248201527f4f776e61626c653a206e6577206f776e657220697320746865207a65726f206160448201526564647265737360d01b60648201526084016101ea565b6105fc8161069c565b50565b6000604051733d602d80600a3d3981f3363d3d373d3d3d363d7360601b81528260601b60148201526e5af43d82803e903d91602b57fd5bf360881b60288201526037816000f09150506001600160a01b0381166106975760405162461bcd60e51b8152602060048201526016602482015275115490cc4c4d8dce8818dc99585d194819985a5b195960521b60448201526064016101ea565b919050565b600080546001600160a01b038381166001600160a01b0319831681178455604051919092169283917f8be0079c531659141344cd1fd0a4f28419497f9722a3daafe3b4186f6b6457e09190a35050565b6000602082840312156106fd578081fd5b813561070881610860565b9392505050565b60008060408385031215610721578081fd5b823561072c81610860565b9150602083013561073c81610860565b809150509250929050565b60008060006040848603121561075b578081fd5b833561076681610860565b9250602084013567ffffffffffffffff80821115610782578283fd5b818601915086601f830112610795578283fd5b8135818111156107a3578384fd5b8760208285010111156107b4578384fd5b6020830194508093505050509250925092565b6000602082840312156107d8578081fd5b813563ffffffff81168114610708578182fd5b6001600160a01b03841681526040602082018190528101829052818360608301376000818301606090810191909152601f909201601f1916010192915050565b6020808252818101527f4f776e61626c653a2063616c6c6572206973206e6f7420746865206f776e6572604082015260600190565b6001600160a01b03811681146105fc57600080fdfea26469706673582212209540c2d67a51d071803623a1edf9a7900243a8ac31e905006b2e60a7ef15c5ae64736f6c63430008040033608060405234801561001057600080fd5b5061263d806100206000396000f3fe608060405234801561001057600080fd5b506004361061010b5760003560e01c80635f9e7d77116100a2578063911f94e111610071578063911f94e114610227578063b805232f14610248578063bf63e9601461025b578063d86ed3e514610280578063f1d640b01461029357600080fd5b80635f9e7d77146101db5780636ff1c9bc146101ee578063884d1f40146102015780638c415ec01461021457600080fd5b8063525f45fb116100de578063525f45fb1461018c57806353be974f1461019f57806353c11f99146101b5578063587d5ff5146101c857600080fd5b8063013116da14610110578063230dbd291461014457806330d9c91514610164578063485cc95514610177575b600080fd5b61012361011e366004611f86565b6102ba565b60408051921515835263ffffffff9091166020830152015b60405180910390f35b610157610152366004612134565b610317565b60405161013b91906123d8565b610157610172366004612098565b610553565b61018a610185366004611ff6565b610775565b005b61018a61019a366004611f86565b610884565b60015460ff16604051901515815260200161013b565b6101576101c3366004612134565b610901565b61018a6101d6366004611ff6565b610b56565b6101576101e9366004612098565b610bcd565b61018a6101fc366004611f86565b610d37565b61015761020f366004612098565b610e85565b61018a6102223660046121fb565b610fb2565b61023a610235366004611fbe565b611058565b60405190815260200161013b565b61018a6102563660046121fb565b6110fc565b600354600160a01b900463ffffffff1660405163ffffffff909116815260200161013b565b61015761028e366004612134565b611149565b61029b6116f2565b6040805192151583526001600160a01b0390911660208301520161013b565b6001600160a01b0381811660009081526004602052604081205490918291161561030c5750506001600160a01b0316600090815260046020526040902054600191600160a01b90910463ffffffff1690565b506000928392509050565b6060610321611781565b61032a896117f1565b82828080601f0160208091040260200160405190810160405280939291908181526020018383808284376000920182905250604051631fb6491d60e11b815294955093733e14dc1b13c488a8d5d310918780c983bd5982e79350633f6c923a925061039a915085906004016123d8565b60006040518083038186803b1580156103b257600080fd5b505afa1580156103c6573d6000803e3d6000fd5b505050506040513d6000823e601f3d908101601f191682016040526103ee919081019061223b565b6060015190506001735105959e8d89815075e4f21d56454C5995d0772A63678e68669091838d8f6001600160a01b031663ee719bc86040518163ffffffff1660e01b815260040160206040518083038186803b15801561044d57600080fd5b505afa158015610461573d6000803e3d6000fd5b505050506040513d601f19601f820116820180604052508101906104859190611fa2565b878c8c6040518863ffffffff1660e01b81526004016104aa9796959493929190612470565b60006040518083038186803b1580156104c257600080fd5b505af41580156104d6573d6000803e3d6000fd5b505050506040513d6000823e601f3d908101601f191682016040526104fe9190810190612065565b604080516001600160a01b03808f168252841660208201529193507f4ec9f5b70e68d6ebc2f85d12348713d1fcae8e25ed8bf5a2a3cf02651cde30bf91015b60405180910390a1509998505050505050505050565b606061055d611781565b610566876117f1565b61056e611979565b6000886001600160a01b031663ee719bc86040518163ffffffff1660e01b815260040160206040518083038186803b1580156105a957600080fd5b505afa1580156105bd573d6000803e3d6000fd5b505050506040513d601f19601f820116820180604052508101906105e19190611fa2565b6001600160a01b038082166000908152600460205260409020549192501680158061061d5750896001600160a01b0316816001600160a01b0316145b61067a5760405162461bcd60e51b8152602060048201526024808201527f644865646765436f72653a205375706572746f6b656e206e6f7420737570706f6044820152631c9d195960e21b60648201526084015b60405180910390fd5b6040516322462b9160e11b8152600160048201526001600160a01b0383166024820152735105959e8d89815075e4f21d56454C5995d0772A9063448c57229060440160206040518083038186803b1580156106d457600080fd5b505af41580156106e8573d6000803e3d6000fd5b505050506040513d601f19601f8201168201806040525081019061070c9190612008565b6107585760405162461bcd60e51b815260206004820152601d60248201527f644865646765436f72653a204e6f74206465706f7369742061737365740000006044820152606401610671565b505060408051600081526020810190915298975050505050505050565b600054610100900460ff168061078e575060005460ff16155b6107f15760405162461bcd60e51b815260206004820152602e60248201527f496e697469616c697a61626c653a20636f6e747261637420697320616c72656160448201526d191e481a5b9a5d1a585b1a5e995960921b6064820152608401610671565b600054610100900460ff16158015610813576000805461ffff19166101011790555b60018054600280546001600160a01b031990811633179091556001600160a01b03858116610100026001600160a81b03199093169290921783179092556003805491861691909216811790915561086d90836000196119cb565b801561087f576000805461ff00191690555b505050565b61088c611979565b60405163394110d160e01b8152600160048201526001600160a01b0382166024820152735105959e8d89815075e4f21d56454C5995d0772A9063394110d19060440160006040518083038186803b1580156108e657600080fd5b505af41580156108fa573d6000803e3d6000fd5b5050505050565b606061090b611781565b82828080601f0160208091040260200160405190810160405280939291908181526020018383808284376000920182905250604051631fb6491d60e11b815294955093733e14dc1b13c488a8d5d310918780c983bd5982e79350633f6c923a925061097b915085906004016123d8565b60006040518083038186803b15801561099357600080fd5b505afa1580156109a7573d6000803e3d6000fd5b505050506040513d6000823e601f3d908101601f191682016040526109cf919081019061223b565b6060015190506001735105959e8d89815075e4f21d56454C5995d0772A63678e68669091838d8f6001600160a01b031663ee719bc86040518163ffffffff1660e01b815260040160206040518083038186803b158015610a2e57600080fd5b505afa158015610a42573d6000803e3d6000fd5b505050506040513d601f19601f82011682018060405250810190610a669190611fa2565b878c8c6040518863ffffffff1660e01b8152600401610a8b9796959493929190612470565b60006040518083038186803b158015610aa357600080fd5b505af4925050508015610ad857506040513d6000823e601f3d908101601f19168201604052610ad59190810190612065565b60015b6104fe573d808015610b06576040519150601f19603f3d011682016040523d82523d6000602084013e610b0b565b606091505b50610b1581611ac5565b50604080516001600160a01b03808e168252831660208201527f4ec9f5b70e68d6ebc2f85d12348713d1fcae8e25ed8bf5a2a3cf02651cde30bf910161053d565b6040516302e65b1d60e21b81526001600160a01b0383811660048301528216602482015273dD01FfdC9B6aFe601ABc4022bF83346Aec03867990630b996c749060440160006040518083038186803b158015610bb157600080fd5b505af4158015610bc5573d6000803e3d6000fd5b505050505050565b6060610bd7611781565b6001735105959e8d89815075e4f21d56454C5995d0772A635ac9370e9091898b6001600160a01b031663ee719bc86040518163ffffffff1660e01b815260040160206040518083038186803b158015610c2f57600080fd5b505afa158015610c43573d6000803e3d6000fd5b505050506040513d601f19601f82011682018060405250810190610c679190611fa2565b87876040518663ffffffff1660e01b8152600401610c899594939291906124cb565b60006040518083038186803b158015610ca157600080fd5b505af4925050508015610cd657506040513d6000823e601f3d908101601f19168201604052610cd39190810190612065565b60015b610d29573d808015610d04576040519150601f19603f3d011682016040523d82523d6000602084013e610d09565b606091505b50610d1381611ac5565b5050604080516000815260208101909152610d2c565b90505b979650505050505050565b610d4033611b08565b60025460408051634162169f60e01b81529051610e46926001600160a01b031691634162169f916004808301926020929190829003018186803b158015610d8657600080fd5b505afa158015610d9a573d6000803e3d6000fd5b505050506040513d601f19601f82011682018060405250810190610dbe9190611fa2565b6040516370a0823160e01b81523060048201526001600160a01b038416906370a082319060240160206040518083038186803b158015610dfd57600080fd5b505afa158015610e11573d6000803e3d6000fd5b505050506040513d601f19601f82011682018060405250810190610e35919061204d565b6001600160a01b0384169190611be5565b6040516001600160a01b03821681527f5e7b34819cd91b239220bec92fcfd3c10da2214ba13e4e2b1f6c9cfdbd68a9a29060200160405180910390a150565b6060610e8f611781565b610e98876117f1565b610ea0611979565b6001735105959e8d89815075e4f21d56454C5995d0772A635ac9370e9091898b6001600160a01b031663ee719bc86040518163ffffffff1660e01b815260040160206040518083038186803b158015610ef857600080fd5b505afa158015610f0c573d6000803e3d6000fd5b505050506040513d601f19601f82011682018060405250810190610f309190611fa2565b87876040518663ffffffff1660e01b8152600401610f529594939291906124cb565b60006040518083038186803b158015610f6a57600080fd5b505af4158015610f7e573d6000803e3d6000fd5b505050506040513d6000823e601f3d908101601f19168201604052610fa69190810190612065565b98975050505050505050565b610fbb33611b08565b60015460ff161561100e5760405162461bcd60e51b815260206004820152601f60248201527f644865646765436f72653a20506f6f6c20616c726561647920616374697665006044820152606401610671565b6001805460ff1916811790556040517f32469476dd301d36094f41aeedb33e89a8dd0ba10ab692329a9cf271f23288799061104c908490849061245c565b60405180910390a15050565b604051631740215d60e01b8152600160048201526001600160a01b03808416602483015282166044820152600090735105959e8d89815075e4f21d56454C5995d0772A90631740215d9060640160206040518083038186803b1580156110bd57600080fd5b505af41580156110d1573d6000803e3d6000fd5b505050506040513d601f19601f820116820180604052508101906110f5919061204d565b9392505050565b61110533611b08565b61110d611979565b6001805460ff191690556040517f52142d9924affdbcc443234e980cf63b22e87bbc4a88bb571b0cfd1e297edd2d9061104c908490849061245c565b6060611153611781565b61115c896117f1565b82828080601f016020809104026020016040519081016040528093929190818152602001838380828437600081840152601f19601f82011690508083019250505050505050905060008a6001600160a01b031663ee719bc86040518163ffffffff1660e01b815260040160206040518083038186803b1580156111de57600080fd5b505afa1580156111f2573d6000803e3d6000fd5b505050506040513d601f19601f820116820180604052508101906112169190611fa2565b6001600160a01b038082166000908152600460205260409020805492935091166113705780546001600160a01b0319166001600160a01b038d1617815560038054600160a01b900463ffffffff16906014611270836125a2565b825461010092830a63ffffffff818102199092169282160291909117909255835463ffffffff60a01b1916600160a01b938316840217808555426001868101919091555460405163989ebc6360e01b815273dD01FfdC9B6aFe601ABc4022bF83346Aec0386799563989ebc63956112fd959093046001600160a01b03169304909116908890600401612423565b60006040518083038186803b15801561131557600080fd5b505af4158015611329573d6000803e3d6000fd5b505050506040513d6000823e601f3d908101601f191682016040526113519190810190612065565b600354909350611370906001600160a01b0384811691166000196119cb565b604051631fb6491d60e11b8152600090733e14dc1b13c488a8d5d310918780c983bd5982e790633f6c923a906113aa9087906004016123d8565b60006040518083038186803b1580156113c257600080fd5b505afa1580156113d6573d6000803e3d6000fd5b505050506040513d6000823e601f3d908101601f191682016040526113fe919081019061223b565b60600151905060008d6001600160a01b031673dD01FfdC9B6aFe601ABc4022bF83346Aec038679638cca42b59091846040518363ffffffff1660e01b815260040161145f9291906001600160a01b0392831681529116602082015260400190565b604080518083038186803b15801561147657600080fd5b505af415801561148a573d6000803e3d6000fd5b505050506040513d601f19601f820116820180604052508101906114ae919061233e565b9150508d6001600160a01b03166323b872dd8330846bffffffffffffffffffffffff168760010154426114e1919061255f565b6114eb9190612540565b6040516001600160e01b031960e086901b1681526001600160a01b0393841660048201529290911660248301526044820152606401602060405180830381600087803b15801561153a57600080fd5b505af115801561154e573d6000803e3d6000fd5b505050506040513d601f19601f820116820180604052508101906115729190612008565b6115c95760405162461bcd60e51b815260206004820152602260248201527f644865646765436f72653a20427566666572207472616e73666572206661696c604482015261195960f21b6064820152608401610671565b8d6001600160a01b031673dD01FfdC9B6aFe601ABc4022bF83346Aec038679633d7013f69091600160000160019054906101000a90046001600160a01b03168660000160149054906101000a900463ffffffff16896040518563ffffffff1660e01b815260040161163d94939291906123eb565b60006040518083038186803b15801561165557600080fd5b505af4158015611669573d6000803e3d6000fd5b505050506040513d6000823e601f3d908101601f191682016040526116919190810190612065565b94507f4ec9f5b70e68d6ebc2f85d12348713d1fcae8e25ed8bf5a2a3cf02651cde30bf8e836040516116d99291906001600160a01b0392831681529116602082015260400190565b60405180910390a1505050509998505050505050505050565b60405163832a95fd60e01b8152600160048201526000908190735105959e8d89815075e4f21d56454C5995d0772A9063832a95fd90602401604080518083038186803b15801561174157600080fd5b505af4158015611755573d6000803e3d6000fd5b505050506040513d601f19601f820116820180604052508101906117799190612022565b915091509091565b33733e14dc1b13c488a8d5d310918780c983bd5982e7146117ef5760405162461bcd60e51b815260206004820152602260248201527f644865646765436f72653a20537570706f727473206f6e6c79206f6e6520686f6044820152611cdd60f21b6064820152608401610671565b565b7fa9214cc96615e0085d3bb077758db69497dc2dce3b2b1e97bc93c3d18d83efd3816001600160a01b0316637730599e6040518163ffffffff1660e01b815260040160206040518083038186803b15801561184b57600080fd5b505afa15801561185f573d6000803e3d6000fd5b505050506040513d601f19601f82011682018060405250810190611883919061204d565b148061191e57507f8aedc3b5d4bf031e11a7e2940f7251c005698405d58e02e1c247fed3b1b3a674816001600160a01b0316637730599e6040518163ffffffff1660e01b815260040160206040518083038186803b1580156118e457600080fd5b505afa1580156118f8573d6000803e3d6000fd5b505050506040513d601f19601f8201168201806040525081019061191c919061204d565b145b6119765760405162461bcd60e51b8152602060048201526024808201527f644865646765436f72653a2043616c6c6261636b2063616c6c656420696c6c6560448201526367616c7960e01b6064820152608401610671565b50565b60015460ff166117ef5760405162461bcd60e51b815260206004820152601960248201527f644865646765436f72653a20506f6f6c20696e616374697665000000000000006044820152606401610671565b604051636eb1769f60e11b81523060048201526001600160a01b038381166024830152600091839186169063dd62ed3e9060440160206040518083038186803b158015611a1757600080fd5b505afa158015611a2b573d6000803e3d6000fd5b505050506040513d601f19601f82011682018060405250810190611a4f919061204d565b611a599190612528565b6040516001600160a01b038516602482015260448101829052909150611abf90859063095ea7b360e01b906064015b60408051601f198184030181529190526020810180516001600160e01b03166001600160e01b031990931692909217909152611c15565b50505050565b61197681604051602401611ad991906123d8565b60408051601f198184030181529190526020810180516001600160e01b03166305f3bfab60e11b179052611ce7565b60025460408051638da5cb5b60e01b815290516001600160a01b0390921691638da5cb5b91600480820192602092909190829003018186803b158015611b4d57600080fd5b505afa158015611b61573d6000803e3d6000fd5b505050506040513d601f19601f82011682018060405250810190611b859190611fa2565b6001600160a01b0316816001600160a01b0316146119765760405162461bcd60e51b815260206004820152601960248201527f644865646765436f72653a204e6f7420746865206f776e6572000000000000006044820152606401610671565b6040516001600160a01b03831660248201526044810182905261087f90849063a9059cbb60e01b90606401611a88565b6000611c6a826040518060400160405280602081526020017f5361666545524332303a206c6f772d6c6576656c2063616c6c206661696c6564815250856001600160a01b0316611d089092919063ffffffff16565b80519091501561087f5780806020019051810190611c889190612008565b61087f5760405162461bcd60e51b815260206004820152602a60248201527f5361666545524332303a204552433230206f7065726174696f6e20646964206e6044820152691bdd081cdd58d8d9595960b21b6064820152608401610671565b80516a636f6e736f6c652e6c6f67602083016000808483855afa5050505050565b6060611d178484600085611d1f565b949350505050565b606082471015611d805760405162461bcd60e51b815260206004820152602660248201527f416464726573733a20696e73756666696369656e742062616c616e636520666f6044820152651c8818d85b1b60d21b6064820152608401610671565b843b611dce5760405162461bcd60e51b815260206004820152601d60248201527f416464726573733a2063616c6c20746f206e6f6e2d636f6e74726163740000006044820152606401610671565b600080866001600160a01b03168587604051611dea91906123bc565b60006040518083038185875af1925050503d8060008114611e27576040519150601f19603f3d011682016040523d82523d6000602084013e611e2c565b606091505b5091509150610d2c82828660608315611e465750816110f5565b825115611e565782518084602001fd5b8160405162461bcd60e51b815260040161067191906123d8565b8051611e7b816125f2565b919050565b80518015158114611e7b57600080fd5b80516001600160e01b031981168114611e7b57600080fd5b60008083601f840112611eb9578182fd5b50813567ffffffffffffffff811115611ed0578182fd5b602083019150836020828501011115611ee857600080fd5b9250929050565b600082601f830112611eff578081fd5b815167ffffffffffffffff80821115611f1a57611f1a6125dc565b604051601f8301601f19908116603f01168101908282118183101715611f4257611f426125dc565b81604052838152866020858801011115611f5a578485fd5b611f6b846020830160208901612576565b9695505050505050565b805160ff81168114611e7b57600080fd5b600060208284031215611f97578081fd5b81356110f5816125f2565b600060208284031215611fb3578081fd5b81516110f5816125f2565b60008060408385031215611fd0578081fd5b8235611fdb816125f2565b91506020830135611feb816125f2565b809150509250929050565b60008060408385031215611fd0578182fd5b600060208284031215612019578081fd5b6110f582611e80565b60008060408385031215612034578182fd5b61203d83611e80565b91506020830151611feb816125f2565b60006020828403121561205e578081fd5b5051919050565b600060208284031215612076578081fd5b815167ffffffffffffffff81111561208c578182fd5b611d1784828501611eef565b600080600080600080600060a0888a0312156120b2578283fd5b87356120bd816125f2565b965060208801356120cd816125f2565b955060408801359450606088013567ffffffffffffffff808211156120f0578485fd5b6120fc8b838c01611ea8565b909650945060808a0135915080821115612114578384fd5b506121218a828b01611ea8565b989b979a50959850939692959293505050565b600080600080600080600080600060c08a8c031215612151578283fd5b893561215c816125f2565b985060208a013561216c816125f2565b975060408a0135965060608a013567ffffffffffffffff8082111561218f578485fd5b61219b8d838e01611ea8565b909850965060808c01359150808211156121b3578485fd5b6121bf8d838e01611ea8565b909650945060a08c01359150808211156121d7578384fd5b506121e48c828d01611ea8565b915080935050809150509295985092959850929598565b6000806020838503121561220d578182fd5b823567ffffffffffffffff811115612223578283fd5b61222f85828601611ea8565b90969095509350505050565b60006020828403121561224c578081fd5b815167ffffffffffffffff80821115612263578283fd5b908301906101608286031215612277578283fd5b61227f6124fe565b61228883611f75565b815261229660208401611f75565b6020820152604083015160408201526122b160608401611e70565b60608201526122c260808401611e90565b608082015260a0830151828111156122d8578485fd5b6122e487828601611eef565b60a08301525060c083015160c082015260e083015160e082015261010091508183015182820152610120915061231b828401611e70565b82820152610140915061232f828401611e70565b91810191909152949350505050565b60008060408385031215612350578182fd5b82519150602083015180600b0b8114611feb578182fd5b81835281816020850137506000828201602090810191909152601f909101601f19169091010190565b600081518084526123a8816020860160208601612576565b601f01601f19169290920160200192915050565b600082516123ce818460208701612576565b9190910192915050565b6020815260006110f56020830184612390565b6001600160a01b0385811682528416602082015263ffffffff83166040820152608060608201819052600090611f6b90830184612390565b6001600160a01b038416815263ffffffff8316602082015260606040820181905260009061245390830184612390565b95945050505050565b602081526000611d17602083018486612367565b8781526001600160a01b03878116602083015286811660408301528516606082015260c0608082018190526000906124aa90830186612390565b82810360a08401526124bd818587612367565b9a9950505050505050505050565b8581526001600160a01b03858116602083015284166040820152608060608201819052600090610d2c9083018486612367565b604051610160810167ffffffffffffffff81118282101715612522576125226125dc565b60405290565b6000821982111561253b5761253b6125c6565b500190565b600081600019048311821515161561255a5761255a6125c6565b500290565b600082821015612571576125716125c6565b500390565b60005b83811015612591578181015183820152602001612579565b83811115611abf5750506000910152565b600063ffffffff808316818114156125bc576125bc6125c6565b6001019392505050565b634e487b7160e01b600052601160045260246000fd5b634e487b7160e01b600052604160045260246000fd5b6001600160a01b038116811461197657600080fdfea26469706673582212202f4f6baf34212c21a67f2738d723f384284e044895f635409af6fcbc7f5099f464736f6c63430008040033",
  "libraries": {
    "SFHelper": "0xdD01FfdC9B6aFe601ABc4022bF83346Aec038679",
    "dHedgeHelper": "0x5105959e8d89815075e4f21d56454C5995d0772A"
  },
  "devdoc": {
    "author": "rashtrakoff <rashtrakoff@pm.me>",
    "details": "Some variables necessary/common for all cores are stored here. These variables are referred in the cores.",
    "kind": "dev",
    "methods": {
      "createdHedgeCore(address,address)": {
        "params": {
          "_DHPTx": "Supertoken of the corresponding DHPT of `_dHedgePool`",
          "_dHedgePool": "Address of the dHEDGE pool for which a core needs to be created"
        }
      },
      "owner()": {
        "details": "Returns the address of the current owner."
      },
      "renounceOwnership()": {
        "details": "Leaves the contract without owner. It will not be possible to call `onlyOwner` functions anymore. Can only be called by the current owner. NOTE: Renouncing ownership will leave the contract without an owner, thereby removing any functionality that is only available to the owner."
      },
      "setDAOAddress(address)": {
        "details": "Sets DAO address for all cores",
        "params": {
          "_dao": "New address for the DAO"
        }
      },
      "setDefaultFeeRate(uint32)": {
        "details": "Sets fee rate for all cores",
        "params": {
          "_defaultFeeRate": "The new fee rate scaled to 1e6"
        }
      },
      "setImplementation(address,string)": {
        "details": "Sets a new implementation of core contractOnly to be used in case of an issue with existing/default implementation. Must be removed after testing."
      },
      "transferOwnership(address)": {
        "details": "Transfers ownership of the contract to a new account (`newOwner`). Can only be called by the current owner."
      }
    },
    "stateVariables": {
      "CONFIG_WORD": {
        "custom:note": "CONFIG_WORD is used to omit the specific agreement hooks of superapps (NOOP - Not Operate)"
      }
    },
    "title": "dHedge core factory",
    "version": 1
  },
  "userdoc": {
    "kind": "user",
    "methods": {
      "cores(address)": {
        "notice": "Mapping containing core address for every dHEDGE pool if deployed/created"
      },
      "createdHedgeCore(address,address)": {
        "notice": "Creates a new core for a given dHEDGE pool"
      },
      "dao()": {
        "notice": "The DAO which receives fees"
      },
      "defaultFeeRate()": {
        "notice": "Fee rate for collecting streaming fees scaled to 1e6"
      }
    },
    "notice": "Contract to create new cores easily",
    "version": 1
  },
  "storageLayout": {
    "storage": [
      {
        "astId": 7,
        "contract": "contracts/dHedge-Factory-Version/dHedgeCoreFactory.sol:dHedgeCoreFactory",
        "label": "_owner",
        "offset": 0,
        "slot": "0",
        "type": "t_address"
      },
      {
        "astId": 5558,
        "contract": "contracts/dHedge-Factory-Version/dHedgeCoreFactory.sol:dHedgeCoreFactory",
        "label": "implementation",
        "offset": 0,
        "slot": "1",
        "type": "t_address"
      },
      {
        "astId": 5562,
        "contract": "contracts/dHedge-Factory-Version/dHedgeCoreFactory.sol:dHedgeCoreFactory",
        "label": "dao",
        "offset": 0,
        "slot": "2",
        "type": "t_address"
      },
      {
        "astId": 5566,
        "contract": "contracts/dHedge-Factory-Version/dHedgeCoreFactory.sol:dHedgeCoreFactory",
        "label": "defaultFeeRate",
        "offset": 20,
        "slot": "2",
        "type": "t_uint32"
      },
      {
        "astId": 5575,
        "contract": "contracts/dHedge-Factory-Version/dHedgeCoreFactory.sol:dHedgeCoreFactory",
        "label": "cores",
        "offset": 0,
        "slot": "3",
        "type": "t_mapping(t_address,t_address)"
      }
    ],
    "types": {
      "t_address": {
        "encoding": "inplace",
        "label": "address",
        "numberOfBytes": "20"
      },
      "t_mapping(t_address,t_address)": {
        "encoding": "mapping",
        "key": "t_address",
        "label": "mapping(address => address)",
        "numberOfBytes": "32",
        "value": "t_address"
      },
      "t_uint32": {
        "encoding": "inplace",
        "label": "uint32",
        "numberOfBytes": "4"
      }
    }
  }
}