{
  "address": "0xDD3803011644CA3446cDd95abCf69aB4B3dF7108",
  "abi": [
    {
      "inputs": [
        {
          "internalType": "contract ISuperfluid",
          "name": "_host",
          "type": "address"
        },
        {
          "internalType": "contract IConstantFlowAgreementV1",
          "name": "_cfa",
          "type": "address"
        },
        {
          "internalType": "address",
          "name": "_dHedgePool",
          "type": "address"
        },
        {
          "internalType": "address",
          "name": "_bank",
          "type": "address"
        },
        {
          "internalType": "string",
          "name": "_regKey",
          "type": "string"
        }
      ],
      "stateMutability": "nonpayable",
      "type": "constructor"
    },
    {
      "anonymous": false,
      "inputs": [
        {
          "indexed": true,
          "internalType": "address",
          "name": "previousOwner",
          "type": "address"
        },
        {
          "indexed": true,
          "internalType": "address",
          "name": "newOwner",
          "type": "address"
        }
      ],
      "name": "OwnershipTransferred",
      "type": "event"
    },
    {
      "inputs": [
        {
          "internalType": "contract ISuperToken",
          "name": "_superToken",
          "type": "address"
        },
        {
          "internalType": "address",
          "name": "_agreementClass",
          "type": "address"
        },
        {
          "internalType": "bytes32",
          "name": "",
          "type": "bytes32"
        },
        {
          "internalType": "bytes",
          "name": "",
          "type": "bytes"
        },
        {
          "internalType": "bytes",
          "name": "_cbdata",
          "type": "bytes"
        },
        {
          "internalType": "bytes",
          "name": "_ctx",
          "type": "bytes"
        }
      ],
      "name": "afterAgreementCreated",
      "outputs": [
        {
          "internalType": "bytes",
          "name": "newCtx",
          "type": "bytes"
        }
      ],
      "stateMutability": "nonpayable",
      "type": "function"
    },
    {
      "inputs": [
        {
          "internalType": "contract ISuperToken",
          "name": "_superToken",
          "type": "address"
        },
        {
          "internalType": "address",
          "name": "_agreementClass",
          "type": "address"
        },
        {
          "internalType": "bytes32",
          "name": "",
          "type": "bytes32"
        },
        {
          "internalType": "bytes",
          "name": "",
          "type": "bytes"
        },
        {
          "internalType": "bytes",
          "name": "_cbdata",
          "type": "bytes"
        },
        {
          "internalType": "bytes",
          "name": "_ctx",
          "type": "bytes"
        }
      ],
      "name": "afterAgreementTerminated",
      "outputs": [
        {
          "internalType": "bytes",
          "name": "newCtx",
          "type": "bytes"
        }
      ],
      "stateMutability": "nonpayable",
      "type": "function"
    },
    {
      "inputs": [
        {
          "internalType": "contract ISuperToken",
          "name": "_superToken",
          "type": "address"
        },
        {
          "internalType": "address",
          "name": "_agreementClass",
          "type": "address"
        },
        {
          "internalType": "bytes32",
          "name": "",
          "type": "bytes32"
        },
        {
          "internalType": "bytes",
          "name": "",
          "type": "bytes"
        },
        {
          "internalType": "bytes",
          "name": "_cbdata",
          "type": "bytes"
        },
        {
          "internalType": "bytes",
          "name": "_ctx",
          "type": "bytes"
        }
      ],
      "name": "afterAgreementUpdated",
      "outputs": [
        {
          "internalType": "bytes",
          "name": "newCtx",
          "type": "bytes"
        }
      ],
      "stateMutability": "nonpayable",
      "type": "function"
    },
    {
      "inputs": [
        {
          "internalType": "contract ISuperToken",
          "name": "_superToken",
          "type": "address"
        },
        {
          "internalType": "address",
          "name": "_agreementClass",
          "type": "address"
        },
        {
          "internalType": "bytes32",
          "name": "",
          "type": "bytes32"
        },
        {
          "internalType": "bytes",
          "name": "",
          "type": "bytes"
        },
        {
          "internalType": "bytes",
          "name": "_ctx",
          "type": "bytes"
        }
      ],
      "name": "beforeAgreementCreated",
      "outputs": [
        {
          "internalType": "bytes",
          "name": "cbdata",
          "type": "bytes"
        }
      ],
      "stateMutability": "view",
      "type": "function"
    },
    {
      "inputs": [
        {
          "internalType": "contract ISuperToken",
          "name": "_superToken",
          "type": "address"
        },
        {
          "internalType": "address",
          "name": "_agreementClass",
          "type": "address"
        },
        {
          "internalType": "bytes32",
          "name": "",
          "type": "bytes32"
        },
        {
          "internalType": "bytes",
          "name": "",
          "type": "bytes"
        },
        {
          "internalType": "bytes",
          "name": "_ctx",
          "type": "bytes"
        }
      ],
      "name": "beforeAgreementTerminated",
      "outputs": [
        {
          "internalType": "bytes",
          "name": "cbdata",
          "type": "bytes"
        }
      ],
      "stateMutability": "view",
      "type": "function"
    },
    {
      "inputs": [
        {
          "internalType": "contract ISuperToken",
          "name": "_superToken",
          "type": "address"
        },
        {
          "internalType": "address",
          "name": "_agreementClass",
          "type": "address"
        },
        {
          "internalType": "bytes32",
          "name": "",
          "type": "bytes32"
        },
        {
          "internalType": "bytes",
          "name": "",
          "type": "bytes"
        },
        {
          "internalType": "bytes",
          "name": "_ctx",
          "type": "bytes"
        }
      ],
      "name": "beforeAgreementUpdated",
      "outputs": [
        {
          "internalType": "bytes",
          "name": "cbdata",
          "type": "bytes"
        }
      ],
      "stateMutability": "view",
      "type": "function"
    },
    {
      "inputs": [
        {
          "internalType": "address",
          "name": "_user",
          "type": "address"
        },
        {
          "internalType": "address",
          "name": "_token",
          "type": "address"
        }
      ],
      "name": "calcUserUninvested",
      "outputs": [
        {
          "internalType": "uint256",
          "name": "",
          "type": "uint256"
        }
      ],
      "stateMutability": "view",
      "type": "function"
    },
    {
      "inputs": [
        {
          "internalType": "address",
          "name": "_user",
          "type": "address"
        }
      ],
      "name": "calcWithdrawable",
      "outputs": [
        {
          "internalType": "uint256",
          "name": "",
          "type": "uint256"
        }
      ],
      "stateMutability": "view",
      "type": "function"
    },
    {
      "inputs": [],
      "name": "checkCoreActive",
      "outputs": [
        {
          "internalType": "bool",
          "name": "",
          "type": "bool"
        }
      ],
      "stateMutability": "view",
      "type": "function"
    },
    {
      "inputs": [
        {
          "internalType": "address",
          "name": "_token",
          "type": "address"
        }
      ],
      "name": "dHedgeDeposit",
      "outputs": [],
      "stateMutability": "nonpayable",
      "type": "function"
    },
    {
      "inputs": [
        {
          "internalType": "uint256",
          "name": "_amount",
          "type": "uint256"
        }
      ],
      "name": "dHedgeWithdraw",
      "outputs": [],
      "stateMutability": "nonpayable",
      "type": "function"
    },
    {
      "inputs": [],
      "name": "deactivateCore",
      "outputs": [],
      "stateMutability": "nonpayable",
      "type": "function"
    },
    {
      "inputs": [
        {
          "internalType": "address",
          "name": "_token",
          "type": "address"
        }
      ],
      "name": "emergencyWithdraw",
      "outputs": [],
      "stateMutability": "nonpayable",
      "type": "function"
    },
    {
      "inputs": [],
      "name": "getPoolLogic",
      "outputs": [
        {
          "internalType": "address",
          "name": "",
          "type": "address"
        }
      ],
      "stateMutability": "view",
      "type": "function"
    },
    {
      "inputs": [],
      "name": "moveLPT",
      "outputs": [],
      "stateMutability": "nonpayable",
      "type": "function"
    },
    {
      "inputs": [],
      "name": "owner",
      "outputs": [
        {
          "internalType": "address",
          "name": "",
          "type": "address"
        }
      ],
      "stateMutability": "view",
      "type": "function"
    },
    {
      "inputs": [],
      "name": "reactivateCore",
      "outputs": [],
      "stateMutability": "nonpayable",
      "type": "function"
    },
    {
      "inputs": [],
      "name": "renounceOwnership",
      "outputs": [],
      "stateMutability": "nonpayable",
      "type": "function"
    },
    {
      "inputs": [],
      "name": "requireUpkeep",
      "outputs": [
        {
          "internalType": "bool",
          "name": "",
          "type": "bool"
        },
        {
          "internalType": "address",
          "name": "",
          "type": "address"
        }
      ],
      "stateMutability": "view",
      "type": "function"
    },
    {
      "inputs": [
        {
          "internalType": "address",
          "name": "newOwner",
          "type": "address"
        }
      ],
      "name": "transferOwnership",
      "outputs": [],
      "stateMutability": "nonpayable",
      "type": "function"
    },
    {
      "inputs": [],
      "name": "withdrawUninvestedAll",
      "outputs": [],
      "stateMutability": "nonpayable",
      "type": "function"
    },
    {
      "inputs": [
        {
          "internalType": "address",
          "name": "_token",
          "type": "address"
        },
        {
          "internalType": "uint256",
          "name": "_amount",
          "type": "uint256"
        }
      ],
      "name": "withdrawUninvestedSingle",
      "outputs": [],
      "stateMutability": "nonpayable",
      "type": "function"
    }
  ],
  "transactionHash": "0xeca0db61eedeeefb7343b817c6df5ca8034ac265a43753ad6818a3b579048325",
  "args": [
    "0x3E14dC1b13c488a8d5D310918780c983bD5982E7",
    "0x6EeE6060f715257b970700bc2656De21dEdF074C",
    "0x6ea46adf94ee715a4912a556c7fca7a100b96efe",
    "0xF01696558f28CB1676Fca25f3A3C16b0951366b6",
    "rashtrakoff-291121-1"
  ],
  "solcInputHash": "289e792e17d19842bdeb4c9da78a269a",
  "bytecode": "0x60806040523480156200001157600080fd5b506040516200458138038062004581833981810160405281019062000037919062000a9f565b620000576200004b620004ee60201b60201c565b620004f660201b60201c565b600073ffffffffffffffffffffffffffffffffffffffff168573ffffffffffffffffffffffffffffffffffffffff161415620000ca576040517f08c379a0000000000000000000000000000000000000000000000000000000008152600401620000c19062000e0e565b60405180910390fd5b600073ffffffffffffffffffffffffffffffffffffffff168473ffffffffffffffffffffffffffffffffffffffff1614156200013d576040517f08c379a0000000000000000000000000000000000000000000000000000000008152600401620001349062000da8565b60405180910390fd5b600073ffffffffffffffffffffffffffffffffffffffff168373ffffffffffffffffffffffffffffffffffffffff161415620001b0576040517f08c379a0000000000000000000000000000000000000000000000000000000008152600401620001a79062000e74565b60405180910390fd5b600073ffffffffffffffffffffffffffffffffffffffff168273ffffffffffffffffffffffffffffffffffffffff16141562000223576040517f08c379a00000000000000000000000000000000000000000000000000000000081526004016200021a9062000dec565b60405180910390fd5b84600160000160006101000a81548173ffffffffffffffffffffffffffffffffffffffff021916908373ffffffffffffffffffffffffffffffffffffffff160217905550836001800160006101000a81548173ffffffffffffffffffffffffffffffffffffffff021916908373ffffffffffffffffffffffffffffffffffffffff16021790555082600160030160006101000a81548173ffffffffffffffffffffffffffffffffffffffff021916908373ffffffffffffffffffffffffffffffffffffffff16021790555081600160040160006101000a81548173ffffffffffffffffffffffffffffffffffffffff021916908373ffffffffffffffffffffffffffffffffffffffff16021790555060018060010160146101000a81548160ff021916908315150217905550620003a1827fffffffffffffffffffffffffffffffffffffffffffffffffffffffffffffffff8573ffffffffffffffffffffffffffffffffffffffff16620005ba60201b620014d3179092919060201c565b60006001905060008251146200044d57600160000160009054906101000a900473ffffffffffffffffffffffffffffffffffffffff1673ffffffffffffffffffffffffffffffffffffffff1663bd1c448b82846040518363ffffffff1660e01b81526004016200041392919062000eb3565b600060405180830381600087803b1580156200042e57600080fd5b505af115801562000443573d6000803e3d6000fd5b50505050620004e2565b600160000160009054906101000a900473ffffffffffffffffffffffffffffffffffffffff1673ffffffffffffffffffffffffffffffffffffffff1663ad3915c8826040518263ffffffff1660e01b8152600401620004ad919062000e96565b600060405180830381600087803b158015620004c857600080fd5b505af1158015620004dd573d6000803e3d6000fd5b505050505b5050505050506200130f565b600033905090565b60008060009054906101000a900473ffffffffffffffffffffffffffffffffffffffff169050816000806101000a81548173ffffffffffffffffffffffffffffffffffffffff021916908373ffffffffffffffffffffffffffffffffffffffff1602179055508173ffffffffffffffffffffffffffffffffffffffff168173ffffffffffffffffffffffffffffffffffffffff167f8be0079c531659141344cd1fd0a4f28419497f9722a3daafe3b4186f6b6457e060405160405180910390a35050565b6000818473ffffffffffffffffffffffffffffffffffffffff1663dd62ed3e30866040518363ffffffff1660e01b8152600401620005fa92919062000d2a565b60206040518083038186803b1580156200061357600080fd5b505afa15801562000628573d6000803e3d6000fd5b505050506040513d601f19601f820116820180604052508101906200064e919062000b3a565b6200065a919062000f78565b9050620006e78463095ea7b360e01b85846040516024016200067e92919062000d57565b604051602081830303815290604052907bffffffffffffffffffffffffffffffffffffffffffffffffffffffff19166020820180517bffffffffffffffffffffffffffffffffffffffffffffffffffffffff8381831617835250505050620006ed60201b60201c565b50505050565b600062000756826040518060400160405280602081526020017f5361666545524332303a206c6f772d6c6576656c2063616c6c206661696c65648152508573ffffffffffffffffffffffffffffffffffffffff16620007c160201b620015f4179092919060201c565b9050600081511115620007bc578080602001905181019062000779919062000a73565b620007bb576040517f08c379a0000000000000000000000000000000000000000000000000000000008152600401620007b29062000e52565b60405180910390fd5b5b505050565b6060620007d88484600085620007e160201b60201c565b90509392505050565b60608247101562000829576040517f08c379a0000000000000000000000000000000000000000000000000000000008152600401620008209062000dca565b60405180910390fd5b6200083a856200090f60201b60201c565b6200087c576040517f08c379a0000000000000000000000000000000000000000000000000000000008152600401620008739062000e30565b60405180910390fd5b6000808673ffffffffffffffffffffffffffffffffffffffff168587604051620008a7919062000d11565b60006040518083038185875af1925050503d8060008114620008e6576040519150601f19603f3d011682016040523d82523d6000602084013e620008eb565b606091505b5091509150620009038282866200092260201b60201c565b92505050949350505050565b600080823b905060008111915050919050565b60608315620009345782905062000987565b600083511115620009485782518084602001fd5b816040517f08c379a00000000000000000000000000000000000000000000000000000000081526004016200097e919062000d84565b60405180910390fd5b9392505050565b6000620009a56200099f8462000f10565b62000ee7565b905082815260208101848484011115620009be57600080fd5b620009cb84828562001047565b509392505050565b600081519050620009e4816200128d565b92915050565b600081519050620009fb81620012a7565b92915050565b60008151905062000a1281620012c1565b92915050565b60008151905062000a2981620012db565b92915050565b600082601f83011262000a4157600080fd5b815162000a538482602086016200098e565b91505092915050565b60008151905062000a6d81620012f5565b92915050565b60006020828403121562000a8657600080fd5b600062000a9684828501620009ea565b91505092915050565b600080600080600060a0868803121562000ab857600080fd5b600062000ac88882890162000a18565b955050602062000adb8882890162000a01565b945050604062000aee88828901620009d3565b935050606062000b0188828901620009d3565b925050608086015167ffffffffffffffff81111562000b1f57600080fd5b62000b2d8882890162000a2f565b9150509295509295909350565b60006020828403121562000b4d57600080fd5b600062000b5d8482850162000a5c565b91505092915050565b62000b718162000fd5565b82525050565b600062000b848262000f46565b62000b90818562000f5c565b935062000ba281856020860162001047565b80840191505092915050565b600062000bbb8262000f51565b62000bc7818562000f67565b935062000bd981856020860162001047565b62000be48162001111565b840191505092915050565b600062000bfe601f8362000f67565b915062000c0b8262001122565b602082019050919050565b600062000c2560268362000f67565b915062000c32826200114b565b604082019050919050565b600062000c4c60208362000f67565b915062000c59826200119a565b602082019050919050565b600062000c7360208362000f67565b915062000c8082620011c3565b602082019050919050565b600062000c9a601d8362000f67565b915062000ca782620011ec565b602082019050919050565b600062000cc1602a8362000f67565b915062000cce8262001215565b604082019050919050565b600062000ce860208362000f67565b915062000cf58262001264565b602082019050919050565b62000d0b816200103d565b82525050565b600062000d1f828462000b77565b915081905092915050565b600060408201905062000d41600083018562000b66565b62000d50602083018462000b66565b9392505050565b600060408201905062000d6e600083018562000b66565b62000d7d602083018462000d00565b9392505050565b6000602082019050818103600083015262000da0818462000bae565b905092915050565b6000602082019050818103600083015262000dc38162000bef565b9050919050565b6000602082019050818103600083015262000de58162000c16565b9050919050565b6000602082019050818103600083015262000e078162000c3d565b9050919050565b6000602082019050818103600083015262000e298162000c64565b9050919050565b6000602082019050818103600083015262000e4b8162000c8b565b9050919050565b6000602082019050818103600083015262000e6d8162000cb2565b9050919050565b6000602082019050818103600083015262000e8f8162000cd9565b9050919050565b600060208201905062000ead600083018462000d00565b92915050565b600060408201905062000eca600083018562000d00565b818103602083015262000ede818462000bae565b90509392505050565b600062000ef362000f06565b905062000f0182826200107d565b919050565b6000604051905090565b600067ffffffffffffffff82111562000f2e5762000f2d620010e2565b5b62000f398262001111565b9050602081019050919050565b600081519050919050565b600081519050919050565b600081905092915050565b600082825260208201905092915050565b600062000f85826200103d565b915062000f92836200103d565b9250827fffffffffffffffffffffffffffffffffffffffffffffffffffffffffffffffff0382111562000fca5762000fc9620010b3565b5b828201905092915050565b600062000fe2826200101d565b9050919050565b60008115159050919050565b6000620010028262000fd5565b9050919050565b6000620010168262000fd5565b9050919050565b600073ffffffffffffffffffffffffffffffffffffffff82169050919050565b6000819050919050565b60005b83811015620010675780820151818401526020810190506200104a565b8381111562001077576000848401525b50505050565b620010888262001111565b810181811067ffffffffffffffff82111715620010aa57620010a9620010e2565b5b80604052505050565b7f4e487b7100000000000000000000000000000000000000000000000000000000600052601160045260246000fd5b7f4e487b7100000000000000000000000000000000000000000000000000000000600052604160045260246000fd5b6000601f19601f8301169050919050565b7f644865646765436f72653a20434641206164647265737320696e76616c696400600082015250565b7f416464726573733a20696e73756666696369656e742062616c616e636520666f60008201527f722063616c6c0000000000000000000000000000000000000000000000000000602082015250565b7f644865646765436f72653a2042616e6b206164647265737320696e76616c6964600082015250565b7f644865646765436f72653a20486f7374206164647265737320696e76616c6964600082015250565b7f416464726573733a2063616c6c20746f206e6f6e2d636f6e7472616374000000600082015250565b7f5361666545524332303a204552433230206f7065726174696f6e20646964206e60008201527f6f74207375636365656400000000000000000000000000000000000000000000602082015250565b7f644865646765436f72653a20506f6f6c206164647265737320696e76616c6964600082015250565b620012988162000fd5565b8114620012a457600080fd5b50565b620012b28162000fe9565b8114620012be57600080fd5b50565b620012cc8162000ff5565b8114620012d857600080fd5b50565b620012e68162001009565b8114620012f257600080fd5b50565b62001300816200103d565b81146200130c57600080fd5b50565b613262806200131f6000396000f3fe608060405234801561001057600080fd5b50600436106101425760003560e01c8063715018a6116100b8578063a1dacb1c1161007c578063a1dacb1c1461034f578063d335015514610359578063d86ed3e514610377578063db34227c146103a7578063f1d640b0146103c3578063f2fde38b146103e257610142565b8063715018a614610297578063884d1f40146102a15780638da5cb5b146102d15780638e8101bd146102ef578063911f94e11461031f57610142565b8063525f45fb1161010a578063525f45fb146101d757806353be974f146101f357806353c11f9914610211578063591f7ea5146102415780635f9e7d771461024b5780636ff1c9bc1461027b57610142565b8063230dbd29146101475780632ea31c18146101775780633059c9011461018157806330d9c9151461019d578063444cf9c8146101cd575b600080fd5b610161600480360381019061015c9190612463565b6103fe565b60405161016e9190612959565b60405180910390f35b61017f610530565b005b61019b60048036038101906101969190612583565b610560565b005b6101b760048036038101906101b291906123b3565b6105cf565b6040516101c49190612959565b60405180910390f35b6101d5610793565b005b6101f160048036038101906101ec919061220c565b610807565b005b6101fb61087e565b6040516102089190612915565b60405180910390f35b61022b60048036038101906102269190612463565b610897565b6040516102389190612959565b60405180910390f35b6102496109c9565b005b610265600480360381019061026091906123b3565b610a43565b6040516102729190612959565b60405180910390f35b6102956004803603810190610290919061220c565b610b2e565b005b61029f610bf4565b005b6102bb60048036038101906102b691906123b3565b610c7c565b6040516102c89190612959565b60405180910390f35b6102d9610d6f565b6040516102e69190612871565b60405180910390f35b6103096004803603810190610304919061220c565b610d98565b6040516103169190612c1d565b60405180910390f35b610339600480360381019061033491906122ad565b610e2d565b6040516103469190612c1d565b60405180910390f35b610357610ec5565b005b610361610f31565b60405161036e9190612871565b60405180910390f35b610391600480360381019061038c9190612463565b610f5e565b60405161039e9190612959565b60405180910390f35b6103c160048036038101906103bc91906122e9565b6112d5565b005b6103cb611347565b6040516103d9929190612930565b60405180910390f35b6103fc60048036038101906103f7919061220c565b6113db565b005b606061040861160c565b610411896116a1565b6104dc85858080601f016020809104026020016040519081016040528093929190818152602001838380828437600081840152601f19601f820116905080830192505050505050508b73ffffffffffffffffffffffffffffffffffffffff1663ee719bc86040518163ffffffff1660e01b815260040160206040518083038186803b15801561049f57600080fd5b505afa1580156104b3573d6000803e3d6000fd5b505050506040513d601f19601f820116820180604052508101906104d79190612235565b611783565b82828080601f016020809104026020016040519081016040528093929190818152602001838380828437600081840152601f19601f8201169050808301925050505050505090509998505050505050505050565b61053933611890565b610541611908565b60006001800160146101000a81548160ff021916908315150217905550565b600173e72C5c7B84ae98C19BdC5cC9460C3f436ce5f83063589d14409091836040518363ffffffff1660e01b815260040161059c929190612bf4565b60006040518083038186803b1580156105b457600080fd5b505af41580156105c8573d6000803e3d6000fd5b5050505050565b60606105d961160c565b6105e2876116a1565b6105ea611908565b60008873ffffffffffffffffffffffffffffffffffffffff1663ee719bc86040518163ffffffff1660e01b815260040160206040518083038186803b15801561063257600080fd5b505afa158015610646573d6000803e3d6000fd5b505050506040513d601f19601f8201168201806040525081019061066a9190612235565b9050600173e72C5c7B84ae98C19BdC5cC9460C3f436ce5f83063448c57229091836040518363ffffffff1660e01b81526004016106a8929190612b18565b60206040518083038186803b1580156106c057600080fd5b505af41580156106d4573d6000803e3d6000fd5b505050506040513d601f19601f820116820180604052508101906106f89190612325565b610737576040517f08c379a000000000000000000000000000000000000000000000000000000000815260040161072e90612add565b60405180910390fd5b61078584848080601f016020809104026020016040519081016040528093929190818152602001838380828437600081840152601f19601f820116905080830192505050505050508261195b565b915050979650505050505050565b61079b611908565b600173e72C5c7B84ae98C19BdC5cC9460C3f436ce5f83063defff49390916040518263ffffffff1660e01b81526004016107d59190612afd565b60006040518083038186803b1580156107ed57600080fd5b505af4158015610801573d6000803e3d6000fd5b50505050565b61080f611908565b600173e72C5c7B84ae98C19BdC5cC9460C3f436ce5f83063394110d19091836040518363ffffffff1660e01b815260040161084b929190612b18565b60006040518083038186803b15801561086357600080fd5b505af4158015610877573d6000803e3d6000fd5b5050505050565b60006001800160149054906101000a900460ff16905090565b60606108a161160c565b6108aa896116a1565b61097585858080601f016020809104026020016040519081016040528093929190818152602001838380828437600081840152601f19601f820116905080830192505050505050508b73ffffffffffffffffffffffffffffffffffffffff1663ee719bc86040518163ffffffff1660e01b815260040160206040518083038186803b15801561093857600080fd5b505afa15801561094c573d6000803e3d6000fd5b505050506040513d601f19601f820116820180604052508101906109709190612235565b611783565b82828080601f016020809104026020016040519081016040528093929190818152602001838380828437600081840152601f19601f8201169050808301925050505050505090509998505050505050505050565b6109d233611890565b6001800160149054906101000a900460ff1615610a24576040517f08c379a0000000000000000000000000000000000000000000000000000000008152600401610a1b90612a1d565b60405180910390fd5b60018060010160146101000a81548160ff021916908315150217905550565b6060610a4d61160c565b610a56876116a1565b610b2183838080601f016020809104026020016040519081016040528093929190818152602001838380828437600081840152601f19601f820116905080830192505050505050508973ffffffffffffffffffffffffffffffffffffffff1663ee719bc86040518163ffffffff1660e01b815260040160206040518083038186803b158015610ae457600080fd5b505afa158015610af8573d6000803e3d6000fd5b505050506040513d601f19601f82011682018060405250810190610b1c9190612235565b61195b565b9050979650505050505050565b610b3733611890565b610bf1610b42610d6f565b8273ffffffffffffffffffffffffffffffffffffffff166370a08231306040518263ffffffff1660e01b8152600401610b7b9190612871565b60206040518083038186803b158015610b9357600080fd5b505afa158015610ba7573d6000803e3d6000fd5b505050506040513d601f19601f82011682018060405250810190610bcb91906125ac565b8373ffffffffffffffffffffffffffffffffffffffff16611b629092919063ffffffff16565b50565b610bfc611be8565b73ffffffffffffffffffffffffffffffffffffffff16610c1a610d6f565b73ffffffffffffffffffffffffffffffffffffffff1614610c70576040517f08c379a0000000000000000000000000000000000000000000000000000000008152600401610c6790612a5d565b60405180910390fd5b610c7a6000611bf0565b565b6060610c8661160c565b610c8f876116a1565b610c97611908565b610d6283838080601f016020809104026020016040519081016040528093929190818152602001838380828437600081840152601f19601f820116905080830192505050505050508973ffffffffffffffffffffffffffffffffffffffff1663ee719bc86040518163ffffffff1660e01b815260040160206040518083038186803b158015610d2557600080fd5b505afa158015610d39573d6000803e3d6000fd5b505050506040513d601f19601f82011682018060405250810190610d5d9190612235565b61195b565b9050979650505050505050565b60008060009054906101000a900473ffffffffffffffffffffffffffffffffffffffff16905090565b6000600173e72C5c7B84ae98C19BdC5cC9460C3f436ce5f8306325f848169091846040518363ffffffff1660e01b8152600401610dd6929190612b18565b60206040518083038186803b158015610dee57600080fd5b505af4158015610e02573d6000803e3d6000fd5b505050506040513d601f19601f82011682018060405250810190610e2691906125ac565b9050919050565b6000600173e72C5c7B84ae98C19BdC5cC9460C3f436ce5f830631740215d909185856040518463ffffffff1660e01b8152600401610e6d93929190612b41565b60206040518083038186803b158015610e8557600080fd5b505af4158015610e99573d6000803e3d6000fd5b505050506040513d601f19601f82011682018060405250810190610ebd91906125ac565b905092915050565b600173e72C5c7B84ae98C19BdC5cC9460C3f436ce5f83063b8f64b4b90916040518263ffffffff1660e01b8152600401610eff9190612afd565b60006040518083038186803b158015610f1757600080fd5b505af4158015610f2b573d6000803e3d6000fd5b50505050565b6000600160030160009054906101000a900473ffffffffffffffffffffffffffffffffffffffff16905090565b6060610f6861160c565b610f71896116a1565b60008a73ffffffffffffffffffffffffffffffffffffffff1663ee719bc86040518163ffffffff1660e01b815260040160206040518083038186803b158015610fb957600080fd5b505afa158015610fcd573d6000803e3d6000fd5b505050506040513d601f19601f82011682018060405250810190610ff19190612235565b9050600073ffffffffffffffffffffffffffffffffffffffff16600160060160008373ffffffffffffffffffffffffffffffffffffffff1673ffffffffffffffffffffffffffffffffffffffff16815260200190815260200160002060000160009054906101000a900473ffffffffffffffffffffffffffffffffffffffff1673ffffffffffffffffffffffffffffffffffffffff161415611232576001600501819080600181540180825580915050600190039060005260206000200160009091909190916101000a81548173ffffffffffffffffffffffffffffffffffffffff021916908373ffffffffffffffffffffffffffffffffffffffff1602179055508a600160060160008373ffffffffffffffffffffffffffffffffffffffff1673ffffffffffffffffffffffffffffffffffffffff16815260200190815260200160002060000160006101000a81548173ffffffffffffffffffffffffffffffffffffffff021916908373ffffffffffffffffffffffffffffffffffffffff16021790555060018060060160008373ffffffffffffffffffffffffffffffffffffffff1673ffffffffffffffffffffffffffffffffffffffff16815260200190815260200160002060010181905550611231600160030160009054906101000a900473ffffffffffffffffffffffffffffffffffffffff167fffffffffffffffffffffffffffffffffffffffffffffffffffffffffffffffff8373ffffffffffffffffffffffffffffffffffffffff166114d39092919063ffffffff16565b5b61128086868080601f016020809104026020016040519081016040528093929190818152602001838380828437600081840152601f19601f8201169050808301925050505050505082611783565b83838080601f016020809104026020016040519081016040528093929190818152602001838380828437600081840152601f19601f820116905080830192505050505050509150509998505050505050505050565b600173e72C5c7B84ae98C19BdC5cC9460C3f436ce5f83063ae24b8a3909184846040518463ffffffff1660e01b815260040161131393929190612bbd565b60006040518083038186803b15801561132b57600080fd5b505af415801561133f573d6000803e3d6000fd5b505050505050565b600080600173e72C5c7B84ae98C19BdC5cC9460C3f436ce5f83063832a95fd90916040518263ffffffff1660e01b81526004016113849190612afd565b604080518083038186803b15801561139b57600080fd5b505af41580156113af573d6000803e3d6000fd5b505050506040513d601f19601f820116820180604052508101906113d3919061234e565b915091509091565b6113e3611be8565b73ffffffffffffffffffffffffffffffffffffffff16611401610d6f565b73ffffffffffffffffffffffffffffffffffffffff1614611457576040517f08c379a000000000000000000000000000000000000000000000000000000000815260040161144e90612a5d565b60405180910390fd5b600073ffffffffffffffffffffffffffffffffffffffff168173ffffffffffffffffffffffffffffffffffffffff1614156114c7576040517f08c379a00000000000000000000000000000000000000000000000000000000081526004016114be906129bd565b60405180910390fd5b6114d081611bf0565b50565b6000818473ffffffffffffffffffffffffffffffffffffffff1663dd62ed3e30866040518363ffffffff1660e01b815260040161151192919061288c565b60206040518083038186803b15801561152957600080fd5b505afa15801561153d573d6000803e3d6000fd5b505050506040513d601f19601f8201168201806040525081019061156191906125ac565b61156b9190612cd1565b90506115ee8463095ea7b360e01b858460405160240161158c9291906128b5565b604051602081830303815290604052907bffffffffffffffffffffffffffffffffffffffffffffffffffffffff19166020820180517bffffffffffffffffffffffffffffffffffffffffffffffffffffffff8381831617835250505050611cb4565b50505050565b60606116038484600085611d7b565b90509392505050565b600160000160009054906101000a900473ffffffffffffffffffffffffffffffffffffffff1673ffffffffffffffffffffffffffffffffffffffff163373ffffffffffffffffffffffffffffffffffffffff161461169f576040517f08c379a00000000000000000000000000000000000000000000000000000000081526004016116969061299d565b60405180910390fd5b565b7fa9214cc96615e0085d3bb077758db69497dc2dce3b2b1e97bc93c3d18d83efd38173ffffffffffffffffffffffffffffffffffffffff16637730599e6040518163ffffffff1660e01b815260040160206040518083038186803b15801561170857600080fd5b505afa15801561171c573d6000803e3d6000fd5b505050506040513d601f19601f82011682018060405250810190611740919061238a565b14611780576040517f08c379a000000000000000000000000000000000000000000000000000000000815260040161177790612a3d565b60405180910390fd5b50565b60008060008480602001905181019061179c919061225e565b9250925092506000600160070160008573ffffffffffffffffffffffffffffffffffffffff1673ffffffffffffffffffffffffffffffffffffffff16815260200190815260200160002060008673ffffffffffffffffffffffffffffffffffffffff1673ffffffffffffffffffffffffffffffffffffffff168152602001908152602001600020905061183a838383611e8f9092919063ffffffff16565b600160060160008673ffffffffffffffffffffffffffffffffffffffff1673ffffffffffffffffffffffffffffffffffffffff168152602001908152602001600020600101548160000181905550505050505050565b611898610d6f565b73ffffffffffffffffffffffffffffffffffffffff168173ffffffffffffffffffffffffffffffffffffffff1614611905576040517f08c379a00000000000000000000000000000000000000000000000000000000081526004016118fc906129dd565b60405180910390fd5b50565b6001800160149054906101000a900460ff16611959576040517f08c379a000000000000000000000000000000000000000000000000000000000815260040161195090612a7d565b60405180910390fd5b565b60606000600160000160009054906101000a900473ffffffffffffffffffffffffffffffffffffffff1673ffffffffffffffffffffffffffffffffffffffff16633f6c923a856040518263ffffffff1660e01b81526004016119bd9190612959565b60006040518083038186803b1580156119d557600080fd5b505afa1580156119e9573d6000803e3d6000fd5b505050506040513d6000823e3d601f19601f82011682018060405250810190611a129190612542565b60600151905080600173e72C5c7B84ae98C19BdC5cC9460C3f436ce5f830631740215d909184876040518463ffffffff1660e01b8152600401611a5793929190612b41565b60206040518083038186803b158015611a6f57600080fd5b505af4158015611a83573d6000803e3d6000fd5b505050506040513d601f19601f82011682018060405250810190611aa791906125ac565b600173e72C5c7B84ae98C19BdC5cC9460C3f436ce5f830638cc822af9091858860006040518563ffffffff1660e01b8152600401611ae89493929190612b78565b60206040518083038186803b158015611b0057600080fd5b505af4158015611b14573d6000803e3d6000fd5b505050506040513d601f19601f82011682018060405250810190611b3891906125ac565b604051602001611b4a939291906128de565b60405160208183030381529060405291505092915050565b611be38363a9059cbb60e01b8484604051602401611b819291906128b5565b604051602081830303815290604052907bffffffffffffffffffffffffffffffffffffffffffffffffffffffff19166020820180517bffffffffffffffffffffffffffffffffffffffffffffffffffffffff8381831617835250505050611cb4565b505050565b600033905090565b60008060009054906101000a900473ffffffffffffffffffffffffffffffffffffffff169050816000806101000a81548173ffffffffffffffffffffffffffffffffffffffff021916908373ffffffffffffffffffffffffffffffffffffffff1602179055508173ffffffffffffffffffffffffffffffffffffffff168173ffffffffffffffffffffffffffffffffffffffff167f8be0079c531659141344cd1fd0a4f28419497f9722a3daafe3b4186f6b6457e060405160405180910390a35050565b6000611d16826040518060400160405280602081526020017f5361666545524332303a206c6f772d6c6576656c2063616c6c206661696c65648152508573ffffffffffffffffffffffffffffffffffffffff166115f49092919063ffffffff16565b9050600081511115611d765780806020019051810190611d369190612325565b611d75576040517f08c379a0000000000000000000000000000000000000000000000000000000008152600401611d6c90612abd565b60405180910390fd5b5b505050565b606082471015611dc0576040517f08c379a0000000000000000000000000000000000000000000000000000000008152600401611db7906129fd565b60405180910390fd5b611dc985611eaf565b611e08576040517f08c379a0000000000000000000000000000000000000000000000000000000008152600401611dff90612a9d565b60405180910390fd5b6000808673ffffffffffffffffffffffffffffffffffffffff168587604051611e31919061285a565b60006040518083038185875af1925050503d8060008114611e6e576040519150601f19603f3d011682016040523d82523d6000602084013e611e73565b606091505b5091509150611e83828286611ec2565b92505050949350505050565b818360010181905550808360020181905550428360030181905550505050565b600080823b905060008111915050919050565b60608315611ed257829050611f22565b600083511115611ee55782518084602001fd5b816040517f08c379a0000000000000000000000000000000000000000000000000000000008152600401611f19919061297b565b60405180910390fd5b9392505050565b6000611f3c611f3784612c5d565b612c38565b905082815260208101848484011115611f5457600080fd5b611f5f848285612df2565b509392505050565b600081359050611f7681613146565b92915050565b600081519050611f8b81613146565b92915050565b600081519050611fa08161315d565b92915050565b600081519050611fb581613174565b92915050565b600081359050611fca8161318b565b92915050565b600081519050611fdf8161318b565b92915050565b600081519050611ff4816131a2565b92915050565b60008083601f84011261200c57600080fd5b8235905067ffffffffffffffff81111561202557600080fd5b60208301915083600182028301111561203d57600080fd5b9250929050565b600082601f83011261205557600080fd5b8151612065848260208601611f29565b91505092915050565b60008135905061207d816131b9565b92915050565b600081519050612092816131d0565b92915050565b6000815190506120a7816131e7565b92915050565b600061016082840312156120c057600080fd5b6120cb610160612c38565b905060006120db848285016121f7565b60008301525060206120ef848285016121f7565b6020830152506040612103848285016121e2565b604083015250606061211784828501611f7c565b606083015250608061212b84828501611fe5565b60808301525060a082015167ffffffffffffffff81111561214b57600080fd5b61215784828501612044565b60a08301525060c061216b848285016121e2565b60c08301525060e061217f848285016121e2565b60e08301525061010061219484828501612098565b610100830152506101206121aa84828501611f7c565b610120830152506101406121c084828501612083565b6101408301525092915050565b6000813590506121dc816131fe565b92915050565b6000815190506121f1816131fe565b92915050565b60008151905061220681613215565b92915050565b60006020828403121561221e57600080fd5b600061222c84828501611f67565b91505092915050565b60006020828403121561224757600080fd5b600061225584828501611f7c565b91505092915050565b60008060006060848603121561227357600080fd5b600061228186828701611f91565b9350506020612292868287016121e2565b92505060406122a3868287016121e2565b9150509250925092565b600080604083850312156122c057600080fd5b60006122ce85828601611f67565b92505060206122df85828601611f67565b9150509250929050565b600080604083850312156122fc57600080fd5b600061230a85828601611f67565b925050602061231b858286016121cd565b9150509250929050565b60006020828403121561233757600080fd5b600061234584828501611fa6565b91505092915050565b6000806040838503121561236157600080fd5b600061236f85828601611fa6565b925050602061238085828601611f7c565b9150509250929050565b60006020828403121561239c57600080fd5b60006123aa84828501611fd0565b91505092915050565b600080600080600080600060a0888a0312156123ce57600080fd5b60006123dc8a828b0161206e565b97505060206123ed8a828b01611f67565b96505060406123fe8a828b01611fbb565b955050606088013567ffffffffffffffff81111561241b57600080fd5b6124278a828b01611ffa565b9450945050608088013567ffffffffffffffff81111561244657600080fd5b6124528a828b01611ffa565b925092505092959891949750929550565b600080600080600080600080600060c08a8c03121561248157600080fd5b600061248f8c828d0161206e565b99505060206124a08c828d01611f67565b98505060406124b18c828d01611fbb565b97505060608a013567ffffffffffffffff8111156124ce57600080fd5b6124da8c828d01611ffa565b965096505060808a013567ffffffffffffffff8111156124f957600080fd5b6125058c828d01611ffa565b945094505060a08a013567ffffffffffffffff81111561252457600080fd5b6125308c828d01611ffa565b92509250509295985092959850929598565b60006020828403121561255457600080fd5b600082015167ffffffffffffffff81111561256e57600080fd5b61257a848285016120ad565b91505092915050565b60006020828403121561259557600080fd5b60006125a3848285016121cd565b91505092915050565b6000602082840312156125be57600080fd5b60006125cc848285016121e2565b91505092915050565b6125de81612d27565b82525050565b6125ed81612d27565b82525050565b6125fc81612d4b565b82525050565b61260b81612d4b565b82525050565b600061261c82612c8e565b6126268185612ca4565b9350612636818560208601612df2565b61263f81612eb4565b840191505092915050565b600061265582612c8e565b61265f8185612cb5565b935061266f818560208601612df2565b80840191505092915050565b600061268682612c99565b6126908185612cc0565b93506126a0818560208601612df2565b6126a981612eb4565b840191505092915050565b60006126c1602283612cc0565b91506126cc82612ec5565b604082019050919050565b60006126e4602683612cc0565b91506126ef82612f14565b604082019050919050565b6000612707601983612cc0565b915061271282612f63565b602082019050919050565b600061272a602683612cc0565b915061273582612f8c565b604082019050919050565b600061274d601f83612cc0565b915061275882612fdb565b602082019050919050565b6000612770602183612cc0565b915061277b82613004565b604082019050919050565b6000612793602083612cc0565b915061279e82613053565b602082019050919050565b60006127b6601983612cc0565b91506127c18261307c565b602082019050919050565b60006127d9601d83612cc0565b91506127e4826130a5565b602082019050919050565b60006127fc602a83612cc0565b9150612807826130ce565b604082019050919050565b600061281f601783612cc0565b915061282a8261311d565b602082019050919050565b8082525050565b61284581612ddb565b82525050565b61285481612ddb565b82525050565b6000612866828461264a565b915081905092915050565b600060208201905061288660008301846125d5565b92915050565b60006040820190506128a160008301856125d5565b6128ae60208301846125d5565b9392505050565b60006040820190506128ca60008301856125d5565b6128d7602083018461283c565b9392505050565b60006060820190506128f360008301866125d5565b612900602083018561283c565b61290d604083018461283c565b949350505050565b600060208201905061292a60008301846125f3565b92915050565b600060408201905061294560008301856125f3565b61295260208301846125d5565b9392505050565b600060208201905081810360008301526129738184612611565b905092915050565b60006020820190508181036000830152612995818461267b565b905092915050565b600060208201905081810360008301526129b6816126b4565b9050919050565b600060208201905081810360008301526129d6816126d7565b9050919050565b600060208201905081810360008301526129f6816126fa565b9050919050565b60006020820190508181036000830152612a168161271d565b9050919050565b60006020820190508181036000830152612a3681612740565b9050919050565b60006020820190508181036000830152612a5681612763565b9050919050565b60006020820190508181036000830152612a7681612786565b9050919050565b60006020820190508181036000830152612a96816127a9565b9050919050565b60006020820190508181036000830152612ab6816127cc565b9050919050565b60006020820190508181036000830152612ad6816127ef565b9050919050565b60006020820190508181036000830152612af681612812565b9050919050565b6000602082019050612b126000830184612835565b92915050565b6000604082019050612b2d6000830185612835565b612b3a60208301846125e4565b9392505050565b6000606082019050612b566000830186612835565b612b6360208301856125e4565b612b7060408301846125e4565b949350505050565b6000608082019050612b8d6000830187612835565b612b9a60208301866125e4565b612ba760408301856125e4565b612bb46060830184612602565b95945050505050565b6000606082019050612bd26000830186612835565b612bdf60208301856125e4565b612bec604083018461284b565b949350505050565b6000604082019050612c096000830185612835565b612c16602083018461284b565b9392505050565b6000602082019050612c32600083018461283c565b92915050565b6000612c42612c53565b9050612c4e8282612e25565b919050565b6000604051905090565b600067ffffffffffffffff821115612c7857612c77612e85565b5b612c8182612eb4565b9050602081019050919050565b600081519050919050565b600081519050919050565b600082825260208201905092915050565b600081905092915050565b600082825260208201905092915050565b6000612cdc82612ddb565b9150612ce783612ddb565b9250827fffffffffffffffffffffffffffffffffffffffffffffffffffffffffffffffff03821115612d1c57612d1b612e56565b5b828201905092915050565b6000612d3282612dbb565b9050919050565b6000612d4482612dbb565b9050919050565b60008115159050919050565b6000819050919050565b60007fffffffff0000000000000000000000000000000000000000000000000000000082169050919050565b6000612d9882612d27565b9050919050565b6000612daa82612d27565b9050919050565b6000819050919050565b600073ffffffffffffffffffffffffffffffffffffffff82169050919050565b6000819050919050565b600060ff82169050919050565b60005b83811015612e10578082015181840152602081019050612df5565b83811115612e1f576000848401525b50505050565b612e2e82612eb4565b810181811067ffffffffffffffff82111715612e4d57612e4c612e85565b5b80604052505050565b7f4e487b7100000000000000000000000000000000000000000000000000000000600052601160045260246000fd5b7f4e487b7100000000000000000000000000000000000000000000000000000000600052604160045260246000fd5b6000601f19601f8301169050919050565b7f644865646765436f72653a20537570706f727473206f6e6c79206f6e6520686f60008201527f7374000000000000000000000000000000000000000000000000000000000000602082015250565b7f4f776e61626c653a206e6577206f776e657220697320746865207a65726f206160008201527f6464726573730000000000000000000000000000000000000000000000000000602082015250565b7f644865646765436f72653a204e6f7420746865206f776e657200000000000000600082015250565b7f416464726573733a20696e73756666696369656e742062616c616e636520666f60008201527f722063616c6c0000000000000000000000000000000000000000000000000000602082015250565b7f644865646765436f72653a20506f6f6c20616c72656164792061637469766500600082015250565b7f644865646765436f72653a20537570706f727473206f6e6c79206f6e6520434660008201527f4100000000000000000000000000000000000000000000000000000000000000602082015250565b7f4f776e61626c653a2063616c6c6572206973206e6f7420746865206f776e6572600082015250565b7f644865646765436f72653a20506f6f6c20696e61637469766500000000000000600082015250565b7f416464726573733a2063616c6c20746f206e6f6e2d636f6e7472616374000000600082015250565b7f5361666545524332303a204552433230206f7065726174696f6e20646964206e60008201527f6f74207375636365656400000000000000000000000000000000000000000000602082015250565b7f546f6b656e206e6f74206465706f736974206173736574000000000000000000600082015250565b61314f81612d27565b811461315a57600080fd5b50565b61316681612d39565b811461317157600080fd5b50565b61317d81612d4b565b811461318857600080fd5b50565b61319481612d57565b811461319f57600080fd5b50565b6131ab81612d61565b81146131b657600080fd5b50565b6131c281612d8d565b81146131cd57600080fd5b50565b6131d981612d9f565b81146131e457600080fd5b50565b6131f081612db1565b81146131fb57600080fd5b50565b61320781612ddb565b811461321257600080fd5b50565b61321e81612de5565b811461322957600080fd5b5056fea2646970667358221220ecf044ec4cc606bdc2233e5bcf6539c767d11cb592629ae78cbaf1c94616260264736f6c63430008040033",
  "deployedBytecode": "0x608060405234801561001057600080fd5b50600436106101425760003560e01c8063715018a6116100b8578063a1dacb1c1161007c578063a1dacb1c1461034f578063d335015514610359578063d86ed3e514610377578063db34227c146103a7578063f1d640b0146103c3578063f2fde38b146103e257610142565b8063715018a614610297578063884d1f40146102a15780638da5cb5b146102d15780638e8101bd146102ef578063911f94e11461031f57610142565b8063525f45fb1161010a578063525f45fb146101d757806353be974f146101f357806353c11f9914610211578063591f7ea5146102415780635f9e7d771461024b5780636ff1c9bc1461027b57610142565b8063230dbd29146101475780632ea31c18146101775780633059c9011461018157806330d9c9151461019d578063444cf9c8146101cd575b600080fd5b610161600480360381019061015c9190612463565b6103fe565b60405161016e9190612959565b60405180910390f35b61017f610530565b005b61019b60048036038101906101969190612583565b610560565b005b6101b760048036038101906101b291906123b3565b6105cf565b6040516101c49190612959565b60405180910390f35b6101d5610793565b005b6101f160048036038101906101ec919061220c565b610807565b005b6101fb61087e565b6040516102089190612915565b60405180910390f35b61022b60048036038101906102269190612463565b610897565b6040516102389190612959565b60405180910390f35b6102496109c9565b005b610265600480360381019061026091906123b3565b610a43565b6040516102729190612959565b60405180910390f35b6102956004803603810190610290919061220c565b610b2e565b005b61029f610bf4565b005b6102bb60048036038101906102b691906123b3565b610c7c565b6040516102c89190612959565b60405180910390f35b6102d9610d6f565b6040516102e69190612871565b60405180910390f35b6103096004803603810190610304919061220c565b610d98565b6040516103169190612c1d565b60405180910390f35b610339600480360381019061033491906122ad565b610e2d565b6040516103469190612c1d565b60405180910390f35b610357610ec5565b005b610361610f31565b60405161036e9190612871565b60405180910390f35b610391600480360381019061038c9190612463565b610f5e565b60405161039e9190612959565b60405180910390f35b6103c160048036038101906103bc91906122e9565b6112d5565b005b6103cb611347565b6040516103d9929190612930565b60405180910390f35b6103fc60048036038101906103f7919061220c565b6113db565b005b606061040861160c565b610411896116a1565b6104dc85858080601f016020809104026020016040519081016040528093929190818152602001838380828437600081840152601f19601f820116905080830192505050505050508b73ffffffffffffffffffffffffffffffffffffffff1663ee719bc86040518163ffffffff1660e01b815260040160206040518083038186803b15801561049f57600080fd5b505afa1580156104b3573d6000803e3d6000fd5b505050506040513d601f19601f820116820180604052508101906104d79190612235565b611783565b82828080601f016020809104026020016040519081016040528093929190818152602001838380828437600081840152601f19601f8201169050808301925050505050505090509998505050505050505050565b61053933611890565b610541611908565b60006001800160146101000a81548160ff021916908315150217905550565b600173__$36209bf43a07552564d1a894d44c07e934$__63589d14409091836040518363ffffffff1660e01b815260040161059c929190612bf4565b60006040518083038186803b1580156105b457600080fd5b505af41580156105c8573d6000803e3d6000fd5b5050505050565b60606105d961160c565b6105e2876116a1565b6105ea611908565b60008873ffffffffffffffffffffffffffffffffffffffff1663ee719bc86040518163ffffffff1660e01b815260040160206040518083038186803b15801561063257600080fd5b505afa158015610646573d6000803e3d6000fd5b505050506040513d601f19601f8201168201806040525081019061066a9190612235565b9050600173__$36209bf43a07552564d1a894d44c07e934$__63448c57229091836040518363ffffffff1660e01b81526004016106a8929190612b18565b60206040518083038186803b1580156106c057600080fd5b505af41580156106d4573d6000803e3d6000fd5b505050506040513d601f19601f820116820180604052508101906106f89190612325565b610737576040517f08c379a000000000000000000000000000000000000000000000000000000000815260040161072e90612add565b60405180910390fd5b61078584848080601f016020809104026020016040519081016040528093929190818152602001838380828437600081840152601f19601f820116905080830192505050505050508261195b565b915050979650505050505050565b61079b611908565b600173__$36209bf43a07552564d1a894d44c07e934$__63defff49390916040518263ffffffff1660e01b81526004016107d59190612afd565b60006040518083038186803b1580156107ed57600080fd5b505af4158015610801573d6000803e3d6000fd5b50505050565b61080f611908565b600173__$36209bf43a07552564d1a894d44c07e934$__63394110d19091836040518363ffffffff1660e01b815260040161084b929190612b18565b60006040518083038186803b15801561086357600080fd5b505af4158015610877573d6000803e3d6000fd5b5050505050565b60006001800160149054906101000a900460ff16905090565b60606108a161160c565b6108aa896116a1565b61097585858080601f016020809104026020016040519081016040528093929190818152602001838380828437600081840152601f19601f820116905080830192505050505050508b73ffffffffffffffffffffffffffffffffffffffff1663ee719bc86040518163ffffffff1660e01b815260040160206040518083038186803b15801561093857600080fd5b505afa15801561094c573d6000803e3d6000fd5b505050506040513d601f19601f820116820180604052508101906109709190612235565b611783565b82828080601f016020809104026020016040519081016040528093929190818152602001838380828437600081840152601f19601f8201169050808301925050505050505090509998505050505050505050565b6109d233611890565b6001800160149054906101000a900460ff1615610a24576040517f08c379a0000000000000000000000000000000000000000000000000000000008152600401610a1b90612a1d565b60405180910390fd5b60018060010160146101000a81548160ff021916908315150217905550565b6060610a4d61160c565b610a56876116a1565b610b2183838080601f016020809104026020016040519081016040528093929190818152602001838380828437600081840152601f19601f820116905080830192505050505050508973ffffffffffffffffffffffffffffffffffffffff1663ee719bc86040518163ffffffff1660e01b815260040160206040518083038186803b158015610ae457600080fd5b505afa158015610af8573d6000803e3d6000fd5b505050506040513d601f19601f82011682018060405250810190610b1c9190612235565b61195b565b9050979650505050505050565b610b3733611890565b610bf1610b42610d6f565b8273ffffffffffffffffffffffffffffffffffffffff166370a08231306040518263ffffffff1660e01b8152600401610b7b9190612871565b60206040518083038186803b158015610b9357600080fd5b505afa158015610ba7573d6000803e3d6000fd5b505050506040513d601f19601f82011682018060405250810190610bcb91906125ac565b8373ffffffffffffffffffffffffffffffffffffffff16611b629092919063ffffffff16565b50565b610bfc611be8565b73ffffffffffffffffffffffffffffffffffffffff16610c1a610d6f565b73ffffffffffffffffffffffffffffffffffffffff1614610c70576040517f08c379a0000000000000000000000000000000000000000000000000000000008152600401610c6790612a5d565b60405180910390fd5b610c7a6000611bf0565b565b6060610c8661160c565b610c8f876116a1565b610c97611908565b610d6283838080601f016020809104026020016040519081016040528093929190818152602001838380828437600081840152601f19601f820116905080830192505050505050508973ffffffffffffffffffffffffffffffffffffffff1663ee719bc86040518163ffffffff1660e01b815260040160206040518083038186803b158015610d2557600080fd5b505afa158015610d39573d6000803e3d6000fd5b505050506040513d601f19601f82011682018060405250810190610d5d9190612235565b61195b565b9050979650505050505050565b60008060009054906101000a900473ffffffffffffffffffffffffffffffffffffffff16905090565b6000600173__$36209bf43a07552564d1a894d44c07e934$__6325f848169091846040518363ffffffff1660e01b8152600401610dd6929190612b18565b60206040518083038186803b158015610dee57600080fd5b505af4158015610e02573d6000803e3d6000fd5b505050506040513d601f19601f82011682018060405250810190610e2691906125ac565b9050919050565b6000600173__$36209bf43a07552564d1a894d44c07e934$__631740215d909185856040518463ffffffff1660e01b8152600401610e6d93929190612b41565b60206040518083038186803b158015610e8557600080fd5b505af4158015610e99573d6000803e3d6000fd5b505050506040513d601f19601f82011682018060405250810190610ebd91906125ac565b905092915050565b600173__$36209bf43a07552564d1a894d44c07e934$__63b8f64b4b90916040518263ffffffff1660e01b8152600401610eff9190612afd565b60006040518083038186803b158015610f1757600080fd5b505af4158015610f2b573d6000803e3d6000fd5b50505050565b6000600160030160009054906101000a900473ffffffffffffffffffffffffffffffffffffffff16905090565b6060610f6861160c565b610f71896116a1565b60008a73ffffffffffffffffffffffffffffffffffffffff1663ee719bc86040518163ffffffff1660e01b815260040160206040518083038186803b158015610fb957600080fd5b505afa158015610fcd573d6000803e3d6000fd5b505050506040513d601f19601f82011682018060405250810190610ff19190612235565b9050600073ffffffffffffffffffffffffffffffffffffffff16600160060160008373ffffffffffffffffffffffffffffffffffffffff1673ffffffffffffffffffffffffffffffffffffffff16815260200190815260200160002060000160009054906101000a900473ffffffffffffffffffffffffffffffffffffffff1673ffffffffffffffffffffffffffffffffffffffff161415611232576001600501819080600181540180825580915050600190039060005260206000200160009091909190916101000a81548173ffffffffffffffffffffffffffffffffffffffff021916908373ffffffffffffffffffffffffffffffffffffffff1602179055508a600160060160008373ffffffffffffffffffffffffffffffffffffffff1673ffffffffffffffffffffffffffffffffffffffff16815260200190815260200160002060000160006101000a81548173ffffffffffffffffffffffffffffffffffffffff021916908373ffffffffffffffffffffffffffffffffffffffff16021790555060018060060160008373ffffffffffffffffffffffffffffffffffffffff1673ffffffffffffffffffffffffffffffffffffffff16815260200190815260200160002060010181905550611231600160030160009054906101000a900473ffffffffffffffffffffffffffffffffffffffff167fffffffffffffffffffffffffffffffffffffffffffffffffffffffffffffffff8373ffffffffffffffffffffffffffffffffffffffff166114d39092919063ffffffff16565b5b61128086868080601f016020809104026020016040519081016040528093929190818152602001838380828437600081840152601f19601f8201169050808301925050505050505082611783565b83838080601f016020809104026020016040519081016040528093929190818152602001838380828437600081840152601f19601f820116905080830192505050505050509150509998505050505050505050565b600173__$36209bf43a07552564d1a894d44c07e934$__63ae24b8a3909184846040518463ffffffff1660e01b815260040161131393929190612bbd565b60006040518083038186803b15801561132b57600080fd5b505af415801561133f573d6000803e3d6000fd5b505050505050565b600080600173__$36209bf43a07552564d1a894d44c07e934$__63832a95fd90916040518263ffffffff1660e01b81526004016113849190612afd565b604080518083038186803b15801561139b57600080fd5b505af41580156113af573d6000803e3d6000fd5b505050506040513d601f19601f820116820180604052508101906113d3919061234e565b915091509091565b6113e3611be8565b73ffffffffffffffffffffffffffffffffffffffff16611401610d6f565b73ffffffffffffffffffffffffffffffffffffffff1614611457576040517f08c379a000000000000000000000000000000000000000000000000000000000815260040161144e90612a5d565b60405180910390fd5b600073ffffffffffffffffffffffffffffffffffffffff168173ffffffffffffffffffffffffffffffffffffffff1614156114c7576040517f08c379a00000000000000000000000000000000000000000000000000000000081526004016114be906129bd565b60405180910390fd5b6114d081611bf0565b50565b6000818473ffffffffffffffffffffffffffffffffffffffff1663dd62ed3e30866040518363ffffffff1660e01b815260040161151192919061288c565b60206040518083038186803b15801561152957600080fd5b505afa15801561153d573d6000803e3d6000fd5b505050506040513d601f19601f8201168201806040525081019061156191906125ac565b61156b9190612cd1565b90506115ee8463095ea7b360e01b858460405160240161158c9291906128b5565b604051602081830303815290604052907bffffffffffffffffffffffffffffffffffffffffffffffffffffffff19166020820180517bffffffffffffffffffffffffffffffffffffffffffffffffffffffff8381831617835250505050611cb4565b50505050565b60606116038484600085611d7b565b90509392505050565b600160000160009054906101000a900473ffffffffffffffffffffffffffffffffffffffff1673ffffffffffffffffffffffffffffffffffffffff163373ffffffffffffffffffffffffffffffffffffffff161461169f576040517f08c379a00000000000000000000000000000000000000000000000000000000081526004016116969061299d565b60405180910390fd5b565b7fa9214cc96615e0085d3bb077758db69497dc2dce3b2b1e97bc93c3d18d83efd38173ffffffffffffffffffffffffffffffffffffffff16637730599e6040518163ffffffff1660e01b815260040160206040518083038186803b15801561170857600080fd5b505afa15801561171c573d6000803e3d6000fd5b505050506040513d601f19601f82011682018060405250810190611740919061238a565b14611780576040517f08c379a000000000000000000000000000000000000000000000000000000000815260040161177790612a3d565b60405180910390fd5b50565b60008060008480602001905181019061179c919061225e565b9250925092506000600160070160008573ffffffffffffffffffffffffffffffffffffffff1673ffffffffffffffffffffffffffffffffffffffff16815260200190815260200160002060008673ffffffffffffffffffffffffffffffffffffffff1673ffffffffffffffffffffffffffffffffffffffff168152602001908152602001600020905061183a838383611e8f9092919063ffffffff16565b600160060160008673ffffffffffffffffffffffffffffffffffffffff1673ffffffffffffffffffffffffffffffffffffffff168152602001908152602001600020600101548160000181905550505050505050565b611898610d6f565b73ffffffffffffffffffffffffffffffffffffffff168173ffffffffffffffffffffffffffffffffffffffff1614611905576040517f08c379a00000000000000000000000000000000000000000000000000000000081526004016118fc906129dd565b60405180910390fd5b50565b6001800160149054906101000a900460ff16611959576040517f08c379a000000000000000000000000000000000000000000000000000000000815260040161195090612a7d565b60405180910390fd5b565b60606000600160000160009054906101000a900473ffffffffffffffffffffffffffffffffffffffff1673ffffffffffffffffffffffffffffffffffffffff16633f6c923a856040518263ffffffff1660e01b81526004016119bd9190612959565b60006040518083038186803b1580156119d557600080fd5b505afa1580156119e9573d6000803e3d6000fd5b505050506040513d6000823e3d601f19601f82011682018060405250810190611a129190612542565b60600151905080600173__$36209bf43a07552564d1a894d44c07e934$__631740215d909184876040518463ffffffff1660e01b8152600401611a5793929190612b41565b60206040518083038186803b158015611a6f57600080fd5b505af4158015611a83573d6000803e3d6000fd5b505050506040513d601f19601f82011682018060405250810190611aa791906125ac565b600173__$36209bf43a07552564d1a894d44c07e934$__638cc822af9091858860006040518563ffffffff1660e01b8152600401611ae89493929190612b78565b60206040518083038186803b158015611b0057600080fd5b505af4158015611b14573d6000803e3d6000fd5b505050506040513d601f19601f82011682018060405250810190611b3891906125ac565b604051602001611b4a939291906128de565b60405160208183030381529060405291505092915050565b611be38363a9059cbb60e01b8484604051602401611b819291906128b5565b604051602081830303815290604052907bffffffffffffffffffffffffffffffffffffffffffffffffffffffff19166020820180517bffffffffffffffffffffffffffffffffffffffffffffffffffffffff8381831617835250505050611cb4565b505050565b600033905090565b60008060009054906101000a900473ffffffffffffffffffffffffffffffffffffffff169050816000806101000a81548173ffffffffffffffffffffffffffffffffffffffff021916908373ffffffffffffffffffffffffffffffffffffffff1602179055508173ffffffffffffffffffffffffffffffffffffffff168173ffffffffffffffffffffffffffffffffffffffff167f8be0079c531659141344cd1fd0a4f28419497f9722a3daafe3b4186f6b6457e060405160405180910390a35050565b6000611d16826040518060400160405280602081526020017f5361666545524332303a206c6f772d6c6576656c2063616c6c206661696c65648152508573ffffffffffffffffffffffffffffffffffffffff166115f49092919063ffffffff16565b9050600081511115611d765780806020019051810190611d369190612325565b611d75576040517f08c379a0000000000000000000000000000000000000000000000000000000008152600401611d6c90612abd565b60405180910390fd5b5b505050565b606082471015611dc0576040517f08c379a0000000000000000000000000000000000000000000000000000000008152600401611db7906129fd565b60405180910390fd5b611dc985611eaf565b611e08576040517f08c379a0000000000000000000000000000000000000000000000000000000008152600401611dff90612a9d565b60405180910390fd5b6000808673ffffffffffffffffffffffffffffffffffffffff168587604051611e31919061285a565b60006040518083038185875af1925050503d8060008114611e6e576040519150601f19603f3d011682016040523d82523d6000602084013e611e73565b606091505b5091509150611e83828286611ec2565b92505050949350505050565b818360010181905550808360020181905550428360030181905550505050565b600080823b905060008111915050919050565b60608315611ed257829050611f22565b600083511115611ee55782518084602001fd5b816040517f08c379a0000000000000000000000000000000000000000000000000000000008152600401611f19919061297b565b60405180910390fd5b9392505050565b6000611f3c611f3784612c5d565b612c38565b905082815260208101848484011115611f5457600080fd5b611f5f848285612df2565b509392505050565b600081359050611f7681613146565b92915050565b600081519050611f8b81613146565b92915050565b600081519050611fa08161315d565b92915050565b600081519050611fb581613174565b92915050565b600081359050611fca8161318b565b92915050565b600081519050611fdf8161318b565b92915050565b600081519050611ff4816131a2565b92915050565b60008083601f84011261200c57600080fd5b8235905067ffffffffffffffff81111561202557600080fd5b60208301915083600182028301111561203d57600080fd5b9250929050565b600082601f83011261205557600080fd5b8151612065848260208601611f29565b91505092915050565b60008135905061207d816131b9565b92915050565b600081519050612092816131d0565b92915050565b6000815190506120a7816131e7565b92915050565b600061016082840312156120c057600080fd5b6120cb610160612c38565b905060006120db848285016121f7565b60008301525060206120ef848285016121f7565b6020830152506040612103848285016121e2565b604083015250606061211784828501611f7c565b606083015250608061212b84828501611fe5565b60808301525060a082015167ffffffffffffffff81111561214b57600080fd5b61215784828501612044565b60a08301525060c061216b848285016121e2565b60c08301525060e061217f848285016121e2565b60e08301525061010061219484828501612098565b610100830152506101206121aa84828501611f7c565b610120830152506101406121c084828501612083565b6101408301525092915050565b6000813590506121dc816131fe565b92915050565b6000815190506121f1816131fe565b92915050565b60008151905061220681613215565b92915050565b60006020828403121561221e57600080fd5b600061222c84828501611f67565b91505092915050565b60006020828403121561224757600080fd5b600061225584828501611f7c565b91505092915050565b60008060006060848603121561227357600080fd5b600061228186828701611f91565b9350506020612292868287016121e2565b92505060406122a3868287016121e2565b9150509250925092565b600080604083850312156122c057600080fd5b60006122ce85828601611f67565b92505060206122df85828601611f67565b9150509250929050565b600080604083850312156122fc57600080fd5b600061230a85828601611f67565b925050602061231b858286016121cd565b9150509250929050565b60006020828403121561233757600080fd5b600061234584828501611fa6565b91505092915050565b6000806040838503121561236157600080fd5b600061236f85828601611fa6565b925050602061238085828601611f7c565b9150509250929050565b60006020828403121561239c57600080fd5b60006123aa84828501611fd0565b91505092915050565b600080600080600080600060a0888a0312156123ce57600080fd5b60006123dc8a828b0161206e565b97505060206123ed8a828b01611f67565b96505060406123fe8a828b01611fbb565b955050606088013567ffffffffffffffff81111561241b57600080fd5b6124278a828b01611ffa565b9450945050608088013567ffffffffffffffff81111561244657600080fd5b6124528a828b01611ffa565b925092505092959891949750929550565b600080600080600080600080600060c08a8c03121561248157600080fd5b600061248f8c828d0161206e565b99505060206124a08c828d01611f67565b98505060406124b18c828d01611fbb565b97505060608a013567ffffffffffffffff8111156124ce57600080fd5b6124da8c828d01611ffa565b965096505060808a013567ffffffffffffffff8111156124f957600080fd5b6125058c828d01611ffa565b945094505060a08a013567ffffffffffffffff81111561252457600080fd5b6125308c828d01611ffa565b92509250509295985092959850929598565b60006020828403121561255457600080fd5b600082015167ffffffffffffffff81111561256e57600080fd5b61257a848285016120ad565b91505092915050565b60006020828403121561259557600080fd5b60006125a3848285016121cd565b91505092915050565b6000602082840312156125be57600080fd5b60006125cc848285016121e2565b91505092915050565b6125de81612d27565b82525050565b6125ed81612d27565b82525050565b6125fc81612d4b565b82525050565b61260b81612d4b565b82525050565b600061261c82612c8e565b6126268185612ca4565b9350612636818560208601612df2565b61263f81612eb4565b840191505092915050565b600061265582612c8e565b61265f8185612cb5565b935061266f818560208601612df2565b80840191505092915050565b600061268682612c99565b6126908185612cc0565b93506126a0818560208601612df2565b6126a981612eb4565b840191505092915050565b60006126c1602283612cc0565b91506126cc82612ec5565b604082019050919050565b60006126e4602683612cc0565b91506126ef82612f14565b604082019050919050565b6000612707601983612cc0565b915061271282612f63565b602082019050919050565b600061272a602683612cc0565b915061273582612f8c565b604082019050919050565b600061274d601f83612cc0565b915061275882612fdb565b602082019050919050565b6000612770602183612cc0565b915061277b82613004565b604082019050919050565b6000612793602083612cc0565b915061279e82613053565b602082019050919050565b60006127b6601983612cc0565b91506127c18261307c565b602082019050919050565b60006127d9601d83612cc0565b91506127e4826130a5565b602082019050919050565b60006127fc602a83612cc0565b9150612807826130ce565b604082019050919050565b600061281f601783612cc0565b915061282a8261311d565b602082019050919050565b8082525050565b61284581612ddb565b82525050565b61285481612ddb565b82525050565b6000612866828461264a565b915081905092915050565b600060208201905061288660008301846125d5565b92915050565b60006040820190506128a160008301856125d5565b6128ae60208301846125d5565b9392505050565b60006040820190506128ca60008301856125d5565b6128d7602083018461283c565b9392505050565b60006060820190506128f360008301866125d5565b612900602083018561283c565b61290d604083018461283c565b949350505050565b600060208201905061292a60008301846125f3565b92915050565b600060408201905061294560008301856125f3565b61295260208301846125d5565b9392505050565b600060208201905081810360008301526129738184612611565b905092915050565b60006020820190508181036000830152612995818461267b565b905092915050565b600060208201905081810360008301526129b6816126b4565b9050919050565b600060208201905081810360008301526129d6816126d7565b9050919050565b600060208201905081810360008301526129f6816126fa565b9050919050565b60006020820190508181036000830152612a168161271d565b9050919050565b60006020820190508181036000830152612a3681612740565b9050919050565b60006020820190508181036000830152612a5681612763565b9050919050565b60006020820190508181036000830152612a7681612786565b9050919050565b60006020820190508181036000830152612a96816127a9565b9050919050565b60006020820190508181036000830152612ab6816127cc565b9050919050565b60006020820190508181036000830152612ad6816127ef565b9050919050565b60006020820190508181036000830152612af681612812565b9050919050565b6000602082019050612b126000830184612835565b92915050565b6000604082019050612b2d6000830185612835565b612b3a60208301846125e4565b9392505050565b6000606082019050612b566000830186612835565b612b6360208301856125e4565b612b7060408301846125e4565b949350505050565b6000608082019050612b8d6000830187612835565b612b9a60208301866125e4565b612ba760408301856125e4565b612bb46060830184612602565b95945050505050565b6000606082019050612bd26000830186612835565b612bdf60208301856125e4565b612bec604083018461284b565b949350505050565b6000604082019050612c096000830185612835565b612c16602083018461284b565b9392505050565b6000602082019050612c32600083018461283c565b92915050565b6000612c42612c53565b9050612c4e8282612e25565b919050565b6000604051905090565b600067ffffffffffffffff821115612c7857612c77612e85565b5b612c8182612eb4565b9050602081019050919050565b600081519050919050565b600081519050919050565b600082825260208201905092915050565b600081905092915050565b600082825260208201905092915050565b6000612cdc82612ddb565b9150612ce783612ddb565b9250827fffffffffffffffffffffffffffffffffffffffffffffffffffffffffffffffff03821115612d1c57612d1b612e56565b5b828201905092915050565b6000612d3282612dbb565b9050919050565b6000612d4482612dbb565b9050919050565b60008115159050919050565b6000819050919050565b60007fffffffff0000000000000000000000000000000000000000000000000000000082169050919050565b6000612d9882612d27565b9050919050565b6000612daa82612d27565b9050919050565b6000819050919050565b600073ffffffffffffffffffffffffffffffffffffffff82169050919050565b6000819050919050565b600060ff82169050919050565b60005b83811015612e10578082015181840152602081019050612df5565b83811115612e1f576000848401525b50505050565b612e2e82612eb4565b810181811067ffffffffffffffff82111715612e4d57612e4c612e85565b5b80604052505050565b7f4e487b7100000000000000000000000000000000000000000000000000000000600052601160045260246000fd5b7f4e487b7100000000000000000000000000000000000000000000000000000000600052604160045260246000fd5b6000601f19601f8301169050919050565b7f644865646765436f72653a20537570706f727473206f6e6c79206f6e6520686f60008201527f7374000000000000000000000000000000000000000000000000000000000000602082015250565b7f4f776e61626c653a206e6577206f776e657220697320746865207a65726f206160008201527f6464726573730000000000000000000000000000000000000000000000000000602082015250565b7f644865646765436f72653a204e6f7420746865206f776e657200000000000000600082015250565b7f416464726573733a20696e73756666696369656e742062616c616e636520666f60008201527f722063616c6c0000000000000000000000000000000000000000000000000000602082015250565b7f644865646765436f72653a20506f6f6c20616c72656164792061637469766500600082015250565b7f644865646765436f72653a20537570706f727473206f6e6c79206f6e6520434660008201527f4100000000000000000000000000000000000000000000000000000000000000602082015250565b7f4f776e61626c653a2063616c6c6572206973206e6f7420746865206f776e6572600082015250565b7f644865646765436f72653a20506f6f6c20696e61637469766500000000000000600082015250565b7f416464726573733a2063616c6c20746f206e6f6e2d636f6e7472616374000000600082015250565b7f5361666545524332303a204552433230206f7065726174696f6e20646964206e60008201527f6f74207375636365656400000000000000000000000000000000000000000000602082015250565b7f546f6b656e206e6f74206465706f736974206173736574000000000000000000600082015250565b61314f81612d27565b811461315a57600080fd5b50565b61316681612d39565b811461317157600080fd5b50565b61317d81612d4b565b811461318857600080fd5b50565b61319481612d57565b811461319f57600080fd5b50565b6131ab81612d61565b81146131b657600080fd5b50565b6131c281612d8d565b81146131cd57600080fd5b50565b6131d981612d9f565b81146131e457600080fd5b50565b6131f081612db1565b81146131fb57600080fd5b50565b61320781612ddb565b811461321257600080fd5b50565b61321e81612de5565b811461322957600080fd5b5056fea2646970667358221220ecf044ec4cc606bdc2233e5bcf6539c767d11cb592629ae78cbaf1c94616260264736f6c63430008040033",
  "libraries": {
    "dHedgeHelper": "0xe72C5c7B84ae98C19BdC5cC9460C3f436ce5f830"
  },
  "devdoc": {
    "author": "rashtrakoff",
    "custom:experimental": "This is an experimental contract/library. Use at your own risk.",
    "kind": "dev",
    "methods": {
      "calcUserUninvested(address,address)": {
        "params": {
          "_token": "Address of the underlying token",
          "_user": "Address of the user whose uninvested amount needs to be calculated"
        },
        "returns": {
          "_0": "Amount of uninvested tokens"
        }
      },
      "calcWithdrawable(address)": {
        "params": {
          "_user": "Address of the user whose withdrawable amount needs to be calculated"
        },
        "returns": {
          "_0": "Amount that can be withdrawn immediately"
        }
      },
      "checkCoreActive()": {
        "returns": {
          "_0": "Boolean indicating working status of core"
        }
      },
      "dHedgeDeposit(address)": {
        "params": {
          "_token": "Address of the underlying token to be deposited into dHedge pool"
        }
      },
      "dHedgeWithdraw(uint256)": {
        "params": {
          "_amount": "Amount of LP tokens to be withdrawn"
        }
      },
      "deactivateCore()": {
        "details": "Deactivates a dHedgeCore contract"
      },
      "emergencyWithdraw(address)": {
        "custom:note": "Remove/Modify this function after testing",
        "details": "Function to withdraw a token in case of emergency",
        "params": {
          "_token": "Address of the pool token"
        }
      },
      "getPoolLogic()": {
        "returns": {
          "_0": "Returns address of the dHedge pool this core contract serves"
        }
      },
      "moveLPT()": {
        "details": "Moves LP tokens from core contract to bank contract This is automatically done by the keepers when dpositing or when someone withdraws LP tokens"
      },
      "owner()": {
        "details": "Returns the address of the current owner."
      },
      "renounceOwnership()": {
        "details": "Leaves the contract without owner. It will not be possible to call `onlyOwner` functions anymore. Can only be called by the current owner. NOTE: Renouncing ownership will leave the contract without an owner, thereby removing any functionality that is only available to the owner."
      },
      "requireUpkeep()": {
        "details": "Checks if deposit action can be performed",
        "returns": {
          "_0": "Boolean indicating if upkeep/deposit can be performed"
        }
      },
      "transferOwnership(address)": {
        "details": "Transfers ownership of the contract to a new account (`newOwner`). Can only be called by the current owner."
      },
      "withdrawUninvestedSingle(address,uint256)": {
        "params": {
          "_amount": "Amount of uninvested token to be withdrawn",
          "_token": "Address of the underlying token"
        }
      }
    },
    "title": "Core contract for a dHedge pool",
    "version": 1
  },
  "userdoc": {
    "kind": "user",
    "methods": {
      "calcUserUninvested(address,address)": {
        "notice": "Calculates uninvested token amount of a particular user"
      },
      "calcWithdrawable(address)": {
        "notice": "Calculates withdrawable amount. Also accounts for cooldown period."
      },
      "checkCoreActive()": {
        "notice": "Checks if the core is active or not"
      },
      "dHedgeDeposit(address)": {
        "notice": "Converts supertokens to underlying tokens and deposits them into dHedge pool"
      },
      "dHedgeWithdraw(uint256)": {
        "notice": "Withdraws LP tokens of the pool to the caller"
      },
      "getPoolLogic()": {
        "notice": "Gets pool address"
      },
      "withdrawUninvestedAll()": {
        "notice": "Withdraws all the uninvested tokens of the caller"
      },
      "withdrawUninvestedSingle(address,uint256)": {
        "notice": "Withdraws uninvested tokens in a specific amount"
      }
    },
    "notice": "Contains user facing functions",
    "version": 1
  },
  "storageLayout": {
    "storage": [
      {
        "astId": 7,
        "contract": "contracts/dHedge/dHedgeCore.sol:dHedgeCore",
        "label": "_owner",
        "offset": 0,
        "slot": "0",
        "type": "t_address"
      },
      {
        "astId": 5085,
        "contract": "contracts/dHedge/dHedgeCore.sol:dHedgeCore",
        "label": "poolData",
        "offset": 0,
        "slot": "1",
        "type": "t_struct(dHedgePool)5049_storage"
      }
    ],
    "types": {
      "t_address": {
        "encoding": "inplace",
        "label": "address",
        "numberOfBytes": "20"
      },
      "t_array(t_address)dyn_storage": {
        "base": "t_address",
        "encoding": "dynamic_array",
        "label": "address[]",
        "numberOfBytes": "32"
      },
      "t_array(t_uint256)3_storage": {
        "base": "t_uint256",
        "encoding": "inplace",
        "label": "uint256[3]",
        "numberOfBytes": "96"
      },
      "t_bool": {
        "encoding": "inplace",
        "label": "bool",
        "numberOfBytes": "1"
      },
      "t_contract(IConstantFlowAgreementV1)1801": {
        "encoding": "inplace",
        "label": "contract IConstantFlowAgreementV1",
        "numberOfBytes": "20"
      },
      "t_contract(ISuperfluid)3131": {
        "encoding": "inplace",
        "label": "contract ISuperfluid",
        "numberOfBytes": "20"
      },
      "t_mapping(t_address,t_mapping(t_address,t_struct(FlowData)3526_storage))": {
        "encoding": "mapping",
        "key": "t_address",
        "label": "mapping(address => mapping(address => struct FlowData))",
        "numberOfBytes": "32",
        "value": "t_mapping(t_address,t_struct(FlowData)3526_storage)"
      },
      "t_mapping(t_address,t_struct(FlowData)3526_storage)": {
        "encoding": "mapping",
        "key": "t_address",
        "label": "mapping(address => struct FlowData)",
        "numberOfBytes": "32",
        "value": "t_struct(FlowData)3526_storage"
      },
      "t_mapping(t_address,t_struct(TokenData)5015_storage)": {
        "encoding": "mapping",
        "key": "t_address",
        "label": "mapping(address => struct dHedgeStorage.TokenData)",
        "numberOfBytes": "32",
        "value": "t_struct(TokenData)5015_storage"
      },
      "t_mapping(t_address,t_uint256)": {
        "encoding": "mapping",
        "key": "t_address",
        "label": "mapping(address => uint256)",
        "numberOfBytes": "32",
        "value": "t_uint256"
      },
      "t_mapping(t_uint256,t_array(t_uint256)3_storage)": {
        "encoding": "mapping",
        "key": "t_uint256",
        "label": "mapping(uint256 => uint256[3])",
        "numberOfBytes": "32",
        "value": "t_array(t_uint256)3_storage"
      },
      "t_struct(FlowData)3526_storage": {
        "encoding": "inplace",
        "label": "struct FlowData",
        "members": [
          {
            "astId": 3519,
            "contract": "contracts/dHedge/dHedgeCore.sol:dHedgeCore",
            "label": "updateIndex",
            "offset": 0,
            "slot": "0",
            "type": "t_uint256"
          },
          {
            "astId": 3521,
            "contract": "contracts/dHedge/dHedgeCore.sol:dHedgeCore",
            "label": "uninvestedSum",
            "offset": 0,
            "slot": "1",
            "type": "t_uint256"
          },
          {
            "astId": 3523,
            "contract": "contracts/dHedge/dHedgeCore.sol:dHedgeCore",
            "label": "shareAmount",
            "offset": 0,
            "slot": "2",
            "type": "t_uint256"
          },
          {
            "astId": 3525,
            "contract": "contracts/dHedge/dHedgeCore.sol:dHedgeCore",
            "label": "prevUpdateTimestamp",
            "offset": 0,
            "slot": "3",
            "type": "t_uint256"
          }
        ],
        "numberOfBytes": "128"
      },
      "t_struct(TokenData)5015_storage": {
        "encoding": "inplace",
        "label": "struct dHedgeStorage.TokenData",
        "members": [
          {
            "astId": 5006,
            "contract": "contracts/dHedge/dHedgeCore.sol:dHedgeCore",
            "label": "superToken",
            "offset": 0,
            "slot": "0",
            "type": "t_address"
          },
          {
            "astId": 5008,
            "contract": "contracts/dHedge/dHedgeCore.sol:dHedgeCore",
            "label": "currMarketIndex",
            "offset": 0,
            "slot": "1",
            "type": "t_uint256"
          },
          {
            "astId": 5014,
            "contract": "contracts/dHedge/dHedgeCore.sol:dHedgeCore",
            "label": "lendingData",
            "offset": 0,
            "slot": "2",
            "type": "t_mapping(t_uint256,t_array(t_uint256)3_storage)"
          }
        ],
        "numberOfBytes": "96"
      },
      "t_struct(dHedgePool)5049_storage": {
        "encoding": "inplace",
        "label": "struct dHedgeStorage.dHedgePool",
        "members": [
          {
            "astId": 5018,
            "contract": "contracts/dHedge/dHedgeCore.sol:dHedgeCore",
            "label": "host",
            "offset": 0,
            "slot": "0",
            "type": "t_contract(ISuperfluid)3131"
          },
          {
            "astId": 5021,
            "contract": "contracts/dHedge/dHedgeCore.sol:dHedgeCore",
            "label": "cfa",
            "offset": 0,
            "slot": "1",
            "type": "t_contract(IConstantFlowAgreementV1)1801"
          },
          {
            "astId": 5023,
            "contract": "contracts/dHedge/dHedgeCore.sol:dHedgeCore",
            "label": "isActive",
            "offset": 20,
            "slot": "1",
            "type": "t_bool"
          },
          {
            "astId": 5025,
            "contract": "contracts/dHedge/dHedgeCore.sol:dHedgeCore",
            "label": "lastDepositTime",
            "offset": 0,
            "slot": "2",
            "type": "t_uint256"
          },
          {
            "astId": 5027,
            "contract": "contracts/dHedge/dHedgeCore.sol:dHedgeCore",
            "label": "poolLogic",
            "offset": 0,
            "slot": "3",
            "type": "t_address"
          },
          {
            "astId": 5029,
            "contract": "contracts/dHedge/dHedgeCore.sol:dHedgeCore",
            "label": "bank",
            "offset": 0,
            "slot": "4",
            "type": "t_address"
          },
          {
            "astId": 5032,
            "contract": "contracts/dHedge/dHedgeCore.sol:dHedgeCore",
            "label": "tokenSet",
            "offset": 0,
            "slot": "5",
            "type": "t_array(t_address)dyn_storage"
          },
          {
            "astId": 5037,
            "contract": "contracts/dHedge/dHedgeCore.sol:dHedgeCore",
            "label": "tokenData",
            "offset": 0,
            "slot": "6",
            "type": "t_mapping(t_address,t_struct(TokenData)5015_storage)"
          },
          {
            "astId": 5044,
            "contract": "contracts/dHedge/dHedgeCore.sol:dHedgeCore",
            "label": "userFlows",
            "offset": 0,
            "slot": "7",
            "type": "t_mapping(t_address,t_mapping(t_address,t_struct(FlowData)3526_storage))"
          },
          {
            "astId": 5048,
            "contract": "contracts/dHedge/dHedgeCore.sol:dHedgeCore",
            "label": "redeemData",
            "offset": 0,
            "slot": "8",
            "type": "t_mapping(t_address,t_uint256)"
          }
        ],
        "numberOfBytes": "288"
      },
      "t_uint256": {
        "encoding": "inplace",
        "label": "uint256",
        "numberOfBytes": "32"
      }
    }
  }
}