{
  "address": "0xb066DcF5A6917681F702cAcEC655742C83D60809",
  "abi": [
    {
      "anonymous": false,
      "inputs": [
        {
          "indexed": false,
          "internalType": "address",
          "name": "_dHedgeCore",
          "type": "address"
        },
        {
          "indexed": false,
          "internalType": "uint256",
          "name": "_timestamp",
          "type": "uint256"
        }
      ],
      "name": "CoreAdded",
      "type": "event"
    },
    {
      "anonymous": false,
      "inputs": [
        {
          "indexed": false,
          "internalType": "address",
          "name": "_dHedgeCore",
          "type": "address"
        },
        {
          "indexed": false,
          "internalType": "uint256",
          "name": "_timestamp",
          "type": "uint256"
        }
      ],
      "name": "CoreRemoved",
      "type": "event"
    },
    {
      "anonymous": false,
      "inputs": [
        {
          "indexed": false,
          "internalType": "address",
          "name": "_dHedgeCore",
          "type": "address"
        },
        {
          "indexed": false,
          "internalType": "uint256",
          "name": "_timestamp",
          "type": "uint256"
        }
      ],
      "name": "DepositCalled",
      "type": "event"
    },
    {
      "anonymous": false,
      "inputs": [
        {
          "indexed": true,
          "internalType": "address",
          "name": "previousOwner",
          "type": "address"
        },
        {
          "indexed": true,
          "internalType": "address",
          "name": "newOwner",
          "type": "address"
        }
      ],
      "name": "OwnershipTransferred",
      "type": "event"
    },
    {
      "inputs": [
        {
          "internalType": "address",
          "name": "_contract",
          "type": "address"
        }
      ],
      "name": "addContract",
      "outputs": [],
      "stateMutability": "nonpayable",
      "type": "function"
    },
    {
      "inputs": [
        {
          "internalType": "bytes",
          "name": "",
          "type": "bytes"
        }
      ],
      "name": "checkUpkeep",
      "outputs": [
        {
          "internalType": "bool",
          "name": "upkeepNeeded",
          "type": "bool"
        },
        {
          "internalType": "bytes",
          "name": "performData",
          "type": "bytes"
        }
      ],
      "stateMutability": "view",
      "type": "function"
    },
    {
      "inputs": [],
      "name": "owner",
      "outputs": [
        {
          "internalType": "address",
          "name": "",
          "type": "address"
        }
      ],
      "stateMutability": "view",
      "type": "function"
    },
    {
      "inputs": [
        {
          "internalType": "bytes",
          "name": "_performData",
          "type": "bytes"
        }
      ],
      "name": "performUpkeep",
      "outputs": [],
      "stateMutability": "nonpayable",
      "type": "function"
    },
    {
      "inputs": [
        {
          "internalType": "address",
          "name": "_contract",
          "type": "address"
        }
      ],
      "name": "removeContract",
      "outputs": [],
      "stateMutability": "nonpayable",
      "type": "function"
    },
    {
      "inputs": [],
      "name": "renounceOwnership",
      "outputs": [],
      "stateMutability": "nonpayable",
      "type": "function"
    },
    {
      "inputs": [
        {
          "internalType": "address",
          "name": "newOwner",
          "type": "address"
        }
      ],
      "name": "transferOwnership",
      "outputs": [],
      "stateMutability": "nonpayable",
      "type": "function"
    }
  ],
  "transactionHash": "0x11ef6dd0a9c8feda155cdc49206ee3d7cd3ab8ccd59119a969bf6e3b2a468ce4",
  "args": [],
  "solcInputHash": "4843eb848f754cd37e18e19057fbd317",
  "bytecode": "0x608060405234801561001057600080fd5b5061002d61002261003260201b60201c565b61003a60201b60201c565b6100fe565b600033905090565b60008060009054906101000a900473ffffffffffffffffffffffffffffffffffffffff169050816000806101000a81548173ffffffffffffffffffffffffffffffffffffffff021916908373ffffffffffffffffffffffffffffffffffffffff1602179055508173ffffffffffffffffffffffffffffffffffffffff168173ffffffffffffffffffffffffffffffffffffffff167f8be0079c531659141344cd1fd0a4f28419497f9722a3daafe3b4186f6b6457e060405160405180910390a35050565b61154b8061010d6000396000f3fe608060405234801561001057600080fd5b506004361061007d5760003560e01c8063715018a61161005b578063715018a6146100eb5780638da5cb5b146100f5578063c375c2ef14610113578063f2fde38b1461012f5761007d565b80634585e33b146100825780635f539d691461009e5780636e04ff0d146100ba575b600080fd5b61009c60048036038101906100979190610ec7565b61014b565b005b6100b860048036038101906100b39190610e4c565b61027f565b005b6100d460048036038101906100cf9190610ec7565b6103e8565b6040516100e292919061109e565b60405180910390f35b6100f3610583565b005b6100fd61060b565b60405161010a919061105a565b60405180910390f35b61012d60048036038101906101289190610e4c565b610634565b005b61014960048036038101906101449190610e4c565b610754565b005b6000828281019061015c9190610e75565b90508073ffffffffffffffffffffffffffffffffffffffff16636769ca616040518163ffffffff1660e01b8152600401600060405180830381600087803b1580156101a657600080fd5b505af19250505080156101b7575060015b61021e573d80600081146101e7576040519150601f19603f3d011682016040523d82523d6000602084013e6101ec565b606091505b5061020f6040518060600160405280602e81526020016114e8602e91398361084c565b610218816108e8565b50610241565b6102406040518060600160405280602181526020016114c7602191398261084c565b5b7fc2ad6ca99f03c8ca2a7716700804528f014b3deec271623b1ad7de37a03625cd8142604051610272929190611075565b60405180910390a1505050565b610287610981565b73ffffffffffffffffffffffffffffffffffffffff166102a561060b565b73ffffffffffffffffffffffffffffffffffffffff16146102fb576040517f08c379a00000000000000000000000000000000000000000000000000000000081526004016102f290611140565b60405180910390fd5b61030481610989565b610343576040517f08c379a000000000000000000000000000000000000000000000000000000000815260040161033a906111a0565b60405180910390fd5b61035781600161099c90919063ffffffff16565b15610397576040517f08c379a000000000000000000000000000000000000000000000000000000000815260040161038e90611160565b60405180910390fd5b6103ab8160016109cc90919063ffffffff16565b507fc18bee64adc0f12cc1ae1d99fc3a13c842658ba1fa6525931cff6e5c8d41aece81426040516103dd929190611075565b60405180910390a150565b6000606060005b6103f960016109fc565b81101561057b576000610416826001610a1190919063ffffffff16565b90508073ffffffffffffffffffffffffffffffffffffffff1663f1d640b06040518163ffffffff1660e01b815260040160206040518083038186803b15801561045e57600080fd5b505afa92505050801561048f57506040513d601f19601f8201168201806040525081019061048c9190610e9e565b60015b6104f6573d80600081146104bf576040519150601f19603f3d011682016040523d82523d6000602084013e6104c4565b606091505b506104e76040518060600160405280602e81526020016114e8602e91398361084c565b6104f0816108e8565b50610569565b8094508160405160200161050a919061105a565b604051602081830303815290604052935061055a6040518060400160405280602081526020017f436865636b207375636365737366756c20666f7220636f6e74726163742025738152508361084c565b801561056757505061057b565b505b5080610574906112b9565b90506103ef565b509250929050565b61058b610981565b73ffffffffffffffffffffffffffffffffffffffff166105a961060b565b73ffffffffffffffffffffffffffffffffffffffff16146105ff576040517f08c379a00000000000000000000000000000000000000000000000000000000081526004016105f690611140565b60405180910390fd5b6106096000610a2b565b565b60008060009054906101000a900473ffffffffffffffffffffffffffffffffffffffff16905090565b61063c610981565b73ffffffffffffffffffffffffffffffffffffffff1661065a61060b565b73ffffffffffffffffffffffffffffffffffffffff16146106b0576040517f08c379a00000000000000000000000000000000000000000000000000000000081526004016106a790611140565b60405180910390fd5b6106c481600161099c90919063ffffffff16565b610703576040517f08c379a00000000000000000000000000000000000000000000000000000000081526004016106fa90611180565b60405180910390fd5b610717816001610aef90919063ffffffff16565b507f2e679e28f3e451555ce37ffee2b2b78fc4fb20a2600394a8afbd2a5b6bd7bf5f8142604051610749929190611075565b60405180910390a150565b61075c610981565b73ffffffffffffffffffffffffffffffffffffffff1661077a61060b565b73ffffffffffffffffffffffffffffffffffffffff16146107d0576040517f08c379a00000000000000000000000000000000000000000000000000000000081526004016107c790611140565b60405180910390fd5b600073ffffffffffffffffffffffffffffffffffffffff168173ffffffffffffffffffffffffffffffffffffffff161415610840576040517f08c379a000000000000000000000000000000000000000000000000000000000815260040161083790611120565b60405180910390fd5b61084981610a2b565b50565b6108e482826040516024016108629291906110f0565b6040516020818303038152906040527f319af333000000000000000000000000000000000000000000000000000000007bffffffffffffffffffffffffffffffffffffffffffffffffffffffff19166020820180517bffffffffffffffffffffffffffffffffffffffffffffffffffffffff8381831617835250505050610b1f565b5050565b61097e816040516024016108fc91906110ce565b6040516020818303038152906040527f0be77f56000000000000000000000000000000000000000000000000000000007bffffffffffffffffffffffffffffffffffffffffffffffffffffffff19166020820180517bffffffffffffffffffffffffffffffffffffffffffffffffffffffff8381831617835250505050610b1f565b50565b600033905090565b600080823b905060008111915050919050565b60006109c4836000018373ffffffffffffffffffffffffffffffffffffffff1660001b610b48565b905092915050565b60006109f4836000018373ffffffffffffffffffffffffffffffffffffffff1660001b610b6b565b905092915050565b6000610a0a82600001610bdb565b9050919050565b6000610a208360000183610bec565b60001c905092915050565b60008060009054906101000a900473ffffffffffffffffffffffffffffffffffffffff169050816000806101000a81548173ffffffffffffffffffffffffffffffffffffffff021916908373ffffffffffffffffffffffffffffffffffffffff1602179055508173ffffffffffffffffffffffffffffffffffffffff168173ffffffffffffffffffffffffffffffffffffffff167f8be0079c531659141344cd1fd0a4f28419497f9722a3daafe3b4186f6b6457e060405160405180910390a35050565b6000610b17836000018373ffffffffffffffffffffffffffffffffffffffff1660001b610c3d565b905092915050565b60008151905060006a636f6e736f6c652e6c6f679050602083016000808483855afa5050505050565b600080836001016000848152602001908152602001600020541415905092915050565b6000610b778383610b48565b610bd0578260000182908060018154018082558091505060019003906000526020600020016000909190919091505582600001805490508360010160008481526020019081526020016000208190555060019050610bd5565b600090505b92915050565b600081600001805490509050919050565b6000826000018281548110610c2a577f4e487b7100000000000000000000000000000000000000000000000000000000600052603260045260246000fd5b9060005260206000200154905092915050565b60008083600101600084815260200190815260200160002054905060008114610db7576000600182610c6f91906111f8565b9050600060018660000180549050610c8791906111f8565b9050818114610d42576000866000018281548110610cce577f4e487b7100000000000000000000000000000000000000000000000000000000600052603260045260246000fd5b9060005260206000200154905080876000018481548110610d18577f4e487b7100000000000000000000000000000000000000000000000000000000600052603260045260246000fd5b90600052602060002001819055508387600101600083815260200190815260200160002081905550505b85600001805480610d7c577f4e487b7100000000000000000000000000000000000000000000000000000000600052603160045260246000fd5b600190038181906000526020600020016000905590558560010160008681526020019081526020016000206000905560019350505050610dbd565b60009150505b92915050565b600081359050610dd281611481565b92915050565b600081359050610de781611498565b92915050565b600081519050610dfc816114af565b92915050565b60008083601f840112610e1457600080fd5b8235905067ffffffffffffffff811115610e2d57600080fd5b602083019150836001820283011115610e4557600080fd5b9250929050565b600060208284031215610e5e57600080fd5b6000610e6c84828501610dc3565b91505092915050565b600060208284031215610e8757600080fd5b6000610e9584828501610dd8565b91505092915050565b600060208284031215610eb057600080fd5b6000610ebe84828501610ded565b91505092915050565b60008060208385031215610eda57600080fd5b600083013567ffffffffffffffff811115610ef457600080fd5b610f0085828601610e02565b92509250509250929050565b610f158161122c565b82525050565b610f2481611250565b82525050565b6000610f35826111c0565b610f3f81856111d6565b9350610f4f818560208601611286565b610f5881611331565b840191505092915050565b6000610f6e826111cb565b610f7881856111e7565b9350610f88818560208601611286565b610f9181611331565b840191505092915050565b6000610fa96026836111e7565b9150610fb482611342565b604082019050919050565b6000610fcc6020836111e7565b9150610fd782611391565b602082019050919050565b6000610fef6026836111e7565b9150610ffa826113ba565b604082019050919050565b60006110126022836111e7565b915061101d82611409565b604082019050919050565b6000611035601c836111e7565b915061104082611458565b602082019050919050565b6110548161127c565b82525050565b600060208201905061106f6000830184610f0c565b92915050565b600060408201905061108a6000830185610f0c565b611097602083018461104b565b9392505050565b60006040820190506110b36000830185610f1b565b81810360208301526110c58184610f2a565b90509392505050565b600060208201905081810360008301526110e88184610f2a565b905092915050565b6000604082019050818103600083015261110a8185610f63565b90506111196020830184610f0c565b9392505050565b6000602082019050818103600083015261113981610f9c565b9050919050565b6000602082019050818103600083015261115981610fbf565b9050919050565b6000602082019050818103600083015261117981610fe2565b9050919050565b6000602082019050818103600083015261119981611005565b9050919050565b600060208201905081810360008301526111b981611028565b9050919050565b600081519050919050565b600081519050919050565b600082825260208201905092915050565b600082825260208201905092915050565b60006112038261127c565b915061120e8361127c565b92508282101561122157611220611302565b5b828203905092915050565b60006112378261125c565b9050919050565b60006112498261125c565b9050919050565b60008115159050919050565b600073ffffffffffffffffffffffffffffffffffffffff82169050919050565b6000819050919050565b60005b838110156112a4578082015181840152602081019050611289565b838111156112b3576000848401525b50505050565b60006112c48261127c565b91507fffffffffffffffffffffffffffffffffffffffffffffffffffffffffffffffff8214156112f7576112f6611302565b5b600182019050919050565b7f4e487b7100000000000000000000000000000000000000000000000000000000600052601160045260246000fd5b6000601f19601f8301169050919050565b7f4f776e61626c653a206e6577206f776e657220697320746865207a65726f206160008201527f6464726573730000000000000000000000000000000000000000000000000000602082015250565b7f4f776e61626c653a2063616c6c6572206973206e6f7420746865206f776e6572600082015250565b7f64486564676555706b6565703a20436f6e747261637420616c7265616479207060008201527f726573656e740000000000000000000000000000000000000000000000000000602082015250565b7f64486564676555706b6565703a20436f6e7472616374206e6f7420707265736560008201527f6e74000000000000000000000000000000000000000000000000000000000000602082015250565b7f64486564676555706b6565703a204e6f74206120636f6e747261637400000000600082015250565b61148a8161122c565b811461149557600080fd5b50565b6114a18161123e565b81146114ac57600080fd5b50565b6114b881611250565b81146114c357600080fd5b5056fe55706b656570207375636365737366756c20666f7220636f6e74726163742025734572726f7220656e636f756e746572656420666f7220636f6e74726163742025732077697468206572726f723a20a264697066735822122003ab97055d2856ee0fbba122ad598f59bb62ca4b53b44271f64fffa4397eeef664736f6c63430008040033",
  "devdoc": {
    "author": "rashtrakoff",
    "custom:experimental": "This is an experimental contract/library. Use at your own risk.",
    "details": "Resolver contract for keepers",
    "kind": "dev",
    "methods": {
      "addContract(address)": {
        "details": "Add a core contract for upkeep",
        "params": {
          "_contract": "Address of the core contract"
        }
      },
      "checkUpkeep(bytes)": {
        "details": "Function which checks if any of the registered core contracts require upkeep.  Checkdata isn't required for us"
      },
      "owner()": {
        "details": "Returns the address of the current owner."
      },
      "performUpkeep(bytes)": {
        "details": "Calls deposit function in a core contract. Should be used by keepers.",
        "params": {
          "_performData": "Data containing address of the core contract"
        }
      },
      "removeContract(address)": {
        "details": "Removes a core contract from upkeep services",
        "params": {
          "_contract": "Address of the core contract"
        }
      },
      "renounceOwnership()": {
        "details": "Leaves the contract without owner. It will not be possible to call `onlyOwner` functions anymore. Can only be called by the current owner. NOTE: Renouncing ownership will leave the contract without an owner, thereby removing any functionality that is only available to the owner."
      },
      "transferOwnership(address)": {
        "details": "Transfers ownership of the contract to a new account (`newOwner`). Can only be called by the current owner."
      }
    },
    "title": "dHedge upkeep contract",
    "version": 1
  },
  "userdoc": {
    "kind": "user",
    "methods": {},
    "version": 1
  },
  "storageLayout": {
    "storage": [
      {
        "astId": 26,
        "contract": "contracts/dHedge/dHedgeUpkeepChainlink.sol:dHedgeUpkeepChainlink",
        "label": "_owner",
        "offset": 0,
        "slot": "0",
        "type": "t_address"
      },
      {
        "astId": 5827,
        "contract": "contracts/dHedge/dHedgeUpkeepChainlink.sol:dHedgeUpkeepChainlink",
        "label": "upkeepSet",
        "offset": 0,
        "slot": "1",
        "type": "t_struct(AddressSet)1214_storage"
      }
    ],
    "types": {
      "t_address": {
        "encoding": "inplace",
        "label": "address",
        "numberOfBytes": "20"
      },
      "t_array(t_bytes32)dyn_storage": {
        "base": "t_bytes32",
        "encoding": "dynamic_array",
        "label": "bytes32[]",
        "numberOfBytes": "32"
      },
      "t_bytes32": {
        "encoding": "inplace",
        "label": "bytes32",
        "numberOfBytes": "32"
      },
      "t_mapping(t_bytes32,t_uint256)": {
        "encoding": "mapping",
        "key": "t_bytes32",
        "label": "mapping(bytes32 => uint256)",
        "numberOfBytes": "32",
        "value": "t_uint256"
      },
      "t_struct(AddressSet)1214_storage": {
        "encoding": "inplace",
        "label": "struct EnumerableSet.AddressSet",
        "members": [
          {
            "astId": 1213,
            "contract": "contracts/dHedge/dHedgeUpkeepChainlink.sol:dHedgeUpkeepChainlink",
            "label": "_inner",
            "offset": 0,
            "slot": "0",
            "type": "t_struct(Set)913_storage"
          }
        ],
        "numberOfBytes": "64"
      },
      "t_struct(Set)913_storage": {
        "encoding": "inplace",
        "label": "struct EnumerableSet.Set",
        "members": [
          {
            "astId": 908,
            "contract": "contracts/dHedge/dHedgeUpkeepChainlink.sol:dHedgeUpkeepChainlink",
            "label": "_values",
            "offset": 0,
            "slot": "0",
            "type": "t_array(t_bytes32)dyn_storage"
          },
          {
            "astId": 912,
            "contract": "contracts/dHedge/dHedgeUpkeepChainlink.sol:dHedgeUpkeepChainlink",
            "label": "_indexes",
            "offset": 0,
            "slot": "1",
            "type": "t_mapping(t_bytes32,t_uint256)"
          }
        ],
        "numberOfBytes": "64"
      },
      "t_uint256": {
        "encoding": "inplace",
        "label": "uint256",
        "numberOfBytes": "32"
      }
    }
  }
}