{
  "address": "0xa78C29cFbabe6829Cbf645DB532a9e597254F5C1",
  "abi": [
    {
      "anonymous": false,
      "inputs": [
        {
          "indexed": false,
          "internalType": "address",
          "name": "_dHedgeCore",
          "type": "address"
        }
      ],
      "name": "CorePaused",
      "type": "event"
    },
    {
      "anonymous": false,
      "inputs": [
        {
          "indexed": false,
          "internalType": "address",
          "name": "_dHedgeCore",
          "type": "address"
        }
      ],
      "name": "CoreUnPaused",
      "type": "event"
    },
    {
      "anonymous": false,
      "inputs": [
        {
          "indexed": false,
          "internalType": "address",
          "name": "_dHedgeCore",
          "type": "address"
        },
        {
          "indexed": false,
          "internalType": "address",
          "name": "_depositToken",
          "type": "address"
        },
        {
          "indexed": false,
          "internalType": "bytes",
          "name": "_err",
          "type": "bytes"
        }
      ],
      "name": "DepositFailed",
      "type": "event"
    },
    {
      "anonymous": false,
      "inputs": [
        {
          "indexed": false,
          "internalType": "address",
          "name": "_dHedgeCore",
          "type": "address"
        },
        {
          "indexed": false,
          "internalType": "address",
          "name": "_depositToken",
          "type": "address"
        }
      ],
      "name": "DepositSuccess",
      "type": "event"
    },
    {
      "anonymous": false,
      "inputs": [
        {
          "indexed": true,
          "internalType": "address",
          "name": "previousOwner",
          "type": "address"
        },
        {
          "indexed": true,
          "internalType": "address",
          "name": "newOwner",
          "type": "address"
        }
      ],
      "name": "OwnershipTransferred",
      "type": "event"
    },
    {
      "inputs": [
        {
          "internalType": "address",
          "name": "_contract",
          "type": "address"
        }
      ],
      "name": "checkUpkeep",
      "outputs": [
        {
          "internalType": "bool",
          "name": "_canExec",
          "type": "bool"
        },
        {
          "internalType": "bytes",
          "name": "_execPayload",
          "type": "bytes"
        }
      ],
      "stateMutability": "view",
      "type": "function"
    },
    {
      "inputs": [],
      "name": "owner",
      "outputs": [
        {
          "internalType": "address",
          "name": "",
          "type": "address"
        }
      ],
      "stateMutability": "view",
      "type": "function"
    },
    {
      "inputs": [
        {
          "internalType": "address",
          "name": "_contract",
          "type": "address"
        }
      ],
      "name": "pauseContract",
      "outputs": [],
      "stateMutability": "nonpayable",
      "type": "function"
    },
    {
      "inputs": [
        {
          "internalType": "address",
          "name": "_contract",
          "type": "address"
        },
        {
          "internalType": "address",
          "name": "_depositToken",
          "type": "address"
        }
      ],
      "name": "performUpkeep",
      "outputs": [],
      "stateMutability": "nonpayable",
      "type": "function"
    },
    {
      "inputs": [],
      "name": "renounceOwnership",
      "outputs": [],
      "stateMutability": "nonpayable",
      "type": "function"
    },
    {
      "inputs": [
        {
          "internalType": "address",
          "name": "newOwner",
          "type": "address"
        }
      ],
      "name": "transferOwnership",
      "outputs": [],
      "stateMutability": "nonpayable",
      "type": "function"
    },
    {
      "inputs": [
        {
          "internalType": "address",
          "name": "_contract",
          "type": "address"
        }
      ],
      "name": "unPauseContract",
      "outputs": [],
      "stateMutability": "nonpayable",
      "type": "function"
    }
  ],
  "transactionHash": "0x6e018bdc99b2c8d516b0c613b0c4b67476a44ce8ab5204f3488c10ab92c6588a",
  "args": [],
  "solcInputHash": "873e6efe6afa27a9cf0a8173a0204db7",
  "bytecode": "0x608060405234801561001057600080fd5b5061002d61002261003260201b60201c565b61003a60201b60201c565b6100fe565b600033905090565b60008060009054906101000a900473ffffffffffffffffffffffffffffffffffffffff169050816000806101000a81548173ffffffffffffffffffffffffffffffffffffffff021916908373ffffffffffffffffffffffffffffffffffffffff1602179055508173ffffffffffffffffffffffffffffffffffffffff168173ffffffffffffffffffffffffffffffffffffffff167f8be0079c531659141344cd1fd0a4f28419497f9722a3daafe3b4186f6b6457e060405160405180910390a35050565b6110228061010d6000396000f3fe608060405234801561001057600080fd5b506004361061007d5760003560e01c80638da5cb5b1161005b5780638da5cb5b146100d9578063adb99c8a146100f7578063cd67dc4014610113578063f2fde38b1461012f5761007d565b806366ca2f2814610082578063715018a6146100b35780638265de27146100bd575b600080fd5b61009c60048036038101906100979190610a8f565b61014b565b6040516100aa929190610cb8565b60405180910390f35b6100bb6102e2565b005b6100d760048036038101906100d29190610ab8565b61036a565b005b6100e16104db565b6040516100ee9190610c36565b60405180910390f35b610111600480360381019061010c9190610a8f565b610504565b005b61012d60048036038101906101289190610a8f565b61062b565b005b61014960048036038101906101449190610a8f565b610752565b005b60006060600160008473ffffffffffffffffffffffffffffffffffffffff1673ffffffffffffffffffffffffffffffffffffffff16815260200190815260200160002060009054906101000a900460ff16156102dd578273ffffffffffffffffffffffffffffffffffffffff1663f1d640b06040518163ffffffff1660e01b8152600401604080518083038186803b1580156101e657600080fd5b505afa92505050801561021757506040513d601f19601f820116820180604052508101906102149190610af4565b60015b61025c573d8060008114610247576040519150601f19603f3d011682016040523d82523d6000602084013e61024c565b606091505b506102568161084a565b506102dc565b819350638265de2760e01b858260405160240161027a929190610c51565b604051602081830303815290604052907bffffffffffffffffffffffffffffffffffffffffffffffffffffffff19166020820180517bffffffffffffffffffffffffffffffffffffffffffffffffffffffff8381831617835250505050925050505b5b915091565b6102ea6108e3565b73ffffffffffffffffffffffffffffffffffffffff166103086104db565b73ffffffffffffffffffffffffffffffffffffffff161461035e576040517f08c379a000000000000000000000000000000000000000000000000000000000815260040161035590610d6a565b60405180910390fd5b61036860006108eb565b565b8173ffffffffffffffffffffffffffffffffffffffff1663525f45fb826040518263ffffffff1660e01b81526004016103a39190610c36565b600060405180830381600087803b1580156103bd57600080fd5b505af19250505080156103ce575060015b61049d573d80600081146103fe576040519150601f19603f3d011682016040523d82523d6000602084013e610403565b606091505b506000600160008573ffffffffffffffffffffffffffffffffffffffff1673ffffffffffffffffffffffffffffffffffffffff16815260200190815260200160002060006101000a81548160ff0219169083151502179055507fdab14fcdbc363ac6083496b1e1cf7411ab10e8a2ed303e46bd76af76f62ec4d683838360405161048f93929190610c7a565b60405180910390a1506104d7565b7fdef340257eb3a8eedc9c767c97d3e24a7a5b8e38edc1a64d9bd7edd860226e4682826040516104ce929190610c51565b60405180910390a15b5050565b60008060009054906101000a900473ffffffffffffffffffffffffffffffffffffffff16905090565b61050d336109af565b600160008273ffffffffffffffffffffffffffffffffffffffff1673ffffffffffffffffffffffffffffffffffffffff16815260200190815260200160002060009054906101000a900460ff16610599576040517f08c379a000000000000000000000000000000000000000000000000000000000815260040161059090610d4a565b60405180910390fd5b6000600160008373ffffffffffffffffffffffffffffffffffffffff1673ffffffffffffffffffffffffffffffffffffffff16815260200190815260200160002060006101000a81548160ff0219169083151502179055507f856a5344adc52256b541f72c591a65cd2b4126f6f3c43fe0fc133177320b9825816040516106209190610c36565b60405180910390a150565b610634336109af565b600160008273ffffffffffffffffffffffffffffffffffffffff1673ffffffffffffffffffffffffffffffffffffffff16815260200190815260200160002060009054906101000a900460ff16156106c1576040517f08c379a00000000000000000000000000000000000000000000000000000000081526004016106b890610d8a565b60405180910390fd5b60018060008373ffffffffffffffffffffffffffffffffffffffff1673ffffffffffffffffffffffffffffffffffffffff16815260200190815260200160002060006101000a81548160ff0219169083151502179055507f27a1aad834b8bfc99e718c06c1c3f38a5599b5ef41af73cb06b5af28e175884b816040516107479190610c36565b60405180910390a150565b61075a6108e3565b73ffffffffffffffffffffffffffffffffffffffff166107786104db565b73ffffffffffffffffffffffffffffffffffffffff16146107ce576040517f08c379a00000000000000000000000000000000000000000000000000000000081526004016107c590610d6a565b60405180910390fd5b600073ffffffffffffffffffffffffffffffffffffffff168173ffffffffffffffffffffffffffffffffffffffff16141561083e576040517f08c379a000000000000000000000000000000000000000000000000000000000815260040161083590610d2a565b60405180910390fd5b610847816108eb565b50565b6108e08160405160240161085e9190610ce8565b6040516020818303038152906040527f0be77f56000000000000000000000000000000000000000000000000000000007bffffffffffffffffffffffffffffffffffffffffffffffffffffffff19166020820180517bffffffffffffffffffffffffffffffffffffffffffffffffffffffff8381831617835250505050610a27565b50565b600033905090565b60008060009054906101000a900473ffffffffffffffffffffffffffffffffffffffff169050816000806101000a81548173ffffffffffffffffffffffffffffffffffffffff021916908373ffffffffffffffffffffffffffffffffffffffff1602179055508173ffffffffffffffffffffffffffffffffffffffff168173ffffffffffffffffffffffffffffffffffffffff167f8be0079c531659141344cd1fd0a4f28419497f9722a3daafe3b4186f6b6457e060405160405180910390a35050565b6109b76104db565b73ffffffffffffffffffffffffffffffffffffffff168173ffffffffffffffffffffffffffffffffffffffff1614610a24576040517f08c379a0000000000000000000000000000000000000000000000000000000008152600401610a1b90610d0a565b60405180910390fd5b50565b60008151905060006a636f6e736f6c652e6c6f679050602083016000808483855afa5050505050565b600081359050610a5f81610fbe565b92915050565b600081519050610a7481610fbe565b92915050565b600081519050610a8981610fd5565b92915050565b600060208284031215610aa157600080fd5b6000610aaf84828501610a50565b91505092915050565b60008060408385031215610acb57600080fd5b6000610ad985828601610a50565b9250506020610aea85828601610a50565b9150509250929050565b60008060408385031215610b0757600080fd5b6000610b1585828601610a7a565b9250506020610b2685828601610a65565b9150509250929050565b610b3981610dd7565b82525050565b610b4881610de9565b82525050565b6000610b5982610daa565b610b638185610db5565b9350610b73818560208601610e15565b610b7c81610e48565b840191505092915050565b6000610b94602183610dc6565b9150610b9f82610e59565b604082019050919050565b6000610bb7602683610dc6565b9150610bc282610ea8565b604082019050919050565b6000610bda602583610dc6565b9150610be582610ef7565b604082019050919050565b6000610bfd602083610dc6565b9150610c0882610f46565b602082019050919050565b6000610c20602783610dc6565b9150610c2b82610f6f565b604082019050919050565b6000602082019050610c4b6000830184610b30565b92915050565b6000604082019050610c666000830185610b30565b610c736020830184610b30565b9392505050565b6000606082019050610c8f6000830186610b30565b610c9c6020830185610b30565b8181036040830152610cae8184610b4e565b9050949350505050565b6000604082019050610ccd6000830185610b3f565b8181036020830152610cdf8184610b4e565b90509392505050565b60006020820190508181036000830152610d028184610b4e565b905092915050565b60006020820190508181036000830152610d2381610b87565b9050919050565b60006020820190508181036000830152610d4381610baa565b9050919050565b60006020820190508181036000830152610d6381610bcd565b9050919050565b60006020820190508181036000830152610d8381610bf0565b9050919050565b60006020820190508181036000830152610da381610c13565b9050919050565b600081519050919050565b600082825260208201905092915050565b600082825260208201905092915050565b6000610de282610df5565b9050919050565b60008115159050919050565b600073ffffffffffffffffffffffffffffffffffffffff82169050919050565b60005b83811015610e33578082015181840152602081019050610e18565b83811115610e42576000848401525b50505050565b6000601f19601f8301169050919050565b7f64486564676555706b65657047656c61746f3a204e6f7420746865206f776e6560008201527f7200000000000000000000000000000000000000000000000000000000000000602082015250565b7f4f776e61626c653a206e6577206f776e657220697320746865207a65726f206160008201527f6464726573730000000000000000000000000000000000000000000000000000602082015250565b7f64486564676555706b6565703a20436f6e747261637420616c7265616479207060008201527f6175736564000000000000000000000000000000000000000000000000000000602082015250565b7f4f776e61626c653a2063616c6c6572206973206e6f7420746865206f776e6572600082015250565b7f64486564676555706b6565703a20436f6e747261637420616c7265616479207560008201527f6e70617573656400000000000000000000000000000000000000000000000000602082015250565b610fc781610dd7565b8114610fd257600080fd5b50565b610fde81610de9565b8114610fe957600080fd5b5056fea264697066735822122096ab595fa3d0acce3e35291ee8a1e28cad69d2bfbdc60e2d055e700b5cc6792c64736f6c63430008040033",
  "devdoc": {
    "author": "rashtrakoff",
    "custom:experimental": "This is an experimental contract/library. Use at your own risk.",
    "details": "Resolver contract for keepers",
    "kind": "dev",
    "methods": {
      "checkUpkeep(address)": {
        "details": "Function which checks if any of the registered core contracts require upkeep"
      },
      "owner()": {
        "details": "Returns the address of the current owner."
      },
      "pauseContract(address)": {
        "details": "Pauses a core contract from upkeep services",
        "params": {
          "_contract": "Address of the core contract"
        }
      },
      "performUpkeep(address,address)": {
        "details": "Calls deposit function in a core contract. Should be used by keepers.",
        "params": {
          "_contract": "Address of the core contract",
          "_depositToken": "Address of the token to be deposited"
        }
      },
      "renounceOwnership()": {
        "details": "Leaves the contract without owner. It will not be possible to call `onlyOwner` functions anymore. Can only be called by the current owner. NOTE: Renouncing ownership will leave the contract without an owner, thereby removing any functionality that is only available to the owner."
      },
      "transferOwnership(address)": {
        "details": "Transfers ownership of the contract to a new account (`newOwner`). Can only be called by the current owner."
      },
      "unPauseContract(address)": {
        "details": "Unpauses a core contract from upkeep services",
        "params": {
          "_contract": "Address of the core contract Unpausing and adding a contract are equivalent actions in our case"
        }
      }
    },
    "title": "dHedge upkeep contract",
    "version": 1
  },
  "userdoc": {
    "kind": "user",
    "methods": {},
    "version": 1
  },
  "storageLayout": {
    "storage": [
      {
        "astId": 7,
        "contract": "contracts/dHedge/dHedgeUpkeepGelato.sol:dHedgeUpkeepGelato",
        "label": "_owner",
        "offset": 0,
        "slot": "0",
        "type": "t_address"
      },
      {
        "astId": 296,
        "contract": "contracts/dHedge/dHedgeUpkeepGelato.sol:dHedgeUpkeepGelato",
        "label": "upkeepSet",
        "offset": 0,
        "slot": "1",
        "type": "t_mapping(t_address,t_bool)"
      }
    ],
    "types": {
      "t_address": {
        "encoding": "inplace",
        "label": "address",
        "numberOfBytes": "20"
      },
      "t_bool": {
        "encoding": "inplace",
        "label": "bool",
        "numberOfBytes": "1"
      },
      "t_mapping(t_address,t_bool)": {
        "encoding": "mapping",
        "key": "t_address",
        "label": "mapping(address => bool)",
        "numberOfBytes": "32",
        "value": "t_bool"
      }
    }
  }
}