{
  "address": "0x45635A02119409a25380bC05507E7a7c097F6a99",
  "abi": [
    {
      "anonymous": false,
      "inputs": [
        {
          "indexed": false,
          "internalType": "address",
          "name": "_dHedgeCore",
          "type": "address"
        },
        {
          "indexed": false,
          "internalType": "uint256",
          "name": "_timestamp",
          "type": "uint256"
        }
      ],
      "name": "CoreAdded",
      "type": "event"
    },
    {
      "anonymous": false,
      "inputs": [
        {
          "indexed": false,
          "internalType": "address",
          "name": "_dHedgeCore",
          "type": "address"
        },
        {
          "indexed": false,
          "internalType": "uint256",
          "name": "_timestamp",
          "type": "uint256"
        }
      ],
      "name": "CoreRemoved",
      "type": "event"
    },
    {
      "anonymous": false,
      "inputs": [
        {
          "indexed": false,
          "internalType": "address",
          "name": "_dHedgeCore",
          "type": "address"
        },
        {
          "indexed": false,
          "internalType": "uint256",
          "name": "_timestamp",
          "type": "uint256"
        }
      ],
      "name": "DepositCalled",
      "type": "event"
    },
    {
      "anonymous": false,
      "inputs": [
        {
          "indexed": true,
          "internalType": "address",
          "name": "previousOwner",
          "type": "address"
        },
        {
          "indexed": true,
          "internalType": "address",
          "name": "newOwner",
          "type": "address"
        }
      ],
      "name": "OwnershipTransferred",
      "type": "event"
    },
    {
      "inputs": [
        {
          "internalType": "address",
          "name": "_contract",
          "type": "address"
        }
      ],
      "name": "addContract",
      "outputs": [],
      "stateMutability": "nonpayable",
      "type": "function"
    },
    {
      "inputs": [
        {
          "internalType": "address",
          "name": "_contract",
          "type": "address"
        }
      ],
      "name": "callFunction",
      "outputs": [],
      "stateMutability": "nonpayable",
      "type": "function"
    },
    {
      "inputs": [],
      "name": "checker",
      "outputs": [
        {
          "internalType": "bool",
          "name": "_canExec",
          "type": "bool"
        },
        {
          "internalType": "bytes",
          "name": "_execPayload",
          "type": "bytes"
        }
      ],
      "stateMutability": "view",
      "type": "function"
    },
    {
      "inputs": [],
      "name": "owner",
      "outputs": [
        {
          "internalType": "address",
          "name": "",
          "type": "address"
        }
      ],
      "stateMutability": "view",
      "type": "function"
    },
    {
      "inputs": [
        {
          "internalType": "address",
          "name": "_contract",
          "type": "address"
        }
      ],
      "name": "removeContract",
      "outputs": [],
      "stateMutability": "nonpayable",
      "type": "function"
    },
    {
      "inputs": [],
      "name": "renounceOwnership",
      "outputs": [],
      "stateMutability": "nonpayable",
      "type": "function"
    },
    {
      "inputs": [
        {
          "internalType": "address",
          "name": "newOwner",
          "type": "address"
        }
      ],
      "name": "transferOwnership",
      "outputs": [],
      "stateMutability": "nonpayable",
      "type": "function"
    }
  ],
  "transactionHash": "0xd898a9dfaef1b8bcea18ca7cbeb9a0e8e3723ef9088625674ec885e53cdcc3bf",
  "args": [],
  "solcInputHash": "3b12b3c212e292e12eb77ea8fe2c60c2",
  "bytecode": "0x608060405234801561001057600080fd5b5061002d61002261003260201b60201c565b61003a60201b60201c565b6100fe565b600033905090565b60008060009054906101000a900473ffffffffffffffffffffffffffffffffffffffff169050816000806101000a81548173ffffffffffffffffffffffffffffffffffffffff021916908373ffffffffffffffffffffffffffffffffffffffff1602179055508173ffffffffffffffffffffffffffffffffffffffff168173ffffffffffffffffffffffffffffffffffffffff167f8be0079c531659141344cd1fd0a4f28419497f9722a3daafe3b4186f6b6457e060405160405180910390a35050565b6114848061010d6000396000f3fe608060405234801561001057600080fd5b506004361061007d5760003560e01c80638da5cb5b1161005b5780638da5cb5b146100c4578063c375c2ef146100e2578063cf5303cf146100fe578063f2fde38b1461011d5761007d565b80635f539d6914610082578063715018a61461009e578063871bd1f5146100a8575b600080fd5b61009c60048036038101906100979190610e19565b610139565b005b6100a66102a2565b005b6100c260048036038101906100bd9190610e19565b61032a565b005b6100cc610449565b6040516100d99190610fb9565b60405180910390f35b6100fc60048036038101906100f79190610e19565b610472565b005b610106610592565b604051610114929190610ffd565b60405180910390f35b61013760048036038101906101329190610e19565b610780565b005b610141610878565b73ffffffffffffffffffffffffffffffffffffffff1661015f610449565b73ffffffffffffffffffffffffffffffffffffffff16146101b5576040517f08c379a00000000000000000000000000000000000000000000000000000000081526004016101ac9061109f565b60405180910390fd5b6101be81610880565b6101fd576040517f08c379a00000000000000000000000000000000000000000000000000000000081526004016101f4906110ff565b60405180910390fd5b61021181600161089390919063ffffffff16565b15610251576040517f08c379a0000000000000000000000000000000000000000000000000000000008152600401610248906110bf565b60405180910390fd5b6102658160016108c390919063ffffffff16565b507fc18bee64adc0f12cc1ae1d99fc3a13c842658ba1fa6525931cff6e5c8d41aece8142604051610297929190610fd4565b60405180910390a150565b6102aa610878565b73ffffffffffffffffffffffffffffffffffffffff166102c8610449565b73ffffffffffffffffffffffffffffffffffffffff161461031e576040517f08c379a00000000000000000000000000000000000000000000000000000000081526004016103159061109f565b60405180910390fd5b61032860006108f3565b565b8073ffffffffffffffffffffffffffffffffffffffff16636769ca616040518163ffffffff1660e01b8152600401600060405180830381600087803b15801561037257600080fd5b505af1925050508015610383575060015b6103ea573d80600081146103b3576040519150601f19603f3d011682016040523d82523d6000602084013e6103b8565b606091505b506103db6040518060600160405280602e81526020016113fd602e9139836109b7565b6103e481610a53565b5061040d565b61040c60405180606001604052806024815260200161142b60249139826109b7565b5b7fc2ad6ca99f03c8ca2a7716700804528f014b3deec271623b1ad7de37a03625cd814260405161043e929190610fd4565b60405180910390a150565b60008060009054906101000a900473ffffffffffffffffffffffffffffffffffffffff16905090565b61047a610878565b73ffffffffffffffffffffffffffffffffffffffff16610498610449565b73ffffffffffffffffffffffffffffffffffffffff16146104ee576040517f08c379a00000000000000000000000000000000000000000000000000000000081526004016104e59061109f565b60405180910390fd5b61050281600161089390919063ffffffff16565b610541576040517f08c379a0000000000000000000000000000000000000000000000000000000008152600401610538906110df565b60405180910390fd5b610555816001610aec90919063ffffffff16565b507f2e679e28f3e451555ce37ffee2b2b78fc4fb20a2600394a8afbd2a5b6bd7bf5f8142604051610587929190610fd4565b60405180910390a150565b6000606060005b6105a36001610b1c565b81101561077b5760006105c0826001610b3190919063ffffffff16565b90508073ffffffffffffffffffffffffffffffffffffffff1663f1d640b06040518163ffffffff1660e01b815260040160206040518083038186803b15801561060857600080fd5b505afa92505050801561063957506040513d601f19601f820116820180604052508101906106369190610e42565b60015b6106a0573d8060008114610669576040519150601f19603f3d011682016040523d82523d6000602084013e61066e565b606091505b506106916040518060600160405280602e81526020016113fd602e9139836109b7565b61069a81610a53565b50610769565b80945063871bd1f560e01b826040516024016106bc9190610fb9565b604051602081830303815290604052907bffffffffffffffffffffffffffffffffffffffffffffffffffffffff19166020820180517bffffffffffffffffffffffffffffffffffffffffffffffffffffffff8381831617835250505050935061075a6040518060400160405280602081526020017f436865636b207375636365737366756c20666f7220636f6e7472616374202573815250836109b7565b841561076757505061077b565b505b508061077490611206565b9050610599565b509091565b610788610878565b73ffffffffffffffffffffffffffffffffffffffff166107a6610449565b73ffffffffffffffffffffffffffffffffffffffff16146107fc576040517f08c379a00000000000000000000000000000000000000000000000000000000081526004016107f39061109f565b60405180910390fd5b600073ffffffffffffffffffffffffffffffffffffffff168173ffffffffffffffffffffffffffffffffffffffff16141561086c576040517f08c379a00000000000000000000000000000000000000000000000000000000081526004016108639061107f565b60405180910390fd5b610875816108f3565b50565b600033905090565b600080823b905060008111915050919050565b60006108bb836000018373ffffffffffffffffffffffffffffffffffffffff1660001b610b4b565b905092915050565b60006108eb836000018373ffffffffffffffffffffffffffffffffffffffff1660001b610b6e565b905092915050565b60008060009054906101000a900473ffffffffffffffffffffffffffffffffffffffff169050816000806101000a81548173ffffffffffffffffffffffffffffffffffffffff021916908373ffffffffffffffffffffffffffffffffffffffff1602179055508173ffffffffffffffffffffffffffffffffffffffff168173ffffffffffffffffffffffffffffffffffffffff167f8be0079c531659141344cd1fd0a4f28419497f9722a3daafe3b4186f6b6457e060405160405180910390a35050565b610a4f82826040516024016109cd92919061104f565b6040516020818303038152906040527f319af333000000000000000000000000000000000000000000000000000000007bffffffffffffffffffffffffffffffffffffffffffffffffffffffff19166020820180517bffffffffffffffffffffffffffffffffffffffffffffffffffffffff8381831617835250505050610bde565b5050565b610ae981604051602401610a67919061102d565b6040516020818303038152906040527f0be77f56000000000000000000000000000000000000000000000000000000007bffffffffffffffffffffffffffffffffffffffffffffffffffffffff19166020820180517bffffffffffffffffffffffffffffffffffffffffffffffffffffffff8381831617835250505050610bde565b50565b6000610b14836000018373ffffffffffffffffffffffffffffffffffffffff1660001b610c07565b905092915050565b6000610b2a82600001610d8d565b9050919050565b6000610b408360000183610d9e565b60001c905092915050565b600080836001016000848152602001908152602001600020541415905092915050565b6000610b7a8383610b4b565b610bd3578260000182908060018154018082558091505060019003906000526020600020016000909190919091505582600001805490508360010160008481526020019081526020016000208190555060019050610bd8565b600090505b92915050565b60008151905060006a636f6e736f6c652e6c6f679050602083016000808483855afa5050505050565b60008083600101600084815260200190815260200160002054905060008114610d81576000600182610c399190611157565b9050600060018660000180549050610c519190611157565b9050818114610d0c576000866000018281548110610c98577f4e487b7100000000000000000000000000000000000000000000000000000000600052603260045260246000fd5b9060005260206000200154905080876000018481548110610ce2577f4e487b7100000000000000000000000000000000000000000000000000000000600052603260045260246000fd5b90600052602060002001819055508387600101600083815260200190815260200160002081905550505b85600001805480610d46577f4e487b7100000000000000000000000000000000000000000000000000000000600052603160045260246000fd5b600190038181906000526020600020016000905590558560010160008681526020019081526020016000206000905560019350505050610d87565b60009150505b92915050565b600081600001805490509050919050565b6000826000018281548110610ddc577f4e487b7100000000000000000000000000000000000000000000000000000000600052603260045260246000fd5b9060005260206000200154905092915050565b600081359050610dfe816113ce565b92915050565b600081519050610e13816113e5565b92915050565b600060208284031215610e2b57600080fd5b6000610e3984828501610def565b91505092915050565b600060208284031215610e5457600080fd5b6000610e6284828501610e04565b91505092915050565b610e748161118b565b82525050565b610e838161119d565b82525050565b6000610e948261111f565b610e9e8185611135565b9350610eae8185602086016111d3565b610eb78161127e565b840191505092915050565b6000610ecd8261112a565b610ed78185611146565b9350610ee78185602086016111d3565b610ef08161127e565b840191505092915050565b6000610f08602683611146565b9150610f138261128f565b604082019050919050565b6000610f2b602083611146565b9150610f36826112de565b602082019050919050565b6000610f4e602683611146565b9150610f5982611307565b604082019050919050565b6000610f71602283611146565b9150610f7c82611356565b604082019050919050565b6000610f94601c83611146565b9150610f9f826113a5565b602082019050919050565b610fb3816111c9565b82525050565b6000602082019050610fce6000830184610e6b565b92915050565b6000604082019050610fe96000830185610e6b565b610ff66020830184610faa565b9392505050565b60006040820190506110126000830185610e7a565b81810360208301526110248184610e89565b90509392505050565b600060208201905081810360008301526110478184610e89565b905092915050565b600060408201905081810360008301526110698185610ec2565b90506110786020830184610e6b565b9392505050565b6000602082019050818103600083015261109881610efb565b9050919050565b600060208201905081810360008301526110b881610f1e565b9050919050565b600060208201905081810360008301526110d881610f41565b9050919050565b600060208201905081810360008301526110f881610f64565b9050919050565b6000602082019050818103600083015261111881610f87565b9050919050565b600081519050919050565b600081519050919050565b600082825260208201905092915050565b600082825260208201905092915050565b6000611162826111c9565b915061116d836111c9565b9250828210156111805761117f61124f565b5b828203905092915050565b6000611196826111a9565b9050919050565b60008115159050919050565b600073ffffffffffffffffffffffffffffffffffffffff82169050919050565b6000819050919050565b60005b838110156111f15780820151818401526020810190506111d6565b83811115611200576000848401525b50505050565b6000611211826111c9565b91507fffffffffffffffffffffffffffffffffffffffffffffffffffffffffffffffff8214156112445761124361124f565b5b600182019050919050565b7f4e487b7100000000000000000000000000000000000000000000000000000000600052601160045260246000fd5b6000601f19601f8301169050919050565b7f4f776e61626c653a206e6577206f776e657220697320746865207a65726f206160008201527f6464726573730000000000000000000000000000000000000000000000000000602082015250565b7f4f776e61626c653a2063616c6c6572206973206e6f7420746865206f776e6572600082015250565b7f64486564676555706b6565703a20436f6e747261637420616c7265616479207060008201527f726573656e740000000000000000000000000000000000000000000000000000602082015250565b7f64486564676555706b6565703a20436f6e7472616374206e6f7420707265736560008201527f6e74000000000000000000000000000000000000000000000000000000000000602082015250565b7f64486564676555706b6565703a204e6f74206120636f6e747261637400000000600082015250565b6113d78161118b565b81146113e257600080fd5b50565b6113ee8161119d565b81146113f957600080fd5b5056fe4572726f7220656e636f756e746572656420666f7220636f6e74726163742025732077697468206572726f723a20457865637574696f6e207375636365737366756c20666f7220636f6e7472616374202573a2646970667358221220e0a977d7c730f173c434d955307aadaac1ca060308da4b8f98f22a9c3acc5c1464736f6c63430008040033",
  "devdoc": {
    "author": "rashtrakoff",
    "custom:experimental": "This is an experimental contract/library. Use at your own risk.",
    "details": "Resolver contract for keepers",
    "kind": "dev",
    "methods": {
      "addContract(address)": {
        "details": "Add a core contract for upkeep",
        "params": {
          "_contract": "Address of the core contract"
        }
      },
      "callFunction(address)": {
        "details": "Calls deposit function in a core contract. Should be used by keepers.",
        "params": {
          "_contract": "Address of the core contract"
        }
      },
      "checker()": {
        "details": "Function which checks if any of the registered core contracts require upkeep"
      },
      "owner()": {
        "details": "Returns the address of the current owner."
      },
      "removeContract(address)": {
        "details": "Removes a core contract from upkeep services",
        "params": {
          "_contract": "Address of the core contract"
        }
      },
      "renounceOwnership()": {
        "details": "Leaves the contract without owner. It will not be possible to call `onlyOwner` functions anymore. Can only be called by the current owner. NOTE: Renouncing ownership will leave the contract without an owner, thereby removing any functionality that is only available to the owner."
      },
      "transferOwnership(address)": {
        "details": "Transfers ownership of the contract to a new account (`newOwner`). Can only be called by the current owner."
      }
    },
    "title": "dHedge upkeep contract",
    "version": 1
  },
  "userdoc": {
    "kind": "user",
    "methods": {},
    "version": 1
  },
  "storageLayout": {
    "storage": [
      {
        "astId": 7,
        "contract": "contracts/dHedge/dHedgeUpkeepGelato.sol:dHedgeUpkeepGelato",
        "label": "_owner",
        "offset": 0,
        "slot": "0",
        "type": "t_address"
      },
      {
        "astId": 991,
        "contract": "contracts/dHedge/dHedgeUpkeepGelato.sol:dHedgeUpkeepGelato",
        "label": "upkeepSet",
        "offset": 0,
        "slot": "1",
        "type": "t_struct(AddressSet)515_storage"
      }
    ],
    "types": {
      "t_address": {
        "encoding": "inplace",
        "label": "address",
        "numberOfBytes": "20"
      },
      "t_array(t_bytes32)dyn_storage": {
        "base": "t_bytes32",
        "encoding": "dynamic_array",
        "label": "bytes32[]",
        "numberOfBytes": "32"
      },
      "t_bytes32": {
        "encoding": "inplace",
        "label": "bytes32",
        "numberOfBytes": "32"
      },
      "t_mapping(t_bytes32,t_uint256)": {
        "encoding": "mapping",
        "key": "t_bytes32",
        "label": "mapping(bytes32 => uint256)",
        "numberOfBytes": "32",
        "value": "t_uint256"
      },
      "t_struct(AddressSet)515_storage": {
        "encoding": "inplace",
        "label": "struct EnumerableSet.AddressSet",
        "members": [
          {
            "astId": 514,
            "contract": "contracts/dHedge/dHedgeUpkeepGelato.sol:dHedgeUpkeepGelato",
            "label": "_inner",
            "offset": 0,
            "slot": "0",
            "type": "t_struct(Set)214_storage"
          }
        ],
        "numberOfBytes": "64"
      },
      "t_struct(Set)214_storage": {
        "encoding": "inplace",
        "label": "struct EnumerableSet.Set",
        "members": [
          {
            "astId": 209,
            "contract": "contracts/dHedge/dHedgeUpkeepGelato.sol:dHedgeUpkeepGelato",
            "label": "_values",
            "offset": 0,
            "slot": "0",
            "type": "t_array(t_bytes32)dyn_storage"
          },
          {
            "astId": 213,
            "contract": "contracts/dHedge/dHedgeUpkeepGelato.sol:dHedgeUpkeepGelato",
            "label": "_indexes",
            "offset": 0,
            "slot": "1",
            "type": "t_mapping(t_bytes32,t_uint256)"
          }
        ],
        "numberOfBytes": "64"
      },
      "t_uint256": {
        "encoding": "inplace",
        "label": "uint256",
        "numberOfBytes": "32"
      }
    }
  }
}