{
  "address": "0xfbd406097DbfA3dC3560D5a6ca1a0D73465e3699",
  "abi": [
    {
      "inputs": [
        {
          "internalType": "address",
          "name": "_dao",
          "type": "address"
        },
        {
          "internalType": "uint32",
          "name": "_defaultFeeRate",
          "type": "uint32"
        }
      ],
      "stateMutability": "nonpayable",
      "type": "constructor"
    },
    {
      "anonymous": false,
      "inputs": [
        {
          "indexed": false,
          "internalType": "address",
          "name": "_newCore",
          "type": "address"
        },
        {
          "indexed": false,
          "internalType": "address",
          "name": "_pool",
          "type": "address"
        },
        {
          "indexed": false,
          "internalType": "address",
          "name": "_poolSuperToken",
          "type": "address"
        }
      ],
      "name": "CoreCreated",
      "type": "event"
    },
    {
      "anonymous": false,
      "inputs": [
        {
          "indexed": false,
          "internalType": "address",
          "name": "_newDAO",
          "type": "address"
        }
      ],
      "name": "DAOAddressChanged",
      "type": "event"
    },
    {
      "anonymous": false,
      "inputs": [
        {
          "indexed": false,
          "internalType": "uint32",
          "name": "_newFeeRate",
          "type": "uint32"
        }
      ],
      "name": "FeeRateChanged",
      "type": "event"
    },
    {
      "anonymous": false,
      "inputs": [
        {
          "indexed": true,
          "internalType": "address",
          "name": "previousOwner",
          "type": "address"
        },
        {
          "indexed": true,
          "internalType": "address",
          "name": "newOwner",
          "type": "address"
        }
      ],
      "name": "OwnershipTransferred",
      "type": "event"
    },
    {
      "inputs": [
        {
          "internalType": "address",
          "name": "",
          "type": "address"
        }
      ],
      "name": "cores",
      "outputs": [
        {
          "internalType": "address",
          "name": "",
          "type": "address"
        }
      ],
      "stateMutability": "view",
      "type": "function"
    },
    {
      "inputs": [
        {
          "internalType": "address",
          "name": "_dHedgePool",
          "type": "address"
        },
        {
          "internalType": "contract ISuperToken",
          "name": "_DHPTx",
          "type": "address"
        }
      ],
      "name": "createdHedgeCore",
      "outputs": [],
      "stateMutability": "nonpayable",
      "type": "function"
    },
    {
      "inputs": [],
      "name": "dao",
      "outputs": [
        {
          "internalType": "address",
          "name": "",
          "type": "address"
        }
      ],
      "stateMutability": "view",
      "type": "function"
    },
    {
      "inputs": [],
      "name": "defaultFeeRate",
      "outputs": [
        {
          "internalType": "uint32",
          "name": "",
          "type": "uint32"
        }
      ],
      "stateMutability": "view",
      "type": "function"
    },
    {
      "inputs": [],
      "name": "implementation",
      "outputs": [
        {
          "internalType": "address",
          "name": "",
          "type": "address"
        }
      ],
      "stateMutability": "view",
      "type": "function"
    },
    {
      "inputs": [],
      "name": "owner",
      "outputs": [
        {
          "internalType": "address",
          "name": "",
          "type": "address"
        }
      ],
      "stateMutability": "view",
      "type": "function"
    },
    {
      "inputs": [],
      "name": "renounceOwnership",
      "outputs": [],
      "stateMutability": "nonpayable",
      "type": "function"
    },
    {
      "inputs": [
        {
          "internalType": "address",
          "name": "_dao",
          "type": "address"
        }
      ],
      "name": "setDAOAddress",
      "outputs": [],
      "stateMutability": "nonpayable",
      "type": "function"
    },
    {
      "inputs": [
        {
          "internalType": "uint32",
          "name": "_defaultFeeRate",
          "type": "uint32"
        }
      ],
      "name": "setDefaultFeeRate",
      "outputs": [],
      "stateMutability": "nonpayable",
      "type": "function"
    },
    {
      "inputs": [
        {
          "internalType": "address",
          "name": "newOwner",
          "type": "address"
        }
      ],
      "name": "transferOwnership",
      "outputs": [],
      "stateMutability": "nonpayable",
      "type": "function"
    }
  ],
  "transactionHash": "0xa93bafa25c217ef7bc7185b99735694415e3bc24d1717d3cda0ba4e0e106c2f4",
  "args": [
    "0x452181dAe31Cf9f42189df71eC64298993BEe6d3",
    "15000"
  ],
  "solcInputHash": "86d86d91740d38c7ba30914dcf583cd4",
  "bytecode": "0x60c0604052600160a05234801561001557600080fd5b50604051612cac380380612cac83398101604081905261003491610118565b61003d336100bb565b6040516100499061010b565b604051809103906000f080158015610065573d6000803e3d6000fd5b5060601b6001600160601b031916608052600180546001600160c01b031916600160a01b63ffffffff93909316929092026001600160a01b031916919091176001600160a01b0392909216919091179055610164565b600080546001600160a01b038381166001600160a01b0319831681178455604051919092169283917f8be0079c531659141344cd1fd0a4f28419497f9722a3daafe3b4186f6b6457e09190a35050565b6123a68061090683390190565b6000806040838503121561012a578182fd5b82516001600160a01b0381168114610140578283fd5b602084015190925063ffffffff81168114610159578182fd5b809150509250929050565b60805160601c60a051610773610193600039600061035001526000818161012c01526102a901526107736000f3fe608060405234801561001057600080fd5b506004361061009e5760003560e01c8063715018a611610066578063715018a61461014e57806385ad32c4146101565780638da5cb5b1461017f578063965afa8914610190578063f2fde38b146101a357600080fd5b806307d33455146100a35780633310e049146100d45780634162169f146100e957806353874009146101145780635c60da1b14610127575b600080fd5b6001546100ba90600160a01b900463ffffffff1681565b60405163ffffffff90911681526020015b60405180910390f35b6100e76100e23660046106cf565b6101b6565b005b6001546100fc906001600160a01b031681565b6040516001600160a01b0390911681526020016100cb565b6100e7610122366004610697565b610244565b6100fc7f000000000000000000000000000000000000000000000000000000000000000081565b6100e761043e565b6100fc610164366004610674565b6002602052600090815260409020546001600160a01b031681565b6000546001600160a01b03166100fc565b6100e761019e366004610674565b610474565b6100e76101b1366004610674565b6104ec565b6000546001600160a01b031633146101e95760405162461bcd60e51b81526004016101e0906106f3565b60405180910390fd5b6001805463ffffffff60a01b1916600160a01b63ffffffff8416908102919091179091556040519081527f50cdd878435a7740fd0e2a9f496a4b02b6be5fabe2d5cdc4621ce34b0eb622cf906020015b60405180910390a150565b6001600160a01b0382811660009081526002602052604090205416156102a25760405162461bcd60e51b8152602060048201526013602482015272436f726520616c72656164792065786973747360681b60448201526064016101e0565b60006102cd7f0000000000000000000000000000000000000000000000000000000000000000610587565b60405163485cc95560e01b81526001600160a01b03858116600483015284811660248301529192509082169063485cc95590604401600060405180830381600087803b15801561031c57600080fd5b505af1158015610330573d6000803e3d6000fd5b50506040516379b9982960e11b81526001600160a01b03841660048201527f00000000000000000000000000000000000000000000000000000000000000006024820152733e14dc1b13c488a8d5d310918780c983bd5982e7925063f37330529150604401600060405180830381600087803b1580156103af57600080fd5b505af11580156103c3573d6000803e3d6000fd5b505050506001600160a01b0383811660008181526002602090815260409182902080548686166001600160a01b031990911681179091558251908152908101929092529184168183015290517f868c3df5a35363022243f570d6994cbc4bd23970d31dfacc958e1136c1aefa1b9181900360600190a1505050565b6000546001600160a01b031633146104685760405162461bcd60e51b81526004016101e0906106f3565b6104726000610624565b565b6000546001600160a01b0316331461049e5760405162461bcd60e51b81526004016101e0906106f3565b600180546001600160a01b0319166001600160a01b0383169081179091556040519081527fecff1e63d1353a6547ccbdf184f5c70679a70ef4982fb945f9cfc59e2718d20090602001610239565b6000546001600160a01b031633146105165760405162461bcd60e51b81526004016101e0906106f3565b6001600160a01b03811661057b5760405162461bcd60e51b815260206004820152602660248201527f4f776e61626c653a206e6577206f776e657220697320746865207a65726f206160448201526564647265737360d01b60648201526084016101e0565b61058481610624565b50565b6000604051733d602d80600a3d3981f3363d3d373d3d3d363d7360601b81528260601b60148201526e5af43d82803e903d91602b57fd5bf360881b60288201526037816000f09150506001600160a01b03811661061f5760405162461bcd60e51b8152602060048201526016602482015275115490cc4c4d8dce8818dc99585d194819985a5b195960521b60448201526064016101e0565b919050565b600080546001600160a01b038381166001600160a01b0319831681178455604051919092169283917f8be0079c531659141344cd1fd0a4f28419497f9722a3daafe3b4186f6b6457e09190a35050565b600060208284031215610685578081fd5b813561069081610728565b9392505050565b600080604083850312156106a9578081fd5b82356106b481610728565b915060208301356106c481610728565b809150509250929050565b6000602082840312156106e0578081fd5b813563ffffffff81168114610690578182fd5b6020808252818101527f4f776e61626c653a2063616c6c6572206973206e6f7420746865206f776e6572604082015260600190565b6001600160a01b038116811461058457600080fdfea2646970667358221220071369af05586b732601d9c4954ddcd453491171efecc858d3b1ac120db1356b64736f6c63430008040033608060405234801561001057600080fd5b50612386806100206000396000f3fe608060405234801561001057600080fd5b506004361061010b5760003560e01c8063587d5ff5116100a2578063884d1f4011610071578063884d1f4014610211578063911f94e114610224578063bf63e96014610245578063d86ed3e51461026a578063f1d640b01461027d57600080fd5b8063587d5ff5146101d0578063591f7ea5146101e35780635f9e7d77146101eb5780636ff1c9bc146101fe57600080fd5b8063485cc955116100de578063485cc95514610181578063525f45fb1461019457806353be974f146101a757806353c11f99146101bd57600080fd5b8063013116da14610110578063230dbd29146101445780632ea31c181461016457806330d9c9151461016e575b600080fd5b61012361011e366004611d39565b6102a4565b60408051921515835263ffffffff9091166020830152015b60405180910390f35b610157610152366004611ee7565b610301565b60405161013b919061214b565b61016c610471565b005b61015761017c366004611e4b565b61048e565b61016c61018f366004611da9565b6106b0565b61016c6101a2366004611d39565b6107bf565b60015460ff16604051901515815260200161013b565b6101576101cb366004611ee7565b61083c565b61016c6101de366004611da9565b6109e1565b61016c610a58565b6101576101f9366004611e4b565b610ac2565b61016c61020c366004611d39565b610c2c565b61015761021f366004611e4b565b610d7a565b610237610232366004611d71565b610ea7565b60405190815260200161013b565b600354600160a01b900463ffffffff1660405163ffffffff909116815260200161013b565b610157610278366004611ee7565b610f4b565b6102856114a5565b6040805192151583526001600160a01b0390911660208301520161013b565b6001600160a01b038181166000908152600460205260408120549091829116156102f65750506001600160a01b0316600090815260046020526040902054600191600160a01b90910463ffffffff1690565b506000928392509050565b606061030b611534565b610314896115a4565b82828080601f016020809104026020016040519081016040528093929190818152602001838380828437600081840152601f19601f82011690508083019250505050505050905060017334CAbB88CcEe33Feb1026CeF47E2cc37ADe49D5f63d9e9640990918b8d6001600160a01b031663ee719bc86040518163ffffffff1660e01b815260040160206040518083038186803b1580156103b357600080fd5b505afa1580156103c7573d6000803e3d6000fd5b505050506040513d601f19601f820116820180604052508101906103eb9190611d55565b858a8a6040518763ffffffff1660e01b815260040161040f96959493929190612202565b60006040518083038186803b15801561042757600080fd5b505af415801561043b573d6000803e3d6000fd5b505050506040513d6000823e601f3d908101601f191682016040526104639190810190611e18565b9a9950505050505050505050565b61047a3361172c565b610482611809565b6001805460ff19169055565b6060610498611534565b6104a1876115a4565b6104a9611809565b6000886001600160a01b031663ee719bc86040518163ffffffff1660e01b815260040160206040518083038186803b1580156104e457600080fd5b505afa1580156104f8573d6000803e3d6000fd5b505050506040513d601f19601f8201168201806040525081019061051c9190611d55565b6001600160a01b03808216600090815260046020526040902054919250168015806105585750896001600160a01b0316816001600160a01b0316145b6105b55760405162461bcd60e51b8152602060048201526024808201527f644865646765436f72653a205375706572746f6b656e206e6f7420737570706f6044820152631c9d195960e21b60648201526084015b60405180910390fd5b6040516322462b9160e11b8152600160048201526001600160a01b03831660248201527334CAbB88CcEe33Feb1026CeF47E2cc37ADe49D5f9063448c57229060440160206040518083038186803b15801561060f57600080fd5b505af4158015610623573d6000803e3d6000fd5b505050506040513d601f19601f820116820180604052508101906106479190611dbb565b6106935760405162461bcd60e51b815260206004820152601d60248201527f644865646765436f72653a204e6f74206465706f73697420617373657400000060448201526064016105ac565b505060408051600081526020810190915298975050505050505050565b600054610100900460ff16806106c9575060005460ff16155b61072c5760405162461bcd60e51b815260206004820152602e60248201527f496e697469616c697a61626c653a20636f6e747261637420697320616c72656160448201526d191e481a5b9a5d1a585b1a5e995960921b60648201526084016105ac565b600054610100900460ff1615801561074e576000805461ffff19166101011790555b60018054600280546001600160a01b031990811633179091556001600160a01b03858116610100026001600160a81b0319909316929092178317909255600380549186169190921681179091556107a8908360001961185b565b80156107ba576000805461ff00191690555b505050565b6107c7611809565b60405163394110d160e01b8152600160048201526001600160a01b03821660248201527334CAbB88CcEe33Feb1026CeF47E2cc37ADe49D5f9063394110d19060440160006040518083038186803b15801561082157600080fd5b505af4158015610835573d6000803e3d6000fd5b5050505050565b6060610846611534565b82828080601f016020809104026020016040519081016040528093929190818152602001838380828437600081840152601f19601f82011690508083019250505050505050905060017334CAbB88CcEe33Feb1026CeF47E2cc37ADe49D5f63d9e9640990918b8d6001600160a01b031663ee719bc86040518163ffffffff1660e01b815260040160206040518083038186803b1580156108e557600080fd5b505afa1580156108f9573d6000803e3d6000fd5b505050506040513d601f19601f8201168201806040525081019061091d9190611d55565b858a8a6040518763ffffffff1660e01b815260040161094196959493929190612202565b60006040518083038186803b15801561095957600080fd5b505af492505050801561098e57506040513d6000823e601f3d908101601f1916820160405261098b9190810190611e18565b60015b6109d1573d8080156109bc576040519150601f19603f3d011682016040523d82523d6000602084013e6109c1565b606091505b506109cb81611955565b506109d4565b90505b9998505050505050505050565b6040516302e65b1d60e21b81526001600160a01b0383811660048301528216602482015273dD01FfdC9B6aFe601ABc4022bF83346Aec03867990630b996c749060440160006040518083038186803b158015610a3c57600080fd5b505af4158015610a50573d6000803e3d6000fd5b505050505050565b610a613361172c565b60015460ff1615610ab45760405162461bcd60e51b815260206004820152601f60248201527f644865646765436f72653a20506f6f6c20616c7265616479206163746976650060448201526064016105ac565b6001805460ff191681179055565b6060610acc611534565b60017334CAbB88CcEe33Feb1026CeF47E2cc37ADe49D5f635ac9370e9091898b6001600160a01b031663ee719bc86040518163ffffffff1660e01b815260040160206040518083038186803b158015610b2457600080fd5b505afa158015610b38573d6000803e3d6000fd5b505050506040513d601f19601f82011682018060405250810190610b5c9190611d55565b87876040518663ffffffff1660e01b8152600401610b7e9594939291906121cf565b60006040518083038186803b158015610b9657600080fd5b505af4925050508015610bcb57506040513d6000823e601f3d908101601f19168201604052610bc89190810190611e18565b60015b610c1e573d808015610bf9576040519150601f19603f3d011682016040523d82523d6000602084013e610bfe565b606091505b50610c0881611955565b5050604080516000815260208101909152610c21565b90505b979650505050505050565b610c353361172c565b60025460408051634162169f60e01b81529051610d3b926001600160a01b031691634162169f916004808301926020929190829003018186803b158015610c7b57600080fd5b505afa158015610c8f573d6000803e3d6000fd5b505050506040513d601f19601f82011682018060405250810190610cb39190611d55565b6040516370a0823160e01b81523060048201526001600160a01b038416906370a082319060240160206040518083038186803b158015610cf257600080fd5b505afa158015610d06573d6000803e3d6000fd5b505050506040513d601f19601f82011682018060405250810190610d2a9190611e00565b6001600160a01b0384169190611998565b6040516001600160a01b03821681527f5e7b34819cd91b239220bec92fcfd3c10da2214ba13e4e2b1f6c9cfdbd68a9a29060200160405180910390a150565b6060610d84611534565b610d8d876115a4565b610d95611809565b60017334CAbB88CcEe33Feb1026CeF47E2cc37ADe49D5f635ac9370e9091898b6001600160a01b031663ee719bc86040518163ffffffff1660e01b815260040160206040518083038186803b158015610ded57600080fd5b505afa158015610e01573d6000803e3d6000fd5b505050506040513d601f19601f82011682018060405250810190610e259190611d55565b87876040518663ffffffff1660e01b8152600401610e479594939291906121cf565b60006040518083038186803b158015610e5f57600080fd5b505af4158015610e73573d6000803e3d6000fd5b505050506040513d6000823e601f3d908101601f19168201604052610e9b9190810190611e18565b98975050505050505050565b604051631740215d60e01b8152600160048201526001600160a01b038084166024830152821660448201526000907334CAbB88CcEe33Feb1026CeF47E2cc37ADe49D5f90631740215d9060640160206040518083038186803b158015610f0c57600080fd5b505af4158015610f20573d6000803e3d6000fd5b505050506040513d601f19601f82011682018060405250810190610f449190611e00565b9392505050565b6060610f55611534565b610f5e896115a4565b82828080601f016020809104026020016040519081016040528093929190818152602001838380828437600081840152601f19601f82011690508083019250505050505050905060008a6001600160a01b031663ee719bc86040518163ffffffff1660e01b815260040160206040518083038186803b158015610fe057600080fd5b505afa158015610ff4573d6000803e3d6000fd5b505050506040513d601f19601f820116820180604052508101906110189190611d55565b6001600160a01b038082166000908152600460205260409020805492935091166111725780546001600160a01b0319166001600160a01b038d1617815560038054600160a01b900463ffffffff16906014611072836122eb565b825461010092830a63ffffffff818102199092169282160291909117909255835463ffffffff60a01b1916600160a01b938316840217808555426001868101919091555460405163989ebc6360e01b815273dD01FfdC9B6aFe601ABc4022bF83346Aec0386799563989ebc63956110ff959093046001600160a01b03169304909116908890600401612196565b60006040518083038186803b15801561111757600080fd5b505af415801561112b573d6000803e3d6000fd5b505050506040513d6000823e601f3d908101601f191682016040526111539190810190611e18565b600354909350611172906001600160a01b03848116911660001961185b565b604051631fb6491d60e11b8152600090733e14dc1b13c488a8d5d310918780c983bd5982e790633f6c923a906111ac90879060040161214b565b60006040518083038186803b1580156111c457600080fd5b505afa1580156111d8573d6000803e3d6000fd5b505050506040513d6000823e601f3d908101601f191682016040526112009190810190611fae565b60600151905060008d6001600160a01b031673dD01FfdC9B6aFe601ABc4022bF83346Aec038679638cca42b59091846040518363ffffffff1660e01b81526004016112619291906001600160a01b0392831681529116602082015260400190565b604080518083038186803b15801561127857600080fd5b505af415801561128c573d6000803e3d6000fd5b505050506040513d601f19601f820116820180604052508101906112b091906120b1565b9150508d6001600160a01b03166323b872dd8330846bffffffffffffffffffffffff168760010154426112e391906122a8565b6112ed9190612289565b6040516001600160e01b031960e086901b1681526001600160a01b0393841660048201529290911660248301526044820152606401602060405180830381600087803b15801561133c57600080fd5b505af1158015611350573d6000803e3d6000fd5b505050506040513d601f19601f820116820180604052508101906113749190611dbb565b6113cb5760405162461bcd60e51b815260206004820152602260248201527f644865646765436f72653a20427566666572207472616e73666572206661696c604482015261195960f21b60648201526084016105ac565b8d6001600160a01b031673dD01FfdC9B6aFe601ABc4022bF83346Aec038679633d7013f69091600160000160019054906101000a90046001600160a01b03168660000160149054906101000a900463ffffffff16896040518563ffffffff1660e01b815260040161143f949392919061215e565b60006040518083038186803b15801561145757600080fd5b505af415801561146b573d6000803e3d6000fd5b505050506040513d6000823e601f3d908101601f191682016040526114939190810190611e18565b9e9d5050505050505050505050505050565b60405163832a95fd60e01b81526001600482015260009081907334CAbB88CcEe33Feb1026CeF47E2cc37ADe49D5f9063832a95fd90602401604080518083038186803b1580156114f457600080fd5b505af4158015611508573d6000803e3d6000fd5b505050506040513d601f19601f8201168201806040525081019061152c9190611dd5565b915091509091565b33733e14dc1b13c488a8d5d310918780c983bd5982e7146115a25760405162461bcd60e51b815260206004820152602260248201527f644865646765436f72653a20537570706f727473206f6e6c79206f6e6520686f6044820152611cdd60f21b60648201526084016105ac565b565b7fa9214cc96615e0085d3bb077758db69497dc2dce3b2b1e97bc93c3d18d83efd3816001600160a01b0316637730599e6040518163ffffffff1660e01b815260040160206040518083038186803b1580156115fe57600080fd5b505afa158015611612573d6000803e3d6000fd5b505050506040513d601f19601f820116820180604052508101906116369190611e00565b14806116d157507f8aedc3b5d4bf031e11a7e2940f7251c005698405d58e02e1c247fed3b1b3a674816001600160a01b0316637730599e6040518163ffffffff1660e01b815260040160206040518083038186803b15801561169757600080fd5b505afa1580156116ab573d6000803e3d6000fd5b505050506040513d601f19601f820116820180604052508101906116cf9190611e00565b145b6117295760405162461bcd60e51b8152602060048201526024808201527f644865646765436f72653a2043616c6c6261636b2063616c6c656420696c6c6560448201526367616c7960e01b60648201526084016105ac565b50565b60025460408051638da5cb5b60e01b815290516001600160a01b0390921691638da5cb5b91600480820192602092909190829003018186803b15801561177157600080fd5b505afa158015611785573d6000803e3d6000fd5b505050506040513d601f19601f820116820180604052508101906117a99190611d55565b6001600160a01b0316816001600160a01b0316146117295760405162461bcd60e51b815260206004820152601960248201527f644865646765436f72653a204e6f7420746865206f776e65720000000000000060448201526064016105ac565b60015460ff166115a25760405162461bcd60e51b815260206004820152601960248201527f644865646765436f72653a20506f6f6c20696e6163746976650000000000000060448201526064016105ac565b604051636eb1769f60e11b81523060048201526001600160a01b038381166024830152600091839186169063dd62ed3e9060440160206040518083038186803b1580156118a757600080fd5b505afa1580156118bb573d6000803e3d6000fd5b505050506040513d601f19601f820116820180604052508101906118df9190611e00565b6118e99190612271565b6040516001600160a01b03851660248201526044810182905290915061194f90859063095ea7b360e01b906064015b60408051601f198184030181529190526020810180516001600160e01b03166001600160e01b0319909316929092179091526119c8565b50505050565b61172981604051602401611969919061214b565b60408051601f198184030181529190526020810180516001600160e01b03166305f3bfab60e11b179052611a9a565b6040516001600160a01b0383166024820152604481018290526107ba90849063a9059cbb60e01b90606401611918565b6000611a1d826040518060400160405280602081526020017f5361666545524332303a206c6f772d6c6576656c2063616c6c206661696c6564815250856001600160a01b0316611abb9092919063ffffffff16565b8051909150156107ba5780806020019051810190611a3b9190611dbb565b6107ba5760405162461bcd60e51b815260206004820152602a60248201527f5361666545524332303a204552433230206f7065726174696f6e20646964206e6044820152691bdd081cdd58d8d9595960b21b60648201526084016105ac565b80516a636f6e736f6c652e6c6f67602083016000808483855afa5050505050565b6060611aca8484600085611ad2565b949350505050565b606082471015611b335760405162461bcd60e51b815260206004820152602660248201527f416464726573733a20696e73756666696369656e742062616c616e636520666f6044820152651c8818d85b1b60d21b60648201526084016105ac565b843b611b815760405162461bcd60e51b815260206004820152601d60248201527f416464726573733a2063616c6c20746f206e6f6e2d636f6e747261637400000060448201526064016105ac565b600080866001600160a01b03168587604051611b9d919061212f565b60006040518083038185875af1925050503d8060008114611bda576040519150601f19603f3d011682016040523d82523d6000602084013e611bdf565b606091505b5091509150610c2182828660608315611bf9575081610f44565b825115611c095782518084602001fd5b8160405162461bcd60e51b81526004016105ac919061214b565b8051611c2e8161233b565b919050565b80518015158114611c2e57600080fd5b80516001600160e01b031981168114611c2e57600080fd5b60008083601f840112611c6c578182fd5b50813567ffffffffffffffff811115611c83578182fd5b602083019150836020828501011115611c9b57600080fd5b9250929050565b600082601f830112611cb2578081fd5b815167ffffffffffffffff80821115611ccd57611ccd612325565b604051601f8301601f19908116603f01168101908282118183101715611cf557611cf5612325565b81604052838152866020858801011115611d0d578485fd5b611d1e8460208301602089016122bf565b9695505050505050565b805160ff81168114611c2e57600080fd5b600060208284031215611d4a578081fd5b8135610f448161233b565b600060208284031215611d66578081fd5b8151610f448161233b565b60008060408385031215611d83578081fd5b8235611d8e8161233b565b91506020830135611d9e8161233b565b809150509250929050565b60008060408385031215611d83578182fd5b600060208284031215611dcc578081fd5b610f4482611c33565b60008060408385031215611de7578182fd5b611df083611c33565b91506020830151611d9e8161233b565b600060208284031215611e11578081fd5b5051919050565b600060208284031215611e29578081fd5b815167ffffffffffffffff811115611e3f578182fd5b611aca84828501611ca2565b600080600080600080600060a0888a031215611e65578283fd5b8735611e708161233b565b96506020880135611e808161233b565b955060408801359450606088013567ffffffffffffffff80821115611ea3578485fd5b611eaf8b838c01611c5b565b909650945060808a0135915080821115611ec7578384fd5b50611ed48a828b01611c5b565b989b979a50959850939692959293505050565b600080600080600080600080600060c08a8c031215611f04578283fd5b8935611f0f8161233b565b985060208a0135611f1f8161233b565b975060408a0135965060608a013567ffffffffffffffff80821115611f42578485fd5b611f4e8d838e01611c5b565b909850965060808c0135915080821115611f66578485fd5b611f728d838e01611c5b565b909650945060a08c0135915080821115611f8a578384fd5b50611f978c828d01611c5b565b915080935050809150509295985092959850929598565b600060208284031215611fbf578081fd5b815167ffffffffffffffff80821115611fd6578283fd5b908301906101608286031215611fea578283fd5b611ff2612247565b611ffb83611d28565b815261200960208401611d28565b60208201526040830151604082015261202460608401611c23565b606082015261203560808401611c43565b608082015260a08301518281111561204b578485fd5b61205787828601611ca2565b60a08301525060c083015160c082015260e083015160e082015261010091508183015182820152610120915061208e828401611c23565b8282015261014091506120a2828401611c23565b91810191909152949350505050565b600080604083850312156120c3578182fd5b82519150602083015180600b0b8114611d9e578182fd5b81835281816020850137506000828201602090810191909152601f909101601f19169091010190565b6000815180845261211b8160208601602086016122bf565b601f01601f19169290920160200192915050565b600082516121418184602087016122bf565b9190910192915050565b602081526000610f446020830184612103565b6001600160a01b0385811682528416602082015263ffffffff83166040820152608060608201819052600090611d1e90830184612103565b6001600160a01b038416815263ffffffff831660208201526060604082018190526000906121c690830184612103565b95945050505050565b8581526001600160a01b03858116602083015284166040820152608060608201819052600090610c2190830184866120da565b8681526001600160a01b0386811660208301528516604082015260a06060820181905260009061223490830186612103565b82810360808401526109d48185876120da565b604051610160810167ffffffffffffffff8111828210171561226b5761226b612325565b60405290565b600082198211156122845761228461230f565b500190565b60008160001904831182151516156122a3576122a361230f565b500290565b6000828210156122ba576122ba61230f565b500390565b60005b838110156122da5781810151838201526020016122c2565b8381111561194f5750506000910152565b600063ffffffff808316818114156123055761230561230f565b6001019392505050565b634e487b7160e01b600052601160045260246000fd5b634e487b7160e01b600052604160045260246000fd5b6001600160a01b038116811461172957600080fdfea264697066735822122079b16bfa550265f818fb983e84ba9282ce7a42d3bc1d78a8f47b7603344f46f564736f6c63430008040033",
  "libraries": {
    "SFHelper": "0xdD01FfdC9B6aFe601ABc4022bF83346Aec038679",
    "dHedgeHelper": "0x34CAbB88CcEe33Feb1026CeF47E2cc37ADe49D5f"
  },
  "devdoc": {
    "kind": "dev",
    "methods": {
      "createdHedgeCore(address,address)": {
        "params": {
          "_DHPTx": "Supertoken of the corresponding DHPT of `_dHedgePool`",
          "_dHedgePool": "Address of the dHEDGE pool for which a core needs to be created"
        }
      },
      "owner()": {
        "details": "Returns the address of the current owner."
      },
      "renounceOwnership()": {
        "details": "Leaves the contract without owner. It will not be possible to call `onlyOwner` functions anymore. Can only be called by the current owner. NOTE: Renouncing ownership will leave the contract without an owner, thereby removing any functionality that is only available to the owner."
      },
      "setDefaultFeeRate(uint32)": {
        "details": "Sets fee rate for all cores",
        "params": {
          "_defaultFeeRate": "The new fee rate scaled to 1e6"
        }
      },
      "transferOwnership(address)": {
        "details": "Transfers ownership of the contract to a new account (`newOwner`). Can only be called by the current owner."
      }
    },
    "stateVariables": {
      "CONFIG_WORD": {
        "custom:note": "CONFIG_WORD is used to omit the specific agreement hooks of superapps (NOOP - Not Operate)"
      },
      "implementation": {
        "details": "The implementation contract for dHedgeCore can never be changed"
      }
    },
    "version": 1
  },
  "userdoc": {
    "kind": "user",
    "methods": {
      "cores(address)": {
        "notice": "Mapping containing core address for every dHEDGE pool if deployed/created"
      },
      "createdHedgeCore(address,address)": {
        "notice": "Creates a new core for a given dHEDGE pool"
      },
      "dao()": {
        "notice": "The DAO which receives fees"
      },
      "defaultFeeRate()": {
        "notice": "Fee rate for collecting streaming fees scaled to 1e6"
      }
    },
    "version": 1
  },
  "storageLayout": {
    "storage": [
      {
        "astId": 7,
        "contract": "contracts/dHedge-Factory-Version/dHedgeCoreFactory.sol:dHedgeCoreFactory",
        "label": "_owner",
        "offset": 0,
        "slot": "0",
        "type": "t_address"
      },
      {
        "astId": 5394,
        "contract": "contracts/dHedge-Factory-Version/dHedgeCoreFactory.sol:dHedgeCoreFactory",
        "label": "dao",
        "offset": 0,
        "slot": "1",
        "type": "t_address"
      },
      {
        "astId": 5398,
        "contract": "contracts/dHedge-Factory-Version/dHedgeCoreFactory.sol:dHedgeCoreFactory",
        "label": "defaultFeeRate",
        "offset": 20,
        "slot": "1",
        "type": "t_uint32"
      },
      {
        "astId": 5407,
        "contract": "contracts/dHedge-Factory-Version/dHedgeCoreFactory.sol:dHedgeCoreFactory",
        "label": "cores",
        "offset": 0,
        "slot": "2",
        "type": "t_mapping(t_address,t_address)"
      }
    ],
    "types": {
      "t_address": {
        "encoding": "inplace",
        "label": "address",
        "numberOfBytes": "20"
      },
      "t_mapping(t_address,t_address)": {
        "encoding": "mapping",
        "key": "t_address",
        "label": "mapping(address => address)",
        "numberOfBytes": "32",
        "value": "t_address"
      },
      "t_uint32": {
        "encoding": "inplace",
        "label": "uint32",
        "numberOfBytes": "4"
      }
    }
  }
}