{
  "address": "0xc1377c38B74582245A7d1323148D01EBc11550ec",
  "abi": [
    {
      "inputs": [
        {
          "internalType": "contract ISuperfluid",
          "name": "_host",
          "type": "address"
        },
        {
          "internalType": "contract IConstantFlowAgreementV1",
          "name": "_cfa",
          "type": "address"
        },
        {
          "internalType": "address",
          "name": "_dHedgePool",
          "type": "address"
        },
        {
          "internalType": "address",
          "name": "_bank",
          "type": "address"
        },
        {
          "internalType": "string",
          "name": "_regKey",
          "type": "string"
        }
      ],
      "stateMutability": "nonpayable",
      "type": "constructor"
    },
    {
      "anonymous": false,
      "inputs": [
        {
          "indexed": true,
          "internalType": "address",
          "name": "previousOwner",
          "type": "address"
        },
        {
          "indexed": true,
          "internalType": "address",
          "name": "newOwner",
          "type": "address"
        }
      ],
      "name": "OwnershipTransferred",
      "type": "event"
    },
    {
      "inputs": [
        {
          "internalType": "contract ISuperToken",
          "name": "_superToken",
          "type": "address"
        },
        {
          "internalType": "address",
          "name": "_agreementClass",
          "type": "address"
        },
        {
          "internalType": "bytes32",
          "name": "",
          "type": "bytes32"
        },
        {
          "internalType": "bytes",
          "name": "",
          "type": "bytes"
        },
        {
          "internalType": "bytes",
          "name": "_cbdata",
          "type": "bytes"
        },
        {
          "internalType": "bytes",
          "name": "_ctx",
          "type": "bytes"
        }
      ],
      "name": "afterAgreementCreated",
      "outputs": [
        {
          "internalType": "bytes",
          "name": "newCtx",
          "type": "bytes"
        }
      ],
      "stateMutability": "nonpayable",
      "type": "function"
    },
    {
      "inputs": [
        {
          "internalType": "contract ISuperToken",
          "name": "_superToken",
          "type": "address"
        },
        {
          "internalType": "address",
          "name": "_agreementClass",
          "type": "address"
        },
        {
          "internalType": "bytes32",
          "name": "",
          "type": "bytes32"
        },
        {
          "internalType": "bytes",
          "name": "",
          "type": "bytes"
        },
        {
          "internalType": "bytes",
          "name": "_cbdata",
          "type": "bytes"
        },
        {
          "internalType": "bytes",
          "name": "_ctx",
          "type": "bytes"
        }
      ],
      "name": "afterAgreementTerminated",
      "outputs": [
        {
          "internalType": "bytes",
          "name": "newCtx",
          "type": "bytes"
        }
      ],
      "stateMutability": "nonpayable",
      "type": "function"
    },
    {
      "inputs": [
        {
          "internalType": "contract ISuperToken",
          "name": "_superToken",
          "type": "address"
        },
        {
          "internalType": "address",
          "name": "_agreementClass",
          "type": "address"
        },
        {
          "internalType": "bytes32",
          "name": "",
          "type": "bytes32"
        },
        {
          "internalType": "bytes",
          "name": "",
          "type": "bytes"
        },
        {
          "internalType": "bytes",
          "name": "_cbdata",
          "type": "bytes"
        },
        {
          "internalType": "bytes",
          "name": "_ctx",
          "type": "bytes"
        }
      ],
      "name": "afterAgreementUpdated",
      "outputs": [
        {
          "internalType": "bytes",
          "name": "newCtx",
          "type": "bytes"
        }
      ],
      "stateMutability": "nonpayable",
      "type": "function"
    },
    {
      "inputs": [
        {
          "internalType": "contract ISuperToken",
          "name": "_superToken",
          "type": "address"
        },
        {
          "internalType": "address",
          "name": "_agreementClass",
          "type": "address"
        },
        {
          "internalType": "bytes32",
          "name": "",
          "type": "bytes32"
        },
        {
          "internalType": "bytes",
          "name": "",
          "type": "bytes"
        },
        {
          "internalType": "bytes",
          "name": "_ctx",
          "type": "bytes"
        }
      ],
      "name": "beforeAgreementCreated",
      "outputs": [
        {
          "internalType": "bytes",
          "name": "cbdata",
          "type": "bytes"
        }
      ],
      "stateMutability": "view",
      "type": "function"
    },
    {
      "inputs": [
        {
          "internalType": "contract ISuperToken",
          "name": "_superToken",
          "type": "address"
        },
        {
          "internalType": "address",
          "name": "_agreementClass",
          "type": "address"
        },
        {
          "internalType": "bytes32",
          "name": "",
          "type": "bytes32"
        },
        {
          "internalType": "bytes",
          "name": "",
          "type": "bytes"
        },
        {
          "internalType": "bytes",
          "name": "_ctx",
          "type": "bytes"
        }
      ],
      "name": "beforeAgreementTerminated",
      "outputs": [
        {
          "internalType": "bytes",
          "name": "cbdata",
          "type": "bytes"
        }
      ],
      "stateMutability": "view",
      "type": "function"
    },
    {
      "inputs": [
        {
          "internalType": "contract ISuperToken",
          "name": "_superToken",
          "type": "address"
        },
        {
          "internalType": "address",
          "name": "_agreementClass",
          "type": "address"
        },
        {
          "internalType": "bytes32",
          "name": "",
          "type": "bytes32"
        },
        {
          "internalType": "bytes",
          "name": "",
          "type": "bytes"
        },
        {
          "internalType": "bytes",
          "name": "_ctx",
          "type": "bytes"
        }
      ],
      "name": "beforeAgreementUpdated",
      "outputs": [
        {
          "internalType": "bytes",
          "name": "cbdata",
          "type": "bytes"
        }
      ],
      "stateMutability": "view",
      "type": "function"
    },
    {
      "inputs": [
        {
          "internalType": "address",
          "name": "_user",
          "type": "address"
        }
      ],
      "name": "calcUserLockedShareAmount",
      "outputs": [
        {
          "internalType": "uint256",
          "name": "",
          "type": "uint256"
        }
      ],
      "stateMutability": "view",
      "type": "function"
    },
    {
      "inputs": [
        {
          "internalType": "address",
          "name": "_user",
          "type": "address"
        },
        {
          "internalType": "address",
          "name": "_token",
          "type": "address"
        }
      ],
      "name": "calcUserUninvested",
      "outputs": [
        {
          "internalType": "uint256",
          "name": "",
          "type": "uint256"
        }
      ],
      "stateMutability": "view",
      "type": "function"
    },
    {
      "inputs": [
        {
          "internalType": "address",
          "name": "_user",
          "type": "address"
        }
      ],
      "name": "calcWithdrawable",
      "outputs": [
        {
          "internalType": "uint256",
          "name": "",
          "type": "uint256"
        }
      ],
      "stateMutability": "view",
      "type": "function"
    },
    {
      "inputs": [],
      "name": "checkCoreActive",
      "outputs": [
        {
          "internalType": "bool",
          "name": "",
          "type": "bool"
        }
      ],
      "stateMutability": "view",
      "type": "function"
    },
    {
      "inputs": [
        {
          "internalType": "address",
          "name": "_token",
          "type": "address"
        }
      ],
      "name": "dHedgeDeposit",
      "outputs": [],
      "stateMutability": "nonpayable",
      "type": "function"
    },
    {
      "inputs": [
        {
          "internalType": "uint256",
          "name": "_amount",
          "type": "uint256"
        }
      ],
      "name": "dHedgeWithdraw",
      "outputs": [],
      "stateMutability": "nonpayable",
      "type": "function"
    },
    {
      "inputs": [],
      "name": "deactivateCore",
      "outputs": [],
      "stateMutability": "nonpayable",
      "type": "function"
    },
    {
      "inputs": [
        {
          "internalType": "address",
          "name": "_token",
          "type": "address"
        }
      ],
      "name": "emergencyWithdraw",
      "outputs": [],
      "stateMutability": "nonpayable",
      "type": "function"
    },
    {
      "inputs": [],
      "name": "getPoolLogic",
      "outputs": [
        {
          "internalType": "address",
          "name": "",
          "type": "address"
        }
      ],
      "stateMutability": "view",
      "type": "function"
    },
    {
      "inputs": [],
      "name": "moveLPT",
      "outputs": [],
      "stateMutability": "nonpayable",
      "type": "function"
    },
    {
      "inputs": [],
      "name": "owner",
      "outputs": [
        {
          "internalType": "address",
          "name": "",
          "type": "address"
        }
      ],
      "stateMutability": "view",
      "type": "function"
    },
    {
      "inputs": [],
      "name": "reactivateCore",
      "outputs": [],
      "stateMutability": "nonpayable",
      "type": "function"
    },
    {
      "inputs": [],
      "name": "renounceOwnership",
      "outputs": [],
      "stateMutability": "nonpayable",
      "type": "function"
    },
    {
      "inputs": [],
      "name": "requireUpkeep",
      "outputs": [
        {
          "internalType": "bool",
          "name": "",
          "type": "bool"
        },
        {
          "internalType": "address",
          "name": "",
          "type": "address"
        }
      ],
      "stateMutability": "view",
      "type": "function"
    },
    {
      "inputs": [
        {
          "internalType": "address",
          "name": "newOwner",
          "type": "address"
        }
      ],
      "name": "transferOwnership",
      "outputs": [],
      "stateMutability": "nonpayable",
      "type": "function"
    },
    {
      "inputs": [],
      "name": "withdrawUninvestedAll",
      "outputs": [],
      "stateMutability": "nonpayable",
      "type": "function"
    },
    {
      "inputs": [
        {
          "internalType": "address",
          "name": "_token",
          "type": "address"
        },
        {
          "internalType": "uint256",
          "name": "_amount",
          "type": "uint256"
        }
      ],
      "name": "withdrawUninvestedSingle",
      "outputs": [],
      "stateMutability": "nonpayable",
      "type": "function"
    }
  ],
  "transactionHash": "0x13c0b613a7ae162464df9e34bd934ebf2ac6cb2be6f8cb555d25220d2f3552ca",
  "args": [
    "0x3E14dC1b13c488a8d5D310918780c983bD5982E7",
    "0x6EeE6060f715257b970700bc2656De21dEdF074C",
    "0xbae28251b2a4e621aa7e20538c06dee010bc06de",
    "0xF01696558f28CB1676Fca25f3A3C16b0951366b6",
    "rashtrakoff-291121-2"
  ],
  "solcInputHash": "22b45f31f62cdd36b8b1bd6d6b59f026",
  "bytecode": "0x60806040523480156200001157600080fd5b506040516200473938038062004739833981810160405281019062000037919062000a9f565b620000576200004b620004ee60201b60201c565b620004f660201b60201c565b600073ffffffffffffffffffffffffffffffffffffffff168573ffffffffffffffffffffffffffffffffffffffff161415620000ca576040517f08c379a0000000000000000000000000000000000000000000000000000000008152600401620000c19062000e0e565b60405180910390fd5b600073ffffffffffffffffffffffffffffffffffffffff168473ffffffffffffffffffffffffffffffffffffffff1614156200013d576040517f08c379a0000000000000000000000000000000000000000000000000000000008152600401620001349062000da8565b60405180910390fd5b600073ffffffffffffffffffffffffffffffffffffffff168373ffffffffffffffffffffffffffffffffffffffff161415620001b0576040517f08c379a0000000000000000000000000000000000000000000000000000000008152600401620001a79062000e74565b60405180910390fd5b600073ffffffffffffffffffffffffffffffffffffffff168273ffffffffffffffffffffffffffffffffffffffff16141562000223576040517f08c379a00000000000000000000000000000000000000000000000000000000081526004016200021a9062000dec565b60405180910390fd5b84600160000160006101000a81548173ffffffffffffffffffffffffffffffffffffffff021916908373ffffffffffffffffffffffffffffffffffffffff160217905550836001800160006101000a81548173ffffffffffffffffffffffffffffffffffffffff021916908373ffffffffffffffffffffffffffffffffffffffff16021790555082600160030160006101000a81548173ffffffffffffffffffffffffffffffffffffffff021916908373ffffffffffffffffffffffffffffffffffffffff16021790555081600160040160006101000a81548173ffffffffffffffffffffffffffffffffffffffff021916908373ffffffffffffffffffffffffffffffffffffffff16021790555060018060010160146101000a81548160ff021916908315150217905550620003a1827fffffffffffffffffffffffffffffffffffffffffffffffffffffffffffffffff8573ffffffffffffffffffffffffffffffffffffffff16620005ba60201b620015a3179092919060201c565b60006001905060008251146200044d57600160000160009054906101000a900473ffffffffffffffffffffffffffffffffffffffff1673ffffffffffffffffffffffffffffffffffffffff1663bd1c448b82846040518363ffffffff1660e01b81526004016200041392919062000eb3565b600060405180830381600087803b1580156200042e57600080fd5b505af115801562000443573d6000803e3d6000fd5b50505050620004e2565b600160000160009054906101000a900473ffffffffffffffffffffffffffffffffffffffff1673ffffffffffffffffffffffffffffffffffffffff1663ad3915c8826040518263ffffffff1660e01b8152600401620004ad919062000e96565b600060405180830381600087803b158015620004c857600080fd5b505af1158015620004dd573d6000803e3d6000fd5b505050505b5050505050506200130f565b600033905090565b60008060009054906101000a900473ffffffffffffffffffffffffffffffffffffffff169050816000806101000a81548173ffffffffffffffffffffffffffffffffffffffff021916908373ffffffffffffffffffffffffffffffffffffffff1602179055508173ffffffffffffffffffffffffffffffffffffffff168173ffffffffffffffffffffffffffffffffffffffff167f8be0079c531659141344cd1fd0a4f28419497f9722a3daafe3b4186f6b6457e060405160405180910390a35050565b6000818473ffffffffffffffffffffffffffffffffffffffff1663dd62ed3e30866040518363ffffffff1660e01b8152600401620005fa92919062000d2a565b60206040518083038186803b1580156200061357600080fd5b505afa15801562000628573d6000803e3d6000fd5b505050506040513d601f19601f820116820180604052508101906200064e919062000b3a565b6200065a919062000f78565b9050620006e78463095ea7b360e01b85846040516024016200067e92919062000d57565b604051602081830303815290604052907bffffffffffffffffffffffffffffffffffffffffffffffffffffffff19166020820180517bffffffffffffffffffffffffffffffffffffffffffffffffffffffff8381831617835250505050620006ed60201b60201c565b50505050565b600062000756826040518060400160405280602081526020017f5361666545524332303a206c6f772d6c6576656c2063616c6c206661696c65648152508573ffffffffffffffffffffffffffffffffffffffff16620007c160201b620016c4179092919060201c565b9050600081511115620007bc578080602001905181019062000779919062000a73565b620007bb576040517f08c379a0000000000000000000000000000000000000000000000000000000008152600401620007b29062000e52565b60405180910390fd5b5b505050565b6060620007d88484600085620007e160201b60201c565b90509392505050565b60608247101562000829576040517f08c379a0000000000000000000000000000000000000000000000000000000008152600401620008209062000dca565b60405180910390fd5b6200083a856200090f60201b60201c565b6200087c576040517f08c379a0000000000000000000000000000000000000000000000000000000008152600401620008739062000e30565b60405180910390fd5b6000808673ffffffffffffffffffffffffffffffffffffffff168587604051620008a7919062000d11565b60006040518083038185875af1925050503d8060008114620008e6576040519150601f19603f3d011682016040523d82523d6000602084013e620008eb565b606091505b5091509150620009038282866200092260201b60201c565b92505050949350505050565b600080823b905060008111915050919050565b60608315620009345782905062000987565b600083511115620009485782518084602001fd5b816040517f08c379a00000000000000000000000000000000000000000000000000000000081526004016200097e919062000d84565b60405180910390fd5b9392505050565b6000620009a56200099f8462000f10565b62000ee7565b905082815260208101848484011115620009be57600080fd5b620009cb84828562001047565b509392505050565b600081519050620009e4816200128d565b92915050565b600081519050620009fb81620012a7565b92915050565b60008151905062000a1281620012c1565b92915050565b60008151905062000a2981620012db565b92915050565b600082601f83011262000a4157600080fd5b815162000a538482602086016200098e565b91505092915050565b60008151905062000a6d81620012f5565b92915050565b60006020828403121562000a8657600080fd5b600062000a9684828501620009ea565b91505092915050565b600080600080600060a0868803121562000ab857600080fd5b600062000ac88882890162000a18565b955050602062000adb8882890162000a01565b945050604062000aee88828901620009d3565b935050606062000b0188828901620009d3565b925050608086015167ffffffffffffffff81111562000b1f57600080fd5b62000b2d8882890162000a2f565b9150509295509295909350565b60006020828403121562000b4d57600080fd5b600062000b5d8482850162000a5c565b91505092915050565b62000b718162000fd5565b82525050565b600062000b848262000f46565b62000b90818562000f5c565b935062000ba281856020860162001047565b80840191505092915050565b600062000bbb8262000f51565b62000bc7818562000f67565b935062000bd981856020860162001047565b62000be48162001111565b840191505092915050565b600062000bfe601f8362000f67565b915062000c0b8262001122565b602082019050919050565b600062000c2560268362000f67565b915062000c32826200114b565b604082019050919050565b600062000c4c60208362000f67565b915062000c59826200119a565b602082019050919050565b600062000c7360208362000f67565b915062000c8082620011c3565b602082019050919050565b600062000c9a601d8362000f67565b915062000ca782620011ec565b602082019050919050565b600062000cc1602a8362000f67565b915062000cce8262001215565b604082019050919050565b600062000ce860208362000f67565b915062000cf58262001264565b602082019050919050565b62000d0b816200103d565b82525050565b600062000d1f828462000b77565b915081905092915050565b600060408201905062000d41600083018562000b66565b62000d50602083018462000b66565b9392505050565b600060408201905062000d6e600083018562000b66565b62000d7d602083018462000d00565b9392505050565b6000602082019050818103600083015262000da0818462000bae565b905092915050565b6000602082019050818103600083015262000dc38162000bef565b9050919050565b6000602082019050818103600083015262000de58162000c16565b9050919050565b6000602082019050818103600083015262000e078162000c3d565b9050919050565b6000602082019050818103600083015262000e298162000c64565b9050919050565b6000602082019050818103600083015262000e4b8162000c8b565b9050919050565b6000602082019050818103600083015262000e6d8162000cb2565b9050919050565b6000602082019050818103600083015262000e8f8162000cd9565b9050919050565b600060208201905062000ead600083018462000d00565b92915050565b600060408201905062000eca600083018562000d00565b818103602083015262000ede818462000bae565b90509392505050565b600062000ef362000f06565b905062000f0182826200107d565b919050565b6000604051905090565b600067ffffffffffffffff82111562000f2e5762000f2d620010e2565b5b62000f398262001111565b9050602081019050919050565b600081519050919050565b600081519050919050565b600081905092915050565b600082825260208201905092915050565b600062000f85826200103d565b915062000f92836200103d565b9250827fffffffffffffffffffffffffffffffffffffffffffffffffffffffffffffffff0382111562000fca5762000fc9620010b3565b5b828201905092915050565b600062000fe2826200101d565b9050919050565b60008115159050919050565b6000620010028262000fd5565b9050919050565b6000620010168262000fd5565b9050919050565b600073ffffffffffffffffffffffffffffffffffffffff82169050919050565b6000819050919050565b60005b83811015620010675780820151818401526020810190506200104a565b8381111562001077576000848401525b50505050565b620010888262001111565b810181811067ffffffffffffffff82111715620010aa57620010a9620010e2565b5b80604052505050565b7f4e487b7100000000000000000000000000000000000000000000000000000000600052601160045260246000fd5b7f4e487b7100000000000000000000000000000000000000000000000000000000600052604160045260246000fd5b6000601f19601f8301169050919050565b7f644865646765436f72653a20434641206164647265737320696e76616c696400600082015250565b7f416464726573733a20696e73756666696369656e742062616c616e636520666f60008201527f722063616c6c0000000000000000000000000000000000000000000000000000602082015250565b7f644865646765436f72653a2042616e6b206164647265737320696e76616c6964600082015250565b7f644865646765436f72653a20486f7374206164647265737320696e76616c6964600082015250565b7f416464726573733a2063616c6c20746f206e6f6e2d636f6e7472616374000000600082015250565b7f5361666545524332303a204552433230206f7065726174696f6e20646964206e60008201527f6f74207375636365656400000000000000000000000000000000000000000000602082015250565b7f644865646765436f72653a20506f6f6c206164647265737320696e76616c6964600082015250565b620012988162000fd5565b8114620012a457600080fd5b50565b620012b28162000fe9565b8114620012be57600080fd5b50565b620012cc8162000ff5565b8114620012d857600080fd5b50565b620012e68162001009565b8114620012f257600080fd5b50565b62001300816200103d565b81146200130c57600080fd5b50565b61341a806200131f6000396000f3fe608060405234801561001057600080fd5b506004361061014d5760003560e01c8063715018a6116100c3578063a2e74bd11161007c578063a2e74bd114610364578063d335015514610394578063d86ed3e5146103b2578063db34227c146103e2578063f1d640b0146103fe578063f2fde38b1461041d5761014d565b8063715018a6146102a2578063884d1f40146102ac5780638da5cb5b146102dc5780638e8101bd146102fa578063911f94e11461032a578063a1dacb1c1461035a5761014d565b8063525f45fb11610115578063525f45fb146101e257806353be974f146101fe57806353c11f991461021c578063591f7ea51461024c5780635f9e7d77146102565780636ff1c9bc146102865761014d565b8063230dbd29146101525780632ea31c18146101825780633059c9011461018c57806330d9c915146101a8578063444cf9c8146101d8575b600080fd5b61016c60048036038101906101679190612661565b610439565b6040516101799190612b56565b60405180910390f35b61018a61056b565b005b6101a660048036038101906101a19190612781565b61059b565b005b6101c260048036038101906101bd91906125b1565b61060a565b6040516101cf9190612b56565b60405180910390f35b6101e06107ce565b005b6101fc60048036038101906101f791906123f6565b610842565b005b6102066108b9565b6040516102139190612b12565b60405180910390f35b61023660048036038101906102319190612661565b6108d2565b6040516102439190612b56565b60405180910390f35b610254610a04565b005b610270600480360381019061026b91906125b1565b610a7e565b60405161027d9190612b56565b60405180910390f35b6102a0600480360381019061029b91906123f6565b610b69565b005b6102aa610c2f565b005b6102c660048036038101906102c191906125b1565b610cb7565b6040516102d39190612b56565b60405180910390f35b6102e4610daa565b6040516102f19190612a60565b60405180910390f35b610314600480360381019061030f91906123f6565b610dd3565b6040516103219190612dd5565b60405180910390f35b610344600480360381019061033f91906124ab565b610e68565b6040516103519190612dd5565b60405180910390f35b610362610f00565b005b61037e600480360381019061037991906123f6565b610f6c565b60405161038b9190612dd5565b60405180910390f35b61039c611001565b6040516103a99190612a60565b60405180910390f35b6103cc60048036038101906103c79190612661565b61102e565b6040516103d99190612b56565b60405180910390f35b6103fc60048036038101906103f791906124e7565b6113a5565b005b610406611417565b604051610414929190612b2d565b60405180910390f35b610437600480360381019061043291906123f6565b6114ab565b005b60606104436116dc565b61044c89611771565b61051785858080601f016020809104026020016040519081016040528093929190818152602001838380828437600081840152601f19601f820116905080830192505050505050508b73ffffffffffffffffffffffffffffffffffffffff1663ee719bc86040518163ffffffff1660e01b815260040160206040518083038186803b1580156104da57600080fd5b505afa1580156104ee573d6000803e3d6000fd5b505050506040513d601f19601f82011682018060405250810190610512919061241f565b611853565b82828080601f016020809104026020016040519081016040528093929190818152602001838380828437600081840152601f19601f8201169050808301925050505050505090509998505050505050505050565b610574336119ee565b61057c611a66565b60006001800160146101000a81548160ff021916908315150217905550565b6001735364fBf7890f567fE81f424A7ffcCcC7df49F84F63589d14409091836040518363ffffffff1660e01b81526004016105d7929190612dac565b60006040518083038186803b1580156105ef57600080fd5b505af4158015610603573d6000803e3d6000fd5b5050505050565b60606106146116dc565b61061d87611771565b610625611a66565b60008873ffffffffffffffffffffffffffffffffffffffff1663ee719bc86040518163ffffffff1660e01b815260040160206040518083038186803b15801561066d57600080fd5b505afa158015610681573d6000803e3d6000fd5b505050506040513d601f19601f820116820180604052508101906106a5919061241f565b90506001735364fBf7890f567fE81f424A7ffcCcC7df49F84F63448c57229091836040518363ffffffff1660e01b81526004016106e3929190612d15565b60206040518083038186803b1580156106fb57600080fd5b505af415801561070f573d6000803e3d6000fd5b505050506040513d601f19601f820116820180604052508101906107339190612523565b610772576040517f08c379a000000000000000000000000000000000000000000000000000000000815260040161076990612cda565b60405180910390fd5b6107c084848080601f016020809104026020016040519081016040528093929190818152602001838380828437600081840152601f19601f8201169050808301925050505050505082611ab9565b915050979650505050505050565b6107d6611a66565b6001735364fBf7890f567fE81f424A7ffcCcC7df49F84F63defff49390916040518263ffffffff1660e01b81526004016108109190612cfa565b60006040518083038186803b15801561082857600080fd5b505af415801561083c573d6000803e3d6000fd5b50505050565b61084a611a66565b6001735364fBf7890f567fE81f424A7ffcCcC7df49F84F63394110d19091836040518363ffffffff1660e01b8152600401610886929190612d15565b60006040518083038186803b15801561089e57600080fd5b505af41580156108b2573d6000803e3d6000fd5b5050505050565b60006001800160149054906101000a900460ff16905090565b60606108dc6116dc565b6108e589611771565b6109b085858080601f016020809104026020016040519081016040528093929190818152602001838380828437600081840152601f19601f820116905080830192505050505050508b73ffffffffffffffffffffffffffffffffffffffff1663ee719bc86040518163ffffffff1660e01b815260040160206040518083038186803b15801561097357600080fd5b505afa158015610987573d6000803e3d6000fd5b505050506040513d601f19601f820116820180604052508101906109ab919061241f565b611853565b82828080601f016020809104026020016040519081016040528093929190818152602001838380828437600081840152601f19601f8201169050808301925050505050505090509998505050505050505050565b610a0d336119ee565b6001800160149054906101000a900460ff1615610a5f576040517f08c379a0000000000000000000000000000000000000000000000000000000008152600401610a5690612c1a565b60405180910390fd5b60018060010160146101000a81548160ff021916908315150217905550565b6060610a886116dc565b610a9187611771565b610b5c83838080601f016020809104026020016040519081016040528093929190818152602001838380828437600081840152601f19601f820116905080830192505050505050508973ffffffffffffffffffffffffffffffffffffffff1663ee719bc86040518163ffffffff1660e01b815260040160206040518083038186803b158015610b1f57600080fd5b505afa158015610b33573d6000803e3d6000fd5b505050506040513d601f19601f82011682018060405250810190610b57919061241f565b611ab9565b9050979650505050505050565b610b72336119ee565b610c2c610b7d610daa565b8273ffffffffffffffffffffffffffffffffffffffff166370a08231306040518263ffffffff1660e01b8152600401610bb69190612a60565b60206040518083038186803b158015610bce57600080fd5b505afa158015610be2573d6000803e3d6000fd5b505050506040513d601f19601f82011682018060405250810190610c0691906127aa565b8373ffffffffffffffffffffffffffffffffffffffff16611d4c9092919063ffffffff16565b50565b610c37611dd2565b73ffffffffffffffffffffffffffffffffffffffff16610c55610daa565b73ffffffffffffffffffffffffffffffffffffffff1614610cab576040517f08c379a0000000000000000000000000000000000000000000000000000000008152600401610ca290612c5a565b60405180910390fd5b610cb56000611dda565b565b6060610cc16116dc565b610cca87611771565b610cd2611a66565b610d9d83838080601f016020809104026020016040519081016040528093929190818152602001838380828437600081840152601f19601f820116905080830192505050505050508973ffffffffffffffffffffffffffffffffffffffff1663ee719bc86040518163ffffffff1660e01b815260040160206040518083038186803b158015610d6057600080fd5b505afa158015610d74573d6000803e3d6000fd5b505050506040513d601f19601f82011682018060405250810190610d98919061241f565b611ab9565b9050979650505050505050565b60008060009054906101000a900473ffffffffffffffffffffffffffffffffffffffff16905090565b60006001735364fBf7890f567fE81f424A7ffcCcC7df49F84F6325f848169091846040518363ffffffff1660e01b8152600401610e11929190612d15565b60206040518083038186803b158015610e2957600080fd5b505af4158015610e3d573d6000803e3d6000fd5b505050506040513d601f19601f82011682018060405250810190610e6191906127aa565b9050919050565b60006001735364fBf7890f567fE81f424A7ffcCcC7df49F84F631740215d909185856040518463ffffffff1660e01b8152600401610ea893929190612d3e565b60206040518083038186803b158015610ec057600080fd5b505af4158015610ed4573d6000803e3d6000fd5b505050506040513d601f19601f82011682018060405250810190610ef891906127aa565b905092915050565b6001735364fBf7890f567fE81f424A7ffcCcC7df49F84F63b8f64b4b90916040518263ffffffff1660e01b8152600401610f3a9190612cfa565b60006040518083038186803b158015610f5257600080fd5b505af4158015610f66573d6000803e3d6000fd5b50505050565b60006001735364fBf7890f567fE81f424A7ffcCcC7df49F84F63619c07399091846040518363ffffffff1660e01b8152600401610faa929190612d15565b60206040518083038186803b158015610fc257600080fd5b505af4158015610fd6573d6000803e3d6000fd5b505050506040513d601f19601f82011682018060405250810190610ffa91906127aa565b9050919050565b6000600160030160009054906101000a900473ffffffffffffffffffffffffffffffffffffffff16905090565b60606110386116dc565b61104189611771565b60008a73ffffffffffffffffffffffffffffffffffffffff1663ee719bc86040518163ffffffff1660e01b815260040160206040518083038186803b15801561108957600080fd5b505afa15801561109d573d6000803e3d6000fd5b505050506040513d601f19601f820116820180604052508101906110c1919061241f565b9050600073ffffffffffffffffffffffffffffffffffffffff16600160060160008373ffffffffffffffffffffffffffffffffffffffff1673ffffffffffffffffffffffffffffffffffffffff16815260200190815260200160002060000160009054906101000a900473ffffffffffffffffffffffffffffffffffffffff1673ffffffffffffffffffffffffffffffffffffffff161415611302576001600501819080600181540180825580915050600190039060005260206000200160009091909190916101000a81548173ffffffffffffffffffffffffffffffffffffffff021916908373ffffffffffffffffffffffffffffffffffffffff1602179055508a600160060160008373ffffffffffffffffffffffffffffffffffffffff1673ffffffffffffffffffffffffffffffffffffffff16815260200190815260200160002060000160006101000a81548173ffffffffffffffffffffffffffffffffffffffff021916908373ffffffffffffffffffffffffffffffffffffffff16021790555060018060060160008373ffffffffffffffffffffffffffffffffffffffff1673ffffffffffffffffffffffffffffffffffffffff16815260200190815260200160002060010181905550611301600160030160009054906101000a900473ffffffffffffffffffffffffffffffffffffffff167fffffffffffffffffffffffffffffffffffffffffffffffffffffffffffffffff8373ffffffffffffffffffffffffffffffffffffffff166115a39092919063ffffffff16565b5b61135086868080601f016020809104026020016040519081016040528093929190818152602001838380828437600081840152601f19601f8201169050808301925050505050505082611853565b83838080601f016020809104026020016040519081016040528093929190818152602001838380828437600081840152601f19601f820116905080830192505050505050509150509998505050505050505050565b6001735364fBf7890f567fE81f424A7ffcCcC7df49F84F63ae24b8a3909184846040518463ffffffff1660e01b81526004016113e393929190612d75565b60006040518083038186803b1580156113fb57600080fd5b505af415801561140f573d6000803e3d6000fd5b505050505050565b6000806001735364fBf7890f567fE81f424A7ffcCcC7df49F84F63832a95fd90916040518263ffffffff1660e01b81526004016114549190612cfa565b604080518083038186803b15801561146b57600080fd5b505af415801561147f573d6000803e3d6000fd5b505050506040513d601f19601f820116820180604052508101906114a3919061254c565b915091509091565b6114b3611dd2565b73ffffffffffffffffffffffffffffffffffffffff166114d1610daa565b73ffffffffffffffffffffffffffffffffffffffff1614611527576040517f08c379a000000000000000000000000000000000000000000000000000000000815260040161151e90612c5a565b60405180910390fd5b600073ffffffffffffffffffffffffffffffffffffffff168173ffffffffffffffffffffffffffffffffffffffff161415611597576040517f08c379a000000000000000000000000000000000000000000000000000000000815260040161158e90612bba565b60405180910390fd5b6115a081611dda565b50565b6000818473ffffffffffffffffffffffffffffffffffffffff1663dd62ed3e30866040518363ffffffff1660e01b81526004016115e1929190612a7b565b60206040518083038186803b1580156115f957600080fd5b505afa15801561160d573d6000803e3d6000fd5b505050506040513d601f19601f8201168201806040525081019061163191906127aa565b61163b9190612e89565b90506116be8463095ea7b360e01b858460405160240161165c929190612aa4565b604051602081830303815290604052907bffffffffffffffffffffffffffffffffffffffffffffffffffffffff19166020820180517bffffffffffffffffffffffffffffffffffffffffffffffffffffffff8381831617835250505050611e9e565b50505050565b60606116d38484600085611f65565b90509392505050565b600160000160009054906101000a900473ffffffffffffffffffffffffffffffffffffffff1673ffffffffffffffffffffffffffffffffffffffff163373ffffffffffffffffffffffffffffffffffffffff161461176f576040517f08c379a000000000000000000000000000000000000000000000000000000000815260040161176690612b9a565b60405180910390fd5b565b7fa9214cc96615e0085d3bb077758db69497dc2dce3b2b1e97bc93c3d18d83efd38173ffffffffffffffffffffffffffffffffffffffff16637730599e6040518163ffffffff1660e01b815260040160206040518083038186803b1580156117d857600080fd5b505afa1580156117ec573d6000803e3d6000fd5b505050506040513d601f19601f820116820180604052508101906118109190612588565b14611850576040517f08c379a000000000000000000000000000000000000000000000000000000000815260040161184790612c3a565b60405180910390fd5b50565b6000806000808580602001905181019061186d9190612448565b93509350935093506000600160070160008673ffffffffffffffffffffffffffffffffffffffff1673ffffffffffffffffffffffffffffffffffffffff16815260200190815260200160002060008773ffffffffffffffffffffffffffffffffffffffff1673ffffffffffffffffffffffffffffffffffffffff16815260200190815260200160002060000190506119108484836120799092919063ffffffff16565b600160060160008773ffffffffffffffffffffffffffffffffffffffff1673ffffffffffffffffffffffffffffffffffffffff16815260200190815260200160002060010154816000018190555081600160070160008773ffffffffffffffffffffffffffffffffffffffff1673ffffffffffffffffffffffffffffffffffffffff16815260200190815260200160002060008873ffffffffffffffffffffffffffffffffffffffff1673ffffffffffffffffffffffffffffffffffffffff1681526020019081526020016000206004018190555050505050505050565b6119f6610daa565b73ffffffffffffffffffffffffffffffffffffffff168173ffffffffffffffffffffffffffffffffffffffff1614611a63576040517f08c379a0000000000000000000000000000000000000000000000000000000008152600401611a5a90612bda565b60405180910390fd5b50565b6001800160149054906101000a900460ff16611ab7576040517f08c379a0000000000000000000000000000000000000000000000000000000008152600401611aae90612c7a565b60405180910390fd5b565b60606000600160000160009054906101000a900473ffffffffffffffffffffffffffffffffffffffff1673ffffffffffffffffffffffffffffffffffffffff16633f6c923a856040518263ffffffff1660e01b8152600401611b1b9190612b56565b60006040518083038186803b158015611b3357600080fd5b505afa158015611b47573d6000803e3d6000fd5b505050506040513d6000823e3d601f19601f82011682018060405250810190611b709190612740565b606001519050806001735364fBf7890f567fE81f424A7ffcCcC7df49F84F631740215d909184876040518463ffffffff1660e01b8152600401611bb593929190612d3e565b60206040518083038186803b158015611bcd57600080fd5b505af4158015611be1573d6000803e3d6000fd5b505050506040513d601f19601f82011682018060405250810190611c0591906127aa565b6001735364fBf7890f567fE81f424A7ffcCcC7df49F84F633828401b909185886040518463ffffffff1660e01b8152600401611c4393929190612d3e565b60206040518083038186803b158015611c5b57600080fd5b505af4158015611c6f573d6000803e3d6000fd5b505050506040513d601f19601f82011682018060405250810190611c9391906127aa565b6001735364fBf7890f567fE81f424A7ffcCcC7df49F84F6334f68604909186896040518463ffffffff1660e01b8152600401611cd193929190612d3e565b60206040518083038186803b158015611ce957600080fd5b505af4158015611cfd573d6000803e3d6000fd5b505050506040513d601f19601f82011682018060405250810190611d2191906127aa565b604051602001611d349493929190612acd565b60405160208183030381529060405291505092915050565b611dcd8363a9059cbb60e01b8484604051602401611d6b929190612aa4565b604051602081830303815290604052907bffffffffffffffffffffffffffffffffffffffffffffffffffffffff19166020820180517bffffffffffffffffffffffffffffffffffffffffffffffffffffffff8381831617835250505050611e9e565b505050565b600033905090565b60008060009054906101000a900473ffffffffffffffffffffffffffffffffffffffff169050816000806101000a81548173ffffffffffffffffffffffffffffffffffffffff021916908373ffffffffffffffffffffffffffffffffffffffff1602179055508173ffffffffffffffffffffffffffffffffffffffff168173ffffffffffffffffffffffffffffffffffffffff167f8be0079c531659141344cd1fd0a4f28419497f9722a3daafe3b4186f6b6457e060405160405180910390a35050565b6000611f00826040518060400160405280602081526020017f5361666545524332303a206c6f772d6c6576656c2063616c6c206661696c65648152508573ffffffffffffffffffffffffffffffffffffffff166116c49092919063ffffffff16565b9050600081511115611f605780806020019051810190611f209190612523565b611f5f576040517f08c379a0000000000000000000000000000000000000000000000000000000008152600401611f5690612cba565b60405180910390fd5b5b505050565b606082471015611faa576040517f08c379a0000000000000000000000000000000000000000000000000000000008152600401611fa190612bfa565b60405180910390fd5b611fb385612099565b611ff2576040517f08c379a0000000000000000000000000000000000000000000000000000000008152600401611fe990612c9a565b60405180910390fd5b6000808673ffffffffffffffffffffffffffffffffffffffff16858760405161201b9190612a49565b60006040518083038185875af1925050503d8060008114612058576040519150601f19603f3d011682016040523d82523d6000602084013e61205d565b606091505b509150915061206d8282866120ac565b92505050949350505050565b818360010181905550808360020181905550428360030181905550505050565b600080823b905060008111915050919050565b606083156120bc5782905061210c565b6000835111156120cf5782518084602001fd5b816040517f08c379a00000000000000000000000000000000000000000000000000000000081526004016121039190612b78565b60405180910390fd5b9392505050565b600061212661212184612e15565b612df0565b90508281526020810184848401111561213e57600080fd5b612149848285612faa565b509392505050565b600081359050612160816132fe565b92915050565b600081519050612175816132fe565b92915050565b60008151905061218a81613315565b92915050565b60008151905061219f8161332c565b92915050565b6000813590506121b481613343565b92915050565b6000815190506121c981613343565b92915050565b6000815190506121de8161335a565b92915050565b60008083601f8401126121f657600080fd5b8235905067ffffffffffffffff81111561220f57600080fd5b60208301915083600182028301111561222757600080fd5b9250929050565b600082601f83011261223f57600080fd5b815161224f848260208601612113565b91505092915050565b60008135905061226781613371565b92915050565b60008151905061227c81613388565b92915050565b6000815190506122918161339f565b92915050565b600061016082840312156122aa57600080fd5b6122b5610160612df0565b905060006122c5848285016123e1565b60008301525060206122d9848285016123e1565b60208301525060406122ed848285016123cc565b604083015250606061230184828501612166565b6060830152506080612315848285016121cf565b60808301525060a082015167ffffffffffffffff81111561233557600080fd5b6123418482850161222e565b60a08301525060c0612355848285016123cc565b60c08301525060e0612369848285016123cc565b60e08301525061010061237e84828501612282565b6101008301525061012061239484828501612166565b610120830152506101406123aa8482850161226d565b6101408301525092915050565b6000813590506123c6816133b6565b92915050565b6000815190506123db816133b6565b92915050565b6000815190506123f0816133cd565b92915050565b60006020828403121561240857600080fd5b600061241684828501612151565b91505092915050565b60006020828403121561243157600080fd5b600061243f84828501612166565b91505092915050565b6000806000806080858703121561245e57600080fd5b600061246c8782880161217b565b945050602061247d878288016123cc565b935050604061248e878288016123cc565b925050606061249f878288016123cc565b91505092959194509250565b600080604083850312156124be57600080fd5b60006124cc85828601612151565b92505060206124dd85828601612151565b9150509250929050565b600080604083850312156124fa57600080fd5b600061250885828601612151565b9250506020612519858286016123b7565b9150509250929050565b60006020828403121561253557600080fd5b600061254384828501612190565b91505092915050565b6000806040838503121561255f57600080fd5b600061256d85828601612190565b925050602061257e85828601612166565b9150509250929050565b60006020828403121561259a57600080fd5b60006125a8848285016121ba565b91505092915050565b600080600080600080600060a0888a0312156125cc57600080fd5b60006125da8a828b01612258565b97505060206125eb8a828b01612151565b96505060406125fc8a828b016121a5565b955050606088013567ffffffffffffffff81111561261957600080fd5b6126258a828b016121e4565b9450945050608088013567ffffffffffffffff81111561264457600080fd5b6126508a828b016121e4565b925092505092959891949750929550565b600080600080600080600080600060c08a8c03121561267f57600080fd5b600061268d8c828d01612258565b995050602061269e8c828d01612151565b98505060406126af8c828d016121a5565b97505060608a013567ffffffffffffffff8111156126cc57600080fd5b6126d88c828d016121e4565b965096505060808a013567ffffffffffffffff8111156126f757600080fd5b6127038c828d016121e4565b945094505060a08a013567ffffffffffffffff81111561272257600080fd5b61272e8c828d016121e4565b92509250509295985092959850929598565b60006020828403121561275257600080fd5b600082015167ffffffffffffffff81111561276c57600080fd5b61277884828501612297565b91505092915050565b60006020828403121561279357600080fd5b60006127a1848285016123b7565b91505092915050565b6000602082840312156127bc57600080fd5b60006127ca848285016123cc565b91505092915050565b6127dc81612edf565b82525050565b6127eb81612edf565b82525050565b6127fa81612f03565b82525050565b600061280b82612e46565b6128158185612e5c565b9350612825818560208601612faa565b61282e8161306c565b840191505092915050565b600061284482612e46565b61284e8185612e6d565b935061285e818560208601612faa565b80840191505092915050565b600061287582612e51565b61287f8185612e78565b935061288f818560208601612faa565b6128988161306c565b840191505092915050565b60006128b0602283612e78565b91506128bb8261307d565b604082019050919050565b60006128d3602683612e78565b91506128de826130cc565b604082019050919050565b60006128f6601983612e78565b91506129018261311b565b602082019050919050565b6000612919602683612e78565b915061292482613144565b604082019050919050565b600061293c601f83612e78565b915061294782613193565b602082019050919050565b600061295f602183612e78565b915061296a826131bc565b604082019050919050565b6000612982602083612e78565b915061298d8261320b565b602082019050919050565b60006129a5601983612e78565b91506129b082613234565b602082019050919050565b60006129c8601d83612e78565b91506129d38261325d565b602082019050919050565b60006129eb602a83612e78565b91506129f682613286565b604082019050919050565b6000612a0e601783612e78565b9150612a19826132d5565b602082019050919050565b8082525050565b612a3481612f93565b82525050565b612a4381612f93565b82525050565b6000612a558284612839565b915081905092915050565b6000602082019050612a7560008301846127d3565b92915050565b6000604082019050612a9060008301856127d3565b612a9d60208301846127d3565b9392505050565b6000604082019050612ab960008301856127d3565b612ac66020830184612a2b565b9392505050565b6000608082019050612ae260008301876127d3565b612aef6020830186612a2b565b612afc6040830185612a2b565b612b096060830184612a2b565b95945050505050565b6000602082019050612b2760008301846127f1565b92915050565b6000604082019050612b4260008301856127f1565b612b4f60208301846127d3565b9392505050565b60006020820190508181036000830152612b708184612800565b905092915050565b60006020820190508181036000830152612b92818461286a565b905092915050565b60006020820190508181036000830152612bb3816128a3565b9050919050565b60006020820190508181036000830152612bd3816128c6565b9050919050565b60006020820190508181036000830152612bf3816128e9565b9050919050565b60006020820190508181036000830152612c138161290c565b9050919050565b60006020820190508181036000830152612c338161292f565b9050919050565b60006020820190508181036000830152612c5381612952565b9050919050565b60006020820190508181036000830152612c7381612975565b9050919050565b60006020820190508181036000830152612c9381612998565b9050919050565b60006020820190508181036000830152612cb3816129bb565b9050919050565b60006020820190508181036000830152612cd3816129de565b9050919050565b60006020820190508181036000830152612cf381612a01565b9050919050565b6000602082019050612d0f6000830184612a24565b92915050565b6000604082019050612d2a6000830185612a24565b612d3760208301846127e2565b9392505050565b6000606082019050612d536000830186612a24565b612d6060208301856127e2565b612d6d60408301846127e2565b949350505050565b6000606082019050612d8a6000830186612a24565b612d9760208301856127e2565b612da46040830184612a3a565b949350505050565b6000604082019050612dc16000830185612a24565b612dce6020830184612a3a565b9392505050565b6000602082019050612dea6000830184612a2b565b92915050565b6000612dfa612e0b565b9050612e068282612fdd565b919050565b6000604051905090565b600067ffffffffffffffff821115612e3057612e2f61303d565b5b612e398261306c565b9050602081019050919050565b600081519050919050565b600081519050919050565b600082825260208201905092915050565b600081905092915050565b600082825260208201905092915050565b6000612e9482612f93565b9150612e9f83612f93565b9250827fffffffffffffffffffffffffffffffffffffffffffffffffffffffffffffffff03821115612ed457612ed361300e565b5b828201905092915050565b6000612eea82612f73565b9050919050565b6000612efc82612f73565b9050919050565b60008115159050919050565b6000819050919050565b60007fffffffff0000000000000000000000000000000000000000000000000000000082169050919050565b6000612f5082612edf565b9050919050565b6000612f6282612edf565b9050919050565b6000819050919050565b600073ffffffffffffffffffffffffffffffffffffffff82169050919050565b6000819050919050565b600060ff82169050919050565b60005b83811015612fc8578082015181840152602081019050612fad565b83811115612fd7576000848401525b50505050565b612fe68261306c565b810181811067ffffffffffffffff821117156130055761300461303d565b5b80604052505050565b7f4e487b7100000000000000000000000000000000000000000000000000000000600052601160045260246000fd5b7f4e487b7100000000000000000000000000000000000000000000000000000000600052604160045260246000fd5b6000601f19601f8301169050919050565b7f644865646765436f72653a20537570706f727473206f6e6c79206f6e6520686f60008201527f7374000000000000000000000000000000000000000000000000000000000000602082015250565b7f4f776e61626c653a206e6577206f776e657220697320746865207a65726f206160008201527f6464726573730000000000000000000000000000000000000000000000000000602082015250565b7f644865646765436f72653a204e6f7420746865206f776e657200000000000000600082015250565b7f416464726573733a20696e73756666696369656e742062616c616e636520666f60008201527f722063616c6c0000000000000000000000000000000000000000000000000000602082015250565b7f644865646765436f72653a20506f6f6c20616c72656164792061637469766500600082015250565b7f644865646765436f72653a20537570706f727473206f6e6c79206f6e6520434660008201527f4100000000000000000000000000000000000000000000000000000000000000602082015250565b7f4f776e61626c653a2063616c6c6572206973206e6f7420746865206f776e6572600082015250565b7f644865646765436f72653a20506f6f6c20696e61637469766500000000000000600082015250565b7f416464726573733a2063616c6c20746f206e6f6e2d636f6e7472616374000000600082015250565b7f5361666545524332303a204552433230206f7065726174696f6e20646964206e60008201527f6f74207375636365656400000000000000000000000000000000000000000000602082015250565b7f546f6b656e206e6f74206465706f736974206173736574000000000000000000600082015250565b61330781612edf565b811461331257600080fd5b50565b61331e81612ef1565b811461332957600080fd5b50565b61333581612f03565b811461334057600080fd5b50565b61334c81612f0f565b811461335757600080fd5b50565b61336381612f19565b811461336e57600080fd5b50565b61337a81612f45565b811461338557600080fd5b50565b61339181612f57565b811461339c57600080fd5b50565b6133a881612f69565b81146133b357600080fd5b50565b6133bf81612f93565b81146133ca57600080fd5b50565b6133d681612f9d565b81146133e157600080fd5b5056fea2646970667358221220c654f98b772943bcfdc23012baa3c79939eb3deed3af5f0c90b81ee3f462c54664736f6c63430008040033",
  "deployedBytecode": "0x608060405234801561001057600080fd5b506004361061014d5760003560e01c8063715018a6116100c3578063a2e74bd11161007c578063a2e74bd114610364578063d335015514610394578063d86ed3e5146103b2578063db34227c146103e2578063f1d640b0146103fe578063f2fde38b1461041d5761014d565b8063715018a6146102a2578063884d1f40146102ac5780638da5cb5b146102dc5780638e8101bd146102fa578063911f94e11461032a578063a1dacb1c1461035a5761014d565b8063525f45fb11610115578063525f45fb146101e257806353be974f146101fe57806353c11f991461021c578063591f7ea51461024c5780635f9e7d77146102565780636ff1c9bc146102865761014d565b8063230dbd29146101525780632ea31c18146101825780633059c9011461018c57806330d9c915146101a8578063444cf9c8146101d8575b600080fd5b61016c60048036038101906101679190612661565b610439565b6040516101799190612b56565b60405180910390f35b61018a61056b565b005b6101a660048036038101906101a19190612781565b61059b565b005b6101c260048036038101906101bd91906125b1565b61060a565b6040516101cf9190612b56565b60405180910390f35b6101e06107ce565b005b6101fc60048036038101906101f791906123f6565b610842565b005b6102066108b9565b6040516102139190612b12565b60405180910390f35b61023660048036038101906102319190612661565b6108d2565b6040516102439190612b56565b60405180910390f35b610254610a04565b005b610270600480360381019061026b91906125b1565b610a7e565b60405161027d9190612b56565b60405180910390f35b6102a0600480360381019061029b91906123f6565b610b69565b005b6102aa610c2f565b005b6102c660048036038101906102c191906125b1565b610cb7565b6040516102d39190612b56565b60405180910390f35b6102e4610daa565b6040516102f19190612a60565b60405180910390f35b610314600480360381019061030f91906123f6565b610dd3565b6040516103219190612dd5565b60405180910390f35b610344600480360381019061033f91906124ab565b610e68565b6040516103519190612dd5565b60405180910390f35b610362610f00565b005b61037e600480360381019061037991906123f6565b610f6c565b60405161038b9190612dd5565b60405180910390f35b61039c611001565b6040516103a99190612a60565b60405180910390f35b6103cc60048036038101906103c79190612661565b61102e565b6040516103d99190612b56565b60405180910390f35b6103fc60048036038101906103f791906124e7565b6113a5565b005b610406611417565b604051610414929190612b2d565b60405180910390f35b610437600480360381019061043291906123f6565b6114ab565b005b60606104436116dc565b61044c89611771565b61051785858080601f016020809104026020016040519081016040528093929190818152602001838380828437600081840152601f19601f820116905080830192505050505050508b73ffffffffffffffffffffffffffffffffffffffff1663ee719bc86040518163ffffffff1660e01b815260040160206040518083038186803b1580156104da57600080fd5b505afa1580156104ee573d6000803e3d6000fd5b505050506040513d601f19601f82011682018060405250810190610512919061241f565b611853565b82828080601f016020809104026020016040519081016040528093929190818152602001838380828437600081840152601f19601f8201169050808301925050505050505090509998505050505050505050565b610574336119ee565b61057c611a66565b60006001800160146101000a81548160ff021916908315150217905550565b600173__$36209bf43a07552564d1a894d44c07e934$__63589d14409091836040518363ffffffff1660e01b81526004016105d7929190612dac565b60006040518083038186803b1580156105ef57600080fd5b505af4158015610603573d6000803e3d6000fd5b5050505050565b60606106146116dc565b61061d87611771565b610625611a66565b60008873ffffffffffffffffffffffffffffffffffffffff1663ee719bc86040518163ffffffff1660e01b815260040160206040518083038186803b15801561066d57600080fd5b505afa158015610681573d6000803e3d6000fd5b505050506040513d601f19601f820116820180604052508101906106a5919061241f565b9050600173__$36209bf43a07552564d1a894d44c07e934$__63448c57229091836040518363ffffffff1660e01b81526004016106e3929190612d15565b60206040518083038186803b1580156106fb57600080fd5b505af415801561070f573d6000803e3d6000fd5b505050506040513d601f19601f820116820180604052508101906107339190612523565b610772576040517f08c379a000000000000000000000000000000000000000000000000000000000815260040161076990612cda565b60405180910390fd5b6107c084848080601f016020809104026020016040519081016040528093929190818152602001838380828437600081840152601f19601f8201169050808301925050505050505082611ab9565b915050979650505050505050565b6107d6611a66565b600173__$36209bf43a07552564d1a894d44c07e934$__63defff49390916040518263ffffffff1660e01b81526004016108109190612cfa565b60006040518083038186803b15801561082857600080fd5b505af415801561083c573d6000803e3d6000fd5b50505050565b61084a611a66565b600173__$36209bf43a07552564d1a894d44c07e934$__63394110d19091836040518363ffffffff1660e01b8152600401610886929190612d15565b60006040518083038186803b15801561089e57600080fd5b505af41580156108b2573d6000803e3d6000fd5b5050505050565b60006001800160149054906101000a900460ff16905090565b60606108dc6116dc565b6108e589611771565b6109b085858080601f016020809104026020016040519081016040528093929190818152602001838380828437600081840152601f19601f820116905080830192505050505050508b73ffffffffffffffffffffffffffffffffffffffff1663ee719bc86040518163ffffffff1660e01b815260040160206040518083038186803b15801561097357600080fd5b505afa158015610987573d6000803e3d6000fd5b505050506040513d601f19601f820116820180604052508101906109ab919061241f565b611853565b82828080601f016020809104026020016040519081016040528093929190818152602001838380828437600081840152601f19601f8201169050808301925050505050505090509998505050505050505050565b610a0d336119ee565b6001800160149054906101000a900460ff1615610a5f576040517f08c379a0000000000000000000000000000000000000000000000000000000008152600401610a5690612c1a565b60405180910390fd5b60018060010160146101000a81548160ff021916908315150217905550565b6060610a886116dc565b610a9187611771565b610b5c83838080601f016020809104026020016040519081016040528093929190818152602001838380828437600081840152601f19601f820116905080830192505050505050508973ffffffffffffffffffffffffffffffffffffffff1663ee719bc86040518163ffffffff1660e01b815260040160206040518083038186803b158015610b1f57600080fd5b505afa158015610b33573d6000803e3d6000fd5b505050506040513d601f19601f82011682018060405250810190610b57919061241f565b611ab9565b9050979650505050505050565b610b72336119ee565b610c2c610b7d610daa565b8273ffffffffffffffffffffffffffffffffffffffff166370a08231306040518263ffffffff1660e01b8152600401610bb69190612a60565b60206040518083038186803b158015610bce57600080fd5b505afa158015610be2573d6000803e3d6000fd5b505050506040513d601f19601f82011682018060405250810190610c0691906127aa565b8373ffffffffffffffffffffffffffffffffffffffff16611d4c9092919063ffffffff16565b50565b610c37611dd2565b73ffffffffffffffffffffffffffffffffffffffff16610c55610daa565b73ffffffffffffffffffffffffffffffffffffffff1614610cab576040517f08c379a0000000000000000000000000000000000000000000000000000000008152600401610ca290612c5a565b60405180910390fd5b610cb56000611dda565b565b6060610cc16116dc565b610cca87611771565b610cd2611a66565b610d9d83838080601f016020809104026020016040519081016040528093929190818152602001838380828437600081840152601f19601f820116905080830192505050505050508973ffffffffffffffffffffffffffffffffffffffff1663ee719bc86040518163ffffffff1660e01b815260040160206040518083038186803b158015610d6057600080fd5b505afa158015610d74573d6000803e3d6000fd5b505050506040513d601f19601f82011682018060405250810190610d98919061241f565b611ab9565b9050979650505050505050565b60008060009054906101000a900473ffffffffffffffffffffffffffffffffffffffff16905090565b6000600173__$36209bf43a07552564d1a894d44c07e934$__6325f848169091846040518363ffffffff1660e01b8152600401610e11929190612d15565b60206040518083038186803b158015610e2957600080fd5b505af4158015610e3d573d6000803e3d6000fd5b505050506040513d601f19601f82011682018060405250810190610e6191906127aa565b9050919050565b6000600173__$36209bf43a07552564d1a894d44c07e934$__631740215d909185856040518463ffffffff1660e01b8152600401610ea893929190612d3e565b60206040518083038186803b158015610ec057600080fd5b505af4158015610ed4573d6000803e3d6000fd5b505050506040513d601f19601f82011682018060405250810190610ef891906127aa565b905092915050565b600173__$36209bf43a07552564d1a894d44c07e934$__63b8f64b4b90916040518263ffffffff1660e01b8152600401610f3a9190612cfa565b60006040518083038186803b158015610f5257600080fd5b505af4158015610f66573d6000803e3d6000fd5b50505050565b6000600173__$36209bf43a07552564d1a894d44c07e934$__63619c07399091846040518363ffffffff1660e01b8152600401610faa929190612d15565b60206040518083038186803b158015610fc257600080fd5b505af4158015610fd6573d6000803e3d6000fd5b505050506040513d601f19601f82011682018060405250810190610ffa91906127aa565b9050919050565b6000600160030160009054906101000a900473ffffffffffffffffffffffffffffffffffffffff16905090565b60606110386116dc565b61104189611771565b60008a73ffffffffffffffffffffffffffffffffffffffff1663ee719bc86040518163ffffffff1660e01b815260040160206040518083038186803b15801561108957600080fd5b505afa15801561109d573d6000803e3d6000fd5b505050506040513d601f19601f820116820180604052508101906110c1919061241f565b9050600073ffffffffffffffffffffffffffffffffffffffff16600160060160008373ffffffffffffffffffffffffffffffffffffffff1673ffffffffffffffffffffffffffffffffffffffff16815260200190815260200160002060000160009054906101000a900473ffffffffffffffffffffffffffffffffffffffff1673ffffffffffffffffffffffffffffffffffffffff161415611302576001600501819080600181540180825580915050600190039060005260206000200160009091909190916101000a81548173ffffffffffffffffffffffffffffffffffffffff021916908373ffffffffffffffffffffffffffffffffffffffff1602179055508a600160060160008373ffffffffffffffffffffffffffffffffffffffff1673ffffffffffffffffffffffffffffffffffffffff16815260200190815260200160002060000160006101000a81548173ffffffffffffffffffffffffffffffffffffffff021916908373ffffffffffffffffffffffffffffffffffffffff16021790555060018060060160008373ffffffffffffffffffffffffffffffffffffffff1673ffffffffffffffffffffffffffffffffffffffff16815260200190815260200160002060010181905550611301600160030160009054906101000a900473ffffffffffffffffffffffffffffffffffffffff167fffffffffffffffffffffffffffffffffffffffffffffffffffffffffffffffff8373ffffffffffffffffffffffffffffffffffffffff166115a39092919063ffffffff16565b5b61135086868080601f016020809104026020016040519081016040528093929190818152602001838380828437600081840152601f19601f8201169050808301925050505050505082611853565b83838080601f016020809104026020016040519081016040528093929190818152602001838380828437600081840152601f19601f820116905080830192505050505050509150509998505050505050505050565b600173__$36209bf43a07552564d1a894d44c07e934$__63ae24b8a3909184846040518463ffffffff1660e01b81526004016113e393929190612d75565b60006040518083038186803b1580156113fb57600080fd5b505af415801561140f573d6000803e3d6000fd5b505050505050565b600080600173__$36209bf43a07552564d1a894d44c07e934$__63832a95fd90916040518263ffffffff1660e01b81526004016114549190612cfa565b604080518083038186803b15801561146b57600080fd5b505af415801561147f573d6000803e3d6000fd5b505050506040513d601f19601f820116820180604052508101906114a3919061254c565b915091509091565b6114b3611dd2565b73ffffffffffffffffffffffffffffffffffffffff166114d1610daa565b73ffffffffffffffffffffffffffffffffffffffff1614611527576040517f08c379a000000000000000000000000000000000000000000000000000000000815260040161151e90612c5a565b60405180910390fd5b600073ffffffffffffffffffffffffffffffffffffffff168173ffffffffffffffffffffffffffffffffffffffff161415611597576040517f08c379a000000000000000000000000000000000000000000000000000000000815260040161158e90612bba565b60405180910390fd5b6115a081611dda565b50565b6000818473ffffffffffffffffffffffffffffffffffffffff1663dd62ed3e30866040518363ffffffff1660e01b81526004016115e1929190612a7b565b60206040518083038186803b1580156115f957600080fd5b505afa15801561160d573d6000803e3d6000fd5b505050506040513d601f19601f8201168201806040525081019061163191906127aa565b61163b9190612e89565b90506116be8463095ea7b360e01b858460405160240161165c929190612aa4565b604051602081830303815290604052907bffffffffffffffffffffffffffffffffffffffffffffffffffffffff19166020820180517bffffffffffffffffffffffffffffffffffffffffffffffffffffffff8381831617835250505050611e9e565b50505050565b60606116d38484600085611f65565b90509392505050565b600160000160009054906101000a900473ffffffffffffffffffffffffffffffffffffffff1673ffffffffffffffffffffffffffffffffffffffff163373ffffffffffffffffffffffffffffffffffffffff161461176f576040517f08c379a000000000000000000000000000000000000000000000000000000000815260040161176690612b9a565b60405180910390fd5b565b7fa9214cc96615e0085d3bb077758db69497dc2dce3b2b1e97bc93c3d18d83efd38173ffffffffffffffffffffffffffffffffffffffff16637730599e6040518163ffffffff1660e01b815260040160206040518083038186803b1580156117d857600080fd5b505afa1580156117ec573d6000803e3d6000fd5b505050506040513d601f19601f820116820180604052508101906118109190612588565b14611850576040517f08c379a000000000000000000000000000000000000000000000000000000000815260040161184790612c3a565b60405180910390fd5b50565b6000806000808580602001905181019061186d9190612448565b93509350935093506000600160070160008673ffffffffffffffffffffffffffffffffffffffff1673ffffffffffffffffffffffffffffffffffffffff16815260200190815260200160002060008773ffffffffffffffffffffffffffffffffffffffff1673ffffffffffffffffffffffffffffffffffffffff16815260200190815260200160002060000190506119108484836120799092919063ffffffff16565b600160060160008773ffffffffffffffffffffffffffffffffffffffff1673ffffffffffffffffffffffffffffffffffffffff16815260200190815260200160002060010154816000018190555081600160070160008773ffffffffffffffffffffffffffffffffffffffff1673ffffffffffffffffffffffffffffffffffffffff16815260200190815260200160002060008873ffffffffffffffffffffffffffffffffffffffff1673ffffffffffffffffffffffffffffffffffffffff1681526020019081526020016000206004018190555050505050505050565b6119f6610daa565b73ffffffffffffffffffffffffffffffffffffffff168173ffffffffffffffffffffffffffffffffffffffff1614611a63576040517f08c379a0000000000000000000000000000000000000000000000000000000008152600401611a5a90612bda565b60405180910390fd5b50565b6001800160149054906101000a900460ff16611ab7576040517f08c379a0000000000000000000000000000000000000000000000000000000008152600401611aae90612c7a565b60405180910390fd5b565b60606000600160000160009054906101000a900473ffffffffffffffffffffffffffffffffffffffff1673ffffffffffffffffffffffffffffffffffffffff16633f6c923a856040518263ffffffff1660e01b8152600401611b1b9190612b56565b60006040518083038186803b158015611b3357600080fd5b505afa158015611b47573d6000803e3d6000fd5b505050506040513d6000823e3d601f19601f82011682018060405250810190611b709190612740565b60600151905080600173__$36209bf43a07552564d1a894d44c07e934$__631740215d909184876040518463ffffffff1660e01b8152600401611bb593929190612d3e565b60206040518083038186803b158015611bcd57600080fd5b505af4158015611be1573d6000803e3d6000fd5b505050506040513d601f19601f82011682018060405250810190611c0591906127aa565b600173__$36209bf43a07552564d1a894d44c07e934$__633828401b909185886040518463ffffffff1660e01b8152600401611c4393929190612d3e565b60206040518083038186803b158015611c5b57600080fd5b505af4158015611c6f573d6000803e3d6000fd5b505050506040513d601f19601f82011682018060405250810190611c9391906127aa565b600173__$36209bf43a07552564d1a894d44c07e934$__6334f68604909186896040518463ffffffff1660e01b8152600401611cd193929190612d3e565b60206040518083038186803b158015611ce957600080fd5b505af4158015611cfd573d6000803e3d6000fd5b505050506040513d601f19601f82011682018060405250810190611d2191906127aa565b604051602001611d349493929190612acd565b60405160208183030381529060405291505092915050565b611dcd8363a9059cbb60e01b8484604051602401611d6b929190612aa4565b604051602081830303815290604052907bffffffffffffffffffffffffffffffffffffffffffffffffffffffff19166020820180517bffffffffffffffffffffffffffffffffffffffffffffffffffffffff8381831617835250505050611e9e565b505050565b600033905090565b60008060009054906101000a900473ffffffffffffffffffffffffffffffffffffffff169050816000806101000a81548173ffffffffffffffffffffffffffffffffffffffff021916908373ffffffffffffffffffffffffffffffffffffffff1602179055508173ffffffffffffffffffffffffffffffffffffffff168173ffffffffffffffffffffffffffffffffffffffff167f8be0079c531659141344cd1fd0a4f28419497f9722a3daafe3b4186f6b6457e060405160405180910390a35050565b6000611f00826040518060400160405280602081526020017f5361666545524332303a206c6f772d6c6576656c2063616c6c206661696c65648152508573ffffffffffffffffffffffffffffffffffffffff166116c49092919063ffffffff16565b9050600081511115611f605780806020019051810190611f209190612523565b611f5f576040517f08c379a0000000000000000000000000000000000000000000000000000000008152600401611f5690612cba565b60405180910390fd5b5b505050565b606082471015611faa576040517f08c379a0000000000000000000000000000000000000000000000000000000008152600401611fa190612bfa565b60405180910390fd5b611fb385612099565b611ff2576040517f08c379a0000000000000000000000000000000000000000000000000000000008152600401611fe990612c9a565b60405180910390fd5b6000808673ffffffffffffffffffffffffffffffffffffffff16858760405161201b9190612a49565b60006040518083038185875af1925050503d8060008114612058576040519150601f19603f3d011682016040523d82523d6000602084013e61205d565b606091505b509150915061206d8282866120ac565b92505050949350505050565b818360010181905550808360020181905550428360030181905550505050565b600080823b905060008111915050919050565b606083156120bc5782905061210c565b6000835111156120cf5782518084602001fd5b816040517f08c379a00000000000000000000000000000000000000000000000000000000081526004016121039190612b78565b60405180910390fd5b9392505050565b600061212661212184612e15565b612df0565b90508281526020810184848401111561213e57600080fd5b612149848285612faa565b509392505050565b600081359050612160816132fe565b92915050565b600081519050612175816132fe565b92915050565b60008151905061218a81613315565b92915050565b60008151905061219f8161332c565b92915050565b6000813590506121b481613343565b92915050565b6000815190506121c981613343565b92915050565b6000815190506121de8161335a565b92915050565b60008083601f8401126121f657600080fd5b8235905067ffffffffffffffff81111561220f57600080fd5b60208301915083600182028301111561222757600080fd5b9250929050565b600082601f83011261223f57600080fd5b815161224f848260208601612113565b91505092915050565b60008135905061226781613371565b92915050565b60008151905061227c81613388565b92915050565b6000815190506122918161339f565b92915050565b600061016082840312156122aa57600080fd5b6122b5610160612df0565b905060006122c5848285016123e1565b60008301525060206122d9848285016123e1565b60208301525060406122ed848285016123cc565b604083015250606061230184828501612166565b6060830152506080612315848285016121cf565b60808301525060a082015167ffffffffffffffff81111561233557600080fd5b6123418482850161222e565b60a08301525060c0612355848285016123cc565b60c08301525060e0612369848285016123cc565b60e08301525061010061237e84828501612282565b6101008301525061012061239484828501612166565b610120830152506101406123aa8482850161226d565b6101408301525092915050565b6000813590506123c6816133b6565b92915050565b6000815190506123db816133b6565b92915050565b6000815190506123f0816133cd565b92915050565b60006020828403121561240857600080fd5b600061241684828501612151565b91505092915050565b60006020828403121561243157600080fd5b600061243f84828501612166565b91505092915050565b6000806000806080858703121561245e57600080fd5b600061246c8782880161217b565b945050602061247d878288016123cc565b935050604061248e878288016123cc565b925050606061249f878288016123cc565b91505092959194509250565b600080604083850312156124be57600080fd5b60006124cc85828601612151565b92505060206124dd85828601612151565b9150509250929050565b600080604083850312156124fa57600080fd5b600061250885828601612151565b9250506020612519858286016123b7565b9150509250929050565b60006020828403121561253557600080fd5b600061254384828501612190565b91505092915050565b6000806040838503121561255f57600080fd5b600061256d85828601612190565b925050602061257e85828601612166565b9150509250929050565b60006020828403121561259a57600080fd5b60006125a8848285016121ba565b91505092915050565b600080600080600080600060a0888a0312156125cc57600080fd5b60006125da8a828b01612258565b97505060206125eb8a828b01612151565b96505060406125fc8a828b016121a5565b955050606088013567ffffffffffffffff81111561261957600080fd5b6126258a828b016121e4565b9450945050608088013567ffffffffffffffff81111561264457600080fd5b6126508a828b016121e4565b925092505092959891949750929550565b600080600080600080600080600060c08a8c03121561267f57600080fd5b600061268d8c828d01612258565b995050602061269e8c828d01612151565b98505060406126af8c828d016121a5565b97505060608a013567ffffffffffffffff8111156126cc57600080fd5b6126d88c828d016121e4565b965096505060808a013567ffffffffffffffff8111156126f757600080fd5b6127038c828d016121e4565b945094505060a08a013567ffffffffffffffff81111561272257600080fd5b61272e8c828d016121e4565b92509250509295985092959850929598565b60006020828403121561275257600080fd5b600082015167ffffffffffffffff81111561276c57600080fd5b61277884828501612297565b91505092915050565b60006020828403121561279357600080fd5b60006127a1848285016123b7565b91505092915050565b6000602082840312156127bc57600080fd5b60006127ca848285016123cc565b91505092915050565b6127dc81612edf565b82525050565b6127eb81612edf565b82525050565b6127fa81612f03565b82525050565b600061280b82612e46565b6128158185612e5c565b9350612825818560208601612faa565b61282e8161306c565b840191505092915050565b600061284482612e46565b61284e8185612e6d565b935061285e818560208601612faa565b80840191505092915050565b600061287582612e51565b61287f8185612e78565b935061288f818560208601612faa565b6128988161306c565b840191505092915050565b60006128b0602283612e78565b91506128bb8261307d565b604082019050919050565b60006128d3602683612e78565b91506128de826130cc565b604082019050919050565b60006128f6601983612e78565b91506129018261311b565b602082019050919050565b6000612919602683612e78565b915061292482613144565b604082019050919050565b600061293c601f83612e78565b915061294782613193565b602082019050919050565b600061295f602183612e78565b915061296a826131bc565b604082019050919050565b6000612982602083612e78565b915061298d8261320b565b602082019050919050565b60006129a5601983612e78565b91506129b082613234565b602082019050919050565b60006129c8601d83612e78565b91506129d38261325d565b602082019050919050565b60006129eb602a83612e78565b91506129f682613286565b604082019050919050565b6000612a0e601783612e78565b9150612a19826132d5565b602082019050919050565b8082525050565b612a3481612f93565b82525050565b612a4381612f93565b82525050565b6000612a558284612839565b915081905092915050565b6000602082019050612a7560008301846127d3565b92915050565b6000604082019050612a9060008301856127d3565b612a9d60208301846127d3565b9392505050565b6000604082019050612ab960008301856127d3565b612ac66020830184612a2b565b9392505050565b6000608082019050612ae260008301876127d3565b612aef6020830186612a2b565b612afc6040830185612a2b565b612b096060830184612a2b565b95945050505050565b6000602082019050612b2760008301846127f1565b92915050565b6000604082019050612b4260008301856127f1565b612b4f60208301846127d3565b9392505050565b60006020820190508181036000830152612b708184612800565b905092915050565b60006020820190508181036000830152612b92818461286a565b905092915050565b60006020820190508181036000830152612bb3816128a3565b9050919050565b60006020820190508181036000830152612bd3816128c6565b9050919050565b60006020820190508181036000830152612bf3816128e9565b9050919050565b60006020820190508181036000830152612c138161290c565b9050919050565b60006020820190508181036000830152612c338161292f565b9050919050565b60006020820190508181036000830152612c5381612952565b9050919050565b60006020820190508181036000830152612c7381612975565b9050919050565b60006020820190508181036000830152612c9381612998565b9050919050565b60006020820190508181036000830152612cb3816129bb565b9050919050565b60006020820190508181036000830152612cd3816129de565b9050919050565b60006020820190508181036000830152612cf381612a01565b9050919050565b6000602082019050612d0f6000830184612a24565b92915050565b6000604082019050612d2a6000830185612a24565b612d3760208301846127e2565b9392505050565b6000606082019050612d536000830186612a24565b612d6060208301856127e2565b612d6d60408301846127e2565b949350505050565b6000606082019050612d8a6000830186612a24565b612d9760208301856127e2565b612da46040830184612a3a565b949350505050565b6000604082019050612dc16000830185612a24565b612dce6020830184612a3a565b9392505050565b6000602082019050612dea6000830184612a2b565b92915050565b6000612dfa612e0b565b9050612e068282612fdd565b919050565b6000604051905090565b600067ffffffffffffffff821115612e3057612e2f61303d565b5b612e398261306c565b9050602081019050919050565b600081519050919050565b600081519050919050565b600082825260208201905092915050565b600081905092915050565b600082825260208201905092915050565b6000612e9482612f93565b9150612e9f83612f93565b9250827fffffffffffffffffffffffffffffffffffffffffffffffffffffffffffffffff03821115612ed457612ed361300e565b5b828201905092915050565b6000612eea82612f73565b9050919050565b6000612efc82612f73565b9050919050565b60008115159050919050565b6000819050919050565b60007fffffffff0000000000000000000000000000000000000000000000000000000082169050919050565b6000612f5082612edf565b9050919050565b6000612f6282612edf565b9050919050565b6000819050919050565b600073ffffffffffffffffffffffffffffffffffffffff82169050919050565b6000819050919050565b600060ff82169050919050565b60005b83811015612fc8578082015181840152602081019050612fad565b83811115612fd7576000848401525b50505050565b612fe68261306c565b810181811067ffffffffffffffff821117156130055761300461303d565b5b80604052505050565b7f4e487b7100000000000000000000000000000000000000000000000000000000600052601160045260246000fd5b7f4e487b7100000000000000000000000000000000000000000000000000000000600052604160045260246000fd5b6000601f19601f8301169050919050565b7f644865646765436f72653a20537570706f727473206f6e6c79206f6e6520686f60008201527f7374000000000000000000000000000000000000000000000000000000000000602082015250565b7f4f776e61626c653a206e6577206f776e657220697320746865207a65726f206160008201527f6464726573730000000000000000000000000000000000000000000000000000602082015250565b7f644865646765436f72653a204e6f7420746865206f776e657200000000000000600082015250565b7f416464726573733a20696e73756666696369656e742062616c616e636520666f60008201527f722063616c6c0000000000000000000000000000000000000000000000000000602082015250565b7f644865646765436f72653a20506f6f6c20616c72656164792061637469766500600082015250565b7f644865646765436f72653a20537570706f727473206f6e6c79206f6e6520434660008201527f4100000000000000000000000000000000000000000000000000000000000000602082015250565b7f4f776e61626c653a2063616c6c6572206973206e6f7420746865206f776e6572600082015250565b7f644865646765436f72653a20506f6f6c20696e61637469766500000000000000600082015250565b7f416464726573733a2063616c6c20746f206e6f6e2d636f6e7472616374000000600082015250565b7f5361666545524332303a204552433230206f7065726174696f6e20646964206e60008201527f6f74207375636365656400000000000000000000000000000000000000000000602082015250565b7f546f6b656e206e6f74206465706f736974206173736574000000000000000000600082015250565b61330781612edf565b811461331257600080fd5b50565b61331e81612ef1565b811461332957600080fd5b50565b61333581612f03565b811461334057600080fd5b50565b61334c81612f0f565b811461335757600080fd5b50565b61336381612f19565b811461336e57600080fd5b50565b61337a81612f45565b811461338557600080fd5b50565b61339181612f57565b811461339c57600080fd5b50565b6133a881612f69565b81146133b357600080fd5b50565b6133bf81612f93565b81146133ca57600080fd5b50565b6133d681612f9d565b81146133e157600080fd5b5056fea2646970667358221220c654f98b772943bcfdc23012baa3c79939eb3deed3af5f0c90b81ee3f462c54664736f6c63430008040033",
  "libraries": {
    "dHedgeHelper": "0x5364fBf7890f567fE81f424A7ffcCcC7df49F84F"
  },
  "devdoc": {
    "author": "rashtrakoff",
    "custom:experimental": "This is an experimental contract/library. Use at your own risk.",
    "kind": "dev",
    "methods": {
      "calcUserLockedShareAmount(address)": {
        "params": {
          "_user": "Address of the user whose locked share amount needs to be calculated"
        },
        "returns": {
          "_0": "LP token amount that's locked and not available for withdrawal"
        }
      },
      "calcUserUninvested(address,address)": {
        "params": {
          "_token": "Address of the underlying token",
          "_user": "Address of the user whose uninvested amount needs to be calculated"
        },
        "returns": {
          "_0": "Amount of uninvested tokens"
        }
      },
      "calcWithdrawable(address)": {
        "params": {
          "_user": "Address of the user whose withdrawable amount needs to be calculated"
        },
        "returns": {
          "_0": "Amount that can be withdrawn immediately"
        }
      },
      "checkCoreActive()": {
        "returns": {
          "_0": "Boolean indicating working status of core"
        }
      },
      "dHedgeDeposit(address)": {
        "params": {
          "_token": "Address of the underlying token to be deposited into dHedge pool"
        }
      },
      "dHedgeWithdraw(uint256)": {
        "params": {
          "_amount": "Amount of LP tokens to be withdrawn"
        }
      },
      "deactivateCore()": {
        "details": "Deactivates a dHedgeCore contract"
      },
      "emergencyWithdraw(address)": {
        "custom:note": "Remove/Modify this function after testing",
        "details": "Function to withdraw a token in case of emergency",
        "params": {
          "_token": "Address of the pool token"
        }
      },
      "getPoolLogic()": {
        "returns": {
          "_0": "Returns address of the dHedge pool this core contract serves"
        }
      },
      "moveLPT()": {
        "details": "Moves LP tokens from core contract to bank contract This is automatically done by the keepers when dpositing or when someone withdraws LP tokens"
      },
      "owner()": {
        "details": "Returns the address of the current owner."
      },
      "renounceOwnership()": {
        "details": "Leaves the contract without owner. It will not be possible to call `onlyOwner` functions anymore. Can only be called by the current owner. NOTE: Renouncing ownership will leave the contract without an owner, thereby removing any functionality that is only available to the owner."
      },
      "requireUpkeep()": {
        "details": "Checks if deposit action can be performed",
        "returns": {
          "_0": "Boolean indicating if upkeep/deposit can be performed"
        }
      },
      "transferOwnership(address)": {
        "details": "Transfers ownership of the contract to a new account (`newOwner`). Can only be called by the current owner."
      },
      "withdrawUninvestedSingle(address,uint256)": {
        "params": {
          "_amount": "Amount of uninvested token to be withdrawn",
          "_token": "Address of the underlying token"
        }
      }
    },
    "title": "Core contract for a dHedge pool",
    "version": 1
  },
  "userdoc": {
    "kind": "user",
    "methods": {
      "calcUserLockedShareAmount(address)": {
        "notice": "Calculates locked share amount of a user for a particular token"
      },
      "calcUserUninvested(address,address)": {
        "notice": "Calculates uninvested token amount of a particular user"
      },
      "calcWithdrawable(address)": {
        "notice": "Calculates withdrawable amount. Also accounts for cooldown period."
      },
      "checkCoreActive()": {
        "notice": "Checks if the core is active or not"
      },
      "dHedgeDeposit(address)": {
        "notice": "Converts supertokens to underlying tokens and deposits them into dHedge pool"
      },
      "dHedgeWithdraw(uint256)": {
        "notice": "Withdraws LP tokens of the pool to the caller"
      },
      "getPoolLogic()": {
        "notice": "Gets pool address"
      },
      "withdrawUninvestedAll()": {
        "notice": "Withdraws all the uninvested tokens of the caller"
      },
      "withdrawUninvestedSingle(address,uint256)": {
        "notice": "Withdraws uninvested tokens in a specific amount"
      }
    },
    "notice": "Contains user facing functions",
    "version": 1
  },
  "storageLayout": {
    "storage": [
      {
        "astId": 7,
        "contract": "contracts/dHedge/dHedgeCore.sol:dHedgeCore",
        "label": "_owner",
        "offset": 0,
        "slot": "0",
        "type": "t_address"
      },
      {
        "astId": 5516,
        "contract": "contracts/dHedge/dHedgeCore.sol:dHedgeCore",
        "label": "poolData",
        "offset": 0,
        "slot": "1",
        "type": "t_struct(dHedgePool)5300_storage"
      }
    ],
    "types": {
      "t_address": {
        "encoding": "inplace",
        "label": "address",
        "numberOfBytes": "20"
      },
      "t_array(t_address)dyn_storage": {
        "base": "t_address",
        "encoding": "dynamic_array",
        "label": "address[]",
        "numberOfBytes": "32"
      },
      "t_array(t_uint256)3_storage": {
        "base": "t_uint256",
        "encoding": "inplace",
        "label": "uint256[3]",
        "numberOfBytes": "96"
      },
      "t_bool": {
        "encoding": "inplace",
        "label": "bool",
        "numberOfBytes": "1"
      },
      "t_contract(IConstantFlowAgreementV1)1801": {
        "encoding": "inplace",
        "label": "contract IConstantFlowAgreementV1",
        "numberOfBytes": "20"
      },
      "t_contract(ISuperfluid)3131": {
        "encoding": "inplace",
        "label": "contract ISuperfluid",
        "numberOfBytes": "20"
      },
      "t_mapping(t_address,t_mapping(t_address,t_struct(UserData)5266_storage))": {
        "encoding": "mapping",
        "key": "t_address",
        "label": "mapping(address => mapping(address => struct dHedgeStorage.UserData))",
        "numberOfBytes": "32",
        "value": "t_mapping(t_address,t_struct(UserData)5266_storage)"
      },
      "t_mapping(t_address,t_struct(TokenData)5260_storage)": {
        "encoding": "mapping",
        "key": "t_address",
        "label": "mapping(address => struct dHedgeStorage.TokenData)",
        "numberOfBytes": "32",
        "value": "t_struct(TokenData)5260_storage"
      },
      "t_mapping(t_address,t_struct(UserData)5266_storage)": {
        "encoding": "mapping",
        "key": "t_address",
        "label": "mapping(address => struct dHedgeStorage.UserData)",
        "numberOfBytes": "32",
        "value": "t_struct(UserData)5266_storage"
      },
      "t_mapping(t_address,t_uint256)": {
        "encoding": "mapping",
        "key": "t_address",
        "label": "mapping(address => uint256)",
        "numberOfBytes": "32",
        "value": "t_uint256"
      },
      "t_mapping(t_uint256,t_array(t_uint256)3_storage)": {
        "encoding": "mapping",
        "key": "t_uint256",
        "label": "mapping(uint256 => uint256[3])",
        "numberOfBytes": "32",
        "value": "t_array(t_uint256)3_storage"
      },
      "t_struct(FlowData)3527_storage": {
        "encoding": "inplace",
        "label": "struct FlowData",
        "members": [
          {
            "astId": 3520,
            "contract": "contracts/dHedge/dHedgeCore.sol:dHedgeCore",
            "label": "updateIndex",
            "offset": 0,
            "slot": "0",
            "type": "t_uint256"
          },
          {
            "astId": 3522,
            "contract": "contracts/dHedge/dHedgeCore.sol:dHedgeCore",
            "label": "uninvestedSum",
            "offset": 0,
            "slot": "1",
            "type": "t_uint256"
          },
          {
            "astId": 3524,
            "contract": "contracts/dHedge/dHedgeCore.sol:dHedgeCore",
            "label": "shareAmount",
            "offset": 0,
            "slot": "2",
            "type": "t_uint256"
          },
          {
            "astId": 3526,
            "contract": "contracts/dHedge/dHedgeCore.sol:dHedgeCore",
            "label": "prevUpdateTimestamp",
            "offset": 0,
            "slot": "3",
            "type": "t_uint256"
          }
        ],
        "numberOfBytes": "128"
      },
      "t_struct(TokenData)5260_storage": {
        "encoding": "inplace",
        "label": "struct dHedgeStorage.TokenData",
        "members": [
          {
            "astId": 5251,
            "contract": "contracts/dHedge/dHedgeCore.sol:dHedgeCore",
            "label": "superToken",
            "offset": 0,
            "slot": "0",
            "type": "t_address"
          },
          {
            "astId": 5253,
            "contract": "contracts/dHedge/dHedgeCore.sol:dHedgeCore",
            "label": "currMarketIndex",
            "offset": 0,
            "slot": "1",
            "type": "t_uint256"
          },
          {
            "astId": 5259,
            "contract": "contracts/dHedge/dHedgeCore.sol:dHedgeCore",
            "label": "lendingData",
            "offset": 0,
            "slot": "2",
            "type": "t_mapping(t_uint256,t_array(t_uint256)3_storage)"
          }
        ],
        "numberOfBytes": "96"
      },
      "t_struct(UserData)5266_storage": {
        "encoding": "inplace",
        "label": "struct dHedgeStorage.UserData",
        "members": [
          {
            "astId": 5263,
            "contract": "contracts/dHedge/dHedgeCore.sol:dHedgeCore",
            "label": "userFlow",
            "offset": 0,
            "slot": "0",
            "type": "t_struct(FlowData)3527_storage"
          },
          {
            "astId": 5265,
            "contract": "contracts/dHedge/dHedgeCore.sol:dHedgeCore",
            "label": "lockedShareAmount",
            "offset": 0,
            "slot": "4",
            "type": "t_uint256"
          }
        ],
        "numberOfBytes": "160"
      },
      "t_struct(dHedgePool)5300_storage": {
        "encoding": "inplace",
        "label": "struct dHedgeStorage.dHedgePool",
        "members": [
          {
            "astId": 5269,
            "contract": "contracts/dHedge/dHedgeCore.sol:dHedgeCore",
            "label": "host",
            "offset": 0,
            "slot": "0",
            "type": "t_contract(ISuperfluid)3131"
          },
          {
            "astId": 5272,
            "contract": "contracts/dHedge/dHedgeCore.sol:dHedgeCore",
            "label": "cfa",
            "offset": 0,
            "slot": "1",
            "type": "t_contract(IConstantFlowAgreementV1)1801"
          },
          {
            "astId": 5274,
            "contract": "contracts/dHedge/dHedgeCore.sol:dHedgeCore",
            "label": "isActive",
            "offset": 20,
            "slot": "1",
            "type": "t_bool"
          },
          {
            "astId": 5276,
            "contract": "contracts/dHedge/dHedgeCore.sol:dHedgeCore",
            "label": "lastDepositTime",
            "offset": 0,
            "slot": "2",
            "type": "t_uint256"
          },
          {
            "astId": 5278,
            "contract": "contracts/dHedge/dHedgeCore.sol:dHedgeCore",
            "label": "poolLogic",
            "offset": 0,
            "slot": "3",
            "type": "t_address"
          },
          {
            "astId": 5280,
            "contract": "contracts/dHedge/dHedgeCore.sol:dHedgeCore",
            "label": "bank",
            "offset": 0,
            "slot": "4",
            "type": "t_address"
          },
          {
            "astId": 5283,
            "contract": "contracts/dHedge/dHedgeCore.sol:dHedgeCore",
            "label": "tokenSet",
            "offset": 0,
            "slot": "5",
            "type": "t_array(t_address)dyn_storage"
          },
          {
            "astId": 5288,
            "contract": "contracts/dHedge/dHedgeCore.sol:dHedgeCore",
            "label": "tokenData",
            "offset": 0,
            "slot": "6",
            "type": "t_mapping(t_address,t_struct(TokenData)5260_storage)"
          },
          {
            "astId": 5295,
            "contract": "contracts/dHedge/dHedgeCore.sol:dHedgeCore",
            "label": "userFlows",
            "offset": 0,
            "slot": "7",
            "type": "t_mapping(t_address,t_mapping(t_address,t_struct(UserData)5266_storage))"
          },
          {
            "astId": 5299,
            "contract": "contracts/dHedge/dHedgeCore.sol:dHedgeCore",
            "label": "redeemData",
            "offset": 0,
            "slot": "8",
            "type": "t_mapping(t_address,t_uint256)"
          }
        ],
        "numberOfBytes": "288"
      },
      "t_uint256": {
        "encoding": "inplace",
        "label": "uint256",
        "numberOfBytes": "32"
      }
    }
  }
}