{
  "address": "0xF01696558f28CB1676Fca25f3A3C16b0951366b6",
  "abi": [
    {
      "anonymous": false,
      "inputs": [
        {
          "indexed": true,
          "internalType": "address",
          "name": "previousOwner",
          "type": "address"
        },
        {
          "indexed": true,
          "internalType": "address",
          "name": "newOwner",
          "type": "address"
        }
      ],
      "name": "OwnershipTransferred",
      "type": "event"
    },
    {
      "inputs": [
        {
          "internalType": "address",
          "name": "_poolToken",
          "type": "address"
        },
        {
          "internalType": "uint256",
          "name": "_amount",
          "type": "uint256"
        }
      ],
      "name": "deposit",
      "outputs": [],
      "stateMutability": "nonpayable",
      "type": "function"
    },
    {
      "inputs": [
        {
          "internalType": "address",
          "name": "_token",
          "type": "address"
        }
      ],
      "name": "emergencyWithdraw",
      "outputs": [],
      "stateMutability": "nonpayable",
      "type": "function"
    },
    {
      "inputs": [],
      "name": "owner",
      "outputs": [
        {
          "internalType": "address",
          "name": "",
          "type": "address"
        }
      ],
      "stateMutability": "view",
      "type": "function"
    },
    {
      "inputs": [],
      "name": "renounceOwnership",
      "outputs": [],
      "stateMutability": "nonpayable",
      "type": "function"
    },
    {
      "inputs": [
        {
          "internalType": "address",
          "name": "newOwner",
          "type": "address"
        }
      ],
      "name": "transferOwnership",
      "outputs": [],
      "stateMutability": "nonpayable",
      "type": "function"
    },
    {
      "inputs": [
        {
          "internalType": "address",
          "name": "_poolToken",
          "type": "address"
        },
        {
          "internalType": "address",
          "name": "_user",
          "type": "address"
        },
        {
          "internalType": "uint256",
          "name": "_amount",
          "type": "uint256"
        }
      ],
      "name": "withdraw",
      "outputs": [],
      "stateMutability": "nonpayable",
      "type": "function"
    }
  ],
  "transactionHash": "0x227fa1e7ddebb46441b9e4352284e7f8f74f5cbce42333a61db96ef5174c4aa7",
  "args": [],
  "solcInputHash": "be940b30be6d1724127a475521c42438",
  "bytecode": "0x608060405234801561001057600080fd5b5061002d61002261003260201b60201c565b61003a60201b60201c565b6100fe565b600033905090565b60008060009054906101000a900473ffffffffffffffffffffffffffffffffffffffff169050816000806101000a81548173ffffffffffffffffffffffffffffffffffffffff021916908373ffffffffffffffffffffffffffffffffffffffff1602179055508173ffffffffffffffffffffffffffffffffffffffff168173ffffffffffffffffffffffffffffffffffffffff167f8be0079c531659141344cd1fd0a4f28419497f9722a3daafe3b4186f6b6457e060405160405180910390a35050565b61166c8061010d6000396000f3fe608060405234801561001057600080fd5b50600436106100625760003560e01c806347e7ef24146100675780636ff1c9bc14610083578063715018a61461009f5780638da5cb5b146100a9578063d9caed12146100c7578063f2fde38b146100e3575b600080fd5b610081600480360381019061007c9190610e00565b6100ff565b005b61009d60048036038101906100989190610d5f565b6102fd565b005b6100a7610436565b005b6100b16104be565b6040516100be9190611068565b60405180910390f35b6100e160048036038101906100dc9190610db1565b6104e7565b005b6100fd60048036038101906100f89190610d5f565b6107a3565b005b6101083361089b565b610147576040517f08c379a000000000000000000000000000000000000000000000000000000000815260040161013e906111e5565b60405180910390fd5b61014f6104be565b73ffffffffffffffffffffffffffffffffffffffff163373ffffffffffffffffffffffffffffffffffffffff16638da5cb5b6040518163ffffffff1660e01b815260040160206040518083038186803b1580156101ab57600080fd5b505afa1580156101bf573d6000803e3d6000fd5b505050506040513d601f19601f820116820180604052508101906101e39190610d88565b73ffffffffffffffffffffffffffffffffffffffff1614610239576040517f08c379a000000000000000000000000000000000000000000000000000000000815260040161023090611205565b60405180910390fd5b6102663330838573ffffffffffffffffffffffffffffffffffffffff166108ae909392919063ffffffff16565b80600160003373ffffffffffffffffffffffffffffffffffffffff1673ffffffffffffffffffffffffffffffffffffffff16815260200190815260200160002060008473ffffffffffffffffffffffffffffffffffffffff1673ffffffffffffffffffffffffffffffffffffffff16815260200190815260200160002060008282546102f29190611257565b925050819055505050565b610305610937565b73ffffffffffffffffffffffffffffffffffffffff166103236104be565b73ffffffffffffffffffffffffffffffffffffffff1614610379576040517f08c379a000000000000000000000000000000000000000000000000000000000815260040161037090611185565b60405180910390fd5b6104336103846104be565b8273ffffffffffffffffffffffffffffffffffffffff166370a08231306040518263ffffffff1660e01b81526004016103bd9190611068565b60206040518083038186803b1580156103d557600080fd5b505afa1580156103e9573d6000803e3d6000fd5b505050506040513d601f19601f8201168201806040525081019061040d9190610e65565b8373ffffffffffffffffffffffffffffffffffffffff1661093f9092919063ffffffff16565b50565b61043e610937565b73ffffffffffffffffffffffffffffffffffffffff1661045c6104be565b73ffffffffffffffffffffffffffffffffffffffff16146104b2576040517f08c379a00000000000000000000000000000000000000000000000000000000081526004016104a990611185565b60405180910390fd5b6104bc60006109c5565b565b60008060009054906101000a900473ffffffffffffffffffffffffffffffffffffffff16905090565b6104f03361089b565b61052f576040517f08c379a000000000000000000000000000000000000000000000000000000000815260040161052690611165565b60405180910390fd5b6105376104be565b73ffffffffffffffffffffffffffffffffffffffff163373ffffffffffffffffffffffffffffffffffffffff16638da5cb5b6040518163ffffffff1660e01b815260040160206040518083038186803b15801561059357600080fd5b505afa1580156105a7573d6000803e3d6000fd5b505050506040513d601f19601f820116820180604052508101906105cb9190610d88565b73ffffffffffffffffffffffffffffffffffffffff1614610621576040517f08c379a000000000000000000000000000000000000000000000000000000000815260040161061890611205565b60405180910390fd5b80600160003373ffffffffffffffffffffffffffffffffffffffff1673ffffffffffffffffffffffffffffffffffffffff16815260200190815260200160002060008573ffffffffffffffffffffffffffffffffffffffff1673ffffffffffffffffffffffffffffffffffffffff1681526020019081526020016000205410156106e0576040517f08c379a00000000000000000000000000000000000000000000000000000000081526004016106d790611125565b60405180910390fd5b80600160003373ffffffffffffffffffffffffffffffffffffffff1673ffffffffffffffffffffffffffffffffffffffff16815260200190815260200160002060008573ffffffffffffffffffffffffffffffffffffffff1673ffffffffffffffffffffffffffffffffffffffff168152602001908152602001600020600082825461076c91906112ad565b9250508190555061079e82828573ffffffffffffffffffffffffffffffffffffffff1661093f9092919063ffffffff16565b505050565b6107ab610937565b73ffffffffffffffffffffffffffffffffffffffff166107c96104be565b73ffffffffffffffffffffffffffffffffffffffff161461081f576040517f08c379a000000000000000000000000000000000000000000000000000000000815260040161081690611185565b60405180910390fd5b600073ffffffffffffffffffffffffffffffffffffffff168173ffffffffffffffffffffffffffffffffffffffff16141561088f576040517f08c379a000000000000000000000000000000000000000000000000000000000815260040161088690611105565b60405180910390fd5b610898816109c5565b50565b600080823b905060008111915050919050565b610931846323b872dd60e01b8585856040516024016108cf93929190611083565b604051602081830303815290604052907bffffffffffffffffffffffffffffffffffffffffffffffffffffffff19166020820180517bffffffffffffffffffffffffffffffffffffffffffffffffffffffff8381831617835250505050610a89565b50505050565b600033905090565b6109c08363a9059cbb60e01b848460405160240161095e9291906110ba565b604051602081830303815290604052907bffffffffffffffffffffffffffffffffffffffffffffffffffffffff19166020820180517bffffffffffffffffffffffffffffffffffffffffffffffffffffffff8381831617835250505050610a89565b505050565b60008060009054906101000a900473ffffffffffffffffffffffffffffffffffffffff169050816000806101000a81548173ffffffffffffffffffffffffffffffffffffffff021916908373ffffffffffffffffffffffffffffffffffffffff1602179055508173ffffffffffffffffffffffffffffffffffffffff168173ffffffffffffffffffffffffffffffffffffffff167f8be0079c531659141344cd1fd0a4f28419497f9722a3daafe3b4186f6b6457e060405160405180910390a35050565b6000610aeb826040518060400160405280602081526020017f5361666545524332303a206c6f772d6c6576656c2063616c6c206661696c65648152508573ffffffffffffffffffffffffffffffffffffffff16610b509092919063ffffffff16565b9050600081511115610b4b5780806020019051810190610b0b9190610e3c565b610b4a576040517f08c379a0000000000000000000000000000000000000000000000000000000008152600401610b41906111c5565b60405180910390fd5b5b505050565b6060610b5f8484600085610b68565b90509392505050565b606082471015610bad576040517f08c379a0000000000000000000000000000000000000000000000000000000008152600401610ba490611145565b60405180910390fd5b610bb685610c7c565b610bf5576040517f08c379a0000000000000000000000000000000000000000000000000000000008152600401610bec906111a5565b60405180910390fd5b6000808673ffffffffffffffffffffffffffffffffffffffff168587604051610c1e9190611051565b60006040518083038185875af1925050503d8060008114610c5b576040519150601f19603f3d011682016040523d82523d6000602084013e610c60565b606091505b5091509150610c70828286610c8f565b92505050949350505050565b600080823b905060008111915050919050565b60608315610c9f57829050610cef565b600083511115610cb25782518084602001fd5b816040517f08c379a0000000000000000000000000000000000000000000000000000000008152600401610ce691906110e3565b60405180910390fd5b9392505050565b600081359050610d05816115f1565b92915050565b600081519050610d1a816115f1565b92915050565b600081519050610d2f81611608565b92915050565b600081359050610d448161161f565b92915050565b600081519050610d598161161f565b92915050565b600060208284031215610d7157600080fd5b6000610d7f84828501610cf6565b91505092915050565b600060208284031215610d9a57600080fd5b6000610da884828501610d0b565b91505092915050565b600080600060608486031215610dc657600080fd5b6000610dd486828701610cf6565b9350506020610de586828701610cf6565b9250506040610df686828701610d35565b9150509250925092565b60008060408385031215610e1357600080fd5b6000610e2185828601610cf6565b9250506020610e3285828601610d35565b9150509250929050565b600060208284031215610e4e57600080fd5b6000610e5c84828501610d20565b91505092915050565b600060208284031215610e7757600080fd5b6000610e8584828501610d4a565b91505092915050565b610e97816112e1565b82525050565b6000610ea882611225565b610eb2818561123b565b9350610ec2818560208601611329565b80840191505092915050565b6000610ed982611230565b610ee38185611246565b9350610ef3818560208601611329565b610efc8161138b565b840191505092915050565b6000610f14602683611246565b9150610f1f8261139c565b604082019050919050565b6000610f37602083611246565b9150610f42826113eb565b602082019050919050565b6000610f5a602683611246565b9150610f6582611414565b604082019050919050565b6000610f7d602583611246565b9150610f8882611463565b604082019050919050565b6000610fa0602083611246565b9150610fab826114b2565b602082019050919050565b6000610fc3601d83611246565b9150610fce826114db565b602082019050919050565b6000610fe6602a83611246565b9150610ff182611504565b604082019050919050565b6000611009602483611246565b915061101482611553565b604082019050919050565b600061102c603483611246565b9150611037826115a2565b604082019050919050565b61104b8161131f565b82525050565b600061105d8284610e9d565b915081905092915050565b600060208201905061107d6000830184610e8e565b92915050565b60006060820190506110986000830186610e8e565b6110a56020830185610e8e565b6110b26040830184611042565b949350505050565b60006040820190506110cf6000830185610e8e565b6110dc6020830184611042565b9392505050565b600060208201905081810360008301526110fd8184610ece565b905092915050565b6000602082019050818103600083015261111e81610f07565b9050919050565b6000602082019050818103600083015261113e81610f2a565b9050919050565b6000602082019050818103600083015261115e81610f4d565b9050919050565b6000602082019050818103600083015261117e81610f70565b9050919050565b6000602082019050818103600083015261119e81610f93565b9050919050565b600060208201905081810360008301526111be81610fb6565b9050919050565b600060208201905081810360008301526111de81610fd9565b9050919050565b600060208201905081810360008301526111fe81610ffc565b9050919050565b6000602082019050818103600083015261121e8161101f565b9050919050565b600081519050919050565b600081519050919050565b600081905092915050565b600082825260208201905092915050565b60006112628261131f565b915061126d8361131f565b9250827fffffffffffffffffffffffffffffffffffffffffffffffffffffffffffffffff038211156112a2576112a161135c565b5b828201905092915050565b60006112b88261131f565b91506112c38361131f565b9250828210156112d6576112d561135c565b5b828203905092915050565b60006112ec826112ff565b9050919050565b60008115159050919050565b600073ffffffffffffffffffffffffffffffffffffffff82169050919050565b6000819050919050565b60005b8381101561134757808201518184015260208101905061132c565b83811115611356576000848401525b50505050565b7f4e487b7100000000000000000000000000000000000000000000000000000000600052601160045260246000fd5b6000601f19601f8301169050919050565b7f4f776e61626c653a206e6577206f776e657220697320746865207a65726f206160008201527f6464726573730000000000000000000000000000000000000000000000000000602082015250565b7f64486564676542616e6b3a20416d6f756e742065786365656473206c696d6974600082015250565b7f416464726573733a20696e73756666696369656e742062616c616e636520666f60008201527f722063616c6c0000000000000000000000000000000000000000000000000000602082015250565b7f64486564676542616e6b3a2057697468647261776572206e6f74206120636f6e60008201527f7472616374000000000000000000000000000000000000000000000000000000602082015250565b7f4f776e61626c653a2063616c6c6572206973206e6f7420746865206f776e6572600082015250565b7f416464726573733a2063616c6c20746f206e6f6e2d636f6e7472616374000000600082015250565b7f5361666545524332303a204552433230206f7065726174696f6e20646964206e60008201527f6f74207375636365656400000000000000000000000000000000000000000000602082015250565b7f64486564676542616e6b3a204465706f7369746f72206e6f74206120636f6e7460008201527f7261637400000000000000000000000000000000000000000000000000000000602082015250565b7f64486564676542616e6b3a204f776e6572206f66206465706f73697420636f6e60008201527f7472616374206e6f7420617574686f7269736564000000000000000000000000602082015250565b6115fa816112e1565b811461160557600080fd5b50565b611611816112f3565b811461161c57600080fd5b50565b6116288161131f565b811461163357600080fd5b5056fea2646970667358221220fdeb98167ec468315c9161284e639f2f4fce547fce953eef36ead8f42544b45f64736f6c63430008040033",
  "devdoc": {
    "author": "rashtrakoff",
    "custom:experimental": "This is an experimental contract/library. Use at your own risk.",
    "details": "Accounts for LP tokens received by different core contracts",
    "kind": "dev",
    "methods": {
      "deposit(address,uint256)": {
        "details": "Function called by core contracts for depositing their LP tokens",
        "params": {
          "_amount": "Amount of LP tokens to be deposited",
          "_poolToken": "Address of the dHedge pool"
        }
      },
      "emergencyWithdraw(address)": {
        "details": "Function to withdraw a token in case of emergency",
        "params": {
          "_token": "Address of the pool token Remove/Modify this function after testing"
        }
      },
      "owner()": {
        "details": "Returns the address of the current owner."
      },
      "renounceOwnership()": {
        "details": "Leaves the contract without owner. It will not be possible to call `onlyOwner` functions anymore. Can only be called by the current owner. NOTE: Renouncing ownership will leave the contract without an owner, thereby removing any functionality that is only available to the owner."
      },
      "transferOwnership(address)": {
        "details": "Transfers ownership of the contract to a new account (`newOwner`). Can only be called by the current owner."
      },
      "withdraw(address,address,uint256)": {
        "details": "Function called by core contracts to transfer LP tokens to investors",
        "params": {
          "_amount": "Amount of tokens to be transferred to the user",
          "_poolToken": "Address of the dHedge pool",
          "_user": "Address of the user to whom LP tokens are to be transferred"
        }
      }
    },
    "title": "dHedge bank contract",
    "version": 1
  },
  "userdoc": {
    "kind": "user",
    "methods": {},
    "version": 1
  },
  "storageLayout": {
    "storage": [
      {
        "astId": 7,
        "contract": "contracts/dHedge/dHedgeBank.sol:dHedgeBank",
        "label": "_owner",
        "offset": 0,
        "slot": "0",
        "type": "t_address"
      },
      {
        "astId": 5026,
        "contract": "contracts/dHedge/dHedgeBank.sol:dHedgeBank",
        "label": "depositContracts",
        "offset": 0,
        "slot": "1",
        "type": "t_mapping(t_address,t_mapping(t_address,t_uint256))"
      }
    ],
    "types": {
      "t_address": {
        "encoding": "inplace",
        "label": "address",
        "numberOfBytes": "20"
      },
      "t_mapping(t_address,t_mapping(t_address,t_uint256))": {
        "encoding": "mapping",
        "key": "t_address",
        "label": "mapping(address => mapping(address => uint256))",
        "numberOfBytes": "32",
        "value": "t_mapping(t_address,t_uint256)"
      },
      "t_mapping(t_address,t_uint256)": {
        "encoding": "mapping",
        "key": "t_address",
        "label": "mapping(address => uint256)",
        "numberOfBytes": "32",
        "value": "t_uint256"
      },
      "t_uint256": {
        "encoding": "inplace",
        "label": "uint256",
        "numberOfBytes": "32"
      }
    }
  }
}