{
  "address": "0x17213A065e5E67bFebA4624b9aa0D39bff377FB4",
  "abi": [
    {
      "inputs": [
        {
          "internalType": "address",
          "name": "_dao",
          "type": "address"
        },
        {
          "internalType": "uint32",
          "name": "_defaultFeeRate",
          "type": "uint32"
        }
      ],
      "stateMutability": "nonpayable",
      "type": "constructor"
    },
    {
      "anonymous": false,
      "inputs": [
        {
          "indexed": false,
          "internalType": "address",
          "name": "newCore",
          "type": "address"
        },
        {
          "indexed": false,
          "internalType": "address",
          "name": "pool",
          "type": "address"
        },
        {
          "indexed": false,
          "internalType": "address",
          "name": "poolSuperToken",
          "type": "address"
        }
      ],
      "name": "CoreCreated",
      "type": "event"
    },
    {
      "anonymous": false,
      "inputs": [
        {
          "indexed": false,
          "internalType": "address",
          "name": "newDAOAddr",
          "type": "address"
        }
      ],
      "name": "DAOAddressChanged",
      "type": "event"
    },
    {
      "anonymous": false,
      "inputs": [
        {
          "indexed": false,
          "internalType": "uint32",
          "name": "newFeeRate",
          "type": "uint32"
        }
      ],
      "name": "FeeRateChanged",
      "type": "event"
    },
    {
      "anonymous": false,
      "inputs": [
        {
          "indexed": false,
          "internalType": "address",
          "name": "newImplementation",
          "type": "address"
        },
        {
          "indexed": false,
          "internalType": "string",
          "name": "message",
          "type": "string"
        }
      ],
      "name": "ImplementationChanged",
      "type": "event"
    },
    {
      "anonymous": false,
      "inputs": [
        {
          "indexed": true,
          "internalType": "address",
          "name": "previousOwner",
          "type": "address"
        },
        {
          "indexed": true,
          "internalType": "address",
          "name": "newOwner",
          "type": "address"
        }
      ],
      "name": "OwnershipTransferred",
      "type": "event"
    },
    {
      "inputs": [
        {
          "internalType": "address",
          "name": "",
          "type": "address"
        }
      ],
      "name": "cores",
      "outputs": [
        {
          "internalType": "address",
          "name": "",
          "type": "address"
        }
      ],
      "stateMutability": "view",
      "type": "function"
    },
    {
      "inputs": [
        {
          "internalType": "address",
          "name": "_dHedgePool",
          "type": "address"
        },
        {
          "internalType": "contract ISuperToken",
          "name": "_DHPTx",
          "type": "address"
        }
      ],
      "name": "createdHedgeCore",
      "outputs": [],
      "stateMutability": "nonpayable",
      "type": "function"
    },
    {
      "inputs": [],
      "name": "dao",
      "outputs": [
        {
          "internalType": "address",
          "name": "",
          "type": "address"
        }
      ],
      "stateMutability": "view",
      "type": "function"
    },
    {
      "inputs": [],
      "name": "defaultFeeRate",
      "outputs": [
        {
          "internalType": "uint32",
          "name": "",
          "type": "uint32"
        }
      ],
      "stateMutability": "view",
      "type": "function"
    },
    {
      "inputs": [],
      "name": "implementation",
      "outputs": [
        {
          "internalType": "address",
          "name": "",
          "type": "address"
        }
      ],
      "stateMutability": "view",
      "type": "function"
    },
    {
      "inputs": [],
      "name": "owner",
      "outputs": [
        {
          "internalType": "address",
          "name": "",
          "type": "address"
        }
      ],
      "stateMutability": "view",
      "type": "function"
    },
    {
      "inputs": [],
      "name": "renounceOwnership",
      "outputs": [],
      "stateMutability": "nonpayable",
      "type": "function"
    },
    {
      "inputs": [
        {
          "internalType": "address",
          "name": "_dHedgePool",
          "type": "address"
        },
        {
          "internalType": "contract ISuperToken",
          "name": "_DHPTx",
          "type": "address"
        }
      ],
      "name": "replacedHedgeCore",
      "outputs": [],
      "stateMutability": "nonpayable",
      "type": "function"
    },
    {
      "inputs": [
        {
          "internalType": "address",
          "name": "_dao",
          "type": "address"
        }
      ],
      "name": "setDAOAddress",
      "outputs": [],
      "stateMutability": "nonpayable",
      "type": "function"
    },
    {
      "inputs": [
        {
          "internalType": "uint32",
          "name": "_defaultFeeRate",
          "type": "uint32"
        }
      ],
      "name": "setDefaultFeeRate",
      "outputs": [],
      "stateMutability": "nonpayable",
      "type": "function"
    },
    {
      "inputs": [
        {
          "internalType": "address",
          "name": "_implementation",
          "type": "address"
        },
        {
          "internalType": "string",
          "name": "_message",
          "type": "string"
        }
      ],
      "name": "setImplementation",
      "outputs": [],
      "stateMutability": "nonpayable",
      "type": "function"
    },
    {
      "inputs": [
        {
          "internalType": "address",
          "name": "newOwner",
          "type": "address"
        }
      ],
      "name": "transferOwnership",
      "outputs": [],
      "stateMutability": "nonpayable",
      "type": "function"
    }
  ],
  "transactionHash": "0xea9edf9c1aba28ea0407c688b98eb2ac9021896833d52f17a95cbc00fcee5282",
  "args": [
    "0x452181dAe31Cf9f42189df71eC64298993BEe6d3",
    "100000"
  ],
  "solcInputHash": "2264786e59f1246a788f810c8141e478",
  "bytecode": "0x60a0604052600160805234801561001557600080fd5b506040516126e63803806126e68339810160408190526100349161015c565b61003d336100ff565b6001600160a01b03821661008a5760405162461bcd60e51b815260206004820152601060248201526f111053c81859191c995cdcc81b9d5b1b60821b604482015260640160405180910390fd5b6040516100969061014f565b604051809103906000f0801580156100b2573d6000803e3d6000fd5b50600180546001600160a01b039283166001600160a01b03199091161790556002805463ffffffff909316600160a01b026001600160c01b031990931693909116929092171790556101ab565b600080546001600160a01b038381166001600160a01b0319831681178455604051919092169283917f8be0079c531659141344cd1fd0a4f28419497f9722a3daafe3b4186f6b6457e09190a35050565b611b1b80610bcb83390190565b6000806040838503121561016f57600080fd5b82516001600160a01b038116811461018657600080fd5b602084015190925063ffffffff811681146101a057600080fd5b809150509250929050565b608051610a056101c660003960006106670152610a056000f3fe608060405234801561001057600080fd5b50600436106100b45760003560e01c8063715018a611610071578063715018a61461016357806385ad32c41461016b5780638da5cb5b14610194578063965afa89146101a5578063a52a628c146101b8578063f2fde38b146101cb57600080fd5b80630232159a146100b957806307d33455146100ce5780633310e049146100ff5780634162169f14610112578063538740091461013d5780635c60da1b14610150575b600080fd5b6100cc6100c7366004610852565b6101de565b005b6002546100e590600160a01b900463ffffffff1681565b60405163ffffffff90911681526020015b60405180910390f35b6100cc61010d3660046108d7565b6102c3565b600254610125906001600160a01b031681565b6040516001600160a01b0390911681526020016100f6565b6100cc61014b366004610904565b610348565b600154610125906001600160a01b031681565b6100cc6103b4565b61012561017936600461093d565b6003602052600090815260409020546001600160a01b031681565b6000546001600160a01b0316610125565b6100cc6101b336600461093d565b6103ea565b6100cc6101c6366004610904565b6104ab565b6100cc6101d936600461093d565b610531565b6000546001600160a01b031633146102115760405162461bcd60e51b81526004016102089061095a565b60405180910390fd5b6001600160a01b0383166102675760405162461bcd60e51b815260206004820152601b60248201527f496d706c656d656e746174696f6e2061646472657373206e756c6c00000000006044820152606401610208565b600180546001600160a01b0319166001600160a01b0385161790556040517f9c44143587e175f49750dc9f052fd1197902cd37dbf0acdb458f46f110c48666906102b69085908590859061098f565b60405180910390a1505050565b6000546001600160a01b031633146102ed5760405162461bcd60e51b81526004016102089061095a565b6002805463ffffffff60a01b1916600160a01b63ffffffff8416908102919091179091556040519081527f50cdd878435a7740fd0e2a9f496a4b02b6be5fabe2d5cdc4621ce34b0eb622cf906020015b60405180910390a150565b6001600160a01b0382811660009081526003602052604090205416156103a65760405162461bcd60e51b8152602060048201526013602482015272436f726520616c72656164792065786973747360681b6044820152606401610208565b6103b082826105cc565b5050565b6000546001600160a01b031633146103de5760405162461bcd60e51b81526004016102089061095a565b6103e86000610750565b565b6000546001600160a01b031633146104145760405162461bcd60e51b81526004016102089061095a565b6001600160a01b03811661045d5760405162461bcd60e51b815260206004820152601060248201526f111053c81859191c995cdcc81b9d5b1b60821b6044820152606401610208565b600280546001600160a01b0319166001600160a01b0383169081179091556040519081527fecff1e63d1353a6547ccbdf184f5c70679a70ef4982fb945f9cfc59e2718d2009060200161033d565b6000546001600160a01b031633146104d55760405162461bcd60e51b81526004016102089061095a565b6001600160a01b03828116600090815260036020526040902054166103a65760405162461bcd60e51b815260206004820152601260248201527110dbdc9948191bd95cdb89dd08195e1a5cdd60721b6044820152606401610208565b6000546001600160a01b0316331461055b5760405162461bcd60e51b81526004016102089061095a565b6001600160a01b0381166105c05760405162461bcd60e51b815260206004820152602660248201527f4f776e61626c653a206e6577206f776e657220697320746865207a65726f206160448201526564647265737360d01b6064820152608401610208565b6105c981610750565b50565b6001546000906105e4906001600160a01b03166107a0565b60405163485cc95560e01b81526001600160a01b03858116600483015284811660248301529192509082169063485cc95590604401600060405180830381600087803b15801561063357600080fd5b505af1158015610647573d6000803e3d6000fd5b50506040516379b9982960e11b81526001600160a01b03841660048201527f00000000000000000000000000000000000000000000000000000000000000006024820152733e14dc1b13c488a8d5d310918780c983bd5982e7925063f37330529150604401600060405180830381600087803b1580156106c657600080fd5b505af11580156106da573d6000803e3d6000fd5b505050506001600160a01b0383811660008181526003602090815260409182902080546001600160a01b031916868616908117909155825190815290810192909252918416918101919091527f868c3df5a35363022243f570d6994cbc4bd23970d31dfacc958e1136c1aefa1b906060016102b6565b600080546001600160a01b038381166001600160a01b0319831681178455604051919092169283917f8be0079c531659141344cd1fd0a4f28419497f9722a3daafe3b4186f6b6457e09190a35050565b6000604051733d602d80600a3d3981f3363d3d373d3d3d363d7360601b81528260601b60148201526e5af43d82803e903d91602b57fd5bf360881b60288201526037816000f09150506001600160a01b0381166108385760405162461bcd60e51b8152602060048201526016602482015275115490cc4c4d8dce8818dc99585d194819985a5b195960521b6044820152606401610208565b919050565b6001600160a01b03811681146105c957600080fd5b60008060006040848603121561086757600080fd5b83356108728161083d565b9250602084013567ffffffffffffffff8082111561088f57600080fd5b818601915086601f8301126108a357600080fd5b8135818111156108b257600080fd5b8760208285010111156108c457600080fd5b6020830194508093505050509250925092565b6000602082840312156108e957600080fd5b813563ffffffff811681146108fd57600080fd5b9392505050565b6000806040838503121561091757600080fd5b82356109228161083d565b915060208301356109328161083d565b809150509250929050565b60006020828403121561094f57600080fd5b81356108fd8161083d565b6020808252818101527f4f776e61626c653a2063616c6c6572206973206e6f7420746865206f776e6572604082015260600190565b6001600160a01b03841681526040602082018190528101829052818360608301376000818301606090810191909152601f909201601f191601019291505056fea264697066735822122042808d8b87fa65cdeadd562080de50f96f45f2327bf608c728e3e5a6198f18c664736f6c634300080d0033608060405234801561001057600080fd5b50611afb806100206000396000f3fe608060405234801561001057600080fd5b506004361061012c5760003560e01c806363453ae1116100ad5780638c415ec0116100715780638c415ec0146102ce578063b805232f146102e1578063c43088ef146102f4578063d86ed3e514610337578063f1d640b01461034a57600080fd5b806363453ae11461021b5780636dfb8b0f1461022e5780636ff1c9bc1461024f57806385fc009414610262578063884d1f40146102bb57600080fd5b8063525f45fb116100f4578063525f45fb146101b957806353be974f146101cc57806353c11f99146101e2578063587d5ff5146101f55780635f9e7d771461020857600080fd5b8063035bcae014610131578063230dbd291461015e5780632a79ac1f1461017e57806330d9c91514610193578063485cc955146101a6575b600080fd5b61014461013f3660046114ed565b61036a565b604080519283529015156020830152015b60405180910390f35b61017161016c3660046115b1565b610429565b60405161015591906116d4565b61019161018c3660046116e7565b610505565b005b6101716101a1366004611704565b61058c565b6101916101b43660046117a3565b6106ae565b6101916101c73660046116e7565b6107cc565b60015460ff166040519015158152602001610155565b6101716101f03660046115b1565b61081b565b6101916102033660046117a3565b610935565b610171610216366004611704565b6109ac565b6101916102293660046116e7565b610a95565b61024161023c3660046117dc565b610ae4565b604051908152602001610155565b61019161025d3660046116e7565b610b8c565b6102a66102703660046117a3565b6001600160a01b038082166000908152600460209081526040808320938616835260069093019052205463ffffffff1692915050565b60405163ffffffff9091168152602001610155565b6101716102c9366004611704565b610cbc565b6101916102dc366004611823565b610d5f565b6101916102ef366004611823565b610e05565b6103076103023660046116e7565b610e52565b6040805163ffffffff95861681529385166020850152918416918301919091529091166060820152608001610155565b6101716103453660046115b1565b610ed9565b610352610f62565b6040516001600160a01b039091168152602001610155565b60405162362e4960e71b8152600160048201526001600160a01b0380871660248301528516604482015260ff8416606482015267ffffffffffffffff83166084820152600b82900b60a4820152600090819073BFCbD1dc31136BDB188Aa4e3CF1d2585868e606890631b1724809060c4016040805180830381865af41580156103f7573d6000803e3d6000fd5b505050506040513d601f19601f8201168201806040525081019061041b9190611875565b909890975095505050505050565b6060610433610fde565b82828080601f016020809104026020016040519081016040528093929190818152602001838380828437600092019190915250506040516395f5a68d60e01b815292935073BDD61f95429E072Fc19F148DE3a1190792e16571926395f5a68d92506104b291506001908e908e908d908d9089908e908e906004016118ca565b600060405180830381865af41580156104cf573d6000803e3d6000fd5b505050506040513d6000823e601f3d908101601f191682016040526104f79190810190611949565b9a9950505050505050505050565b61050d611043565b61051633611095565b604051630565a89d60e41b8152600160048201526001600160a01b038216602482015273BDD61f95429E072Fc19F148DE3a1190792e165719063565a89d0906044015b60006040518083038186803b15801561057157600080fd5b505af4158015610585573d6000803e3d6000fd5b5050505050565b6060610596610fde565b61059e611043565b6000886001600160a01b031663ee719bc86040518163ffffffff1660e01b8152600401602060405180830381865afa1580156105de573d6000803e3d6000fd5b505050506040513d601f19601f8201168201806040525081019061060291906119eb565b6001600160a01b03808216600090815260046020526040902054919250908116908a1681146106845760405162461bcd60e51b8152602060048201526024808201527f644865646765436f72653a205375706572746f6b656e206e6f7420737570706f6044820152631c9d195960e21b60648201526084015b60405180910390fd5b60408051600060208201520160405160208183030381529060405292505050979650505050505050565b600054610100900460ff166106c95760005460ff16156106cd565b303b155b6107305760405162461bcd60e51b815260206004820152602e60248201527f496e697469616c697a61626c653a20636f6e747261637420697320616c72656160448201526d191e481a5b9a5d1a585b1a5e995960921b606482015260840161067b565b600054610100900460ff16158015610752576000805461ffff19166101011790555b60018054600280546001600160a01b031916331790556001600160a01b03848116610100026001600160a81b0319909216919091178217909155600380546001600160c01b031916918516918217600160a01b1790556107b59083600019611166565b80156107c7576000805461ff00191690555b505050565b6107d4611043565b60405163394110d160e01b8152600160048201526001600160a01b038216602482015273BDD61f95429E072Fc19F148DE3a1190792e165719063394110d190604401610559565b6060610825610fde565b82828080601f0160208091040260200160405190810160405280939291908181526020018383808284376000920191909152505060405163d4944c2d60e01b815292935073BDD61f95429E072Fc19F148DE3a1190792e165719263d4944c2d92506108a491506001908e908e908d908d9089908e908e906004016118ca565b600060405180830381865af49250505080156108e257506040513d6000823e601f3d908101601f191682016040526108df9190810190611949565b60015b610925573d808015610910576040519150601f19603f3d011682016040523d82523d6000602084013e610915565b606091505b5061091f81611251565b50610928565b90505b9998505050505050505050565b6040516302e65b1d60e21b81526001600160a01b03838116600483015282166024820152738aa548E84F4b088eC47F2f1672D7971620ab7E0490630b996c749060440160006040518083038186803b15801561099057600080fd5b505af41580156109a4573d6000803e3d6000fd5b505050505050565b60606109b6610fde565b60405163305974a360e21b815273BDD61f95429E072Fc19F148DE3a1190792e165719063c165d28c906109f6906001908c908c908b908b90600401611a08565b600060405180830381865af4925050508015610a3457506040513d6000823e601f3d908101601f19168201604052610a319190810190611949565b60015b610a87573d808015610a62576040519150601f19603f3d011682016040523d82523d6000602084013e610a67565b606091505b50610a7181611251565b5050604080516000815260208101909152610a8a565b90505b979650505050505050565b610a9d611043565b604051630399350760e11b8152600160048201526001600160a01b038216602482015273BDD61f95429E072Fc19F148DE3a1190792e16571906307326a0e90604401610559565b6040516360727ba360e01b8152600160048201526001600160a01b0380851660248301528316604482015267ffffffffffffffff8216606482015260009073BFCbD1dc31136BDB188Aa4e3CF1d2585868e6068906360727ba390608401602060405180830381865af4158015610b5e573d6000803e3d6000fd5b505050506040513d601f19601f82011682018060405250810190610b829190611a3b565b90505b9392505050565b610b9533611095565b60025460408051634162169f60e01b81529051610c7d926001600160a01b031691634162169f9160048083019260209291908290030181865afa158015610be0573d6000803e3d6000fd5b505050506040513d601f19601f82011682018060405250810190610c0491906119eb565b6040516370a0823160e01b81523060048201526001600160a01b038416906370a0823190602401602060405180830381865afa158015610c48573d6000803e3d6000fd5b505050506040513d601f19601f82011682018060405250810190610c6c9190611a3b565b6001600160a01b0384169190611294565b6040516001600160a01b03821681527f5e7b34819cd91b239220bec92fcfd3c10da2214ba13e4e2b1f6c9cfdbd68a9a29060200160405180910390a150565b6060610cc6610fde565b610cce611043565b60405163305974a360e21b815273BDD61f95429E072Fc19F148DE3a1190792e165719063c165d28c90610d0e906001908c908c908b908b90600401611a08565b600060405180830381865af4158015610d2b573d6000803e3d6000fd5b505050506040513d6000823e601f3d908101601f19168201604052610d539190810190611949565b98975050505050505050565b610d6833611095565b60015460ff1615610dbb5760405162461bcd60e51b815260206004820152601f60248201527f644865646765436f72653a20506f6f6c20616c72656164792061637469766500604482015260640161067b565b6001805460ff1916811790556040517f32469476dd301d36094f41aeedb33e89a8dd0ba10ab692329a9cf271f232887990610df99084908490611a54565b60405180910390a15050565b610e0e33611095565b610e16611043565b6001805460ff191690556040517f52142d9924affdbcc443234e980cf63b22e87bbc4a88bb571b0cfd1e297edd2d90610df99084908490611a54565b6001600160a01b03808216600090815260046020526040812080549192839283928392909116610e9057600080600080945094509450945050610ed2565b6001810154600282015460039092015463ffffffff69010000000000000000009283900481169750919092048116945081811693506401000000009091041690505b9193509193565b6060610ee3610fde565b82828080601f01602080910402602001604051908101604052809392919081815260200183838082843760009201919091525050604051631add60db60e31b815292935073BDD61f95429E072Fc19F148DE3a1190792e165719263d6eb06d892506104b291506001908e908e908d908d9089908e908e906004016118ca565b60405163832a95fd60e01b81526001600482015260009073BDD61f95429E072Fc19F148DE3a1190792e165719063832a95fd90602401602060405180830381865af4158015610fb5573d6000803e3d6000fd5b505050506040513d601f19601f82011682018060405250810190610fd991906119eb565b905090565b33733e14dc1b13c488a8d5d310918780c983bd5982e7146110415760405162461bcd60e51b815260206004820181905260248201527f534648656c7065723a20537570706f727473206f6e6c79206f6e6520686f7374604482015260640161067b565b565b60015460ff166110415760405162461bcd60e51b815260206004820152601960248201527f644865646765436f72653a20506f6f6c20696e61637469766500000000000000604482015260640161067b565b60025460408051638da5cb5b60e01b815290516001600160a01b0390921691638da5cb5b916004808201926020929091908290030181865afa1580156110df573d6000803e3d6000fd5b505050506040513d601f19601f8201168201806040525081019061110391906119eb565b6001600160a01b0316816001600160a01b0316146111635760405162461bcd60e51b815260206004820152601960248201527f644865646765436f72653a204e6f7420746865206f776e657200000000000000604482015260640161067b565b50565b604051636eb1769f60e11b81523060048201526001600160a01b038381166024830152600091839186169063dd62ed3e90604401602060405180830381865afa1580156111b7573d6000803e3d6000fd5b505050506040513d601f19601f820116820180604052508101906111db9190611a3b565b6111e59190611a68565b6040516001600160a01b03851660248201526044810182905290915061124b90859063095ea7b360e01b906064015b60408051601f198184030181529190526020810180516001600160e01b03166001600160e01b0319909316929092179091526112c4565b50505050565b6111638160405160240161126591906116d4565b60408051601f198184030181529190526020810180516001600160e01b03166305f3bfab60e11b179052611396565b6040516001600160a01b0383166024820152604481018290526107c790849063a9059cbb60e01b90606401611214565b6000611319826040518060400160405280602081526020017f5361666545524332303a206c6f772d6c6576656c2063616c6c206661696c6564815250856001600160a01b03166113b79092919063ffffffff16565b8051909150156107c757808060200190518101906113379190611a8e565b6107c75760405162461bcd60e51b815260206004820152602a60248201527f5361666545524332303a204552433230206f7065726174696f6e20646964206e6044820152691bdd081cdd58d8d9595960b21b606482015260840161067b565b80516a636f6e736f6c652e6c6f67602083016000808483855afa5050505050565b6060610b828484600085856001600160a01b0385163b6114195760405162461bcd60e51b815260206004820152601d60248201527f416464726573733a2063616c6c20746f206e6f6e2d636f6e7472616374000000604482015260640161067b565b600080866001600160a01b031685876040516114359190611aa9565b60006040518083038185875af1925050503d8060008114611472576040519150601f19603f3d011682016040523d82523d6000602084013e611477565b606091505b5091509150610a8a82828660608315611491575081610b85565b8251156114a15782518084602001fd5b8160405162461bcd60e51b815260040161067b91906116d4565b6001600160a01b038116811461116357600080fd5b803567ffffffffffffffff811681146114e857600080fd5b919050565b600080600080600060a0868803121561150557600080fd5b8535611510816114bb565b94506020860135611520816114bb565b9350604086013560ff8116811461153657600080fd5b9250611544606087016114d0565b9150608086013580600b0b811461155a57600080fd5b809150509295509295909350565b60008083601f84011261157a57600080fd5b50813567ffffffffffffffff81111561159257600080fd5b6020830191508360208285010111156115aa57600080fd5b9250929050565b600080600080600080600080600060c08a8c0312156115cf57600080fd5b89356115da816114bb565b985060208a01356115ea816114bb565b975060408a0135965060608a013567ffffffffffffffff8082111561160e57600080fd5b61161a8d838e01611568565b909850965060808c013591508082111561163357600080fd5b61163f8d838e01611568565b909650945060a08c013591508082111561165857600080fd5b506116658c828d01611568565b915080935050809150509295985092959850929598565b60005b8381101561169757818101518382015260200161167f565b8381111561124b5750506000910152565b600081518084526116c081602086016020860161167c565b601f01601f19169290920160200192915050565b602081526000610b8560208301846116a8565b6000602082840312156116f957600080fd5b8135610b85816114bb565b600080600080600080600060a0888a03121561171f57600080fd5b873561172a816114bb565b9650602088013561173a816114bb565b955060408801359450606088013567ffffffffffffffff8082111561175e57600080fd5b61176a8b838c01611568565b909650945060808a013591508082111561178357600080fd5b506117908a828b01611568565b989b979a50959850939692959293505050565b600080604083850312156117b657600080fd5b82356117c1816114bb565b915060208301356117d1816114bb565b809150509250929050565b6000806000606084860312156117f157600080fd5b83356117fc816114bb565b9250602084013561180c816114bb565b915061181a604085016114d0565b90509250925092565b6000806020838503121561183657600080fd5b823567ffffffffffffffff81111561184d57600080fd5b61185985828601611568565b90969095509350505050565b805180151581146114e857600080fd5b6000806040838503121561188857600080fd5b8251915061189860208401611865565b90509250929050565b81835281816020850137506000828201602090810191909152601f909101601f19169091010190565b8881526001600160a01b0388811660208301528716604082015260c0606082018190526000906118fd90830187896118a1565b828103608084015261190f81876116a8565b905082810360a08401526119248185876118a1565b9b9a5050505050505050505050565b634e487b7160e01b600052604160045260246000fd5b60006020828403121561195b57600080fd5b815167ffffffffffffffff8082111561197357600080fd5b818401915084601f83011261198757600080fd5b81518181111561199957611999611933565b604051601f8201601f19908116603f011681019083821181831017156119c1576119c1611933565b816040528281528760208487010111156119da57600080fd5b610a8a83602083016020880161167c565b6000602082840312156119fd57600080fd5b8151610b85816114bb565b8581526001600160a01b03858116602083015284166040820152608060608201819052600090610a8a90830184866118a1565b600060208284031215611a4d57600080fd5b5051919050565b602081526000610b826020830184866118a1565b60008219821115611a8957634e487b7160e01b600052601160045260246000fd5b500190565b600060208284031215611aa057600080fd5b610b8582611865565b60008251611abb81846020870161167c565b919091019291505056fea264697066735822122003a2ad98fc67c8f7b0c3edef8b63ff7a5860d6a423f3349160dc4a336f37619964736f6c634300080d0033",
  "libraries": {
    "SFHelper": "0x8aa548E84F4b088eC47F2f1672D7971620ab7E04",
    "dHedgeMath": "0xBFCbD1dc31136BDB188Aa4e3CF1d2585868e6068",
    "dHedgeHelper": "0xBDD61f95429E072Fc19F148DE3a1190792e16571"
  },
  "devdoc": {
    "author": "rashtrakoff <rashtrakoff@pm.me>.",
    "details": "Some variables necessary/common for all cores are stored here. These variables are referred in the cores.",
    "kind": "dev",
    "methods": {
      "createdHedgeCore(address,address)": {
        "params": {
          "_DHPTx": "Supertoken of the corresponding DHPT of `_dHedgePool`.",
          "_dHedgePool": "Address of the dHEDGE pool for which a core needs to be created."
        }
      },
      "owner()": {
        "details": "Returns the address of the current owner."
      },
      "renounceOwnership()": {
        "details": "Leaves the contract without owner. It will not be possible to call `onlyOwner` functions anymore. Can only be called by the current owner. NOTE: Renouncing ownership will leave the contract without an owner, thereby removing any functionality that is only available to the owner."
      },
      "setDAOAddress(address)": {
        "details": "Sets DAO address for all cores.",
        "params": {
          "_dao": "New address for the DAO."
        }
      },
      "setDefaultFeeRate(uint32)": {
        "details": "Sets fee rate for all cores.",
        "params": {
          "_defaultFeeRate": "The new fee rate scaled to 1e6."
        }
      },
      "setImplementation(address,string)": {
        "details": "Sets a new implementation of core contract.Only to be used in case of an issue with existing/default implementation. Must be removed after testing."
      },
      "transferOwnership(address)": {
        "details": "Transfers ownership of the contract to a new account (`newOwner`). Can only be called by the current owner."
      }
    },
    "stateVariables": {
      "CONFIG_WORD": {
        "custom:note": "CONFIG_WORD is used to omit the specific agreement hooks of superapps (NOOP - Not Operate)."
      }
    },
    "title": "dHedge core factory.",
    "version": 1
  },
  "userdoc": {
    "kind": "user",
    "methods": {
      "cores(address)": {
        "notice": "Mapping containing core address for every dHEDGE pool if deployed/created."
      },
      "createdHedgeCore(address,address)": {
        "notice": "Creates a new core for a given dHEDGE pool."
      },
      "dao()": {
        "notice": "The DAO which receives fees."
      },
      "defaultFeeRate()": {
        "notice": "Fee rate for collecting streaming fees scaled to 1e6."
      }
    },
    "notice": "Contract to create new cores easily.",
    "version": 1
  },
  "storageLayout": {
    "storage": [
      {
        "astId": 7,
        "contract": "contracts/dHedge-Factory-Version/dHedgeCoreFactory.sol:dHedgeCoreFactory",
        "label": "_owner",
        "offset": 0,
        "slot": "0",
        "type": "t_address"
      },
      {
        "astId": 8260,
        "contract": "contracts/dHedge-Factory-Version/dHedgeCoreFactory.sol:dHedgeCoreFactory",
        "label": "implementation",
        "offset": 0,
        "slot": "1",
        "type": "t_address"
      },
      {
        "astId": 8264,
        "contract": "contracts/dHedge-Factory-Version/dHedgeCoreFactory.sol:dHedgeCoreFactory",
        "label": "dao",
        "offset": 0,
        "slot": "2",
        "type": "t_address"
      },
      {
        "astId": 8268,
        "contract": "contracts/dHedge-Factory-Version/dHedgeCoreFactory.sol:dHedgeCoreFactory",
        "label": "defaultFeeRate",
        "offset": 20,
        "slot": "2",
        "type": "t_uint32"
      },
      {
        "astId": 8277,
        "contract": "contracts/dHedge-Factory-Version/dHedgeCoreFactory.sol:dHedgeCoreFactory",
        "label": "cores",
        "offset": 0,
        "slot": "3",
        "type": "t_mapping(t_address,t_address)"
      }
    ],
    "types": {
      "t_address": {
        "encoding": "inplace",
        "label": "address",
        "numberOfBytes": "20"
      },
      "t_mapping(t_address,t_address)": {
        "encoding": "mapping",
        "key": "t_address",
        "label": "mapping(address => address)",
        "numberOfBytes": "32",
        "value": "t_address"
      },
      "t_uint32": {
        "encoding": "inplace",
        "label": "uint32",
        "numberOfBytes": "4"
      }
    }
  }
}