{
  "address": "0xdD5cF237E227D339A53174ED77DcA13592529dcd",
  "abi": [
    {
      "anonymous": false,
      "inputs": [
        {
          "indexed": false,
          "internalType": "string",
          "name": "message",
          "type": "string"
        }
      ],
      "name": "CoreDeactivated",
      "type": "event"
    },
    {
      "anonymous": false,
      "inputs": [
        {
          "indexed": false,
          "internalType": "string",
          "name": "message",
          "type": "string"
        }
      ],
      "name": "CoreReactivated",
      "type": "event"
    },
    {
      "anonymous": false,
      "inputs": [
        {
          "indexed": false,
          "internalType": "address",
          "name": "token",
          "type": "address"
        }
      ],
      "name": "EmergencyWithdraw",
      "type": "event"
    },
    {
      "anonymous": false,
      "inputs": [
        {
          "indexed": false,
          "internalType": "contract ISuperToken",
          "name": "superToken",
          "type": "address"
        },
        {
          "indexed": false,
          "internalType": "address",
          "name": "user",
          "type": "address"
        }
      ],
      "name": "StreamModified",
      "type": "event"
    },
    {
      "inputs": [
        {
          "internalType": "contract ISuperToken",
          "name": "_superToken",
          "type": "address"
        },
        {
          "internalType": "address",
          "name": "_agreementClass",
          "type": "address"
        },
        {
          "internalType": "bytes32",
          "name": "",
          "type": "bytes32"
        },
        {
          "internalType": "bytes",
          "name": "",
          "type": "bytes"
        },
        {
          "internalType": "bytes",
          "name": "_cbdata",
          "type": "bytes"
        },
        {
          "internalType": "bytes",
          "name": "_ctx",
          "type": "bytes"
        }
      ],
      "name": "afterAgreementCreated",
      "outputs": [
        {
          "internalType": "bytes",
          "name": "_newCtx",
          "type": "bytes"
        }
      ],
      "stateMutability": "nonpayable",
      "type": "function"
    },
    {
      "inputs": [
        {
          "internalType": "contract ISuperToken",
          "name": "_superToken",
          "type": "address"
        },
        {
          "internalType": "address",
          "name": "_agreementClass",
          "type": "address"
        },
        {
          "internalType": "bytes32",
          "name": "",
          "type": "bytes32"
        },
        {
          "internalType": "bytes",
          "name": "",
          "type": "bytes"
        },
        {
          "internalType": "bytes",
          "name": "_cbdata",
          "type": "bytes"
        },
        {
          "internalType": "bytes",
          "name": "_ctx",
          "type": "bytes"
        }
      ],
      "name": "afterAgreementTerminated",
      "outputs": [
        {
          "internalType": "bytes",
          "name": "_newCtx",
          "type": "bytes"
        }
      ],
      "stateMutability": "nonpayable",
      "type": "function"
    },
    {
      "inputs": [
        {
          "internalType": "contract ISuperToken",
          "name": "_superToken",
          "type": "address"
        },
        {
          "internalType": "address",
          "name": "_agreementClass",
          "type": "address"
        },
        {
          "internalType": "bytes32",
          "name": "",
          "type": "bytes32"
        },
        {
          "internalType": "bytes",
          "name": "",
          "type": "bytes"
        },
        {
          "internalType": "bytes",
          "name": "_cbdata",
          "type": "bytes"
        },
        {
          "internalType": "bytes",
          "name": "_ctx",
          "type": "bytes"
        }
      ],
      "name": "afterAgreementUpdated",
      "outputs": [
        {
          "internalType": "bytes",
          "name": "_newCtx",
          "type": "bytes"
        }
      ],
      "stateMutability": "nonpayable",
      "type": "function"
    },
    {
      "inputs": [
        {
          "internalType": "contract ISuperToken",
          "name": "_superToken",
          "type": "address"
        },
        {
          "internalType": "address",
          "name": "",
          "type": "address"
        },
        {
          "internalType": "bytes32",
          "name": "",
          "type": "bytes32"
        },
        {
          "internalType": "bytes",
          "name": "",
          "type": "bytes"
        },
        {
          "internalType": "bytes",
          "name": "",
          "type": "bytes"
        }
      ],
      "name": "beforeAgreementCreated",
      "outputs": [
        {
          "internalType": "bytes",
          "name": "_cbdata",
          "type": "bytes"
        }
      ],
      "stateMutability": "view",
      "type": "function"
    },
    {
      "inputs": [
        {
          "internalType": "contract ISuperToken",
          "name": "_superToken",
          "type": "address"
        },
        {
          "internalType": "address",
          "name": "_agreementClass",
          "type": "address"
        },
        {
          "internalType": "bytes32",
          "name": "",
          "type": "bytes32"
        },
        {
          "internalType": "bytes",
          "name": "",
          "type": "bytes"
        },
        {
          "internalType": "bytes",
          "name": "_ctx",
          "type": "bytes"
        }
      ],
      "name": "beforeAgreementTerminated",
      "outputs": [
        {
          "internalType": "bytes",
          "name": "_cbdata",
          "type": "bytes"
        }
      ],
      "stateMutability": "view",
      "type": "function"
    },
    {
      "inputs": [
        {
          "internalType": "contract ISuperToken",
          "name": "_superToken",
          "type": "address"
        },
        {
          "internalType": "address",
          "name": "_agreementClass",
          "type": "address"
        },
        {
          "internalType": "bytes32",
          "name": "",
          "type": "bytes32"
        },
        {
          "internalType": "bytes",
          "name": "",
          "type": "bytes"
        },
        {
          "internalType": "bytes",
          "name": "_ctx",
          "type": "bytes"
        }
      ],
      "name": "beforeAgreementUpdated",
      "outputs": [
        {
          "internalType": "bytes",
          "name": "_cbdata",
          "type": "bytes"
        }
      ],
      "stateMutability": "view",
      "type": "function"
    },
    {
      "inputs": [
        {
          "internalType": "address",
          "name": "_user",
          "type": "address"
        },
        {
          "internalType": "address",
          "name": "_token",
          "type": "address"
        }
      ],
      "name": "calcUserUninvested",
      "outputs": [
        {
          "internalType": "uint256",
          "name": "",
          "type": "uint256"
        }
      ],
      "stateMutability": "view",
      "type": "function"
    },
    {
      "inputs": [],
      "name": "checkCoreActive",
      "outputs": [
        {
          "internalType": "bool",
          "name": "",
          "type": "bool"
        }
      ],
      "stateMutability": "view",
      "type": "function"
    },
    {
      "inputs": [
        {
          "internalType": "address",
          "name": "_token",
          "type": "address"
        }
      ],
      "name": "dHedgeDeposit",
      "outputs": [],
      "stateMutability": "nonpayable",
      "type": "function"
    },
    {
      "inputs": [
        {
          "internalType": "string",
          "name": "_message",
          "type": "string"
        }
      ],
      "name": "deactivateCore",
      "outputs": [],
      "stateMutability": "nonpayable",
      "type": "function"
    },
    {
      "inputs": [
        {
          "internalType": "address",
          "name": "_token",
          "type": "address"
        }
      ],
      "name": "distribute",
      "outputs": [],
      "stateMutability": "nonpayable",
      "type": "function"
    },
    {
      "inputs": [
        {
          "internalType": "contract ISuperToken",
          "name": "_superToken",
          "type": "address"
        },
        {
          "internalType": "address",
          "name": "_user",
          "type": "address"
        }
      ],
      "name": "emergencyCloseStream",
      "outputs": [],
      "stateMutability": "nonpayable",
      "type": "function"
    },
    {
      "inputs": [
        {
          "internalType": "address",
          "name": "_token",
          "type": "address"
        }
      ],
      "name": "emergencyWithdraw",
      "outputs": [],
      "stateMutability": "nonpayable",
      "type": "function"
    },
    {
      "inputs": [
        {
          "internalType": "address",
          "name": "_token",
          "type": "address"
        }
      ],
      "name": "getTokenDistIndices",
      "outputs": [
        {
          "internalType": "uint32",
          "name": "",
          "type": "uint32"
        },
        {
          "internalType": "uint32",
          "name": "",
          "type": "uint32"
        },
        {
          "internalType": "uint32",
          "name": "",
          "type": "uint32"
        },
        {
          "internalType": "uint32",
          "name": "",
          "type": "uint32"
        }
      ],
      "stateMutability": "view",
      "type": "function"
    },
    {
      "inputs": [
        {
          "internalType": "address",
          "name": "_user",
          "type": "address"
        },
        {
          "internalType": "address",
          "name": "_token",
          "type": "address"
        }
      ],
      "name": "getUserDistIndex",
      "outputs": [
        {
          "internalType": "uint32",
          "name": "",
          "type": "uint32"
        }
      ],
      "stateMutability": "view",
      "type": "function"
    },
    {
      "inputs": [
        {
          "internalType": "contract ISuperToken",
          "name": "_superToken",
          "type": "address"
        }
      ],
      "name": "initStreamToken",
      "outputs": [],
      "stateMutability": "nonpayable",
      "type": "function"
    },
    {
      "inputs": [
        {
          "internalType": "address",
          "name": "_dHedgePool",
          "type": "address"
        },
        {
          "internalType": "contract ISuperToken",
          "name": "_DHPTx",
          "type": "address"
        }
      ],
      "name": "initialize",
      "outputs": [],
      "stateMutability": "nonpayable",
      "type": "function"
    },
    {
      "inputs": [
        {
          "internalType": "string",
          "name": "_message",
          "type": "string"
        }
      ],
      "name": "reactivateCore",
      "outputs": [],
      "stateMutability": "nonpayable",
      "type": "function"
    },
    {
      "inputs": [],
      "name": "requireUpkeep",
      "outputs": [
        {
          "internalType": "address",
          "name": "",
          "type": "address"
        }
      ],
      "stateMutability": "view",
      "type": "function"
    }
  ],
  "transactionHash": "0xe46601f5cf11ad71096c9168937044429e84726ecedca0861d2dd1679d8a4e4f",
  "args": [],
  "solcInputHash": "d65ae0d8336375d5daab3da8fe22411e",
  "bytecode": "0x608060405234801561001057600080fd5b50611e54806100206000396000f3fe608060405234801561001057600080fd5b50600436106101215760003560e01c806363453ae1116100ad578063911f94e111610071578063911f94e114610291578063b805232f146102b2578063c43088ef146102c5578063d86ed3e514610308578063f1d640b01461031b57600080fd5b806363453ae1146101ec5780636ff1c9bc146101ff57806385fc009414610212578063884d1f401461026b5780638c415ec01461027e57600080fd5b8063525f45fb116100f4578063525f45fb1461018a57806353be974f1461019d57806353c11f99146101b3578063587d5ff5146101c65780635f9e7d77146101d957600080fd5b8063230dbd29146101265780632a79ac1f1461014f57806330d9c91514610164578063485cc95514610177575b600080fd5b61013961013436600461180f565b61033b565b6040516101469190611932565b60405180910390f35b61016261015d366004611945565b610541565b005b610139610172366004611962565b6105c8565b610162610185366004611a01565b6106ea565b610162610198366004611945565b610802565b60015460ff166040519015158152602001610146565b6101396101c136600461180f565b610851565b6101626101d4366004611a01565b610a79565b6101396101e7366004611962565b610af0565b6101626101fa366004611945565b610c3c565b61016261020d366004611945565b610c8b565b610256610220366004611a01565b6001600160a01b038082166000908152600460209081526040808320938616835260069093019052205463ffffffff1692915050565b60405163ffffffff9091168152602001610146565b610139610279366004611962565b610dbb565b61016261028c366004611a3a565b610ec1565b6102a461029f366004611a01565b610f67565b604051908152602001610146565b6101626102c0366004611a3a565b610ffc565b6102d86102d3366004611945565b611049565b6040805163ffffffff95861681529385166020850152918416918301919091529091166060820152608001610146565b61013961031636600461180f565b6110d1565b6103236111f4565b6040516001600160a01b039091168152602001610146565b6060610345611270565b82828080601f0160208091040260200160405190810160405280939291908181526020018383808284376000920182905250604051631fb6491d60e11b815294955093733e14dc1b13c488a8d5d310918780c983bd5982e79350633f6c923a92506103b591508590600401611932565b600060405180830381865afa1580156103d2573d6000803e3d6000fd5b505050506040513d6000823e601f3d908101601f191682016040526103fa9190810190611b7d565b606001519050600173B354eb06CD6d0E83F17c50d253A56CCdB91B9886635db184489091838d8f6001600160a01b031663ee719bc86040518163ffffffff1660e01b8152600401602060405180830381865afa15801561045e573d6000803e3d6000fd5b505050506040513d601f19601f820116820180604052508101906104829190611c84565b878c8c6040518863ffffffff1660e01b81526004016104a79796959493929190611cca565b600060405180830381865af41580156104c4573d6000803e3d6000fd5b505050506040513d6000823e601f3d908101601f191682016040526104ec9190810190611d25565b604080516001600160a01b03808f168252841660208201529193507f4ec9f5b70e68d6ebc2f85d12348713d1fcae8e25ed8bf5a2a3cf02651cde30bf91015b60405180910390a1509998505050505050505050565b6105496112d5565b61055233611327565b604051630565a89d60e41b8152600160048201526001600160a01b038216602482015273B354eb06CD6d0E83F17c50d253A56CCdB91B98869063565a89d0906044015b60006040518083038186803b1580156105ad57600080fd5b505af41580156105c1573d6000803e3d6000fd5b5050505050565b60606105d2611270565b6105da6112d5565b6000886001600160a01b031663ee719bc86040518163ffffffff1660e01b8152600401602060405180830381865afa15801561061a573d6000803e3d6000fd5b505050506040513d601f19601f8201168201806040525081019061063e9190611c84565b6001600160a01b03808216600090815260046020526040902054919250908116908a1681146106c05760405162461bcd60e51b8152602060048201526024808201527f644865646765436f72653a205375706572746f6b656e206e6f7420737570706f6044820152631c9d195960e21b60648201526084015b60405180910390fd5b60408051600060208201520160405160208183030381529060405292505050979650505050505050565b600054610100900460ff1680610703575060005460ff16155b6107665760405162461bcd60e51b815260206004820152602e60248201527f496e697469616c697a61626c653a20636f6e747261637420697320616c72656160448201526d191e481a5b9a5d1a585b1a5e995960921b60648201526084016106b7565b600054610100900460ff16158015610788576000805461ffff19166101011790555b60018054600280546001600160a01b031916331790556001600160a01b03848116610100026001600160a81b0319909216919091178217909155600380546001600160c01b031916918516918217600160a01b1790556107eb90836000196113f8565b80156107fd576000805461ff00191690555b505050565b61080a6112d5565b60405163394110d160e01b8152600160048201526001600160a01b038216602482015273B354eb06CD6d0E83F17c50d253A56CCdB91B98869063394110d190604401610595565b606061085b611270565b82828080601f0160208091040260200160405190810160405280939291908181526020018383808284376000920182905250604051631fb6491d60e11b815294955093733e14dc1b13c488a8d5d310918780c983bd5982e79350633f6c923a92506108cb91508590600401611932565b600060405180830381865afa1580156108e8573d6000803e3d6000fd5b505050506040513d6000823e601f3d908101601f191682016040526109109190810190611b7d565b606001519050600173B354eb06CD6d0E83F17c50d253A56CCdB91B9886631be212df9091838d8f6001600160a01b031663ee719bc86040518163ffffffff1660e01b8152600401602060405180830381865afa158015610974573d6000803e3d6000fd5b505050506040513d601f19601f820116820180604052508101906109989190611c84565b878c8c6040518863ffffffff1660e01b81526004016109bd9796959493929190611cca565b600060405180830381865af49250505080156109fb57506040513d6000823e601f3d908101601f191682016040526109f89190810190611d25565b60015b6104ec573d808015610a29576040519150601f19603f3d011682016040523d82523d6000602084013e610a2e565b606091505b50610a38816114e3565b50604080516001600160a01b03808e168252831660208201527f4ec9f5b70e68d6ebc2f85d12348713d1fcae8e25ed8bf5a2a3cf02651cde30bf910161052b565b6040516302e65b1d60e21b81526001600160a01b0383811660048301528216602482015273fF666F7971C55A963a048AdDb46f0B85E445Fa9290630b996c749060440160006040518083038186803b158015610ad457600080fd5b505af4158015610ae8573d6000803e3d6000fd5b505050505050565b6060610afa611270565b600173B354eb06CD6d0E83F17c50d253A56CCdB91B9886635ac9370e9091898b6001600160a01b031663ee719bc86040518163ffffffff1660e01b8152600401602060405180830381865afa158015610b57573d6000803e3d6000fd5b505050506040513d601f19601f82011682018060405250810190610b7b9190611c84565b87876040518663ffffffff1660e01b8152600401610b9d959493929190611d5a565b600060405180830381865af4925050508015610bdb57506040513d6000823e601f3d908101601f19168201604052610bd89190810190611d25565b60015b610c2e573d808015610c09576040519150601f19603f3d011682016040523d82523d6000602084013e610c0e565b606091505b50610c18816114e3565b5050604080516000815260208101909152610c31565b90505b979650505050505050565b610c446112d5565b604051630399350760e11b8152600160048201526001600160a01b038216602482015273B354eb06CD6d0E83F17c50d253A56CCdB91B9886906307326a0e90604401610595565b610c9433611327565b60025460408051634162169f60e01b81529051610d7c926001600160a01b031691634162169f9160048083019260209291908290030181865afa158015610cdf573d6000803e3d6000fd5b505050506040513d601f19601f82011682018060405250810190610d039190611c84565b6040516370a0823160e01b81523060048201526001600160a01b038416906370a0823190602401602060405180830381865afa158015610d47573d6000803e3d6000fd5b505050506040513d601f19601f82011682018060405250810190610d6b9190611d8d565b6001600160a01b0384169190611526565b6040516001600160a01b03821681527f5e7b34819cd91b239220bec92fcfd3c10da2214ba13e4e2b1f6c9cfdbd68a9a29060200160405180910390a150565b6060610dc5611270565b610dcd6112d5565b600173B354eb06CD6d0E83F17c50d253A56CCdB91B9886635ac9370e9091898b6001600160a01b031663ee719bc86040518163ffffffff1660e01b8152600401602060405180830381865afa158015610e2a573d6000803e3d6000fd5b505050506040513d601f19601f82011682018060405250810190610e4e9190611c84565b87876040518663ffffffff1660e01b8152600401610e70959493929190611d5a565b600060405180830381865af4158015610e8d573d6000803e3d6000fd5b505050506040513d6000823e601f3d908101601f19168201604052610eb59190810190611d25565b98975050505050505050565b610eca33611327565b60015460ff1615610f1d5760405162461bcd60e51b815260206004820152601f60248201527f644865646765436f72653a20506f6f6c20616c7265616479206163746976650060448201526064016106b7565b6001805460ff1916811790556040517f32469476dd301d36094f41aeedb33e89a8dd0ba10ab692329a9cf271f232887990610f5b9084908490611da6565b60405180910390a15050565b604051631740215d60e01b8152600160048201526001600160a01b0380841660248301528216604482015260009073B354eb06CD6d0E83F17c50d253A56CCdB91B988690631740215d90606401602060405180830381865af4158015610fd1573d6000803e3d6000fd5b505050506040513d601f19601f82011682018060405250810190610ff59190611d8d565b9392505050565b61100533611327565b61100d6112d5565b6001805460ff191690556040517f52142d9924affdbcc443234e980cf63b22e87bbc4a88bb571b0cfd1e297edd2d90610f5b9084908490611da6565b6001600160a01b03808216600090815260046020526040812080549192839283928392909116156110ba576001810154600282015460039092015463ffffffff69010000000000000000009283900481169750919092048116945081811693506401000000009091041690506110ca565b6000806000809450945094509450505b9193509193565b60606110db611270565b82828080601f0160208091040260200160405190810160405280939291908181526020018383808284376000920182905250604051631fb6491d60e11b815294955093733e14dc1b13c488a8d5d310918780c983bd5982e79350633f6c923a925061114b91508590600401611932565b600060405180830381865afa158015611168573d6000803e3d6000fd5b505050506040513d6000823e601f3d908101601f191682016040526111909190810190611b7d565b606001519050600173B354eb06CD6d0E83F17c50d253A56CCdB91B9886632b1737b19091838d8f6001600160a01b031663ee719bc86040518163ffffffff1660e01b8152600401602060405180830381865afa15801561045e573d6000803e3d6000fd5b60405163832a95fd60e01b81526001600482015260009073B354eb06CD6d0E83F17c50d253A56CCdB91B98869063832a95fd90602401602060405180830381865af4158015611247573d6000803e3d6000fd5b505050506040513d601f19601f8201168201806040525081019061126b9190611c84565b905090565b33733e14dc1b13c488a8d5d310918780c983bd5982e7146112d35760405162461bcd60e51b815260206004820181905260248201527f534648656c7065723a20537570706f727473206f6e6c79206f6e6520686f737460448201526064016106b7565b565b60015460ff166112d35760405162461bcd60e51b815260206004820152601960248201527f644865646765436f72653a20506f6f6c20696e6163746976650000000000000060448201526064016106b7565b60025460408051638da5cb5b60e01b815290516001600160a01b0390921691638da5cb5b916004808201926020929091908290030181865afa158015611371573d6000803e3d6000fd5b505050506040513d601f19601f820116820180604052508101906113959190611c84565b6001600160a01b0316816001600160a01b0316146113f55760405162461bcd60e51b815260206004820152601960248201527f644865646765436f72653a204e6f7420746865206f776e65720000000000000060448201526064016106b7565b50565b604051636eb1769f60e11b81523060048201526001600160a01b038381166024830152600091839186169063dd62ed3e90604401602060405180830381865afa158015611449573d6000803e3d6000fd5b505050506040513d601f19601f8201168201806040525081019061146d9190611d8d565b6114779190611dba565b6040516001600160a01b0385166024820152604481018290529091506114dd90859063095ea7b360e01b906064015b60408051601f198184030181529190526020810180516001600160e01b03166001600160e01b031990931692909217909152611556565b50505050565b6113f5816040516024016114f79190611932565b60408051601f198184030181529190526020810180516001600160e01b03166305f3bfab60e11b179052611628565b6040516001600160a01b0383166024820152604481018290526107fd90849063a9059cbb60e01b906064016114a6565b60006115ab826040518060400160405280602081526020017f5361666545524332303a206c6f772d6c6576656c2063616c6c206661696c6564815250856001600160a01b03166116499092919063ffffffff16565b8051909150156107fd57808060200190518101906115c99190611de0565b6107fd5760405162461bcd60e51b815260206004820152602a60248201527f5361666545524332303a204552433230206f7065726174696f6e20646964206e6044820152691bdd081cdd58d8d9595960b21b60648201526084016106b7565b80516a636f6e736f6c652e6c6f67602083016000808483855afa5050505050565b60606116588484600085611660565b949350505050565b6060824710156116c15760405162461bcd60e51b815260206004820152602660248201527f416464726573733a20696e73756666696369656e742062616c616e636520666f6044820152651c8818d85b1b60d21b60648201526084016106b7565b843b61170f5760405162461bcd60e51b815260206004820152601d60248201527f416464726573733a2063616c6c20746f206e6f6e2d636f6e747261637400000060448201526064016106b7565b600080866001600160a01b0316858760405161172b9190611e02565b60006040518083038185875af1925050503d8060008114611768576040519150601f19603f3d011682016040523d82523d6000602084013e61176d565b606091505b5091509150610c3182828660608315611787575081610ff5565b8251156117975782518084602001fd5b8160405162461bcd60e51b81526004016106b79190611932565b6001600160a01b03811681146113f557600080fd5b60008083601f8401126117d857600080fd5b50813567ffffffffffffffff8111156117f057600080fd5b60208301915083602082850101111561180857600080fd5b9250929050565b600080600080600080600080600060c08a8c03121561182d57600080fd5b8935611838816117b1565b985060208a0135611848816117b1565b975060408a0135965060608a013567ffffffffffffffff8082111561186c57600080fd5b6118788d838e016117c6565b909850965060808c013591508082111561189157600080fd5b61189d8d838e016117c6565b909650945060a08c01359150808211156118b657600080fd5b506118c38c828d016117c6565b915080935050809150509295985092959850929598565b60005b838110156118f55781810151838201526020016118dd565b838111156114dd5750506000910152565b6000815180845261191e8160208601602086016118da565b601f01601f19169290920160200192915050565b602081526000610ff56020830184611906565b60006020828403121561195757600080fd5b8135610ff5816117b1565b600080600080600080600060a0888a03121561197d57600080fd5b8735611988816117b1565b96506020880135611998816117b1565b955060408801359450606088013567ffffffffffffffff808211156119bc57600080fd5b6119c88b838c016117c6565b909650945060808a01359150808211156119e157600080fd5b506119ee8a828b016117c6565b989b979a50959850939692959293505050565b60008060408385031215611a1457600080fd5b8235611a1f816117b1565b91506020830135611a2f816117b1565b809150509250929050565b60008060208385031215611a4d57600080fd5b823567ffffffffffffffff811115611a6457600080fd5b611a70858286016117c6565b90969095509350505050565b634e487b7160e01b600052604160045260246000fd5b604051610160810167ffffffffffffffff81118282101715611ab657611ab6611a7c565b60405290565b805160ff81168114611acd57600080fd5b919050565b8051611acd816117b1565b80516001600160e01b031981168114611acd57600080fd5b600082601f830112611b0657600080fd5b815167ffffffffffffffff80821115611b2157611b21611a7c565b604051601f8301601f19908116603f01168101908282118183101715611b4957611b49611a7c565b81604052838152866020858801011115611b6257600080fd5b611b738460208301602089016118da565b9695505050505050565b600060208284031215611b8f57600080fd5b815167ffffffffffffffff80821115611ba757600080fd5b908301906101608286031215611bbc57600080fd5b611bc4611a92565b611bcd83611abc565b8152611bdb60208401611abc565b602082015260408301516040820152611bf660608401611ad2565b6060820152611c0760808401611add565b608082015260a083015182811115611c1e57600080fd5b611c2a87828601611af5565b60a08301525060c083015160c082015260e083015160e0820152610100915081830151828201526101209150611c61828401611ad2565b828201526101409150611c75828401611ad2565b91810191909152949350505050565b600060208284031215611c9657600080fd5b8151610ff5816117b1565b81835281816020850137506000828201602090810191909152601f909101601f19169091010190565b8781526001600160a01b03878116602083015286811660408301528516606082015260c060808201819052600090611d0490830186611906565b82810360a0840152611d17818587611ca1565b9a9950505050505050505050565b600060208284031215611d3757600080fd5b815167ffffffffffffffff811115611d4e57600080fd5b61165884828501611af5565b8581526001600160a01b03858116602083015284166040820152608060608201819052600090610c319083018486611ca1565b600060208284031215611d9f57600080fd5b5051919050565b602081526000611658602083018486611ca1565b60008219821115611ddb57634e487b7160e01b600052601160045260246000fd5b500190565b600060208284031215611df257600080fd5b81518015158114610ff557600080fd5b60008251611e148184602087016118da565b919091019291505056fea2646970667358221220c001f51198579d4f22b467c439ed49398fab9615cca27af494d5cca2f94cb80364736f6c634300080a0033",
  "deployedBytecode": "0x608060405234801561001057600080fd5b50600436106101215760003560e01c806363453ae1116100ad578063911f94e111610071578063911f94e114610291578063b805232f146102b2578063c43088ef146102c5578063d86ed3e514610308578063f1d640b01461031b57600080fd5b806363453ae1146101ec5780636ff1c9bc146101ff57806385fc009414610212578063884d1f401461026b5780638c415ec01461027e57600080fd5b8063525f45fb116100f4578063525f45fb1461018a57806353be974f1461019d57806353c11f99146101b3578063587d5ff5146101c65780635f9e7d77146101d957600080fd5b8063230dbd29146101265780632a79ac1f1461014f57806330d9c91514610164578063485cc95514610177575b600080fd5b61013961013436600461180f565b61033b565b6040516101469190611932565b60405180910390f35b61016261015d366004611945565b610541565b005b610139610172366004611962565b6105c8565b610162610185366004611a01565b6106ea565b610162610198366004611945565b610802565b60015460ff166040519015158152602001610146565b6101396101c136600461180f565b610851565b6101626101d4366004611a01565b610a79565b6101396101e7366004611962565b610af0565b6101626101fa366004611945565b610c3c565b61016261020d366004611945565b610c8b565b610256610220366004611a01565b6001600160a01b038082166000908152600460209081526040808320938616835260069093019052205463ffffffff1692915050565b60405163ffffffff9091168152602001610146565b610139610279366004611962565b610dbb565b61016261028c366004611a3a565b610ec1565b6102a461029f366004611a01565b610f67565b604051908152602001610146565b6101626102c0366004611a3a565b610ffc565b6102d86102d3366004611945565b611049565b6040805163ffffffff95861681529385166020850152918416918301919091529091166060820152608001610146565b61013961031636600461180f565b6110d1565b6103236111f4565b6040516001600160a01b039091168152602001610146565b6060610345611270565b82828080601f0160208091040260200160405190810160405280939291908181526020018383808284376000920182905250604051631fb6491d60e11b815294955093733e14dc1b13c488a8d5d310918780c983bd5982e79350633f6c923a92506103b591508590600401611932565b600060405180830381865afa1580156103d2573d6000803e3d6000fd5b505050506040513d6000823e601f3d908101601f191682016040526103fa9190810190611b7d565b606001519050600173__$ef910931ca024c82463a42db5bd87fc301$__635db184489091838d8f6001600160a01b031663ee719bc86040518163ffffffff1660e01b8152600401602060405180830381865afa15801561045e573d6000803e3d6000fd5b505050506040513d601f19601f820116820180604052508101906104829190611c84565b878c8c6040518863ffffffff1660e01b81526004016104a79796959493929190611cca565b600060405180830381865af41580156104c4573d6000803e3d6000fd5b505050506040513d6000823e601f3d908101601f191682016040526104ec9190810190611d25565b604080516001600160a01b03808f168252841660208201529193507f4ec9f5b70e68d6ebc2f85d12348713d1fcae8e25ed8bf5a2a3cf02651cde30bf91015b60405180910390a1509998505050505050505050565b6105496112d5565b61055233611327565b604051630565a89d60e41b8152600160048201526001600160a01b038216602482015273__$ef910931ca024c82463a42db5bd87fc301$__9063565a89d0906044015b60006040518083038186803b1580156105ad57600080fd5b505af41580156105c1573d6000803e3d6000fd5b5050505050565b60606105d2611270565b6105da6112d5565b6000886001600160a01b031663ee719bc86040518163ffffffff1660e01b8152600401602060405180830381865afa15801561061a573d6000803e3d6000fd5b505050506040513d601f19601f8201168201806040525081019061063e9190611c84565b6001600160a01b03808216600090815260046020526040902054919250908116908a1681146106c05760405162461bcd60e51b8152602060048201526024808201527f644865646765436f72653a205375706572746f6b656e206e6f7420737570706f6044820152631c9d195960e21b60648201526084015b60405180910390fd5b60408051600060208201520160405160208183030381529060405292505050979650505050505050565b600054610100900460ff1680610703575060005460ff16155b6107665760405162461bcd60e51b815260206004820152602e60248201527f496e697469616c697a61626c653a20636f6e747261637420697320616c72656160448201526d191e481a5b9a5d1a585b1a5e995960921b60648201526084016106b7565b600054610100900460ff16158015610788576000805461ffff19166101011790555b60018054600280546001600160a01b031916331790556001600160a01b03848116610100026001600160a81b0319909216919091178217909155600380546001600160c01b031916918516918217600160a01b1790556107eb90836000196113f8565b80156107fd576000805461ff00191690555b505050565b61080a6112d5565b60405163394110d160e01b8152600160048201526001600160a01b038216602482015273__$ef910931ca024c82463a42db5bd87fc301$__9063394110d190604401610595565b606061085b611270565b82828080601f0160208091040260200160405190810160405280939291908181526020018383808284376000920182905250604051631fb6491d60e11b815294955093733e14dc1b13c488a8d5d310918780c983bd5982e79350633f6c923a92506108cb91508590600401611932565b600060405180830381865afa1580156108e8573d6000803e3d6000fd5b505050506040513d6000823e601f3d908101601f191682016040526109109190810190611b7d565b606001519050600173__$ef910931ca024c82463a42db5bd87fc301$__631be212df9091838d8f6001600160a01b031663ee719bc86040518163ffffffff1660e01b8152600401602060405180830381865afa158015610974573d6000803e3d6000fd5b505050506040513d601f19601f820116820180604052508101906109989190611c84565b878c8c6040518863ffffffff1660e01b81526004016109bd9796959493929190611cca565b600060405180830381865af49250505080156109fb57506040513d6000823e601f3d908101601f191682016040526109f89190810190611d25565b60015b6104ec573d808015610a29576040519150601f19603f3d011682016040523d82523d6000602084013e610a2e565b606091505b50610a38816114e3565b50604080516001600160a01b03808e168252831660208201527f4ec9f5b70e68d6ebc2f85d12348713d1fcae8e25ed8bf5a2a3cf02651cde30bf910161052b565b6040516302e65b1d60e21b81526001600160a01b0383811660048301528216602482015273__$d8f4c298c40046574ed00784bf1ab2bf98$__90630b996c749060440160006040518083038186803b158015610ad457600080fd5b505af4158015610ae8573d6000803e3d6000fd5b505050505050565b6060610afa611270565b600173__$ef910931ca024c82463a42db5bd87fc301$__635ac9370e9091898b6001600160a01b031663ee719bc86040518163ffffffff1660e01b8152600401602060405180830381865afa158015610b57573d6000803e3d6000fd5b505050506040513d601f19601f82011682018060405250810190610b7b9190611c84565b87876040518663ffffffff1660e01b8152600401610b9d959493929190611d5a565b600060405180830381865af4925050508015610bdb57506040513d6000823e601f3d908101601f19168201604052610bd89190810190611d25565b60015b610c2e573d808015610c09576040519150601f19603f3d011682016040523d82523d6000602084013e610c0e565b606091505b50610c18816114e3565b5050604080516000815260208101909152610c31565b90505b979650505050505050565b610c446112d5565b604051630399350760e11b8152600160048201526001600160a01b038216602482015273__$ef910931ca024c82463a42db5bd87fc301$__906307326a0e90604401610595565b610c9433611327565b60025460408051634162169f60e01b81529051610d7c926001600160a01b031691634162169f9160048083019260209291908290030181865afa158015610cdf573d6000803e3d6000fd5b505050506040513d601f19601f82011682018060405250810190610d039190611c84565b6040516370a0823160e01b81523060048201526001600160a01b038416906370a0823190602401602060405180830381865afa158015610d47573d6000803e3d6000fd5b505050506040513d601f19601f82011682018060405250810190610d6b9190611d8d565b6001600160a01b0384169190611526565b6040516001600160a01b03821681527f5e7b34819cd91b239220bec92fcfd3c10da2214ba13e4e2b1f6c9cfdbd68a9a29060200160405180910390a150565b6060610dc5611270565b610dcd6112d5565b600173__$ef910931ca024c82463a42db5bd87fc301$__635ac9370e9091898b6001600160a01b031663ee719bc86040518163ffffffff1660e01b8152600401602060405180830381865afa158015610e2a573d6000803e3d6000fd5b505050506040513d601f19601f82011682018060405250810190610e4e9190611c84565b87876040518663ffffffff1660e01b8152600401610e70959493929190611d5a565b600060405180830381865af4158015610e8d573d6000803e3d6000fd5b505050506040513d6000823e601f3d908101601f19168201604052610eb59190810190611d25565b98975050505050505050565b610eca33611327565b60015460ff1615610f1d5760405162461bcd60e51b815260206004820152601f60248201527f644865646765436f72653a20506f6f6c20616c7265616479206163746976650060448201526064016106b7565b6001805460ff1916811790556040517f32469476dd301d36094f41aeedb33e89a8dd0ba10ab692329a9cf271f232887990610f5b9084908490611da6565b60405180910390a15050565b604051631740215d60e01b8152600160048201526001600160a01b0380841660248301528216604482015260009073__$ef910931ca024c82463a42db5bd87fc301$__90631740215d90606401602060405180830381865af4158015610fd1573d6000803e3d6000fd5b505050506040513d601f19601f82011682018060405250810190610ff59190611d8d565b9392505050565b61100533611327565b61100d6112d5565b6001805460ff191690556040517f52142d9924affdbcc443234e980cf63b22e87bbc4a88bb571b0cfd1e297edd2d90610f5b9084908490611da6565b6001600160a01b03808216600090815260046020526040812080549192839283928392909116156110ba576001810154600282015460039092015463ffffffff69010000000000000000009283900481169750919092048116945081811693506401000000009091041690506110ca565b6000806000809450945094509450505b9193509193565b60606110db611270565b82828080601f0160208091040260200160405190810160405280939291908181526020018383808284376000920182905250604051631fb6491d60e11b815294955093733e14dc1b13c488a8d5d310918780c983bd5982e79350633f6c923a925061114b91508590600401611932565b600060405180830381865afa158015611168573d6000803e3d6000fd5b505050506040513d6000823e601f3d908101601f191682016040526111909190810190611b7d565b606001519050600173__$ef910931ca024c82463a42db5bd87fc301$__632b1737b19091838d8f6001600160a01b031663ee719bc86040518163ffffffff1660e01b8152600401602060405180830381865afa15801561045e573d6000803e3d6000fd5b60405163832a95fd60e01b81526001600482015260009073__$ef910931ca024c82463a42db5bd87fc301$__9063832a95fd90602401602060405180830381865af4158015611247573d6000803e3d6000fd5b505050506040513d601f19601f8201168201806040525081019061126b9190611c84565b905090565b33733e14dc1b13c488a8d5d310918780c983bd5982e7146112d35760405162461bcd60e51b815260206004820181905260248201527f534648656c7065723a20537570706f727473206f6e6c79206f6e6520686f737460448201526064016106b7565b565b60015460ff166112d35760405162461bcd60e51b815260206004820152601960248201527f644865646765436f72653a20506f6f6c20696e6163746976650000000000000060448201526064016106b7565b60025460408051638da5cb5b60e01b815290516001600160a01b0390921691638da5cb5b916004808201926020929091908290030181865afa158015611371573d6000803e3d6000fd5b505050506040513d601f19601f820116820180604052508101906113959190611c84565b6001600160a01b0316816001600160a01b0316146113f55760405162461bcd60e51b815260206004820152601960248201527f644865646765436f72653a204e6f7420746865206f776e65720000000000000060448201526064016106b7565b50565b604051636eb1769f60e11b81523060048201526001600160a01b038381166024830152600091839186169063dd62ed3e90604401602060405180830381865afa158015611449573d6000803e3d6000fd5b505050506040513d601f19601f8201168201806040525081019061146d9190611d8d565b6114779190611dba565b6040516001600160a01b0385166024820152604481018290529091506114dd90859063095ea7b360e01b906064015b60408051601f198184030181529190526020810180516001600160e01b03166001600160e01b031990931692909217909152611556565b50505050565b6113f5816040516024016114f79190611932565b60408051601f198184030181529190526020810180516001600160e01b03166305f3bfab60e11b179052611628565b6040516001600160a01b0383166024820152604481018290526107fd90849063a9059cbb60e01b906064016114a6565b60006115ab826040518060400160405280602081526020017f5361666545524332303a206c6f772d6c6576656c2063616c6c206661696c6564815250856001600160a01b03166116499092919063ffffffff16565b8051909150156107fd57808060200190518101906115c99190611de0565b6107fd5760405162461bcd60e51b815260206004820152602a60248201527f5361666545524332303a204552433230206f7065726174696f6e20646964206e6044820152691bdd081cdd58d8d9595960b21b60648201526084016106b7565b80516a636f6e736f6c652e6c6f67602083016000808483855afa5050505050565b60606116588484600085611660565b949350505050565b6060824710156116c15760405162461bcd60e51b815260206004820152602660248201527f416464726573733a20696e73756666696369656e742062616c616e636520666f6044820152651c8818d85b1b60d21b60648201526084016106b7565b843b61170f5760405162461bcd60e51b815260206004820152601d60248201527f416464726573733a2063616c6c20746f206e6f6e2d636f6e747261637400000060448201526064016106b7565b600080866001600160a01b0316858760405161172b9190611e02565b60006040518083038185875af1925050503d8060008114611768576040519150601f19603f3d011682016040523d82523d6000602084013e61176d565b606091505b5091509150610c3182828660608315611787575081610ff5565b8251156117975782518084602001fd5b8160405162461bcd60e51b81526004016106b79190611932565b6001600160a01b03811681146113f557600080fd5b60008083601f8401126117d857600080fd5b50813567ffffffffffffffff8111156117f057600080fd5b60208301915083602082850101111561180857600080fd5b9250929050565b600080600080600080600080600060c08a8c03121561182d57600080fd5b8935611838816117b1565b985060208a0135611848816117b1565b975060408a0135965060608a013567ffffffffffffffff8082111561186c57600080fd5b6118788d838e016117c6565b909850965060808c013591508082111561189157600080fd5b61189d8d838e016117c6565b909650945060a08c01359150808211156118b657600080fd5b506118c38c828d016117c6565b915080935050809150509295985092959850929598565b60005b838110156118f55781810151838201526020016118dd565b838111156114dd5750506000910152565b6000815180845261191e8160208601602086016118da565b601f01601f19169290920160200192915050565b602081526000610ff56020830184611906565b60006020828403121561195757600080fd5b8135610ff5816117b1565b600080600080600080600060a0888a03121561197d57600080fd5b8735611988816117b1565b96506020880135611998816117b1565b955060408801359450606088013567ffffffffffffffff808211156119bc57600080fd5b6119c88b838c016117c6565b909650945060808a01359150808211156119e157600080fd5b506119ee8a828b016117c6565b989b979a50959850939692959293505050565b60008060408385031215611a1457600080fd5b8235611a1f816117b1565b91506020830135611a2f816117b1565b809150509250929050565b60008060208385031215611a4d57600080fd5b823567ffffffffffffffff811115611a6457600080fd5b611a70858286016117c6565b90969095509350505050565b634e487b7160e01b600052604160045260246000fd5b604051610160810167ffffffffffffffff81118282101715611ab657611ab6611a7c565b60405290565b805160ff81168114611acd57600080fd5b919050565b8051611acd816117b1565b80516001600160e01b031981168114611acd57600080fd5b600082601f830112611b0657600080fd5b815167ffffffffffffffff80821115611b2157611b21611a7c565b604051601f8301601f19908116603f01168101908282118183101715611b4957611b49611a7c565b81604052838152866020858801011115611b6257600080fd5b611b738460208301602089016118da565b9695505050505050565b600060208284031215611b8f57600080fd5b815167ffffffffffffffff80821115611ba757600080fd5b908301906101608286031215611bbc57600080fd5b611bc4611a92565b611bcd83611abc565b8152611bdb60208401611abc565b602082015260408301516040820152611bf660608401611ad2565b6060820152611c0760808401611add565b608082015260a083015182811115611c1e57600080fd5b611c2a87828601611af5565b60a08301525060c083015160c082015260e083015160e0820152610100915081830151828201526101209150611c61828401611ad2565b828201526101409150611c75828401611ad2565b91810191909152949350505050565b600060208284031215611c9657600080fd5b8151610ff5816117b1565b81835281816020850137506000828201602090810191909152601f909101601f19169091010190565b8781526001600160a01b03878116602083015286811660408301528516606082015260c060808201819052600090611d0490830186611906565b82810360a0840152611d17818587611ca1565b9a9950505050505050505050565b600060208284031215611d3757600080fd5b815167ffffffffffffffff811115611d4e57600080fd5b61165884828501611af5565b8581526001600160a01b03858116602083015284166040820152608060608201819052600090610c319083018486611ca1565b600060208284031215611d9f57600080fd5b5051919050565b602081526000611658602083018486611ca1565b60008219821115611ddb57634e487b7160e01b600052601160045260246000fd5b500190565b600060208284031215611df257600080fd5b81518015158114610ff557600080fd5b60008251611e148184602087016118da565b919091019291505056fea2646970667358221220c001f51198579d4f22b467c439ed49398fab9615cca27af494d5cca2f94cb80364736f6c634300080a0033",
  "libraries": {
    "SFHelper": "0xfF666F7971C55A963a048AdDb46f0B85E445Fa92",
    "dHedgeStorage": "0xd8ce56734aaA38E9f647003189a57b9b3928e01b",
    "dHedgeHelper": "0xB354eb06CD6d0E83F17c50d253A56CCdB91B9886"
  },
  "devdoc": {
    "author": "rashtrakoff <rashtrakoff@pm.me>.",
    "custom:experimental": "This is an experimental contract/library. Use at your own risk.",
    "kind": "dev",
    "methods": {
      "beforeAgreementCreated(address,address,bytes32,bytes,bytes)": {
        "details": "TODO Check if `_onlyExpected` is even required."
      },
      "calcUserUninvested(address,address)": {
        "params": {
          "_token": "Address of the underlying token.",
          "_user": "Address of the user whose uninvested amount needs to be calculated."
        },
        "returns": {
          "_0": "Amount of uninvested tokens."
        }
      },
      "checkCoreActive()": {
        "returns": {
          "_0": "Boolean indicating working status of core."
        }
      },
      "dHedgeDeposit(address)": {
        "params": {
          "_token": "Address of the underlying token to be deposited into dHedge pool."
        }
      },
      "deactivateCore(string)": {
        "params": {
          "_message": "Message reason for reactivation of the core."
        }
      },
      "distribute(address)": {
        "params": {
          "_token": "Address of the underlying token."
        }
      },
      "emergencyCloseStream(address,address)": {
        "params": {
          "_superToken": "Supertoken being streamed.",
          "_user": "Address of the user whose stream needs to be closed."
        }
      },
      "emergencyWithdraw(address)": {
        "params": {
          "_token": "Address of the pool token. TODO Remove/Modify this function after testing"
        }
      },
      "getTokenDistIndices(address)": {
        "params": {
          "_token": "Address of a deposit token."
        },
        "returns": {
          "_0": "Index ID of first permanent index.",
          "_1": "Index ID of second permanent index.",
          "_2": "Index ID of temporary index.",
          "_3": "Index ID of the locked index."
        }
      },
      "getUserDistIndex(address,address)": {
        "params": {
          "_token": "Address of the underlying token for which the permanent distribution index ID is required.",
          "_user": "Address of the user."
        },
        "returns": {
          "_0": "Assigned permanent distribution index ID."
        }
      },
      "initStreamToken(address)": {
        "params": {
          "_superToken": "Supertoken of the underlying token we wish to stream."
        }
      },
      "initialize(address,address)": {
        "details": "Initialize the factory.",
        "params": {
          "_DHPTx": "Supertoken corresponding to the DHPT of the pool",
          "_dHedgePool": "dHEDGE pool contract address."
        }
      },
      "reactivateCore(string)": {
        "params": {
          "_message": "Message reason for reactivation of the core."
        }
      },
      "requireUpkeep()": {
        "returns": {
          "_0": "Address of the underlying/deposit token which needs to be deposited to the dHedge pool."
        }
      }
    },
    "title": "Core contract for streaming into a dHedge pool.",
    "version": 1
  },
  "userdoc": {
    "kind": "user",
    "methods": {
      "calcUserUninvested(address,address)": {
        "notice": "Calculates uninvested token amount of a particular user."
      },
      "checkCoreActive()": {
        "notice": "Checks if the core is active or not."
      },
      "dHedgeDeposit(address)": {
        "notice": "Converts supertokens to underlying tokens and deposits them into dHedge pool."
      },
      "deactivateCore(string)": {
        "notice": "Deactivates a dHedgeCore contract."
      },
      "distribute(address)": {
        "notice": "Distributes the DHPTx corresponding to a underlying token's deposits."
      },
      "emergencyCloseStream(address,address)": {
        "notice": "Closes a supertoken stream if core is jailed or user is running low on balance. Any user's stream can be closed by anyone provided the app is jailed- or user doesn't have enough amount to stream for more than 12 hours."
      },
      "emergencyWithdraw(address)": {
        "notice": "Function to withdraw a token in case of emergency."
      },
      "getTokenDistIndices(address)": {
        "notice": "Gets the distribution indices corresponding to an underlying token."
      },
      "getUserDistIndex(address,address)": {
        "notice": "Gets a user's assigned permanent distribution index for a supertoken stream."
      },
      "initStreamToken(address)": {
        "notice": "Initialises an underlying token and it's supertoken for streaming into dHEDGE pool."
      },
      "reactivateCore(string)": {
        "notice": "Reactivates a dHedgeCore contract."
      },
      "requireUpkeep()": {
        "notice": "Checks if deposit action can be performed."
      }
    },
    "notice": "Contains user facing functions.",
    "version": 1
  },
  "storageLayout": {
    "storage": [
      {
        "astId": 189,
        "contract": "contracts/dHedge-Factory-Version/dHedgeCore.sol:dHedgeCore",
        "label": "_initialized",
        "offset": 0,
        "slot": "0",
        "type": "t_bool"
      },
      {
        "astId": 192,
        "contract": "contracts/dHedge-Factory-Version/dHedgeCore.sol:dHedgeCore",
        "label": "_initializing",
        "offset": 1,
        "slot": "0",
        "type": "t_bool"
      },
      {
        "astId": 6265,
        "contract": "contracts/dHedge-Factory-Version/dHedgeCore.sol:dHedgeCore",
        "label": "poolData",
        "offset": 0,
        "slot": "1",
        "type": "t_struct(dHedgePool)6221_storage"
      }
    ],
    "types": {
      "t_address": {
        "encoding": "inplace",
        "label": "address",
        "numberOfBytes": "20"
      },
      "t_bool": {
        "encoding": "inplace",
        "label": "bool",
        "numberOfBytes": "1"
      },
      "t_contract(ISuperToken)2518": {
        "encoding": "inplace",
        "label": "contract ISuperToken",
        "numberOfBytes": "20"
      },
      "t_mapping(t_address,t_struct(TokenData)6202_storage)": {
        "encoding": "mapping",
        "key": "t_address",
        "label": "mapping(address => struct dHedgeStorage.TokenData)",
        "numberOfBytes": "32",
        "value": "t_struct(TokenData)6202_storage"
      },
      "t_mapping(t_address,t_uint32)": {
        "encoding": "mapping",
        "key": "t_address",
        "label": "mapping(address => uint32)",
        "numberOfBytes": "32",
        "value": "t_uint32"
      },
      "t_struct(PermIndexData)6180_storage": {
        "encoding": "inplace",
        "label": "struct dHedgeStorage.PermIndexData",
        "members": [
          {
            "astId": 6175,
            "contract": "contracts/dHedge-Factory-Version/dHedgeCore.sol:dHedgeCore",
            "label": "isActive",
            "offset": 0,
            "slot": "0",
            "type": "t_bool"
          },
          {
            "astId": 6177,
            "contract": "contracts/dHedge-Factory-Version/dHedgeCore.sol:dHedgeCore",
            "label": "lastDepositAt",
            "offset": 1,
            "slot": "0",
            "type": "t_uint64"
          },
          {
            "astId": 6179,
            "contract": "contracts/dHedge-Factory-Version/dHedgeCore.sol:dHedgeCore",
            "label": "indexId",
            "offset": 9,
            "slot": "0",
            "type": "t_uint32"
          }
        ],
        "numberOfBytes": "32"
      },
      "t_struct(TokenData)6202_storage": {
        "encoding": "inplace",
        "label": "struct dHedgeStorage.TokenData",
        "members": [
          {
            "astId": 6183,
            "contract": "contracts/dHedge-Factory-Version/dHedgeCore.sol:dHedgeCore",
            "label": "superToken",
            "offset": 0,
            "slot": "0",
            "type": "t_contract(ISuperToken)2518"
          },
          {
            "astId": 6186,
            "contract": "contracts/dHedge-Factory-Version/dHedgeCore.sol:dHedgeCore",
            "label": "permDistIndex1",
            "offset": 0,
            "slot": "1",
            "type": "t_struct(PermIndexData)6180_storage"
          },
          {
            "astId": 6189,
            "contract": "contracts/dHedge-Factory-Version/dHedgeCore.sol:dHedgeCore",
            "label": "permDistIndex2",
            "offset": 0,
            "slot": "2",
            "type": "t_struct(PermIndexData)6180_storage"
          },
          {
            "astId": 6191,
            "contract": "contracts/dHedge-Factory-Version/dHedgeCore.sol:dHedgeCore",
            "label": "tempDistIndex",
            "offset": 0,
            "slot": "3",
            "type": "t_uint32"
          },
          {
            "astId": 6193,
            "contract": "contracts/dHedge-Factory-Version/dHedgeCore.sol:dHedgeCore",
            "label": "lockedIndexId",
            "offset": 4,
            "slot": "3",
            "type": "t_uint32"
          },
          {
            "astId": 6195,
            "contract": "contracts/dHedge-Factory-Version/dHedgeCore.sol:dHedgeCore",
            "label": "distAmount",
            "offset": 0,
            "slot": "4",
            "type": "t_uint256"
          },
          {
            "astId": 6197,
            "contract": "contracts/dHedge-Factory-Version/dHedgeCore.sol:dHedgeCore",
            "label": "tempDistAmount",
            "offset": 0,
            "slot": "5",
            "type": "t_uint256"
          },
          {
            "astId": 6201,
            "contract": "contracts/dHedge-Factory-Version/dHedgeCore.sol:dHedgeCore",
            "label": "assignedIndex",
            "offset": 0,
            "slot": "6",
            "type": "t_mapping(t_address,t_uint32)"
          }
        ],
        "numberOfBytes": "224"
      },
      "t_struct(dHedgePool)6221_storage": {
        "encoding": "inplace",
        "label": "struct dHedgeStorage.dHedgePool",
        "members": [
          {
            "astId": 6204,
            "contract": "contracts/dHedge-Factory-Version/dHedgeCore.sol:dHedgeCore",
            "label": "isActive",
            "offset": 0,
            "slot": "0",
            "type": "t_bool"
          },
          {
            "astId": 6207,
            "contract": "contracts/dHedge-Factory-Version/dHedgeCore.sol:dHedgeCore",
            "label": "DHPTx",
            "offset": 1,
            "slot": "0",
            "type": "t_contract(ISuperToken)2518"
          },
          {
            "astId": 6209,
            "contract": "contracts/dHedge-Factory-Version/dHedgeCore.sol:dHedgeCore",
            "label": "factory",
            "offset": 0,
            "slot": "1",
            "type": "t_address"
          },
          {
            "astId": 6211,
            "contract": "contracts/dHedge-Factory-Version/dHedgeCore.sol:dHedgeCore",
            "label": "poolLogic",
            "offset": 0,
            "slot": "2",
            "type": "t_address"
          },
          {
            "astId": 6213,
            "contract": "contracts/dHedge-Factory-Version/dHedgeCore.sol:dHedgeCore",
            "label": "latestDistIndex",
            "offset": 20,
            "slot": "2",
            "type": "t_uint32"
          },
          {
            "astId": 6215,
            "contract": "contracts/dHedge-Factory-Version/dHedgeCore.sol:dHedgeCore",
            "label": "lastDepositAt",
            "offset": 24,
            "slot": "2",
            "type": "t_uint64"
          },
          {
            "astId": 6220,
            "contract": "contracts/dHedge-Factory-Version/dHedgeCore.sol:dHedgeCore",
            "label": "tokenData",
            "offset": 0,
            "slot": "3",
            "type": "t_mapping(t_address,t_struct(TokenData)6202_storage)"
          }
        ],
        "numberOfBytes": "128"
      },
      "t_uint256": {
        "encoding": "inplace",
        "label": "uint256",
        "numberOfBytes": "32"
      },
      "t_uint32": {
        "encoding": "inplace",
        "label": "uint32",
        "numberOfBytes": "4"
      },
      "t_uint64": {
        "encoding": "inplace",
        "label": "uint64",
        "numberOfBytes": "8"
      }
    }
  }
}