{
  "address": "0x8aa548E84F4b088eC47F2f1672D7971620ab7E04",
  "abi": [
    {
      "anonymous": false,
      "inputs": [
        {
          "indexed": false,
          "internalType": "address",
          "name": "_superToken",
          "type": "address"
        },
        {
          "indexed": false,
          "internalType": "uint32",
          "name": "_index",
          "type": "uint32"
        }
      ],
      "name": "NewSupertokenAdded",
      "type": "event"
    },
    {
      "anonymous": false,
      "inputs": [
        {
          "indexed": false,
          "internalType": "address",
          "name": "_superToken",
          "type": "address"
        },
        {
          "indexed": false,
          "internalType": "uint32",
          "name": "_index",
          "type": "uint32"
        }
      ],
      "name": "NewTemporaryIndexCreated",
      "type": "event"
    },
    {
      "inputs": [],
      "name": "CFA_V1",
      "outputs": [
        {
          "internalType": "contract IConstantFlowAgreementV1",
          "name": "",
          "type": "IConstantFlowAgreementV1"
        }
      ],
      "stateMutability": "view",
      "type": "function"
    },
    {
      "inputs": [],
      "name": "HOST",
      "outputs": [
        {
          "internalType": "contract ISuperfluid",
          "name": "",
          "type": "ISuperfluid"
        }
      ],
      "stateMutability": "view",
      "type": "function"
    },
    {
      "inputs": [],
      "name": "IDA_V1",
      "outputs": [
        {
          "internalType": "contract IInstantDistributionAgreementV1",
          "name": "",
          "type": "IInstantDistributionAgreementV1"
        }
      ],
      "stateMutability": "view",
      "type": "function"
    },
    {
      "inputs": [
        {
          "internalType": "contract ISuperToken",
          "name": "_superToken",
          "type": "ISuperToken"
        },
        {
          "internalType": "address",
          "name": "_sender",
          "type": "address"
        }
      ],
      "name": "getFlow",
      "outputs": [
        {
          "internalType": "uint256",
          "name": "_timestamp",
          "type": "uint256"
        },
        {
          "internalType": "int96",
          "name": "_flowRate",
          "type": "int96"
        }
      ],
      "stateMutability": "view",
      "type": "function"
    },
    {
      "inputs": [
        {
          "internalType": "contract ISuperToken",
          "name": "_superToken",
          "type": "ISuperToken"
        },
        {
          "internalType": "uint32",
          "name": "_indexId",
          "type": "uint32"
        }
      ],
      "name": "getIndex",
      "outputs": [
        {
          "internalType": "bool",
          "name": "_exist",
          "type": "bool"
        },
        {
          "internalType": "uint128",
          "name": "_indexValue",
          "type": "uint128"
        },
        {
          "internalType": "uint128",
          "name": "_totalUnitsApproved",
          "type": "uint128"
        },
        {
          "internalType": "uint128",
          "name": "_totalUnitsPending",
          "type": "uint128"
        }
      ],
      "stateMutability": "view",
      "type": "function"
    },
    {
      "inputs": [
        {
          "internalType": "contract ISuperToken",
          "name": "_superToken",
          "type": "ISuperToken"
        },
        {
          "internalType": "uint32",
          "name": "_index",
          "type": "uint32"
        },
        {
          "internalType": "address",
          "name": "_user",
          "type": "address"
        }
      ],
      "name": "getSubscription",
      "outputs": [
        {
          "internalType": "bool",
          "name": "_exist",
          "type": "bool"
        },
        {
          "internalType": "bool",
          "name": "_approved",
          "type": "bool"
        },
        {
          "internalType": "uint128",
          "name": "_units",
          "type": "uint128"
        },
        {
          "internalType": "uint256",
          "name": "_pendingDistribution",
          "type": "uint256"
        }
      ],
      "stateMutability": "view",
      "type": "function"
    }
  ],
  "transactionHash": "0x47af100a0978bdb12fff139e8c019a79e3ee4c993a98de4430f48b35a0f36817",
  "args": [],
  "solcInputHash": "2264786e59f1246a788f810c8141e478",
  "bytecode": "0x61198961003a600b82828239805160001a60731461002d57634e487b7160e01b600052600060045260246000fd5b30600052607381538281f3fe73000000000000000000000000000000000000000030146080604052600436106100d95760003560e01c80634cab4c3c11610096578063941533d111610070578063941533d11461024e578063989ebc6314610292578063c833a541146102b2578063e2f519ed146102d257600080fd5b80634cab4c3c146101bf578063766114b0146102035780638cca42b51461022357600080fd5b80630b996c74146100de5780630feead91146101005780631226a0a1146101365780633db29ed814610169578063422fb9651461018457806349f289dc146101a4575b600080fd5b8180156100ea57600080fd5b506100fe6100f9366004611007565b6102f2565b005b81801561010c57600080fd5b5061012061011b3660046110a2565b6105f7565b60405161012d9190611174565b60405180910390f35b61015173b0aabba4b2783a72c52956cdef62d438eca2d7a181565b6040516001600160a01b03909116815260200161012d565b610151736eee6060f715257b970700bc2656de21dedf074c81565b81801561019057600080fd5b5061012061019f36600461118e565b61071d565b610151733e14dc1b13c488a8d5d310918780c983bd5982e781565b6101d26101cd3660046111cc565b61090b565b60405161012d9493929190931515845291151560208401526001600160801b03166040830152606082015260800190565b81801561020f57600080fd5b5061012061021e36600461122a565b6109bb565b610236610231366004611007565b610ae2565b60408051928352600b9190910b60208301520161012d565b61026161025c3660046112b6565b610b7e565b6040805194151585526001600160801b0393841660208601529183169184019190915216606082015260800161012d565b81801561029e57600080fd5b506101206102ad3660046112eb565b610c25565b8180156102be57600080fd5b506101206102cd36600461134e565b610d73565b8180156102de57600080fd5b506101206102ed3660046112b6565b610ea6565b604051636b4f333560e01b8152306004820152600090733e14dc1b13c488a8d5d310918780c983bd5982e790636b4f333590602401602060405180830381865afa158015610344573d6000803e3d6000fd5b505050506040513d601f19601f8201168201806040525081019061036891906113a0565b15610375575060016104b4565b60405163e8e7e2d160e01b81526001600160a01b03808516600483015283166024820152600090736eee6060f715257b970700bc2656de21dedf074c9063e8e7e2d190604401602060405180830381865afa1580156103d8573d6000803e3d6000fd5b505050506040513d601f19601f820116820180604052508101906103fc91906113cd565b9050600081600b0b12156104b2576040516370a0823160e01b81526001600160a01b038481166004830152600091908616906370a0823190602401602060405180830381865afa158015610454573d6000803e3d6000fd5b505050506040513d601f19601f8201168201806040525081019061047891906113e8565b9050600061048883600019611417565b6bffffffffffffffffffffffff1690506104a48161a8c06114b6565b82116104af57600193505b50505b505b80156105aa57604080516000815260208101909152733e14dc1b13c488a8d5d310918780c983bd5982e7906339255d5b90736eee6060f715257b970700bc2656de21dedf074c90635a5999e360e11b9061051790889088903090604481016114eb565b60408051601f198184030181529181526020820180516001600160e01b03166001600160e01b03199485161790525160e085901b909216825261055d9291600401611529565b6000604051808303816000875af115801561057c573d6000803e3d6000fd5b505050506040513d6000823e601f3d908101601f191682016040526105a491908101906115ee565b50505050565b60405162461bcd60e51b815260206004820152601c60248201527f534648656c7065723a204e6f20656d657267656e637920636c6f73650000000060448201526064015b60405180910390fd5b6060733e14dc1b13c488a8d5d310918780c983bd5982e7634329d29373b0aabba4b2783a72c52956cdef62d438eca2d7a163172f3a6360e11b89308a8a60006040519080825280601f01601f191660200182016040528015610660576020820181803683370190505b5060405160240161067595949392919061162b565b60408051601f19818403018152918152602080830180516001600160e01b03166001600160e01b03199586161790528151600081529081019182905260e086901b90931690526106cb9291888860248301611676565b6000604051808303816000875af11580156106ea573d6000803e3d6000fd5b505050506040513d6000823e601f3d908101601f1916820160405261071291908101906116e3565b509695505050505050565b604051632266eabb60e21b81526001600160a01b038416600482015230602482015263ffffffff831660448201526064810182905260609060009073b0aabba4b2783a72c52956cdef62d438eca2d7a19063899baaec906084016040805180830381865afa158015610793573d6000803e3d6000fd5b505050506040513d601f19601f820116820180604052508101906107b79190611747565b5090508083101561080a5760405162461bcd60e51b815260206004820152601860248201527f534648656c7065723a2021656e6f75676820746f6b656e73000000000000000060448201526064016105ee565b604080516000815260208101909152733e14dc1b13c488a8d5d310918780c983bd5982e7906339255d5b9073b0aabba4b2783a72c52956cdef62d438eca2d7a190635cb398e160e11b90610867908a908a9088906044810161176c565b60408051601f19818403018152918152602080830180516001600160e01b03166001600160e01b03199586161790528151600081529081019182905260e086901b90931690526108bb92916024810161179f565b6000604051808303816000875af11580156108da573d6000803e3d6000fd5b505050506040513d6000823e601f3d908101601f1916820160405261090291908101906115ee565b95945050505050565b604051635b53405160e01b81526001600160a01b03848116600483015230602483015263ffffffff841660448301528216606482015260009081908190819073b0aabba4b2783a72c52956cdef62d438eca2d7a190635b53405190608401608060405180830381865afa158015610986573d6000803e3d6000fd5b505050506040513d601f19601f820116820180604052508101906109aa91906117d5565b935093509350935093509350935093565b6060733e14dc1b13c488a8d5d310918780c983bd5982e7634329d29373b0aabba4b2783a72c52956cdef62d438eca2d7a1630465a56b60e31b8a8a898b60006040519080825280601f01601f191660200182016040528015610a24576020820181803683370190505b50604051602401610a39959493929190611822565b60408051601f19818403018152918152602080830180516001600160e01b03166001600160e01b03199586161790528151600081529081019182905260e086901b9093169052610a8f9291888860248301611676565b6000604051808303816000875af1158015610aae573d6000803e3d6000fd5b505050506040513d6000823e601f3d908101601f19168201604052610ad691908101906116e3565b50979650505050505050565b604051631cd43d1160e31b81526001600160a01b038084166004830152821660248201523060448201526000908190736eee6060f715257b970700bc2656de21dedf074c9063e6a1e88890606401608060405180830381865afa158015610b4d573d6000803e3d6000fd5b505050506040513d601f19601f82011682018060405250810190610b719190611869565b5091969095509350505050565b6040516323fc23f360e01b81526001600160a01b038316600482015230602482015263ffffffff8216604482015260009081908190819073b0aabba4b2783a72c52956cdef62d438eca2d7a1906323fc23f390606401608060405180830381865afa158015610bf1573d6000803e3d6000fd5b505050506040513d601f19601f82011682018060405250810190610c1591906118a5565b9299919850965090945092505050565b604080516000815260208101909152606090733e14dc1b13c488a8d5d310918780c983bd5982e790634329d2939073b0aabba4b2783a72c52956cdef62d438eca2d7a190636bc3c20560e11b90610c83908a908a9060448101611901565b60408051601f19818403018152918152602080830180516001600160e01b03166001600160e01b03199586161790528151600081529081019182905260e086901b9093169052610cd99291888860248301611676565b6000604051808303816000875af1158015610cf8573d6000803e3d6000fd5b505050506040513d6000823e601f3d908101601f19168201604052610d2091908101906116e3565b50604080516001600160a01b038816815263ffffffff871660208201529192507f6391ea317b3733e548fb47eb626706522aad3a029e4c5bb0d12c79d3d60205dc910160405180910390a1949350505050565b60606000610d818886610ae2565b9150506bffffffffffffffffffffffff8116733e14dc1b13c488a8d5d310918780c983bd5982e7634329d29373b0aabba4b2783a72c52956cdef62d438eca2d7a1630465a56b60e31b8b8b8b610ddb633b9aca0089611931565b604080516000815260208101909152610dfb949392919060448101611822565b60408051601f19818403018152918152602080830180516001600160e01b03166001600160e01b03199586161790528151600081529081019182905260e086901b9093169052610e5192918a8a60248301611676565b6000604051808303816000875af1158015610e70573d6000803e3d6000fd5b505050506040513d6000823e601f3d908101601f19168201604052610e9891908101906116e3565b509998505050505050505050565b604080516000815260208101909152606090733e14dc1b13c488a8d5d310918780c983bd5982e7906339255d5b9073b0aabba4b2783a72c52956cdef62d438eca2d7a190636bc3c20560e11b90610f04908890889060448101611901565b60408051601f19818403018152918152602080830180516001600160e01b03166001600160e01b03199586161790528151600081529081019182905260e086901b9093169052610f5892916024810161179f565b6000604051808303816000875af1158015610f77573d6000803e3d6000fd5b505050506040513d6000823e601f3d908101601f19168201604052610f9f91908101906115ee565b604080516001600160a01b038616815263ffffffff851660208201529192507ff3d761d2328c9369fa009dd16bb2d43af04b3e2072dfc2bdf683cf9dd1d62fbd910160405180910390a192915050565b6001600160a01b038116811461100457600080fd5b50565b6000806040838503121561101a57600080fd5b823561102581610fef565b9150602083013561103581610fef565b809150509250929050565b803563ffffffff8116811461105457600080fd5b919050565b60008083601f84011261106b57600080fd5b50813567ffffffffffffffff81111561108357600080fd5b60208301915083602082850101111561109b57600080fd5b9250929050565b6000806000806000608086880312156110ba57600080fd5b85356110c581610fef565b94506110d360208701611040565b935060408601356110e381610fef565b9250606086013567ffffffffffffffff8111156110ff57600080fd5b61110b88828901611059565b969995985093965092949392505050565b60005b8381101561113757818101518382015260200161111f565b838111156105a45750506000910152565b6000815180845261116081602086016020860161111c565b601f01601f19169290920160200192915050565b6020815260006111876020830184611148565b9392505050565b6000806000606084860312156111a357600080fd5b83356111ae81610fef565b92506111bc60208501611040565b9150604084013590509250925092565b6000806000606084860312156111e157600080fd5b83356111ec81610fef565b92506111fa60208501611040565b9150604084013561120a81610fef565b809150509250925092565b6001600160801b038116811461100457600080fd5b60008060008060008060a0878903121561124357600080fd5b863561124e81610fef565b955061125c60208801611040565b9450604087013561126c81611215565b9350606087013561127c81610fef565b9250608087013567ffffffffffffffff81111561129857600080fd5b6112a489828a01611059565b979a9699509497509295939492505050565b600080604083850312156112c957600080fd5b82356112d481610fef565b91506112e260208401611040565b90509250929050565b6000806000806060858703121561130157600080fd5b843561130c81610fef565b935061131a60208601611040565b9250604085013567ffffffffffffffff81111561133657600080fd5b61134287828801611059565b95989497509550505050565b60008060008060008060a0878903121561136757600080fd5b863561137281610fef565b9550602087013561138281610fef565b945061126c60408801611040565b8051801515811461105457600080fd5b6000602082840312156113b257600080fd5b61118782611390565b8051600b81900b811461105457600080fd5b6000602082840312156113df57600080fd5b611187826113bb565b6000602082840312156113fa57600080fd5b5051919050565b634e487b7160e01b600052601160045260246000fd5b600081600b0b83600b0b6b7fffffffffffffffffffffff60008213600084138383048511828216161561144c5761144c611401565b6b7fffffffffffffffffffffff19600085128281168783058712161561147457611474611401565b6000871292508582058712848416161561149057611490611401565b858505871281841616156114a6576114a6611401565b5050509290910295945050505050565b60008160001904831182151516156114d0576114d0611401565b500290565b634e487b7160e01b600052604160045260246000fd5b6001600160a01b03858116825284811660208301528316604082015260806060820181905260009061151f90830184611148565b9695505050505050565b6001600160a01b038316815260606020820181905260009061154d90830184611148565b8281036040938401526002815261060f60f31b6020820152919091019392505050565b600082601f83011261158157600080fd5b815167ffffffffffffffff8082111561159c5761159c6114d5565b604051601f8301601f19908116603f011681019082821181831017156115c4576115c46114d5565b816040528381528660208588010111156115dd57600080fd5b61151f84602083016020890161111c565b60006020828403121561160057600080fd5b815167ffffffffffffffff81111561161757600080fd5b61162384828501611570565b949350505050565b6001600160a01b038681168252858116602083015263ffffffff851660408301528316606082015260a06080820181905260009061166b90830184611148565b979650505050505050565b6001600160a01b038616815260806020820181905260009061169a90830187611148565b82810360408401526116ac8187611148565b90508281036060840152838152838560208301376000602085830101526020601f19601f8601168201019150509695505050505050565b600080604083850312156116f657600080fd5b825167ffffffffffffffff8082111561170e57600080fd5b61171a86838701611570565b9350602085015191508082111561173057600080fd5b5061173d85828601611570565b9150509250929050565b6000806040838503121561175a57600080fd5b82519150602083015161103581611215565b60018060a01b038516815263ffffffff8416602082015282604082015260806060820152600061151f6080830184611148565b6001600160a01b03841681526060602082018190526000906117c390830185611148565b828103604084015261151f8185611148565b600080600080608085870312156117eb57600080fd5b6117f485611390565b935061180260208601611390565b9250604085015161181281611215565b6060959095015193969295505050565b6001600160a01b03868116825263ffffffff86166020830152841660408201526001600160801b038316606082015260a06080820181905260009061166b90830184611148565b6000806000806080858703121561187f57600080fd5b8451935061188f602086016113bb565b6040860151606090960151949790965092505050565b600080600080608085870312156118bb57600080fd5b6118c485611390565b935060208501516118d481611215565b60408601519093506118e581611215565b60608601519092506118f681611215565b939692955090935050565b6001600160a01b038416815263ffffffff8316602082015260606040820181905260009061090290830184611148565b60008261194e57634e487b7160e01b600052601260045260246000fd5b50049056fea2646970667358221220f25d2cccefaf379095673d4f0413c4fe94d280a478eb054d0a165fcc1b5d437664736f6c634300080d0033",
  "devdoc": {
    "author": "rashtrakoff <rashtrakoff@pm.me>.",
    "custom:experimental": "This is an experimental contract/library. Use at your own risk.",
    "details": "Contains functions which help in interacting with Superfluid contracts.",
    "kind": "dev",
    "methods": {
      "createIndex(ISuperToken,uint32)": {
        "params": {
          "_index": "New index value containing share details.",
          "_superToken": "The supertoken to be distributed."
        }
      },
      "createIndexInCallback(ISuperToken,uint32,bytes)": {
        "params": {
          "_index": "New index value containing share details.",
          "_superToken": "The supertoken to be distributed."
        }
      },
      "distribute(ISuperToken,uint32,uint256)": {
        "params": {
          "_amount": "Amount of `_supertoken` to be distributed.",
          "_index": "Index containing share details.",
          "_superToken": "The supertoken to be distributed."
        }
      },
      "emergencyCloseStream(ISuperToken,address)": {
        "details": "This function should be called provided the app is jailed or user is running low on supertokens.",
        "params": {
          "_superToken": "The supertoken that the user is streaming",
          "_user": "Address of the user"
        }
      },
      "getFlow(ISuperToken,address)": {
        "params": {
          "_sender": "Address of the user.",
          "_superToken": "Address of the supertoken."
        },
        "returns": {
          "_flowRate": "Flow rate of a user.",
          "_timestamp": "Timestamp corresponding to previous stream rate update time."
        }
      },
      "getIndex(ISuperToken,uint32)": {
        "params": {
          "_indexId": "ID of the index whose details we require.",
          "_superToken": "Supertoken of the corresponding index."
        }
      },
      "getSubscription(ISuperToken,uint32,address)": {
        "params": {
          "_index": "ID of the index in which the user's subscription is present.",
          "_superToken": "Supertoken of the corresponding index.",
          "_user": "Address of the user whose subscription details we need."
        }
      },
      "updateSharesInCallback(ISuperToken,ISuperToken,uint32,address,bytes)": {
        "details": "Function to update shares of a user.",
        "params": {
          "_ctx": "Superfluid context object.",
          "_index": "Index containing share details.",
          "_superDistToken": "The supertoken that's distributed in index with value `_index`.",
          "_superStreamToken": "The supertoken that the user is streaming."
        }
      },
      "updateSharesInCallback(ISuperToken,uint32,uint128,address,bytes)": {
        "params": {
          "_ctx": "Superfluid context object.",
          "_index": "Index ID in which shares need to be updated.",
          "_superDistToken": "Distribution supertoken.",
          "_units": "Number of units to be assigned."
        }
      }
    },
    "title": "Superfluid helper library.",
    "version": 1
  },
  "userdoc": {
    "kind": "user",
    "methods": {
      "createIndex(ISuperToken,uint32)": {
        "notice": "Function to create a distribution index."
      },
      "createIndexInCallback(ISuperToken,uint32,bytes)": {
        "notice": "Function to create a distribution index."
      },
      "distribute(ISuperToken,uint32,uint256)": {
        "notice": "Function to distribute a supertoken amount according to an index."
      },
      "emergencyCloseStream(ISuperToken,address)": {
        "notice": "Function to close a stream."
      },
      "getFlow(ISuperToken,address)": {
        "notice": "Function to get the flow rate of a user."
      },
      "getIndex(ISuperToken,uint32)": {
        "notice": "Function to get an index's details."
      },
      "getSubscription(ISuperToken,uint32,address)": {
        "notice": "Function to get details of a user's subscription (IDA subscription)."
      },
      "updateSharesInCallback(ISuperToken,uint32,uint128,address,bytes)": {
        "notice": "To be used when assigning shares in a temporary index."
      }
    },
    "version": 1
  },
  "storageLayout": {
    "storage": [],
    "types": null
  }
}