{
  "address": "0xdD01FfdC9B6aFe601ABc4022bF83346Aec038679",
  "abi": [
    {
      "anonymous": false,
      "inputs": [
        {
          "indexed": false,
          "internalType": "address",
          "name": "_superToken",
          "type": "address"
        },
        {
          "indexed": false,
          "internalType": "address",
          "name": "_underlyingToken",
          "type": "address"
        },
        {
          "indexed": false,
          "internalType": "uint32",
          "name": "_index",
          "type": "uint32"
        }
      ],
      "name": "NewSupertokenAdded",
      "type": "event"
    },
    {
      "inputs": [],
      "name": "CFA_V1",
      "outputs": [
        {
          "internalType": "contract IConstantFlowAgreementV1",
          "name": "",
          "type": "IConstantFlowAgreementV1"
        }
      ],
      "stateMutability": "view",
      "type": "function"
    },
    {
      "inputs": [],
      "name": "HOST",
      "outputs": [
        {
          "internalType": "contract ISuperfluid",
          "name": "",
          "type": "ISuperfluid"
        }
      ],
      "stateMutability": "view",
      "type": "function"
    },
    {
      "inputs": [],
      "name": "IDA_V1",
      "outputs": [
        {
          "internalType": "contract IInstantDistributionAgreementV1",
          "name": "",
          "type": "IInstantDistributionAgreementV1"
        }
      ],
      "stateMutability": "view",
      "type": "function"
    },
    {
      "inputs": [
        {
          "internalType": "contract ISuperToken",
          "name": "_superToken",
          "type": "ISuperToken"
        },
        {
          "internalType": "address",
          "name": "_user",
          "type": "address"
        },
        {
          "internalType": "uint256",
          "name": "_lastDepositAt",
          "type": "uint256"
        }
      ],
      "name": "calcUserUninvested",
      "outputs": [
        {
          "internalType": "uint256",
          "name": "",
          "type": "uint256"
        }
      ],
      "stateMutability": "view",
      "type": "function"
    },
    {
      "inputs": [
        {
          "internalType": "contract ISuperToken",
          "name": "_superToken",
          "type": "ISuperToken"
        },
        {
          "internalType": "address",
          "name": "_sender",
          "type": "address"
        }
      ],
      "name": "getFlow",
      "outputs": [
        {
          "internalType": "uint256",
          "name": "_timestamp",
          "type": "uint256"
        },
        {
          "internalType": "int96",
          "name": "_flowRate",
          "type": "int96"
        }
      ],
      "stateMutability": "view",
      "type": "function"
    }
  ],
  "transactionHash": "0xd0eeec9f98d7a2005b0f297c56fb780f94a99c546a7627748da84313eac6f4b5",
  "args": [],
  "solcInputHash": "86d86d91740d38c7ba30914dcf583cd4",
  "bytecode": "0x6114ea61003a600b82828239805160001a60731461002d57634e487b7160e01b600052600060045260246000fd5b30600052607381538281f3fe730000000000000000000000000000000000000000301460806040526004361061009d5760003560e01c8063422fb96511610070578063422fb9651461014457806349f289dc146101645780638cca42b51461017f578063989ebc63146101aa578063c8a2bcdc146101ca57600080fd5b80630b996c74146100a25780631226a0a1146100c45780633d7013f6146100fc5780633db29ed814610129575b600080fd5b8180156100ae57600080fd5b506100c26100bd366004610dc3565b6101eb565b005b6100df73b0aabba4b2783a72c52956cdef62d438eca2d7a181565b6040516001600160a01b0390911681526020015b60405180910390f35b81801561010857600080fd5b5061011c610117366004610e3b565b610527565b6040516100f39190611159565b6100df736eee6060f715257b970700bc2656de21dedf074c81565b81801561015057600080fd5b5061011c61015f366004610f14565b6106fb565b6100df733e14dc1b13c488a8d5d310918780c983bd5982e781565b61019261018d366004610dc3565b610907565b60408051928352600b9190910b6020830152016100f3565b8180156101b657600080fd5b5061011c6101c5366004610eb3565b6109b2565b6101dd6101d8366004610dfb565b610b8a565b6040519081526020016100f3565b604051636b4f333560e01b8152306004820152600090733e14dc1b13c488a8d5d310918780c983bd5982e790636b4f33359060240160206040518083038186803b15801561023857600080fd5b505afa15801561024c573d6000803e3d6000fd5b505050506040513d601f19601f820116820180604052508101906102709190610d07565b1561027d575060016103d5565b60405163e8e7e2d160e01b81526001600160a01b03808516600483015283166024820152600090736eee6060f715257b970700bc2656de21dedf074c9063e8e7e2d19060440160206040518083038186803b1580156102db57600080fd5b505afa1580156102ef573d6000803e3d6000fd5b505050506040513d601f19601f820116820180604052508101906103139190610f51565b9050600081600b0b12156103d3576040516370a0823160e01b81526001600160a01b038481166004830152600091908616906370a082319060240160206040518083038186803b15801561036657600080fd5b505afa15801561037a573d6000803e3d6000fd5b505050506040513d601f19601f8201168201806040525081019061039e919061106e565b905060006103ae83600019611373565b6001600160601b031690506103c58161a8c061140e565b82116103d057600193505b50505b505b80156104da57604080516000815260208101909152733e14dc1b13c488a8d5d310918780c983bd5982e7906339255d5b90736eee6060f715257b970700bc2656de21dedf074c90635a5999e360e11b906104389088908890309060448101611240565b60408051601f198184030181529181526020820180516001600160e01b03166001600160e01b03199485161790525160e085901b909216825261047e929160040161116c565b600060405180830381600087803b15801561049857600080fd5b505af11580156104ac573d6000803e3d6000fd5b505050506040513d6000823e601f3d908101601f191682016040526104d49190810190610d27565b50505050565b60405162461bcd60e51b815260206004820152601c60248201527f534648656c7065723a204e6f20656d657267656e637920636c6f73650000000060448201526064015b60405180910390fd5b604051631fb6491d60e11b8152606090600090733e14dc1b13c488a8d5d310918780c983bd5982e790633f6c923a906105669087908790600401611145565b60006040518083038186803b15801561057e57600080fd5b505afa158015610592573d6000803e3d6000fd5b505050506040513d6000823e601f3d908101601f191682016040526105ba9190810190610f6b565b60600151905060006105cc8883610907565b9150506001600160601b038116733e14dc1b13c488a8d5d310918780c983bd5982e7634329d29373b0aabba4b2783a72c52956cdef62d438eca2d7a1630465a56b60e31b8b8b88610621633b9aca0089611353565b604080516000815260208101909152610641949392919060448101611274565b60408051601f19818403018152918152602080830180516001600160e01b03166001600160e01b03199586161790528151600081529081019182905260e086901b909316905261069792918b8b602483016111e9565b600060405180830381600087803b1580156106b157600080fd5b505af11580156106c5573d6000803e3d6000fd5b505050506040513d6000823e601f3d908101601f191682016040526106ed9190810190610d62565b509998505050505050505050565b604051632266eabb60e21b81526001600160a01b038416600482015230602482015263ffffffff831660448201526064810182905260609060009073b0aabba4b2783a72c52956cdef62d438eca2d7a19063899baaec90608401604080518083038186803b15801561076c57600080fd5b505afa158015610780573d6000803e3d6000fd5b505050506040513d601f19601f820116820180604052508101906107a491906110c1565b509050808310156107f75760405162461bcd60e51b815260206004820152601860248201527f534648656c7065723a2021656e6f75676820746f6b656e730000000000000000604482015260640161051e565b604080516000815260208101909152733e14dc1b13c488a8d5d310918780c983bd5982e7906339255d5b9073b0aabba4b2783a72c52956cdef62d438eca2d7a190635cb398e160e11b90610854908a908a908890604481016112f6565b60408051601f19818403018152918152602080830180516001600160e01b03166001600160e01b03199586161790528151600081529081019182905260e086901b90931690526108a89291602481016111b3565b600060405180830381600087803b1580156108c257600080fd5b505af11580156108d6573d6000803e3d6000fd5b505050506040513d6000823e601f3d908101601f191682016040526108fe9190810190610d27565b95945050505050565b604051631cd43d1160e31b81526001600160a01b038084166004830152821660248201523060448201526000908190736eee6060f715257b970700bc2656de21dedf074c9063e6a1e8889060640160806040518083038186803b15801561096d57600080fd5b505afa158015610981573d6000803e3d6000fd5b505050506040513d601f19601f820116820180604052508101906109a59190611086565b5091969095509350505050565b604080516000815260208101909152606090733e14dc1b13c488a8d5d310918780c983bd5982e790634329d2939073b0aabba4b2783a72c52956cdef62d438eca2d7a190636bc3c20560e11b90610a10908a908a90604481016112c6565b60408051601f19818403018152918152602080830180516001600160e01b03166001600160e01b03199586161790528151600081529081019182905260e086901b9093169052610a6692918888602483016111e9565b600060405180830381600087803b158015610a8057600080fd5b505af1158015610a94573d6000803e3d6000fd5b505050506040513d6000823e601f3d908101601f19168201604052610abc9190810190610d62565b50809150507f6c4284675c76a48dccde01eaa3c709aacfeb3e97c9852f696a8c1e238ee89553856001600160a01b031663ee719bc86040518163ffffffff1660e01b815260040160206040518083038186803b158015610b1b57600080fd5b505afa158015610b2f573d6000803e3d6000fd5b505050506040513d601f19601f82011682018060405250810190610b539190610ce4565b604080516001600160a01b039283168152918816602083015263ffffffff87169082015260600160405180910390a1949350505050565b600080610b978585610907565b9150506001600160601b038116610bae844261142d565b610bb8908261140e565b9695505050505050565b8051610bcd8161149c565b919050565b80516001600160e01b031981168114610bcd57600080fd5b60008083601f840112610bfb578182fd5b50813567ffffffffffffffff811115610c12578182fd5b602083019150836020828501011115610c2a57600080fd5b9250929050565b600082601f830112610c41578081fd5b815167ffffffffffffffff80821115610c5c57610c5c611486565b604051601f8301601f19908116603f01168101908282118183101715610c8457610c84611486565b81604052838152866020858801011115610c9c578485fd5b610bb8846020830160208901611444565b8051600b81900b8114610bcd57600080fd5b803563ffffffff81168114610bcd57600080fd5b805160ff81168114610bcd57600080fd5b600060208284031215610cf5578081fd5b8151610d008161149c565b9392505050565b600060208284031215610d18578081fd5b81518015158114610d00578182fd5b600060208284031215610d38578081fd5b815167ffffffffffffffff811115610d4e578182fd5b610d5a84828501610c31565b949350505050565b60008060408385031215610d74578081fd5b825167ffffffffffffffff80821115610d8b578283fd5b610d9786838701610c31565b93506020850151915080821115610dac578283fd5b50610db985828601610c31565b9150509250929050565b60008060408385031215610dd5578182fd5b8235610de08161149c565b91506020830135610df08161149c565b809150509250929050565b600080600060608486031215610e0f578081fd5b8335610e1a8161149c565b92506020840135610e2a8161149c565b929592945050506040919091013590565b600080600080600060808688031215610e52578081fd5b8535610e5d8161149c565b94506020860135610e6d8161149c565b9350610e7b60408701610cbf565b9250606086013567ffffffffffffffff811115610e96578182fd5b610ea288828901610bea565b969995985093965092949392505050565b60008060008060608587031215610ec8578081fd5b8435610ed38161149c565b9350610ee160208601610cbf565b9250604085013567ffffffffffffffff811115610efc578182fd5b610f0887828801610bea565b95989497509550505050565b600080600060608486031215610f28578081fd5b8335610f338161149c565b9250610f4160208501610cbf565b9150604084013590509250925092565b600060208284031215610f62578081fd5b610d0082610cad565b600060208284031215610f7c578081fd5b815167ffffffffffffffff80821115610f93578283fd5b908301906101608286031215610fa7578283fd5b610faf611329565b610fb883610cd3565b8152610fc660208401610cd3565b602082015260408301516040820152610fe160608401610bc2565b6060820152610ff260808401610bd2565b608082015260a083015182811115611008578485fd5b61101487828601610c31565b60a08301525060c083015160c082015260e083015160e082015261010091508183015182820152610120915061104b828401610bc2565b82820152610140915061105f828401610bc2565b91810191909152949350505050565b60006020828403121561107f578081fd5b5051919050565b6000806000806080858703121561109b578182fd5b845193506110ab60208601610cad565b6040860151606090960151949790965092505050565b600080604083850312156110d3578182fd5b8251915060208301516001600160801b0381168114610df0578182fd5b81835281816020850137506000828201602090810191909152601f909101601f19169091010190565b60008151808452611131816020860160208601611444565b601f01601f19169290920160200192915050565b602081526000610d5a6020830184866110f0565b602081526000610d006020830184611119565b6001600160a01b038316815260606020820181905260009061119090830184611119565b8281036040938401526002815261060f60f31b6020820152919091019392505050565b6001600160a01b03841681526060602082018190526000906111d790830185611119565b8281036040840152610bb88185611119565b6001600160a01b038616815260806020820181905260009061120d90830187611119565b828103604084015261121f8187611119565b905082810360608401526112348185876110f0565b98975050505050505050565b6001600160a01b038581168252848116602083015283166040820152608060608201819052600090610bb890830184611119565b6001600160a01b03868116825263ffffffff86166020830152841660408201526001600160801b038316606082015260a0608082018190526000906112bb90830184611119565b979650505050505050565b6001600160a01b038416815263ffffffff831660208201526060604082018190526000906108fe90830184611119565b60018060a01b038516815263ffffffff84166020820152826040820152608060608201526000610bb86080830184611119565b604051610160810167ffffffffffffffff8111828210171561134d5761134d611486565b60405290565b60008261136e57634e487b7160e01b81526012600452602481fd5b500490565b600081600b0b83600b0b6b7fffffffffffffffffffffff838213848413838304851182821616156113a6576113a6611470565b6b7fffffffffffffffffffffff19868512828116878305871216156113cd576113cd611470565b8787129250858205871284841616156113e8576113e8611470565b858505871281841616156113fe576113fe611470565b5050509290910295945050505050565b600081600019048311821515161561142857611428611470565b500290565b60008282101561143f5761143f611470565b500390565b60005b8381101561145f578181015183820152602001611447565b838111156104d45750506000910152565b634e487b7160e01b600052601160045260246000fd5b634e487b7160e01b600052604160045260246000fd5b6001600160a01b03811681146114b157600080fd5b5056fea2646970667358221220d36cdae23662f43b08ebbf191661227ce52215d522294646ba5881233e1dd84664736f6c63430008040033",
  "devdoc": {
    "author": "rashtrakoff",
    "custom:experimental": "This is an experimental contract/library. Use at your own risk.",
    "details": "Contains functions which help in interacting with Superfluid contracts",
    "kind": "dev",
    "methods": {
      "calcUserUninvested(ISuperToken,address,uint256)": {
        "details": "Calculates uninvested amount of a user",
        "params": {
          "_lastDepositAt": "Last time a token was deposited to a dHEDGE pool",
          "_superToken": "Token being streamed",
          "_user": "Address of the user"
        },
        "returns": {
          "_0": "_userUninvested User's uninvested amount"
        }
      },
      "createIndexInCallback(ISuperToken,uint32,bytes)": {
        "details": "Function to create a distribution index",
        "params": {
          "_ctx": "Superfluid context object This function should only be called from a superapp callback",
          "_index": "New index value containing share details",
          "_superToken": "The supertoken to be distributed"
        }
      },
      "distribute(ISuperToken,uint32,uint256)": {
        "details": "Function to distribute a supertoken amount according to an index",
        "params": {
          "_amount": "Amount of `_supertoken` to be distributed",
          "_index": "Index containing share details",
          "_superToken": "The supertoken to be distributed"
        }
      },
      "emergencyCloseStream(ISuperToken,address)": {
        "details": "Function to close a streamThis function should be called provided the app is jailed or user is running low on supertokens",
        "params": {
          "_superToken": "The supertoken that the user is streaming",
          "_user": "Address of the user"
        }
      },
      "getFlow(ISuperToken,address)": {
        "params": {
          "_sender": "Address of the user",
          "_superToken": "Address of the supertoken"
        },
        "returns": {
          "_flowRate": "Flow rate of a user",
          "_timestamp": "Timestamp corresponding to previous stream rate update time"
        }
      },
      "updateSharesInCallback(ISuperToken,ISuperToken,uint32,bytes)": {
        "details": "Function to update shares of a user",
        "params": {
          "_ctx": "Superfluid context object",
          "_index": "Index containing share details",
          "_superDistToken": "The supertoken that's distributed in index with value `_index`",
          "_superStreamToken": "The supertoken that the user is streaming"
        }
      }
    },
    "title": "Superfluid helper library",
    "version": 1
  },
  "userdoc": {
    "kind": "user",
    "methods": {
      "getFlow(ISuperToken,address)": {
        "notice": "Function to get the flow rate of a user"
      }
    },
    "version": 1
  },
  "storageLayout": {
    "storage": [],
    "types": null
  }
}