{
  "address": "0x18CA85221385D8a4A0Dcb8c7FE5aD1f22843349b",
  "abi": [
    {
      "inputs": [
        {
          "internalType": "uint256",
          "name": "_amount",
          "type": "uint256"
        },
        {
          "internalType": "uint256",
          "name": "_decimals",
          "type": "uint256"
        },
        {
          "internalType": "bool",
          "name": "_upScale",
          "type": "bool"
        }
      ],
      "name": "decimalAdjust",
      "outputs": [
        {
          "internalType": "uint256",
          "name": "",
          "type": "uint256"
        }
      ],
      "stateMutability": "pure",
      "type": "function"
    },
    {
      "inputs": [
        {
          "internalType": "address",
          "name": "_token",
          "type": "address"
        }
      ],
      "name": "getDecimals",
      "outputs": [
        {
          "internalType": "uint256",
          "name": "",
          "type": "uint256"
        }
      ],
      "stateMutability": "view",
      "type": "function"
    },
    {
      "inputs": [
        {
          "internalType": "contract IConstantFlowAgreementV1",
          "name": "_cfa",
          "type": "IConstantFlowAgreementV1"
        },
        {
          "internalType": "address",
          "name": "_sender",
          "type": "address"
        },
        {
          "internalType": "address",
          "name": "_superToken",
          "type": "address"
        }
      ],
      "name": "getFlow",
      "outputs": [
        {
          "internalType": "uint256",
          "name": "",
          "type": "uint256"
        }
      ],
      "stateMutability": "view",
      "type": "function"
    }
  ],
  "transactionHash": "0x4f0ca49887b4841d97a2c63736f5c1193b3d8d5cd70dba8610bf1c621094705c",
  "args": [],
  "solcInputHash": "e88a02c6d51f597d658fb7abe653a66b",
  "bytecode": "0x610c9d610053600b82828239805160001a607314610046577f4e487b7100000000000000000000000000000000000000000000000000000000600052600060045260246000fd5b30600052607381538281f3fe730000000000000000000000000000000000000000301460806040526004361061006c5760003560e01c806310362248146100715780633b064cf5146100a15780635d86d33c146100d15780637368676a146101015780637e4a17f314610131578063cf54aaa014610161575b600080fd5b61008b6004803603810190610086919061068a565b610191565b6040516100989190610818565b60405180910390f35b6100bb60048036038101906100b691906105d8565b6101fd565b6040516100c89190610818565b60405180910390f35b6100eb60048036038101906100e6919061068a565b610292565b6040516100f89190610818565b60405180910390f35b61011b6004803603810190610116919061073c565b6102da565b6040516101289190610818565b60405180910390f35b61014b60048036038101906101469190610589565b610342565b6040516101589190610818565b60405180910390f35b61017b60048036038101906101769190610560565b61042e565b6040516101889190610818565b60405180910390f35b600080846001015490506000856003015490508381116101ca5783426101b79190610a85565b856101c29190610a2b565b9150816101f0565b80426101d69190610a85565b856101e19190610a2b565b826101ec9190610833565b9150815b5081925050509392505050565b60008061021e61020e8b8a86610292565b6102178b61042e565b60006102da565b90506000878761022e9190610a85565b90506000868661023e9190610a85565b9050600080831415610256578c60020154905061027f565b8282856102639190610a2b565b61026d9190610889565b8d6002015461027c9190610833565b90505b8094505050505098975050505050505050565b6000818460030154116102ce578360030154826102af9190610a85565b836102ba9190610a2b565b84600101546102c99190610833565b6102d1565b60005b90509392505050565b6000811561030d578260126102ef9190610a85565b600a6102fb919061090d565b846103069190610a2b565b905061033b565b670de0b6b3a764000083600a610323919061090d565b8561032e9190610a2b565b6103389190610889565b90505b9392505050565b6000808473ffffffffffffffffffffffffffffffffffffffff1663e6a1e8888486306040518463ffffffff1660e01b8152600401610382939291906107e1565b60806040518083038186803b15801561039a57600080fd5b505afa1580156103ae573d6000803e3d6000fd5b505050506040513d601f19601f820116820180604052508101906103d291906106d9565b50509150506000600b0b81600b0b1215610415577f4e487b7100000000000000000000000000000000000000000000000000000000600052600160045260246000fd5b806bffffffffffffffffffffffff169150509392505050565b60008173ffffffffffffffffffffffffffffffffffffffff1663313ce5676040518163ffffffff1660e01b815260040160206040518083038186803b15801561047657600080fd5b505afa15801561048a573d6000803e3d6000fd5b505050506040513d601f19601f820116820180604052508101906104ae919061078b565b60ff169050919050565b6000813590506104c781610bc6565b92915050565b6000813590506104dc81610bdd565b92915050565b6000813590506104f181610bf4565b92915050565b60008151905061050681610c0b565b92915050565b60008135905061051b81610c22565b92915050565b60008135905061053081610c39565b92915050565b60008151905061054581610c39565b92915050565b60008151905061055a81610c50565b92915050565b60006020828403121561057257600080fd5b6000610580848285016104b8565b91505092915050565b60008060006060848603121561059e57600080fd5b60006105ac868287016104e2565b93505060206105bd868287016104b8565b92505060406105ce868287016104b8565b9150509250925092565b600080600080600080600080610100898b0312156105f557600080fd5b60006106038b828c0161050c565b98505060206106148b828c016104b8565b97505060406106258b828c01610521565b96505060606106368b828c01610521565b95505060806106478b828c01610521565b94505060a06106588b828c01610521565b93505060c06106698b828c01610521565b92505060e061067a8b828c01610521565b9150509295985092959890939650565b60008060006060848603121561069f57600080fd5b60006106ad8682870161050c565b93505060206106be86828701610521565b92505060406106cf86828701610521565b9150509250925092565b600080600080608085870312156106ef57600080fd5b60006106fd87828801610536565b945050602061070e878288016104f7565b935050604061071f87828801610536565b925050606061073087828801610536565b91505092959194509250565b60008060006060848603121561075157600080fd5b600061075f86828701610521565b935050602061077086828701610521565b9250506040610781868287016104cd565b9150509250925092565b60006020828403121561079d57600080fd5b60006107ab8482850161054b565b91505092915050565b6107bd81610ab9565b82525050565b6107cc81610b37565b82525050565b6107db81610b20565b82525050565b60006060820190506107f660008301866107c3565b61080360208301856107b4565b61081060408301846107b4565b949350505050565b600060208201905061082d60008301846107d2565b92915050565b600061083e82610b20565b915061084983610b20565b9250827fffffffffffffffffffffffffffffffffffffffffffffffffffffffffffffffff0382111561087e5761087d610b5b565b5b828201905092915050565b600061089482610b20565b915061089f83610b20565b9250826108af576108ae610b8a565b5b828204905092915050565b6000808291508390505b6001851115610904578086048111156108e0576108df610b5b565b5b60018516156108ef5780820291505b80810290506108fd85610bb9565b94506108c4565b94509492505050565b600061091882610b20565b915061092383610b20565b92506109507fffffffffffffffffffffffffffffffffffffffffffffffffffffffffffffffff8484610958565b905092915050565b6000826109685760019050610a24565b816109765760009050610a24565b816001811461098c5760028114610996576109c5565b6001915050610a24565b60ff8411156109a8576109a7610b5b565b5b8360020a9150848211156109bf576109be610b5b565b5b50610a24565b5060208310610133831016604e8410600b84101617156109fa5782820a9050838111156109f5576109f4610b5b565b5b610a24565b610a0784848460016108ba565b92509050818404811115610a1e57610a1d610b5b565b5b81810290505b9392505050565b6000610a3682610b20565b9150610a4183610b20565b9250817fffffffffffffffffffffffffffffffffffffffffffffffffffffffffffffffff0483118215151615610a7a57610a79610b5b565b5b828202905092915050565b6000610a9082610b20565b9150610a9b83610b20565b925082821015610aae57610aad610b5b565b5b828203905092915050565b6000610ac482610b00565b9050919050565b60008115159050919050565b6000610ae282610ab9565b9050919050565b600081600b0b9050919050565b6000819050919050565b600073ffffffffffffffffffffffffffffffffffffffff82169050919050565b6000819050919050565b600060ff82169050919050565b6000610b4282610b49565b9050919050565b6000610b5482610b00565b9050919050565b7f4e487b7100000000000000000000000000000000000000000000000000000000600052601160045260246000fd5b7f4e487b7100000000000000000000000000000000000000000000000000000000600052601260045260246000fd5b60008160011c9050919050565b610bcf81610ab9565b8114610bda57600080fd5b50565b610be681610acb565b8114610bf157600080fd5b50565b610bfd81610ad7565b8114610c0857600080fd5b50565b610c1481610ae9565b8114610c1f57600080fd5b50565b610c2b81610af6565b8114610c3657600080fd5b50565b610c4281610b20565b8114610c4d57600080fd5b50565b610c5981610b2a565b8114610c6457600080fd5b5056fea2646970667358221220ae09bda3c83a41892ca114ddad4459aa00e6258b21e7ede127851b5a7ce9ca5f64736f6c63430008040033",
  "devdoc": {
    "author": "rashtrakoff",
    "custom:experimental": "This is an experimental contract/library. Use at your own risk.",
    "details": "Contains functions which help with Superfluid streams related calculations",
    "kind": "dev",
    "methods": {
      "calcShare(FlowData storage,address,uint256,uint256,uint256,uint256,uint256,uint256)": {
        "details": "Calculates LP token share of a user for a particular invested token",
        "params": {
          "_flowRate": "Flow rate of a user's stream of underlying token",
          "_marketLastLentAt": "Timestamp of market's latest deposit action",
          "_token": "Address of the underlying token",
          "_totalInvestedBefore": "Total amount of tokens invested by a contract till user's last update of the stream",
          "_totalInvestedCurr": "Total amount of tokens invested by a contract till the current market index",
          "_totalReceivedBefore": "Total amount of LP tokens received till user's last update of the stream",
          "_totalReceivedCurr": "Total amount of LP tokens received till the current market index",
          "_userFlow": "Struct containing streamed token details of a user"
        },
        "returns": {
          "_0": "Amount representing the share of a user of LP tokens This function automatically adjusts amounts based on token decimals and is found to be a bit inaccurate when it comes to tokens with decimals less than 18 (ex: USDC and USDT). This behaviour is unavoidable."
        }
      },
      "calcUserInvestedAfterUpdate(FlowData storage,uint256,uint256)": {
        "details": "Calculated amount invested after updating his/her stream",
        "params": {
          "_flowRate": "Flow rate of a user's stream of underlying token",
          "_marketLastLentAt": "Timestamp of market's latest deposit action",
          "_userFlow": "Struct containing streamed token details of a user"
        },
        "returns": {
          "_0": "User invested amount after updating a stream"
        }
      },
      "calcUserUninvested(FlowData storage,uint256,uint256)": {
        "details": "Calculates uninvested amount of a user",
        "params": {
          "_flowRate": "Flow rate of a user's stream of underlying token",
          "_marketLastLentAt": "Timestamp of market's latest deposit action",
          "_userFlow": "Struct containing streamed token details of a user"
        },
        "returns": {
          "_0": "User's uninvested amount"
        }
      },
      "decimalAdjust(uint256,uint256,bool)": {
        "details": "Adjusts amount according to decimals of a token",
        "params": {
          "_amount": "Amount to be decimal adjusted",
          "_decimals": "Decimals of the token to be used for adjustment",
          "_upScale": "Indicates whether the amount needs to be scaled up or scaled down"
        }
      },
      "getDecimals(address)": {
        "details": "Helper function to get decimals of a token",
        "params": {
          "_token": "Address of the token"
        },
        "returns": {
          "_0": "number representing decimal precision of a token"
        }
      },
      "getFlow(IConstantFlowAgreementV1,address,address)": {
        "params": {
          "_cfa": "Superfluid CFA class address",
          "_sender": "Address of the user",
          "_superToken": "Address of the supertoken"
        },
        "returns": {
          "_0": "Flow rate of a user"
        }
      }
    },
    "title": "Superfluid helper library",
    "version": 1
  },
  "userdoc": {
    "kind": "user",
    "methods": {
      "getFlow(IConstantFlowAgreementV1,address,address)": {
        "notice": "Function to get the flow rate of a user"
      }
    },
    "version": 1
  },
  "storageLayout": {
    "storage": [],
    "types": null
  }
}