{
  "address": "0xda200811d1C8d353c797D3d6B9DBf7620D520b92",
  "abi": [
    {
      "inputs": [
        {
          "internalType": "contract ISuperfluid",
          "name": "_host",
          "type": "address"
        },
        {
          "internalType": "contract IConstantFlowAgreementV1",
          "name": "_cfa",
          "type": "address"
        },
        {
          "internalType": "address",
          "name": "_dHedgePool",
          "type": "address"
        },
        {
          "internalType": "address",
          "name": "_bank",
          "type": "address"
        },
        {
          "internalType": "string",
          "name": "_regKey",
          "type": "string"
        }
      ],
      "stateMutability": "nonpayable",
      "type": "constructor"
    },
    {
      "anonymous": false,
      "inputs": [
        {
          "indexed": true,
          "internalType": "address",
          "name": "previousOwner",
          "type": "address"
        },
        {
          "indexed": true,
          "internalType": "address",
          "name": "newOwner",
          "type": "address"
        }
      ],
      "name": "OwnershipTransferred",
      "type": "event"
    },
    {
      "inputs": [
        {
          "internalType": "contract ISuperToken",
          "name": "_superToken",
          "type": "address"
        },
        {
          "internalType": "address",
          "name": "_agreementClass",
          "type": "address"
        },
        {
          "internalType": "bytes32",
          "name": "",
          "type": "bytes32"
        },
        {
          "internalType": "bytes",
          "name": "",
          "type": "bytes"
        },
        {
          "internalType": "bytes",
          "name": "_cbdata",
          "type": "bytes"
        },
        {
          "internalType": "bytes",
          "name": "_ctx",
          "type": "bytes"
        }
      ],
      "name": "afterAgreementCreated",
      "outputs": [
        {
          "internalType": "bytes",
          "name": "newCtx",
          "type": "bytes"
        }
      ],
      "stateMutability": "nonpayable",
      "type": "function"
    },
    {
      "inputs": [
        {
          "internalType": "contract ISuperToken",
          "name": "_superToken",
          "type": "address"
        },
        {
          "internalType": "address",
          "name": "_agreementClass",
          "type": "address"
        },
        {
          "internalType": "bytes32",
          "name": "",
          "type": "bytes32"
        },
        {
          "internalType": "bytes",
          "name": "",
          "type": "bytes"
        },
        {
          "internalType": "bytes",
          "name": "_cbdata",
          "type": "bytes"
        },
        {
          "internalType": "bytes",
          "name": "_ctx",
          "type": "bytes"
        }
      ],
      "name": "afterAgreementTerminated",
      "outputs": [
        {
          "internalType": "bytes",
          "name": "newCtx",
          "type": "bytes"
        }
      ],
      "stateMutability": "nonpayable",
      "type": "function"
    },
    {
      "inputs": [
        {
          "internalType": "contract ISuperToken",
          "name": "_superToken",
          "type": "address"
        },
        {
          "internalType": "address",
          "name": "_agreementClass",
          "type": "address"
        },
        {
          "internalType": "bytes32",
          "name": "",
          "type": "bytes32"
        },
        {
          "internalType": "bytes",
          "name": "",
          "type": "bytes"
        },
        {
          "internalType": "bytes",
          "name": "_cbdata",
          "type": "bytes"
        },
        {
          "internalType": "bytes",
          "name": "_ctx",
          "type": "bytes"
        }
      ],
      "name": "afterAgreementUpdated",
      "outputs": [
        {
          "internalType": "bytes",
          "name": "newCtx",
          "type": "bytes"
        }
      ],
      "stateMutability": "nonpayable",
      "type": "function"
    },
    {
      "inputs": [
        {
          "internalType": "contract ISuperToken",
          "name": "_superToken",
          "type": "address"
        },
        {
          "internalType": "address",
          "name": "_agreementClass",
          "type": "address"
        },
        {
          "internalType": "bytes32",
          "name": "",
          "type": "bytes32"
        },
        {
          "internalType": "bytes",
          "name": "",
          "type": "bytes"
        },
        {
          "internalType": "bytes",
          "name": "_ctx",
          "type": "bytes"
        }
      ],
      "name": "beforeAgreementCreated",
      "outputs": [
        {
          "internalType": "bytes",
          "name": "cbdata",
          "type": "bytes"
        }
      ],
      "stateMutability": "view",
      "type": "function"
    },
    {
      "inputs": [
        {
          "internalType": "contract ISuperToken",
          "name": "_superToken",
          "type": "address"
        },
        {
          "internalType": "address",
          "name": "_agreementClass",
          "type": "address"
        },
        {
          "internalType": "bytes32",
          "name": "",
          "type": "bytes32"
        },
        {
          "internalType": "bytes",
          "name": "",
          "type": "bytes"
        },
        {
          "internalType": "bytes",
          "name": "_ctx",
          "type": "bytes"
        }
      ],
      "name": "beforeAgreementTerminated",
      "outputs": [
        {
          "internalType": "bytes",
          "name": "cbdata",
          "type": "bytes"
        }
      ],
      "stateMutability": "view",
      "type": "function"
    },
    {
      "inputs": [
        {
          "internalType": "contract ISuperToken",
          "name": "_superToken",
          "type": "address"
        },
        {
          "internalType": "address",
          "name": "_agreementClass",
          "type": "address"
        },
        {
          "internalType": "bytes32",
          "name": "",
          "type": "bytes32"
        },
        {
          "internalType": "bytes",
          "name": "",
          "type": "bytes"
        },
        {
          "internalType": "bytes",
          "name": "_ctx",
          "type": "bytes"
        }
      ],
      "name": "beforeAgreementUpdated",
      "outputs": [
        {
          "internalType": "bytes",
          "name": "cbdata",
          "type": "bytes"
        }
      ],
      "stateMutability": "view",
      "type": "function"
    },
    {
      "inputs": [
        {
          "internalType": "address",
          "name": "_user",
          "type": "address"
        },
        {
          "internalType": "address",
          "name": "_token",
          "type": "address"
        }
      ],
      "name": "calcUserUninvested",
      "outputs": [
        {
          "internalType": "uint256",
          "name": "",
          "type": "uint256"
        }
      ],
      "stateMutability": "view",
      "type": "function"
    },
    {
      "inputs": [
        {
          "internalType": "address",
          "name": "_user",
          "type": "address"
        }
      ],
      "name": "calcWithdrawable",
      "outputs": [
        {
          "internalType": "uint256",
          "name": "",
          "type": "uint256"
        }
      ],
      "stateMutability": "view",
      "type": "function"
    },
    {
      "inputs": [],
      "name": "checkCoreActive",
      "outputs": [
        {
          "internalType": "bool",
          "name": "",
          "type": "bool"
        }
      ],
      "stateMutability": "view",
      "type": "function"
    },
    {
      "inputs": [],
      "name": "dHedgeDeposit",
      "outputs": [],
      "stateMutability": "nonpayable",
      "type": "function"
    },
    {
      "inputs": [
        {
          "internalType": "uint256",
          "name": "_amount",
          "type": "uint256"
        }
      ],
      "name": "dHedgeWithdraw",
      "outputs": [],
      "stateMutability": "nonpayable",
      "type": "function"
    },
    {
      "inputs": [],
      "name": "deactivateCore",
      "outputs": [],
      "stateMutability": "nonpayable",
      "type": "function"
    },
    {
      "inputs": [
        {
          "internalType": "address",
          "name": "_token",
          "type": "address"
        }
      ],
      "name": "emergencyWithdraw",
      "outputs": [],
      "stateMutability": "nonpayable",
      "type": "function"
    },
    {
      "inputs": [],
      "name": "getPoolLogic",
      "outputs": [
        {
          "internalType": "address",
          "name": "",
          "type": "address"
        }
      ],
      "stateMutability": "view",
      "type": "function"
    },
    {
      "inputs": [],
      "name": "moveLPT",
      "outputs": [],
      "stateMutability": "nonpayable",
      "type": "function"
    },
    {
      "inputs": [],
      "name": "owner",
      "outputs": [
        {
          "internalType": "address",
          "name": "",
          "type": "address"
        }
      ],
      "stateMutability": "view",
      "type": "function"
    },
    {
      "inputs": [],
      "name": "renounceOwnership",
      "outputs": [],
      "stateMutability": "nonpayable",
      "type": "function"
    },
    {
      "inputs": [],
      "name": "requireUpkeep",
      "outputs": [
        {
          "internalType": "bool",
          "name": "",
          "type": "bool"
        }
      ],
      "stateMutability": "view",
      "type": "function"
    },
    {
      "inputs": [
        {
          "internalType": "address",
          "name": "newOwner",
          "type": "address"
        }
      ],
      "name": "transferOwnership",
      "outputs": [],
      "stateMutability": "nonpayable",
      "type": "function"
    },
    {
      "inputs": [],
      "name": "withdrawUninvestedAll",
      "outputs": [],
      "stateMutability": "nonpayable",
      "type": "function"
    },
    {
      "inputs": [
        {
          "internalType": "address",
          "name": "_token",
          "type": "address"
        },
        {
          "internalType": "uint256",
          "name": "_amount",
          "type": "uint256"
        }
      ],
      "name": "withdrawUninvestedSingle",
      "outputs": [],
      "stateMutability": "nonpayable",
      "type": "function"
    }
  ],
  "transactionHash": "0xfb24c9e85b0e3294dcabaedd579e59e7f25b9cc079cbc036caaeeabd54f172d8",
  "args": [
    "0x3E14dC1b13c488a8d5D310918780c983bD5982E7",
    "0x6EeE6060f715257b970700bc2656De21dEdF074C",
    "0x9e859af5f7de3074039bfadfd0cf566749b94924",
    "0xF01696558f28CB1676Fca25f3A3C16b0951366b6",
    "rashtrakoff-ac9d2467983f443ba3fec61c0f74e753"
  ],
  "solcInputHash": "be940b30be6d1724127a475521c42438",
  "bytecode": "0x60806040523480156200001157600080fd5b506040516200455438038062004554833981810160405281019062000037919062000aed565b620000576200004b6200053c60201b60201c565b6200054460201b60201c565b600073ffffffffffffffffffffffffffffffffffffffff168573ffffffffffffffffffffffffffffffffffffffff161415620000ca576040517f08c379a0000000000000000000000000000000000000000000000000000000008152600401620000c19062000e5c565b60405180910390fd5b600073ffffffffffffffffffffffffffffffffffffffff168473ffffffffffffffffffffffffffffffffffffffff1614156200013d576040517f08c379a0000000000000000000000000000000000000000000000000000000008152600401620001349062000df6565b60405180910390fd5b600073ffffffffffffffffffffffffffffffffffffffff168373ffffffffffffffffffffffffffffffffffffffff161415620001b0576040517f08c379a0000000000000000000000000000000000000000000000000000000008152600401620001a79062000ec2565b60405180910390fd5b600073ffffffffffffffffffffffffffffffffffffffff168273ffffffffffffffffffffffffffffffffffffffff16141562000223576040517f08c379a00000000000000000000000000000000000000000000000000000000081526004016200021a9062000e3a565b60405180910390fd5b84600160000160006101000a81548173ffffffffffffffffffffffffffffffffffffffff021916908373ffffffffffffffffffffffffffffffffffffffff160217905550836001800160006101000a81548173ffffffffffffffffffffffffffffffffffffffff021916908373ffffffffffffffffffffffffffffffffffffffff16021790555033600160030160006101000a81548173ffffffffffffffffffffffffffffffffffffffff021916908373ffffffffffffffffffffffffffffffffffffffff16021790555082600160020160006101000a81548173ffffffffffffffffffffffffffffffffffffffff021916908373ffffffffffffffffffffffffffffffffffffffff16021790555081600160040160006101000a81548173ffffffffffffffffffffffffffffffffffffffff021916908373ffffffffffffffffffffffffffffffffffffffff16021790555060018060040160146101000a81548160ff02191690831515021790555060018060050181905550620003ef827fffffffffffffffffffffffffffffffffffffffffffffffffffffffffffffffff8573ffffffffffffffffffffffffffffffffffffffff166200060860201b620014c7179092919060201c565b60006001905060008251146200049b57600160000160009054906101000a900473ffffffffffffffffffffffffffffffffffffffff1673ffffffffffffffffffffffffffffffffffffffff1663bd1c448b82846040518363ffffffff1660e01b81526004016200046192919062000f01565b600060405180830381600087803b1580156200047c57600080fd5b505af115801562000491573d6000803e3d6000fd5b5050505062000530565b600160000160009054906101000a900473ffffffffffffffffffffffffffffffffffffffff1673ffffffffffffffffffffffffffffffffffffffff1663ad3915c8826040518263ffffffff1660e01b8152600401620004fb919062000ee4565b600060405180830381600087803b1580156200051657600080fd5b505af11580156200052b573d6000803e3d6000fd5b505050505b5050505050506200135d565b600033905090565b60008060009054906101000a900473ffffffffffffffffffffffffffffffffffffffff169050816000806101000a81548173ffffffffffffffffffffffffffffffffffffffff021916908373ffffffffffffffffffffffffffffffffffffffff1602179055508173ffffffffffffffffffffffffffffffffffffffff168173ffffffffffffffffffffffffffffffffffffffff167f8be0079c531659141344cd1fd0a4f28419497f9722a3daafe3b4186f6b6457e060405160405180910390a35050565b6000818473ffffffffffffffffffffffffffffffffffffffff1663dd62ed3e30866040518363ffffffff1660e01b81526004016200064892919062000d78565b60206040518083038186803b1580156200066157600080fd5b505afa15801562000676573d6000803e3d6000fd5b505050506040513d601f19601f820116820180604052508101906200069c919062000b88565b620006a8919062000fc6565b9050620007358463095ea7b360e01b8584604051602401620006cc92919062000da5565b604051602081830303815290604052907bffffffffffffffffffffffffffffffffffffffffffffffffffffffff19166020820180517bffffffffffffffffffffffffffffffffffffffffffffffffffffffff83818316178352505050506200073b60201b60201c565b50505050565b6000620007a4826040518060400160405280602081526020017f5361666545524332303a206c6f772d6c6576656c2063616c6c206661696c65648152508573ffffffffffffffffffffffffffffffffffffffff166200080f60201b620015e8179092919060201c565b90506000815111156200080a5780806020019051810190620007c7919062000ac1565b62000809576040517f08c379a0000000000000000000000000000000000000000000000000000000008152600401620008009062000ea0565b60405180910390fd5b5b505050565b60606200082684846000856200082f60201b60201c565b90509392505050565b60608247101562000877576040517f08c379a00000000000000000000000000000000000000000000000000000000081526004016200086e9062000e18565b60405180910390fd5b62000888856200095d60201b60201c565b620008ca576040517f08c379a0000000000000000000000000000000000000000000000000000000008152600401620008c19062000e7e565b60405180910390fd5b6000808673ffffffffffffffffffffffffffffffffffffffff168587604051620008f5919062000d5f565b60006040518083038185875af1925050503d806000811462000934576040519150601f19603f3d011682016040523d82523d6000602084013e62000939565b606091505b5091509150620009518282866200097060201b60201c565b92505050949350505050565b600080823b905060008111915050919050565b606083156200098257829050620009d5565b600083511115620009965782518084602001fd5b816040517f08c379a0000000000000000000000000000000000000000000000000000000008152600401620009cc919062000dd2565b60405180910390fd5b9392505050565b6000620009f3620009ed8462000f5e565b62000f35565b90508281526020810184848401111562000a0c57600080fd5b62000a1984828562001095565b509392505050565b60008151905062000a3281620012db565b92915050565b60008151905062000a4981620012f5565b92915050565b60008151905062000a60816200130f565b92915050565b60008151905062000a778162001329565b92915050565b600082601f83011262000a8f57600080fd5b815162000aa1848260208601620009dc565b91505092915050565b60008151905062000abb8162001343565b92915050565b60006020828403121562000ad457600080fd5b600062000ae48482850162000a38565b91505092915050565b600080600080600060a0868803121562000b0657600080fd5b600062000b168882890162000a66565b955050602062000b298882890162000a4f565b945050604062000b3c8882890162000a21565b935050606062000b4f8882890162000a21565b925050608086015167ffffffffffffffff81111562000b6d57600080fd5b62000b7b8882890162000a7d565b9150509295509295909350565b60006020828403121562000b9b57600080fd5b600062000bab8482850162000aaa565b91505092915050565b62000bbf8162001023565b82525050565b600062000bd28262000f94565b62000bde818562000faa565b935062000bf081856020860162001095565b80840191505092915050565b600062000c098262000f9f565b62000c15818562000fb5565b935062000c2781856020860162001095565b62000c32816200115f565b840191505092915050565b600062000c4c601f8362000fb5565b915062000c598262001170565b602082019050919050565b600062000c7360268362000fb5565b915062000c808262001199565b604082019050919050565b600062000c9a60208362000fb5565b915062000ca782620011e8565b602082019050919050565b600062000cc160208362000fb5565b915062000cce8262001211565b602082019050919050565b600062000ce8601d8362000fb5565b915062000cf5826200123a565b602082019050919050565b600062000d0f602a8362000fb5565b915062000d1c8262001263565b604082019050919050565b600062000d3660208362000fb5565b915062000d4382620012b2565b602082019050919050565b62000d59816200108b565b82525050565b600062000d6d828462000bc5565b915081905092915050565b600060408201905062000d8f600083018562000bb4565b62000d9e602083018462000bb4565b9392505050565b600060408201905062000dbc600083018562000bb4565b62000dcb602083018462000d4e565b9392505050565b6000602082019050818103600083015262000dee818462000bfc565b905092915050565b6000602082019050818103600083015262000e118162000c3d565b9050919050565b6000602082019050818103600083015262000e338162000c64565b9050919050565b6000602082019050818103600083015262000e558162000c8b565b9050919050565b6000602082019050818103600083015262000e778162000cb2565b9050919050565b6000602082019050818103600083015262000e998162000cd9565b9050919050565b6000602082019050818103600083015262000ebb8162000d00565b9050919050565b6000602082019050818103600083015262000edd8162000d27565b9050919050565b600060208201905062000efb600083018462000d4e565b92915050565b600060408201905062000f18600083018562000d4e565b818103602083015262000f2c818462000bfc565b90509392505050565b600062000f4162000f54565b905062000f4f8282620010cb565b919050565b6000604051905090565b600067ffffffffffffffff82111562000f7c5762000f7b62001130565b5b62000f87826200115f565b9050602081019050919050565b600081519050919050565b600081519050919050565b600081905092915050565b600082825260208201905092915050565b600062000fd3826200108b565b915062000fe0836200108b565b9250827fffffffffffffffffffffffffffffffffffffffffffffffffffffffffffffffff0382111562001018576200101762001101565b5b828201905092915050565b600062001030826200106b565b9050919050565b60008115159050919050565b6000620010508262001023565b9050919050565b6000620010648262001023565b9050919050565b600073ffffffffffffffffffffffffffffffffffffffff82169050919050565b6000819050919050565b60005b83811015620010b557808201518184015260208101905062001098565b83811115620010c5576000848401525b50505050565b620010d6826200115f565b810181811067ffffffffffffffff82111715620010f857620010f762001130565b5b80604052505050565b7f4e487b7100000000000000000000000000000000000000000000000000000000600052601160045260246000fd5b7f4e487b7100000000000000000000000000000000000000000000000000000000600052604160045260246000fd5b6000601f19601f8301169050919050565b7f644865646765436f72653a20434641206164647265737320696e76616c696400600082015250565b7f416464726573733a20696e73756666696369656e742062616c616e636520666f60008201527f722063616c6c0000000000000000000000000000000000000000000000000000602082015250565b7f644865646765436f72653a2042616e6b206164647265737320696e76616c6964600082015250565b7f644865646765436f72653a20486f7374206164647265737320696e76616c6964600082015250565b7f416464726573733a2063616c6c20746f206e6f6e2d636f6e7472616374000000600082015250565b7f5361666545524332303a204552433230206f7065726174696f6e20646964206e60008201527f6f74207375636365656400000000000000000000000000000000000000000000602082015250565b7f644865646765436f72653a20506f6f6c206164647265737320696e76616c6964600082015250565b620012e68162001023565b8114620012f257600080fd5b50565b620013008162001037565b81146200130c57600080fd5b50565b6200131a8162001043565b81146200132657600080fd5b50565b620013348162001057565b81146200134057600080fd5b50565b6200134e816200108b565b81146200135a57600080fd5b50565b6131e7806200136d6000396000f3fe608060405234801561001057600080fd5b50600436106101375760003560e01c8063715018a6116100b8578063a1dacb1c1161007c578063a1dacb1c14610328578063d335015514610332578063d86ed3e514610350578063db34227c14610380578063f1d640b01461039c578063f2fde38b146103ba57610137565b8063715018a614610270578063884d1f401461027a5780638da5cb5b146102aa5780638e8101bd146102c8578063911f94e1146102f857610137565b806353be974f116100ff57806353be974f146101cc57806353c11f99146101ea5780635f9e7d771461021a5780636769ca611461024a5780636ff1c9bc1461025457610137565b8063230dbd291461013c5780632ea31c181461016c5780633059c9011461017657806330d9c91514610192578063444cf9c8146101c2575b600080fd5b61015660048036038101906101519190612457565b6103d6565b6040516101639190612901565b60405180910390f35b610174610508565b005b610190600480360381019061018b9190612577565b6105f6565b005b6101ac60048036038101906101a791906123a7565b61066d565b6040516101b99190612901565b60405180910390f35b6101ca610831565b005b6101d4610921565b6040516101e191906128e6565b60405180910390f35b61020460048036038101906101ff9190612457565b61093b565b6040516102119190612901565b60405180910390f35b610234600480360381019061022f91906123a7565b610a6d565b6040516102419190612901565b60405180910390f35b610252610b58565b005b61026e6004803603810190610269919061223c565b610bcc565b005b610278610d05565b005b610294600480360381019061028f91906123a7565b610d8d565b6040516102a19190612901565b60405180910390f35b6102b2610e80565b6040516102bf9190612842565b60405180910390f35b6102e260048036038101906102dd919061223c565b610ea9565b6040516102ef9190612ba5565b60405180910390f35b610312600480360381019061030d91906122dd565b610f3e565b60405161031f9190612ba5565b60405180910390f35b610330610fd6565b005b61033a611042565b6040516103479190612842565b60405180910390f35b61036a60048036038101906103659190612457565b61106f565b6040516103779190612901565b60405180910390f35b61039a60048036038101906103959190612319565b6112cc565b005b6103a461133e565b6040516103b191906128e6565b60405180910390f35b6103d460048036038101906103cf919061223c565b6113cf565b005b60606103e0611600565b6103e989611695565b6104b485858080601f016020809104026020016040519081016040528093929190818152602001838380828437600081840152601f19601f820116905080830192505050505050508b73ffffffffffffffffffffffffffffffffffffffff1663ee719bc86040518163ffffffff1660e01b815260040160206040518083038186803b15801561047757600080fd5b505afa15801561048b573d6000803e3d6000fd5b505050506040513d601f19601f820116820180604052508101906104af9190612265565b611777565b82828080601f016020809104026020016040519081016040528093929190818152602001838380828437600081840152601f19601f8201169050808301925050505050505090509998505050505050505050565b610510611844565b73ffffffffffffffffffffffffffffffffffffffff1661052e610e80565b73ffffffffffffffffffffffffffffffffffffffff1614610584576040517f08c379a000000000000000000000000000000000000000000000000000000000815260040161057b906129e5565b60405180910390fd5b600160040160149054906101000a900460ff166105d6576040517f08c379a00000000000000000000000000000000000000000000000000000000081526004016105cd90612985565b60405180910390fd5b6000600160040160146101000a81548160ff021916908315150217905550565b6105fe61184c565b6001730D774cFd944651418ecAAE8782a7C629c6ED4Bf063589d14409091836040518363ffffffff1660e01b815260040161063a929190612b7c565b60006040518083038186803b15801561065257600080fd5b505af4158015610666573d6000803e3d6000fd5b5050505050565b6060610677611600565b61068087611695565b61068861184c565b60008873ffffffffffffffffffffffffffffffffffffffff1663ee719bc86040518163ffffffff1660e01b815260040160206040518083038186803b1580156106d057600080fd5b505afa1580156106e4573d6000803e3d6000fd5b505050506040513d601f19601f820116820180604052508101906107089190612265565b90506001730D774cFd944651418ecAAE8782a7C629c6ED4Bf063448c57229091836040518363ffffffff1660e01b8152600401610746929190612aa0565b60206040518083038186803b15801561075e57600080fd5b505af4158015610772573d6000803e3d6000fd5b505050506040513d601f19601f820116820180604052508101906107969190612355565b6107d5576040517f08c379a00000000000000000000000000000000000000000000000000000000081526004016107cc90612a65565b60405180910390fd5b61082384848080601f016020809104026020016040519081016040528093929190818152602001838380828437600081840152601f19601f82011690508083019250505050505050826118a0565b915050979650505050505050565b610839611844565b73ffffffffffffffffffffffffffffffffffffffff16610857610e80565b73ffffffffffffffffffffffffffffffffffffffff16146108ad576040517f08c379a00000000000000000000000000000000000000000000000000000000081526004016108a4906129e5565b60405180910390fd5b6108b561184c565b6001730D774cFd944651418ecAAE8782a7C629c6ED4Bf063defff49390916040518263ffffffff1660e01b81526004016108ef9190612a85565b60006040518083038186803b15801561090757600080fd5b505af415801561091b573d6000803e3d6000fd5b50505050565b6000600160040160149054906101000a900460ff16905090565b6060610945611600565b61094e89611695565b610a1985858080601f016020809104026020016040519081016040528093929190818152602001838380828437600081840152601f19601f820116905080830192505050505050508b73ffffffffffffffffffffffffffffffffffffffff1663ee719bc86040518163ffffffff1660e01b815260040160206040518083038186803b1580156109dc57600080fd5b505afa1580156109f0573d6000803e3d6000fd5b505050506040513d601f19601f82011682018060405250810190610a149190612265565b611777565b82828080601f016020809104026020016040519081016040528093929190818152602001838380828437600081840152601f19601f8201169050808301925050505050505090509998505050505050505050565b6060610a77611600565b610a8087611695565b610b4b83838080601f016020809104026020016040519081016040528093929190818152602001838380828437600081840152601f19601f820116905080830192505050505050508973ffffffffffffffffffffffffffffffffffffffff1663ee719bc86040518163ffffffff1660e01b815260040160206040518083038186803b158015610b0e57600080fd5b505afa158015610b22573d6000803e3d6000fd5b505050506040513d601f19601f82011682018060405250810190610b469190612265565b6118a0565b9050979650505050505050565b610b6061184c565b6001730D774cFd944651418ecAAE8782a7C629c6ED4Bf063f114c3c490916040518263ffffffff1660e01b8152600401610b9a9190612a85565b60006040518083038186803b158015610bb257600080fd5b505af4158015610bc6573d6000803e3d6000fd5b50505050565b610bd4611844565b73ffffffffffffffffffffffffffffffffffffffff16610bf2610e80565b73ffffffffffffffffffffffffffffffffffffffff1614610c48576040517f08c379a0000000000000000000000000000000000000000000000000000000008152600401610c3f906129e5565b60405180910390fd5b610d02610c53610e80565b8273ffffffffffffffffffffffffffffffffffffffff166370a08231306040518263ffffffff1660e01b8152600401610c8c9190612842565b60206040518083038186803b158015610ca457600080fd5b505afa158015610cb8573d6000803e3d6000fd5b505050506040513d601f19601f82011682018060405250810190610cdc91906125a0565b8373ffffffffffffffffffffffffffffffffffffffff16611aa79092919063ffffffff16565b50565b610d0d611844565b73ffffffffffffffffffffffffffffffffffffffff16610d2b610e80565b73ffffffffffffffffffffffffffffffffffffffff1614610d81576040517f08c379a0000000000000000000000000000000000000000000000000000000008152600401610d78906129e5565b60405180910390fd5b610d8b6000611b2d565b565b6060610d97611600565b610da087611695565b610da861184c565b610e7383838080601f016020809104026020016040519081016040528093929190818152602001838380828437600081840152601f19601f820116905080830192505050505050508973ffffffffffffffffffffffffffffffffffffffff1663ee719bc86040518163ffffffff1660e01b815260040160206040518083038186803b158015610e3657600080fd5b505afa158015610e4a573d6000803e3d6000fd5b505050506040513d601f19601f82011682018060405250810190610e6e9190612265565b6118a0565b9050979650505050505050565b60008060009054906101000a900473ffffffffffffffffffffffffffffffffffffffff16905090565b60006001730D774cFd944651418ecAAE8782a7C629c6ED4Bf06325f848169091846040518363ffffffff1660e01b8152600401610ee7929190612aa0565b60206040518083038186803b158015610eff57600080fd5b505af4158015610f13573d6000803e3d6000fd5b505050506040513d601f19601f82011682018060405250810190610f3791906125a0565b9050919050565b60006001730D774cFd944651418ecAAE8782a7C629c6ED4Bf0631740215d909185856040518463ffffffff1660e01b8152600401610f7e93929190612ac9565b60206040518083038186803b158015610f9657600080fd5b505af4158015610faa573d6000803e3d6000fd5b505050506040513d601f19601f82011682018060405250810190610fce91906125a0565b905092915050565b6001730D774cFd944651418ecAAE8782a7C629c6ED4Bf063b8f64b4b90916040518263ffffffff1660e01b81526004016110109190612a85565b60006040518083038186803b15801561102857600080fd5b505af415801561103c573d6000803e3d6000fd5b50505050565b6000600160020160009054906101000a900473ffffffffffffffffffffffffffffffffffffffff16905090565b6060611079611600565b61108289611695565b60008a73ffffffffffffffffffffffffffffffffffffffff1663ee719bc86040518163ffffffff1660e01b815260040160206040518083038186803b1580156110ca57600080fd5b505afa1580156110de573d6000803e3d6000fd5b505050506040513d601f19601f820116820180604052508101906111029190612265565b905061111b816001600a01611bf190919063ffffffff16565b61122957611136816001600a01611c2190919063ffffffff16565b508a600160070160008373ffffffffffffffffffffffffffffffffffffffff1673ffffffffffffffffffffffffffffffffffffffff16815260200190815260200160002060006101000a81548173ffffffffffffffffffffffffffffffffffffffff021916908373ffffffffffffffffffffffffffffffffffffffff160217905550611228600160020160009054906101000a900473ffffffffffffffffffffffffffffffffffffffff167fffffffffffffffffffffffffffffffffffffffffffffffffffffffffffffffff8373ffffffffffffffffffffffffffffffffffffffff166114c79092919063ffffffff16565b5b61127786868080601f016020809104026020016040519081016040528093929190818152602001838380828437600081840152601f19601f8201169050808301925050505050505082611777565b83838080601f016020809104026020016040519081016040528093929190818152602001838380828437600081840152601f19601f820116905080830192505050505050509150509998505050505050505050565b6001730D774cFd944651418ecAAE8782a7C629c6ED4Bf063ae24b8a3909184846040518463ffffffff1660e01b815260040161130a93929190612b45565b60006040518083038186803b15801561132257600080fd5b505af4158015611336573d6000803e3d6000fd5b505050505050565b60006001730D774cFd944651418ecAAE8782a7C629c6ED4Bf063832a95fd90916040518263ffffffff1660e01b815260040161137a9190612a85565b60206040518083038186803b15801561139257600080fd5b505af41580156113a6573d6000803e3d6000fd5b505050506040513d601f19601f820116820180604052508101906113ca9190612355565b905090565b6113d7611844565b73ffffffffffffffffffffffffffffffffffffffff166113f5610e80565b73ffffffffffffffffffffffffffffffffffffffff161461144b576040517f08c379a0000000000000000000000000000000000000000000000000000000008152600401611442906129e5565b60405180910390fd5b600073ffffffffffffffffffffffffffffffffffffffff168173ffffffffffffffffffffffffffffffffffffffff1614156114bb576040517f08c379a00000000000000000000000000000000000000000000000000000000081526004016114b290612965565b60405180910390fd5b6114c481611b2d565b50565b6000818473ffffffffffffffffffffffffffffffffffffffff1663dd62ed3e30866040518363ffffffff1660e01b815260040161150592919061285d565b60206040518083038186803b15801561151d57600080fd5b505afa158015611531573d6000803e3d6000fd5b505050506040513d601f19601f8201168201806040525081019061155591906125a0565b61155f9190612c59565b90506115e28463095ea7b360e01b8584604051602401611580929190612886565b604051602081830303815290604052907bffffffffffffffffffffffffffffffffffffffffffffffffffffffff19166020820180517bffffffffffffffffffffffffffffffffffffffffffffffffffffffff8381831617835250505050611c51565b50505050565b60606115f78484600085611d18565b90509392505050565b600160000160009054906101000a900473ffffffffffffffffffffffffffffffffffffffff1673ffffffffffffffffffffffffffffffffffffffff163373ffffffffffffffffffffffffffffffffffffffff1614611693576040517f08c379a000000000000000000000000000000000000000000000000000000000815260040161168a90612945565b60405180910390fd5b565b7fa9214cc96615e0085d3bb077758db69497dc2dce3b2b1e97bc93c3d18d83efd38173ffffffffffffffffffffffffffffffffffffffff16637730599e6040518163ffffffff1660e01b815260040160206040518083038186803b1580156116fc57600080fd5b505afa158015611710573d6000803e3d6000fd5b505050506040513d601f19601f82011682018060405250810190611734919061237e565b14611774576040517f08c379a000000000000000000000000000000000000000000000000000000000815260040161176b906129c5565b60405180910390fd5b50565b600080600084806020019051810190611790919061228e565b9250925092506000600160080160008573ffffffffffffffffffffffffffffffffffffffff1673ffffffffffffffffffffffffffffffffffffffff16815260200190815260200160002060008673ffffffffffffffffffffffffffffffffffffffff1673ffffffffffffffffffffffffffffffffffffffff168152602001908152602001600020905061182e838383611e2c9092919063ffffffff16565b6001600501548160000181905550505050505050565b600033905090565b600160040160149054906101000a900460ff1661189e576040517f08c379a000000000000000000000000000000000000000000000000000000000815260040161189590612a05565b60405180910390fd5b565b60606000600160000160009054906101000a900473ffffffffffffffffffffffffffffffffffffffff1673ffffffffffffffffffffffffffffffffffffffff16633f6c923a856040518263ffffffff1660e01b81526004016119029190612901565b60006040518083038186803b15801561191a57600080fd5b505afa15801561192e573d6000803e3d6000fd5b505050506040513d6000823e3d601f19601f820116820180604052508101906119579190612536565b606001519050806001730D774cFd944651418ecAAE8782a7C629c6ED4Bf0631740215d909184876040518463ffffffff1660e01b815260040161199c93929190612ac9565b60206040518083038186803b1580156119b457600080fd5b505af41580156119c8573d6000803e3d6000fd5b505050506040513d601f19601f820116820180604052508101906119ec91906125a0565b6001730D774cFd944651418ecAAE8782a7C629c6ED4Bf0638cc822af9091858860006040518563ffffffff1660e01b8152600401611a2d9493929190612b00565b60206040518083038186803b158015611a4557600080fd5b505af4158015611a59573d6000803e3d6000fd5b505050506040513d601f19601f82011682018060405250810190611a7d91906125a0565b604051602001611a8f939291906128af565b60405160208183030381529060405291505092915050565b611b288363a9059cbb60e01b8484604051602401611ac6929190612886565b604051602081830303815290604052907bffffffffffffffffffffffffffffffffffffffffffffffffffffffff19166020820180517bffffffffffffffffffffffffffffffffffffffffffffffffffffffff8381831617835250505050611c51565b505050565b60008060009054906101000a900473ffffffffffffffffffffffffffffffffffffffff169050816000806101000a81548173ffffffffffffffffffffffffffffffffffffffff021916908373ffffffffffffffffffffffffffffffffffffffff1602179055508173ffffffffffffffffffffffffffffffffffffffff168173ffffffffffffffffffffffffffffffffffffffff167f8be0079c531659141344cd1fd0a4f28419497f9722a3daafe3b4186f6b6457e060405160405180910390a35050565b6000611c19836000018373ffffffffffffffffffffffffffffffffffffffff1660001b611e4c565b905092915050565b6000611c49836000018373ffffffffffffffffffffffffffffffffffffffff1660001b611e6f565b905092915050565b6000611cb3826040518060400160405280602081526020017f5361666545524332303a206c6f772d6c6576656c2063616c6c206661696c65648152508573ffffffffffffffffffffffffffffffffffffffff166115e89092919063ffffffff16565b9050600081511115611d135780806020019051810190611cd39190612355565b611d12576040517f08c379a0000000000000000000000000000000000000000000000000000000008152600401611d0990612a45565b60405180910390fd5b5b505050565b606082471015611d5d576040517f08c379a0000000000000000000000000000000000000000000000000000000008152600401611d54906129a5565b60405180910390fd5b611d6685611edf565b611da5576040517f08c379a0000000000000000000000000000000000000000000000000000000008152600401611d9c90612a25565b60405180910390fd5b6000808673ffffffffffffffffffffffffffffffffffffffff168587604051611dce919061282b565b60006040518083038185875af1925050503d8060008114611e0b576040519150601f19603f3d011682016040523d82523d6000602084013e611e10565b606091505b5091509150611e20828286611ef2565b92505050949350505050565b818360010181905550808360020181905550428360030181905550505050565b600080836001016000848152602001908152602001600020541415905092915050565b6000611e7b8383611e4c565b611ed4578260000182908060018154018082558091505060019003906000526020600020016000909190919091505582600001805490508360010160008481526020019081526020016000208190555060019050611ed9565b600090505b92915050565b600080823b905060008111915050919050565b60608315611f0257829050611f52565b600083511115611f155782518084602001fd5b816040517f08c379a0000000000000000000000000000000000000000000000000000000008152600401611f499190612923565b60405180910390fd5b9392505050565b6000611f6c611f6784612be5565b612bc0565b905082815260208101848484011115611f8457600080fd5b611f8f848285612d7a565b509392505050565b600081359050611fa6816130cb565b92915050565b600081519050611fbb816130cb565b92915050565b600081519050611fd0816130e2565b92915050565b600081519050611fe5816130f9565b92915050565b600081359050611ffa81613110565b92915050565b60008151905061200f81613110565b92915050565b60008151905061202481613127565b92915050565b60008083601f84011261203c57600080fd5b8235905067ffffffffffffffff81111561205557600080fd5b60208301915083600182028301111561206d57600080fd5b9250929050565b600082601f83011261208557600080fd5b8151612095848260208601611f59565b91505092915050565b6000813590506120ad8161313e565b92915050565b6000815190506120c281613155565b92915050565b6000815190506120d78161316c565b92915050565b600061016082840312156120f057600080fd5b6120fb610160612bc0565b9050600061210b84828501612227565b600083015250602061211f84828501612227565b602083015250604061213384828501612212565b604083015250606061214784828501611fac565b606083015250608061215b84828501612015565b60808301525060a082015167ffffffffffffffff81111561217b57600080fd5b61218784828501612074565b60a08301525060c061219b84828501612212565b60c08301525060e06121af84828501612212565b60e0830152506101006121c4848285016120c8565b610100830152506101206121da84828501611fac565b610120830152506101406121f0848285016120b3565b6101408301525092915050565b60008135905061220c81613183565b92915050565b60008151905061222181613183565b92915050565b6000815190506122368161319a565b92915050565b60006020828403121561224e57600080fd5b600061225c84828501611f97565b91505092915050565b60006020828403121561227757600080fd5b600061228584828501611fac565b91505092915050565b6000806000606084860312156122a357600080fd5b60006122b186828701611fc1565b93505060206122c286828701612212565b92505060406122d386828701612212565b9150509250925092565b600080604083850312156122f057600080fd5b60006122fe85828601611f97565b925050602061230f85828601611f97565b9150509250929050565b6000806040838503121561232c57600080fd5b600061233a85828601611f97565b925050602061234b858286016121fd565b9150509250929050565b60006020828403121561236757600080fd5b600061237584828501611fd6565b91505092915050565b60006020828403121561239057600080fd5b600061239e84828501612000565b91505092915050565b600080600080600080600060a0888a0312156123c257600080fd5b60006123d08a828b0161209e565b97505060206123e18a828b01611f97565b96505060406123f28a828b01611feb565b955050606088013567ffffffffffffffff81111561240f57600080fd5b61241b8a828b0161202a565b9450945050608088013567ffffffffffffffff81111561243a57600080fd5b6124468a828b0161202a565b925092505092959891949750929550565b600080600080600080600080600060c08a8c03121561247557600080fd5b60006124838c828d0161209e565b99505060206124948c828d01611f97565b98505060406124a58c828d01611feb565b97505060608a013567ffffffffffffffff8111156124c257600080fd5b6124ce8c828d0161202a565b965096505060808a013567ffffffffffffffff8111156124ed57600080fd5b6124f98c828d0161202a565b945094505060a08a013567ffffffffffffffff81111561251857600080fd5b6125248c828d0161202a565b92509250509295985092959850929598565b60006020828403121561254857600080fd5b600082015167ffffffffffffffff81111561256257600080fd5b61256e848285016120dd565b91505092915050565b60006020828403121561258957600080fd5b6000612597848285016121fd565b91505092915050565b6000602082840312156125b257600080fd5b60006125c084828501612212565b91505092915050565b6125d281612caf565b82525050565b6125e181612caf565b82525050565b6125f081612cd3565b82525050565b6125ff81612cd3565b82525050565b600061261082612c16565b61261a8185612c2c565b935061262a818560208601612d7a565b61263381612e3c565b840191505092915050565b600061264982612c16565b6126538185612c3d565b9350612663818560208601612d7a565b80840191505092915050565b600061267a82612c21565b6126848185612c48565b9350612694818560208601612d7a565b61269d81612e3c565b840191505092915050565b60006126b5602283612c48565b91506126c082612e4d565b604082019050919050565b60006126d8602683612c48565b91506126e382612e9c565b604082019050919050565b60006126fb602183612c48565b915061270682612eeb565b604082019050919050565b600061271e602683612c48565b915061272982612f3a565b604082019050919050565b6000612741602183612c48565b915061274c82612f89565b604082019050919050565b6000612764602083612c48565b915061276f82612fd8565b602082019050919050565b6000612787601983612c48565b915061279282613001565b602082019050919050565b60006127aa601d83612c48565b91506127b58261302a565b602082019050919050565b60006127cd602a83612c48565b91506127d882613053565b604082019050919050565b60006127f0601783612c48565b91506127fb826130a2565b602082019050919050565b8082525050565b61281681612d63565b82525050565b61282581612d63565b82525050565b6000612837828461263e565b915081905092915050565b600060208201905061285760008301846125c9565b92915050565b600060408201905061287260008301856125c9565b61287f60208301846125c9565b9392505050565b600060408201905061289b60008301856125c9565b6128a8602083018461280d565b9392505050565b60006060820190506128c460008301866125c9565b6128d1602083018561280d565b6128de604083018461280d565b949350505050565b60006020820190506128fb60008301846125e7565b92915050565b6000602082019050818103600083015261291b8184612605565b905092915050565b6000602082019050818103600083015261293d818461266f565b905092915050565b6000602082019050818103600083015261295e816126a8565b9050919050565b6000602082019050818103600083015261297e816126cb565b9050919050565b6000602082019050818103600083015261299e816126ee565b9050919050565b600060208201905081810360008301526129be81612711565b9050919050565b600060208201905081810360008301526129de81612734565b9050919050565b600060208201905081810360008301526129fe81612757565b9050919050565b60006020820190508181036000830152612a1e8161277a565b9050919050565b60006020820190508181036000830152612a3e8161279d565b9050919050565b60006020820190508181036000830152612a5e816127c0565b9050919050565b60006020820190508181036000830152612a7e816127e3565b9050919050565b6000602082019050612a9a6000830184612806565b92915050565b6000604082019050612ab56000830185612806565b612ac260208301846125d8565b9392505050565b6000606082019050612ade6000830186612806565b612aeb60208301856125d8565b612af860408301846125d8565b949350505050565b6000608082019050612b156000830187612806565b612b2260208301866125d8565b612b2f60408301856125d8565b612b3c60608301846125f6565b95945050505050565b6000606082019050612b5a6000830186612806565b612b6760208301856125d8565b612b74604083018461281c565b949350505050565b6000604082019050612b916000830185612806565b612b9e602083018461281c565b9392505050565b6000602082019050612bba600083018461280d565b92915050565b6000612bca612bdb565b9050612bd68282612dad565b919050565b6000604051905090565b600067ffffffffffffffff821115612c0057612bff612e0d565b5b612c0982612e3c565b9050602081019050919050565b600081519050919050565b600081519050919050565b600082825260208201905092915050565b600081905092915050565b600082825260208201905092915050565b6000612c6482612d63565b9150612c6f83612d63565b9250827fffffffffffffffffffffffffffffffffffffffffffffffffffffffffffffffff03821115612ca457612ca3612dde565b5b828201905092915050565b6000612cba82612d43565b9050919050565b6000612ccc82612d43565b9050919050565b60008115159050919050565b6000819050919050565b60007fffffffff0000000000000000000000000000000000000000000000000000000082169050919050565b6000612d2082612caf565b9050919050565b6000612d3282612caf565b9050919050565b6000819050919050565b600073ffffffffffffffffffffffffffffffffffffffff82169050919050565b6000819050919050565b600060ff82169050919050565b60005b83811015612d98578082015181840152602081019050612d7d565b83811115612da7576000848401525b50505050565b612db682612e3c565b810181811067ffffffffffffffff82111715612dd557612dd4612e0d565b5b80604052505050565b7f4e487b7100000000000000000000000000000000000000000000000000000000600052601160045260246000fd5b7f4e487b7100000000000000000000000000000000000000000000000000000000600052604160045260246000fd5b6000601f19601f8301169050919050565b7f644865646765436f72653a20537570706f727473206f6e6c79206f6e6520686f60008201527f7374000000000000000000000000000000000000000000000000000000000000602082015250565b7f4f776e61626c653a206e6577206f776e657220697320746865207a65726f206160008201527f6464726573730000000000000000000000000000000000000000000000000000602082015250565b7f644865646765436f72653a20506f6f6c20616c726561647920696e616374697660008201527f6500000000000000000000000000000000000000000000000000000000000000602082015250565b7f416464726573733a20696e73756666696369656e742062616c616e636520666f60008201527f722063616c6c0000000000000000000000000000000000000000000000000000602082015250565b7f644865646765436f72653a20537570706f727473206f6e6c79206f6e6520434660008201527f4100000000000000000000000000000000000000000000000000000000000000602082015250565b7f4f776e61626c653a2063616c6c6572206973206e6f7420746865206f776e6572600082015250565b7f644865646765436f72653a20506f6f6c20696e61637469766500000000000000600082015250565b7f416464726573733a2063616c6c20746f206e6f6e2d636f6e7472616374000000600082015250565b7f5361666545524332303a204552433230206f7065726174696f6e20646964206e60008201527f6f74207375636365656400000000000000000000000000000000000000000000602082015250565b7f546f6b656e206e6f74206465706f736974206173736574000000000000000000600082015250565b6130d481612caf565b81146130df57600080fd5b50565b6130eb81612cc1565b81146130f657600080fd5b50565b61310281612cd3565b811461310d57600080fd5b50565b61311981612cdf565b811461312457600080fd5b50565b61313081612ce9565b811461313b57600080fd5b50565b61314781612d15565b811461315257600080fd5b50565b61315e81612d27565b811461316957600080fd5b50565b61317581612d39565b811461318057600080fd5b50565b61318c81612d63565b811461319757600080fd5b50565b6131a381612d6d565b81146131ae57600080fd5b5056fea264697066735822122055de79fae3ddfc719aeb4bc3d44019c5bf41a16b9e61564bd5fe3b4c18a9759d64736f6c63430008040033",
  "deployedBytecode": "0x608060405234801561001057600080fd5b50600436106101375760003560e01c8063715018a6116100b8578063a1dacb1c1161007c578063a1dacb1c14610328578063d335015514610332578063d86ed3e514610350578063db34227c14610380578063f1d640b01461039c578063f2fde38b146103ba57610137565b8063715018a614610270578063884d1f401461027a5780638da5cb5b146102aa5780638e8101bd146102c8578063911f94e1146102f857610137565b806353be974f116100ff57806353be974f146101cc57806353c11f99146101ea5780635f9e7d771461021a5780636769ca611461024a5780636ff1c9bc1461025457610137565b8063230dbd291461013c5780632ea31c181461016c5780633059c9011461017657806330d9c91514610192578063444cf9c8146101c2575b600080fd5b61015660048036038101906101519190612457565b6103d6565b6040516101639190612901565b60405180910390f35b610174610508565b005b610190600480360381019061018b9190612577565b6105f6565b005b6101ac60048036038101906101a791906123a7565b61066d565b6040516101b99190612901565b60405180910390f35b6101ca610831565b005b6101d4610921565b6040516101e191906128e6565b60405180910390f35b61020460048036038101906101ff9190612457565b61093b565b6040516102119190612901565b60405180910390f35b610234600480360381019061022f91906123a7565b610a6d565b6040516102419190612901565b60405180910390f35b610252610b58565b005b61026e6004803603810190610269919061223c565b610bcc565b005b610278610d05565b005b610294600480360381019061028f91906123a7565b610d8d565b6040516102a19190612901565b60405180910390f35b6102b2610e80565b6040516102bf9190612842565b60405180910390f35b6102e260048036038101906102dd919061223c565b610ea9565b6040516102ef9190612ba5565b60405180910390f35b610312600480360381019061030d91906122dd565b610f3e565b60405161031f9190612ba5565b60405180910390f35b610330610fd6565b005b61033a611042565b6040516103479190612842565b60405180910390f35b61036a60048036038101906103659190612457565b61106f565b6040516103779190612901565b60405180910390f35b61039a60048036038101906103959190612319565b6112cc565b005b6103a461133e565b6040516103b191906128e6565b60405180910390f35b6103d460048036038101906103cf919061223c565b6113cf565b005b60606103e0611600565b6103e989611695565b6104b485858080601f016020809104026020016040519081016040528093929190818152602001838380828437600081840152601f19601f820116905080830192505050505050508b73ffffffffffffffffffffffffffffffffffffffff1663ee719bc86040518163ffffffff1660e01b815260040160206040518083038186803b15801561047757600080fd5b505afa15801561048b573d6000803e3d6000fd5b505050506040513d601f19601f820116820180604052508101906104af9190612265565b611777565b82828080601f016020809104026020016040519081016040528093929190818152602001838380828437600081840152601f19601f8201169050808301925050505050505090509998505050505050505050565b610510611844565b73ffffffffffffffffffffffffffffffffffffffff1661052e610e80565b73ffffffffffffffffffffffffffffffffffffffff1614610584576040517f08c379a000000000000000000000000000000000000000000000000000000000815260040161057b906129e5565b60405180910390fd5b600160040160149054906101000a900460ff166105d6576040517f08c379a00000000000000000000000000000000000000000000000000000000081526004016105cd90612985565b60405180910390fd5b6000600160040160146101000a81548160ff021916908315150217905550565b6105fe61184c565b600173__$36209bf43a07552564d1a894d44c07e934$__63589d14409091836040518363ffffffff1660e01b815260040161063a929190612b7c565b60006040518083038186803b15801561065257600080fd5b505af4158015610666573d6000803e3d6000fd5b5050505050565b6060610677611600565b61068087611695565b61068861184c565b60008873ffffffffffffffffffffffffffffffffffffffff1663ee719bc86040518163ffffffff1660e01b815260040160206040518083038186803b1580156106d057600080fd5b505afa1580156106e4573d6000803e3d6000fd5b505050506040513d601f19601f820116820180604052508101906107089190612265565b9050600173__$36209bf43a07552564d1a894d44c07e934$__63448c57229091836040518363ffffffff1660e01b8152600401610746929190612aa0565b60206040518083038186803b15801561075e57600080fd5b505af4158015610772573d6000803e3d6000fd5b505050506040513d601f19601f820116820180604052508101906107969190612355565b6107d5576040517f08c379a00000000000000000000000000000000000000000000000000000000081526004016107cc90612a65565b60405180910390fd5b61082384848080601f016020809104026020016040519081016040528093929190818152602001838380828437600081840152601f19601f82011690508083019250505050505050826118a0565b915050979650505050505050565b610839611844565b73ffffffffffffffffffffffffffffffffffffffff16610857610e80565b73ffffffffffffffffffffffffffffffffffffffff16146108ad576040517f08c379a00000000000000000000000000000000000000000000000000000000081526004016108a4906129e5565b60405180910390fd5b6108b561184c565b600173__$36209bf43a07552564d1a894d44c07e934$__63defff49390916040518263ffffffff1660e01b81526004016108ef9190612a85565b60006040518083038186803b15801561090757600080fd5b505af415801561091b573d6000803e3d6000fd5b50505050565b6000600160040160149054906101000a900460ff16905090565b6060610945611600565b61094e89611695565b610a1985858080601f016020809104026020016040519081016040528093929190818152602001838380828437600081840152601f19601f820116905080830192505050505050508b73ffffffffffffffffffffffffffffffffffffffff1663ee719bc86040518163ffffffff1660e01b815260040160206040518083038186803b1580156109dc57600080fd5b505afa1580156109f0573d6000803e3d6000fd5b505050506040513d601f19601f82011682018060405250810190610a149190612265565b611777565b82828080601f016020809104026020016040519081016040528093929190818152602001838380828437600081840152601f19601f8201169050808301925050505050505090509998505050505050505050565b6060610a77611600565b610a8087611695565b610b4b83838080601f016020809104026020016040519081016040528093929190818152602001838380828437600081840152601f19601f820116905080830192505050505050508973ffffffffffffffffffffffffffffffffffffffff1663ee719bc86040518163ffffffff1660e01b815260040160206040518083038186803b158015610b0e57600080fd5b505afa158015610b22573d6000803e3d6000fd5b505050506040513d601f19601f82011682018060405250810190610b469190612265565b6118a0565b9050979650505050505050565b610b6061184c565b600173__$36209bf43a07552564d1a894d44c07e934$__63f114c3c490916040518263ffffffff1660e01b8152600401610b9a9190612a85565b60006040518083038186803b158015610bb257600080fd5b505af4158015610bc6573d6000803e3d6000fd5b50505050565b610bd4611844565b73ffffffffffffffffffffffffffffffffffffffff16610bf2610e80565b73ffffffffffffffffffffffffffffffffffffffff1614610c48576040517f08c379a0000000000000000000000000000000000000000000000000000000008152600401610c3f906129e5565b60405180910390fd5b610d02610c53610e80565b8273ffffffffffffffffffffffffffffffffffffffff166370a08231306040518263ffffffff1660e01b8152600401610c8c9190612842565b60206040518083038186803b158015610ca457600080fd5b505afa158015610cb8573d6000803e3d6000fd5b505050506040513d601f19601f82011682018060405250810190610cdc91906125a0565b8373ffffffffffffffffffffffffffffffffffffffff16611aa79092919063ffffffff16565b50565b610d0d611844565b73ffffffffffffffffffffffffffffffffffffffff16610d2b610e80565b73ffffffffffffffffffffffffffffffffffffffff1614610d81576040517f08c379a0000000000000000000000000000000000000000000000000000000008152600401610d78906129e5565b60405180910390fd5b610d8b6000611b2d565b565b6060610d97611600565b610da087611695565b610da861184c565b610e7383838080601f016020809104026020016040519081016040528093929190818152602001838380828437600081840152601f19601f820116905080830192505050505050508973ffffffffffffffffffffffffffffffffffffffff1663ee719bc86040518163ffffffff1660e01b815260040160206040518083038186803b158015610e3657600080fd5b505afa158015610e4a573d6000803e3d6000fd5b505050506040513d601f19601f82011682018060405250810190610e6e9190612265565b6118a0565b9050979650505050505050565b60008060009054906101000a900473ffffffffffffffffffffffffffffffffffffffff16905090565b6000600173__$36209bf43a07552564d1a894d44c07e934$__6325f848169091846040518363ffffffff1660e01b8152600401610ee7929190612aa0565b60206040518083038186803b158015610eff57600080fd5b505af4158015610f13573d6000803e3d6000fd5b505050506040513d601f19601f82011682018060405250810190610f3791906125a0565b9050919050565b6000600173__$36209bf43a07552564d1a894d44c07e934$__631740215d909185856040518463ffffffff1660e01b8152600401610f7e93929190612ac9565b60206040518083038186803b158015610f9657600080fd5b505af4158015610faa573d6000803e3d6000fd5b505050506040513d601f19601f82011682018060405250810190610fce91906125a0565b905092915050565b600173__$36209bf43a07552564d1a894d44c07e934$__63b8f64b4b90916040518263ffffffff1660e01b81526004016110109190612a85565b60006040518083038186803b15801561102857600080fd5b505af415801561103c573d6000803e3d6000fd5b50505050565b6000600160020160009054906101000a900473ffffffffffffffffffffffffffffffffffffffff16905090565b6060611079611600565b61108289611695565b60008a73ffffffffffffffffffffffffffffffffffffffff1663ee719bc86040518163ffffffff1660e01b815260040160206040518083038186803b1580156110ca57600080fd5b505afa1580156110de573d6000803e3d6000fd5b505050506040513d601f19601f820116820180604052508101906111029190612265565b905061111b816001600a01611bf190919063ffffffff16565b61122957611136816001600a01611c2190919063ffffffff16565b508a600160070160008373ffffffffffffffffffffffffffffffffffffffff1673ffffffffffffffffffffffffffffffffffffffff16815260200190815260200160002060006101000a81548173ffffffffffffffffffffffffffffffffffffffff021916908373ffffffffffffffffffffffffffffffffffffffff160217905550611228600160020160009054906101000a900473ffffffffffffffffffffffffffffffffffffffff167fffffffffffffffffffffffffffffffffffffffffffffffffffffffffffffffff8373ffffffffffffffffffffffffffffffffffffffff166114c79092919063ffffffff16565b5b61127786868080601f016020809104026020016040519081016040528093929190818152602001838380828437600081840152601f19601f8201169050808301925050505050505082611777565b83838080601f016020809104026020016040519081016040528093929190818152602001838380828437600081840152601f19601f820116905080830192505050505050509150509998505050505050505050565b600173__$36209bf43a07552564d1a894d44c07e934$__63ae24b8a3909184846040518463ffffffff1660e01b815260040161130a93929190612b45565b60006040518083038186803b15801561132257600080fd5b505af4158015611336573d6000803e3d6000fd5b505050505050565b6000600173__$36209bf43a07552564d1a894d44c07e934$__63832a95fd90916040518263ffffffff1660e01b815260040161137a9190612a85565b60206040518083038186803b15801561139257600080fd5b505af41580156113a6573d6000803e3d6000fd5b505050506040513d601f19601f820116820180604052508101906113ca9190612355565b905090565b6113d7611844565b73ffffffffffffffffffffffffffffffffffffffff166113f5610e80565b73ffffffffffffffffffffffffffffffffffffffff161461144b576040517f08c379a0000000000000000000000000000000000000000000000000000000008152600401611442906129e5565b60405180910390fd5b600073ffffffffffffffffffffffffffffffffffffffff168173ffffffffffffffffffffffffffffffffffffffff1614156114bb576040517f08c379a00000000000000000000000000000000000000000000000000000000081526004016114b290612965565b60405180910390fd5b6114c481611b2d565b50565b6000818473ffffffffffffffffffffffffffffffffffffffff1663dd62ed3e30866040518363ffffffff1660e01b815260040161150592919061285d565b60206040518083038186803b15801561151d57600080fd5b505afa158015611531573d6000803e3d6000fd5b505050506040513d601f19601f8201168201806040525081019061155591906125a0565b61155f9190612c59565b90506115e28463095ea7b360e01b8584604051602401611580929190612886565b604051602081830303815290604052907bffffffffffffffffffffffffffffffffffffffffffffffffffffffff19166020820180517bffffffffffffffffffffffffffffffffffffffffffffffffffffffff8381831617835250505050611c51565b50505050565b60606115f78484600085611d18565b90509392505050565b600160000160009054906101000a900473ffffffffffffffffffffffffffffffffffffffff1673ffffffffffffffffffffffffffffffffffffffff163373ffffffffffffffffffffffffffffffffffffffff1614611693576040517f08c379a000000000000000000000000000000000000000000000000000000000815260040161168a90612945565b60405180910390fd5b565b7fa9214cc96615e0085d3bb077758db69497dc2dce3b2b1e97bc93c3d18d83efd38173ffffffffffffffffffffffffffffffffffffffff16637730599e6040518163ffffffff1660e01b815260040160206040518083038186803b1580156116fc57600080fd5b505afa158015611710573d6000803e3d6000fd5b505050506040513d601f19601f82011682018060405250810190611734919061237e565b14611774576040517f08c379a000000000000000000000000000000000000000000000000000000000815260040161176b906129c5565b60405180910390fd5b50565b600080600084806020019051810190611790919061228e565b9250925092506000600160080160008573ffffffffffffffffffffffffffffffffffffffff1673ffffffffffffffffffffffffffffffffffffffff16815260200190815260200160002060008673ffffffffffffffffffffffffffffffffffffffff1673ffffffffffffffffffffffffffffffffffffffff168152602001908152602001600020905061182e838383611e2c9092919063ffffffff16565b6001600501548160000181905550505050505050565b600033905090565b600160040160149054906101000a900460ff1661189e576040517f08c379a000000000000000000000000000000000000000000000000000000000815260040161189590612a05565b60405180910390fd5b565b60606000600160000160009054906101000a900473ffffffffffffffffffffffffffffffffffffffff1673ffffffffffffffffffffffffffffffffffffffff16633f6c923a856040518263ffffffff1660e01b81526004016119029190612901565b60006040518083038186803b15801561191a57600080fd5b505afa15801561192e573d6000803e3d6000fd5b505050506040513d6000823e3d601f19601f820116820180604052508101906119579190612536565b60600151905080600173__$36209bf43a07552564d1a894d44c07e934$__631740215d909184876040518463ffffffff1660e01b815260040161199c93929190612ac9565b60206040518083038186803b1580156119b457600080fd5b505af41580156119c8573d6000803e3d6000fd5b505050506040513d601f19601f820116820180604052508101906119ec91906125a0565b600173__$36209bf43a07552564d1a894d44c07e934$__638cc822af9091858860006040518563ffffffff1660e01b8152600401611a2d9493929190612b00565b60206040518083038186803b158015611a4557600080fd5b505af4158015611a59573d6000803e3d6000fd5b505050506040513d601f19601f82011682018060405250810190611a7d91906125a0565b604051602001611a8f939291906128af565b60405160208183030381529060405291505092915050565b611b288363a9059cbb60e01b8484604051602401611ac6929190612886565b604051602081830303815290604052907bffffffffffffffffffffffffffffffffffffffffffffffffffffffff19166020820180517bffffffffffffffffffffffffffffffffffffffffffffffffffffffff8381831617835250505050611c51565b505050565b60008060009054906101000a900473ffffffffffffffffffffffffffffffffffffffff169050816000806101000a81548173ffffffffffffffffffffffffffffffffffffffff021916908373ffffffffffffffffffffffffffffffffffffffff1602179055508173ffffffffffffffffffffffffffffffffffffffff168173ffffffffffffffffffffffffffffffffffffffff167f8be0079c531659141344cd1fd0a4f28419497f9722a3daafe3b4186f6b6457e060405160405180910390a35050565b6000611c19836000018373ffffffffffffffffffffffffffffffffffffffff1660001b611e4c565b905092915050565b6000611c49836000018373ffffffffffffffffffffffffffffffffffffffff1660001b611e6f565b905092915050565b6000611cb3826040518060400160405280602081526020017f5361666545524332303a206c6f772d6c6576656c2063616c6c206661696c65648152508573ffffffffffffffffffffffffffffffffffffffff166115e89092919063ffffffff16565b9050600081511115611d135780806020019051810190611cd39190612355565b611d12576040517f08c379a0000000000000000000000000000000000000000000000000000000008152600401611d0990612a45565b60405180910390fd5b5b505050565b606082471015611d5d576040517f08c379a0000000000000000000000000000000000000000000000000000000008152600401611d54906129a5565b60405180910390fd5b611d6685611edf565b611da5576040517f08c379a0000000000000000000000000000000000000000000000000000000008152600401611d9c90612a25565b60405180910390fd5b6000808673ffffffffffffffffffffffffffffffffffffffff168587604051611dce919061282b565b60006040518083038185875af1925050503d8060008114611e0b576040519150601f19603f3d011682016040523d82523d6000602084013e611e10565b606091505b5091509150611e20828286611ef2565b92505050949350505050565b818360010181905550808360020181905550428360030181905550505050565b600080836001016000848152602001908152602001600020541415905092915050565b6000611e7b8383611e4c565b611ed4578260000182908060018154018082558091505060019003906000526020600020016000909190919091505582600001805490508360010160008481526020019081526020016000208190555060019050611ed9565b600090505b92915050565b600080823b905060008111915050919050565b60608315611f0257829050611f52565b600083511115611f155782518084602001fd5b816040517f08c379a0000000000000000000000000000000000000000000000000000000008152600401611f499190612923565b60405180910390fd5b9392505050565b6000611f6c611f6784612be5565b612bc0565b905082815260208101848484011115611f8457600080fd5b611f8f848285612d7a565b509392505050565b600081359050611fa6816130cb565b92915050565b600081519050611fbb816130cb565b92915050565b600081519050611fd0816130e2565b92915050565b600081519050611fe5816130f9565b92915050565b600081359050611ffa81613110565b92915050565b60008151905061200f81613110565b92915050565b60008151905061202481613127565b92915050565b60008083601f84011261203c57600080fd5b8235905067ffffffffffffffff81111561205557600080fd5b60208301915083600182028301111561206d57600080fd5b9250929050565b600082601f83011261208557600080fd5b8151612095848260208601611f59565b91505092915050565b6000813590506120ad8161313e565b92915050565b6000815190506120c281613155565b92915050565b6000815190506120d78161316c565b92915050565b600061016082840312156120f057600080fd5b6120fb610160612bc0565b9050600061210b84828501612227565b600083015250602061211f84828501612227565b602083015250604061213384828501612212565b604083015250606061214784828501611fac565b606083015250608061215b84828501612015565b60808301525060a082015167ffffffffffffffff81111561217b57600080fd5b61218784828501612074565b60a08301525060c061219b84828501612212565b60c08301525060e06121af84828501612212565b60e0830152506101006121c4848285016120c8565b610100830152506101206121da84828501611fac565b610120830152506101406121f0848285016120b3565b6101408301525092915050565b60008135905061220c81613183565b92915050565b60008151905061222181613183565b92915050565b6000815190506122368161319a565b92915050565b60006020828403121561224e57600080fd5b600061225c84828501611f97565b91505092915050565b60006020828403121561227757600080fd5b600061228584828501611fac565b91505092915050565b6000806000606084860312156122a357600080fd5b60006122b186828701611fc1565b93505060206122c286828701612212565b92505060406122d386828701612212565b9150509250925092565b600080604083850312156122f057600080fd5b60006122fe85828601611f97565b925050602061230f85828601611f97565b9150509250929050565b6000806040838503121561232c57600080fd5b600061233a85828601611f97565b925050602061234b858286016121fd565b9150509250929050565b60006020828403121561236757600080fd5b600061237584828501611fd6565b91505092915050565b60006020828403121561239057600080fd5b600061239e84828501612000565b91505092915050565b600080600080600080600060a0888a0312156123c257600080fd5b60006123d08a828b0161209e565b97505060206123e18a828b01611f97565b96505060406123f28a828b01611feb565b955050606088013567ffffffffffffffff81111561240f57600080fd5b61241b8a828b0161202a565b9450945050608088013567ffffffffffffffff81111561243a57600080fd5b6124468a828b0161202a565b925092505092959891949750929550565b600080600080600080600080600060c08a8c03121561247557600080fd5b60006124838c828d0161209e565b99505060206124948c828d01611f97565b98505060406124a58c828d01611feb565b97505060608a013567ffffffffffffffff8111156124c257600080fd5b6124ce8c828d0161202a565b965096505060808a013567ffffffffffffffff8111156124ed57600080fd5b6124f98c828d0161202a565b945094505060a08a013567ffffffffffffffff81111561251857600080fd5b6125248c828d0161202a565b92509250509295985092959850929598565b60006020828403121561254857600080fd5b600082015167ffffffffffffffff81111561256257600080fd5b61256e848285016120dd565b91505092915050565b60006020828403121561258957600080fd5b6000612597848285016121fd565b91505092915050565b6000602082840312156125b257600080fd5b60006125c084828501612212565b91505092915050565b6125d281612caf565b82525050565b6125e181612caf565b82525050565b6125f081612cd3565b82525050565b6125ff81612cd3565b82525050565b600061261082612c16565b61261a8185612c2c565b935061262a818560208601612d7a565b61263381612e3c565b840191505092915050565b600061264982612c16565b6126538185612c3d565b9350612663818560208601612d7a565b80840191505092915050565b600061267a82612c21565b6126848185612c48565b9350612694818560208601612d7a565b61269d81612e3c565b840191505092915050565b60006126b5602283612c48565b91506126c082612e4d565b604082019050919050565b60006126d8602683612c48565b91506126e382612e9c565b604082019050919050565b60006126fb602183612c48565b915061270682612eeb565b604082019050919050565b600061271e602683612c48565b915061272982612f3a565b604082019050919050565b6000612741602183612c48565b915061274c82612f89565b604082019050919050565b6000612764602083612c48565b915061276f82612fd8565b602082019050919050565b6000612787601983612c48565b915061279282613001565b602082019050919050565b60006127aa601d83612c48565b91506127b58261302a565b602082019050919050565b60006127cd602a83612c48565b91506127d882613053565b604082019050919050565b60006127f0601783612c48565b91506127fb826130a2565b602082019050919050565b8082525050565b61281681612d63565b82525050565b61282581612d63565b82525050565b6000612837828461263e565b915081905092915050565b600060208201905061285760008301846125c9565b92915050565b600060408201905061287260008301856125c9565b61287f60208301846125c9565b9392505050565b600060408201905061289b60008301856125c9565b6128a8602083018461280d565b9392505050565b60006060820190506128c460008301866125c9565b6128d1602083018561280d565b6128de604083018461280d565b949350505050565b60006020820190506128fb60008301846125e7565b92915050565b6000602082019050818103600083015261291b8184612605565b905092915050565b6000602082019050818103600083015261293d818461266f565b905092915050565b6000602082019050818103600083015261295e816126a8565b9050919050565b6000602082019050818103600083015261297e816126cb565b9050919050565b6000602082019050818103600083015261299e816126ee565b9050919050565b600060208201905081810360008301526129be81612711565b9050919050565b600060208201905081810360008301526129de81612734565b9050919050565b600060208201905081810360008301526129fe81612757565b9050919050565b60006020820190508181036000830152612a1e8161277a565b9050919050565b60006020820190508181036000830152612a3e8161279d565b9050919050565b60006020820190508181036000830152612a5e816127c0565b9050919050565b60006020820190508181036000830152612a7e816127e3565b9050919050565b6000602082019050612a9a6000830184612806565b92915050565b6000604082019050612ab56000830185612806565b612ac260208301846125d8565b9392505050565b6000606082019050612ade6000830186612806565b612aeb60208301856125d8565b612af860408301846125d8565b949350505050565b6000608082019050612b156000830187612806565b612b2260208301866125d8565b612b2f60408301856125d8565b612b3c60608301846125f6565b95945050505050565b6000606082019050612b5a6000830186612806565b612b6760208301856125d8565b612b74604083018461281c565b949350505050565b6000604082019050612b916000830185612806565b612b9e602083018461281c565b9392505050565b6000602082019050612bba600083018461280d565b92915050565b6000612bca612bdb565b9050612bd68282612dad565b919050565b6000604051905090565b600067ffffffffffffffff821115612c0057612bff612e0d565b5b612c0982612e3c565b9050602081019050919050565b600081519050919050565b600081519050919050565b600082825260208201905092915050565b600081905092915050565b600082825260208201905092915050565b6000612c6482612d63565b9150612c6f83612d63565b9250827fffffffffffffffffffffffffffffffffffffffffffffffffffffffffffffffff03821115612ca457612ca3612dde565b5b828201905092915050565b6000612cba82612d43565b9050919050565b6000612ccc82612d43565b9050919050565b60008115159050919050565b6000819050919050565b60007fffffffff0000000000000000000000000000000000000000000000000000000082169050919050565b6000612d2082612caf565b9050919050565b6000612d3282612caf565b9050919050565b6000819050919050565b600073ffffffffffffffffffffffffffffffffffffffff82169050919050565b6000819050919050565b600060ff82169050919050565b60005b83811015612d98578082015181840152602081019050612d7d565b83811115612da7576000848401525b50505050565b612db682612e3c565b810181811067ffffffffffffffff82111715612dd557612dd4612e0d565b5b80604052505050565b7f4e487b7100000000000000000000000000000000000000000000000000000000600052601160045260246000fd5b7f4e487b7100000000000000000000000000000000000000000000000000000000600052604160045260246000fd5b6000601f19601f8301169050919050565b7f644865646765436f72653a20537570706f727473206f6e6c79206f6e6520686f60008201527f7374000000000000000000000000000000000000000000000000000000000000602082015250565b7f4f776e61626c653a206e6577206f776e657220697320746865207a65726f206160008201527f6464726573730000000000000000000000000000000000000000000000000000602082015250565b7f644865646765436f72653a20506f6f6c20616c726561647920696e616374697660008201527f6500000000000000000000000000000000000000000000000000000000000000602082015250565b7f416464726573733a20696e73756666696369656e742062616c616e636520666f60008201527f722063616c6c0000000000000000000000000000000000000000000000000000602082015250565b7f644865646765436f72653a20537570706f727473206f6e6c79206f6e6520434660008201527f4100000000000000000000000000000000000000000000000000000000000000602082015250565b7f4f776e61626c653a2063616c6c6572206973206e6f7420746865206f776e6572600082015250565b7f644865646765436f72653a20506f6f6c20696e61637469766500000000000000600082015250565b7f416464726573733a2063616c6c20746f206e6f6e2d636f6e7472616374000000600082015250565b7f5361666545524332303a204552433230206f7065726174696f6e20646964206e60008201527f6f74207375636365656400000000000000000000000000000000000000000000602082015250565b7f546f6b656e206e6f74206465706f736974206173736574000000000000000000600082015250565b6130d481612caf565b81146130df57600080fd5b50565b6130eb81612cc1565b81146130f657600080fd5b50565b61310281612cd3565b811461310d57600080fd5b50565b61311981612cdf565b811461312457600080fd5b50565b61313081612ce9565b811461313b57600080fd5b50565b61314781612d15565b811461315257600080fd5b50565b61315e81612d27565b811461316957600080fd5b50565b61317581612d39565b811461318057600080fd5b50565b61318c81612d63565b811461319757600080fd5b50565b6131a381612d6d565b81146131ae57600080fd5b5056fea264697066735822122055de79fae3ddfc719aeb4bc3d44019c5bf41a16b9e61564bd5fe3b4c18a9759d64736f6c63430008040033",
  "libraries": {
    "dHedgeHelper": "0x0D774cFd944651418ecAAE8782a7C629c6ED4Bf0"
  },
  "devdoc": {
    "author": "rashtrakoff",
    "custom:experimental": "This is an experimental contract/library. Use at your own risk.",
    "kind": "dev",
    "methods": {
      "calcUserUninvested(address,address)": {
        "params": {
          "_token": "Address of the underlying token",
          "_user": "Address of the user whose uninvested amount needs to be calculated"
        },
        "returns": {
          "_0": "Amount of uninvested tokens"
        }
      },
      "calcWithdrawable(address)": {
        "params": {
          "_user": "Address of the user whose withdrawable amount needs to be calculated"
        },
        "returns": {
          "_0": "Amount that can be withdrawn immediately"
        }
      },
      "checkCoreActive()": {
        "returns": {
          "_0": "Boolean indicating working status of core"
        }
      },
      "dHedgeWithdraw(uint256)": {
        "params": {
          "_amount": "Amount of LP tokens to be withdrawn"
        }
      },
      "deactivateCore()": {
        "details": "Deactivates a dHedgeCore contract"
      },
      "emergencyWithdraw(address)": {
        "details": "Function to withdraw a token in case of emergency",
        "params": {
          "_token": "Address of the pool token Remove/Modify this function after testing"
        }
      },
      "getPoolLogic()": {
        "returns": {
          "_0": "Returns address of the dHedge pool this core contract serves"
        }
      },
      "moveLPT()": {
        "details": "Moves the LP tokens from core to bank. May be called iff keepers fail."
      },
      "owner()": {
        "details": "Returns the address of the current owner."
      },
      "renounceOwnership()": {
        "details": "Leaves the contract without owner. It will not be possible to call `onlyOwner` functions anymore. Can only be called by the current owner. NOTE: Renouncing ownership will leave the contract without an owner, thereby removing any functionality that is only available to the owner."
      },
      "requireUpkeep()": {
        "details": "Checks if deposit action can be performed",
        "returns": {
          "_0": "Boolean indicating if upkeep/deposit can be performed"
        }
      },
      "transferOwnership(address)": {
        "details": "Transfers ownership of the contract to a new account (`newOwner`). Can only be called by the current owner."
      },
      "withdrawUninvestedSingle(address,uint256)": {
        "params": {
          "_amount": "Amount of uninvested token to be withdrawn",
          "_token": "Address of the underlying token"
        }
      }
    },
    "title": "Core contract for a dHedge pool ",
    "version": 1
  },
  "userdoc": {
    "kind": "user",
    "methods": {
      "calcUserUninvested(address,address)": {
        "notice": "Calculates uninvested token amount of a particular user"
      },
      "calcWithdrawable(address)": {
        "notice": "Calculates withdrawable amount. Also accounts for cooldown period."
      },
      "checkCoreActive()": {
        "notice": "Checks if the core is active or not"
      },
      "dHedgeDeposit()": {
        "notice": "Converts supertokens to underlying tokens and deposits them into dHedge pool"
      },
      "dHedgeWithdraw(uint256)": {
        "notice": "Withdraws LP tokens of the pool to the caller"
      },
      "getPoolLogic()": {
        "notice": "Gets pool address"
      },
      "withdrawUninvestedAll()": {
        "notice": "Withdraws all the uninvested tokens of the caller"
      },
      "withdrawUninvestedSingle(address,uint256)": {
        "notice": "Withdraws uninvested tokens in a specific amount"
      }
    },
    "notice": "Contains user facing functions",
    "version": 1
  },
  "storageLayout": {
    "storage": [
      {
        "astId": 7,
        "contract": "contracts/dHedge/dHedgeCore.sol:dHedgeCore",
        "label": "_owner",
        "offset": 0,
        "slot": "0",
        "type": "t_address"
      },
      {
        "astId": 5225,
        "contract": "contracts/dHedge/dHedgeCore.sol:dHedgeCore",
        "label": "poolData",
        "offset": 0,
        "slot": "1",
        "type": "t_struct(dHedgePool)5004_storage"
      }
    ],
    "types": {
      "t_address": {
        "encoding": "inplace",
        "label": "address",
        "numberOfBytes": "20"
      },
      "t_array(t_bytes32)dyn_storage": {
        "base": "t_bytes32",
        "encoding": "dynamic_array",
        "label": "bytes32[]",
        "numberOfBytes": "32"
      },
      "t_array(t_uint256)3_storage": {
        "base": "t_uint256",
        "encoding": "inplace",
        "label": "uint256[3]",
        "numberOfBytes": "96"
      },
      "t_bool": {
        "encoding": "inplace",
        "label": "bool",
        "numberOfBytes": "1"
      },
      "t_bytes32": {
        "encoding": "inplace",
        "label": "bytes32",
        "numberOfBytes": "32"
      },
      "t_contract(IConstantFlowAgreementV1)1801": {
        "encoding": "inplace",
        "label": "contract IConstantFlowAgreementV1",
        "numberOfBytes": "20"
      },
      "t_contract(ISuperfluid)3131": {
        "encoding": "inplace",
        "label": "contract ISuperfluid",
        "numberOfBytes": "20"
      },
      "t_mapping(t_address,t_address)": {
        "encoding": "mapping",
        "key": "t_address",
        "label": "mapping(address => address)",
        "numberOfBytes": "32",
        "value": "t_address"
      },
      "t_mapping(t_address,t_array(t_uint256)3_storage)": {
        "encoding": "mapping",
        "key": "t_address",
        "label": "mapping(address => uint256[3])",
        "numberOfBytes": "32",
        "value": "t_array(t_uint256)3_storage"
      },
      "t_mapping(t_address,t_mapping(t_address,t_struct(FlowData)3526_storage))": {
        "encoding": "mapping",
        "key": "t_address",
        "label": "mapping(address => mapping(address => struct FlowData))",
        "numberOfBytes": "32",
        "value": "t_mapping(t_address,t_struct(FlowData)3526_storage)"
      },
      "t_mapping(t_address,t_struct(FlowData)3526_storage)": {
        "encoding": "mapping",
        "key": "t_address",
        "label": "mapping(address => struct FlowData)",
        "numberOfBytes": "32",
        "value": "t_struct(FlowData)3526_storage"
      },
      "t_mapping(t_address,t_uint256)": {
        "encoding": "mapping",
        "key": "t_address",
        "label": "mapping(address => uint256)",
        "numberOfBytes": "32",
        "value": "t_uint256"
      },
      "t_mapping(t_bytes32,t_uint256)": {
        "encoding": "mapping",
        "key": "t_bytes32",
        "label": "mapping(bytes32 => uint256)",
        "numberOfBytes": "32",
        "value": "t_uint256"
      },
      "t_mapping(t_uint256,t_mapping(t_address,t_array(t_uint256)3_storage))": {
        "encoding": "mapping",
        "key": "t_uint256",
        "label": "mapping(uint256 => mapping(address => uint256[3]))",
        "numberOfBytes": "32",
        "value": "t_mapping(t_address,t_array(t_uint256)3_storage)"
      },
      "t_struct(AddressSet)1195_storage": {
        "encoding": "inplace",
        "label": "struct EnumerableSet.AddressSet",
        "members": [
          {
            "astId": 1194,
            "contract": "contracts/dHedge/dHedgeCore.sol:dHedgeCore",
            "label": "_inner",
            "offset": 0,
            "slot": "0",
            "type": "t_struct(Set)894_storage"
          }
        ],
        "numberOfBytes": "64"
      },
      "t_struct(FlowData)3526_storage": {
        "encoding": "inplace",
        "label": "struct FlowData",
        "members": [
          {
            "astId": 3519,
            "contract": "contracts/dHedge/dHedgeCore.sol:dHedgeCore",
            "label": "updateIndex",
            "offset": 0,
            "slot": "0",
            "type": "t_uint256"
          },
          {
            "astId": 3521,
            "contract": "contracts/dHedge/dHedgeCore.sol:dHedgeCore",
            "label": "uninvestedSum",
            "offset": 0,
            "slot": "1",
            "type": "t_uint256"
          },
          {
            "astId": 3523,
            "contract": "contracts/dHedge/dHedgeCore.sol:dHedgeCore",
            "label": "shareAmount",
            "offset": 0,
            "slot": "2",
            "type": "t_uint256"
          },
          {
            "astId": 3525,
            "contract": "contracts/dHedge/dHedgeCore.sol:dHedgeCore",
            "label": "prevUpdateTimestamp",
            "offset": 0,
            "slot": "3",
            "type": "t_uint256"
          }
        ],
        "numberOfBytes": "128"
      },
      "t_struct(Set)894_storage": {
        "encoding": "inplace",
        "label": "struct EnumerableSet.Set",
        "members": [
          {
            "astId": 889,
            "contract": "contracts/dHedge/dHedgeCore.sol:dHedgeCore",
            "label": "_values",
            "offset": 0,
            "slot": "0",
            "type": "t_array(t_bytes32)dyn_storage"
          },
          {
            "astId": 893,
            "contract": "contracts/dHedge/dHedgeCore.sol:dHedgeCore",
            "label": "_indexes",
            "offset": 0,
            "slot": "1",
            "type": "t_mapping(t_bytes32,t_uint256)"
          }
        ],
        "numberOfBytes": "64"
      },
      "t_struct(dHedgePool)5004_storage": {
        "encoding": "inplace",
        "label": "struct dHedgeStorage.dHedgePool",
        "members": [
          {
            "astId": 4964,
            "contract": "contracts/dHedge/dHedgeCore.sol:dHedgeCore",
            "label": "host",
            "offset": 0,
            "slot": "0",
            "type": "t_contract(ISuperfluid)3131"
          },
          {
            "astId": 4967,
            "contract": "contracts/dHedge/dHedgeCore.sol:dHedgeCore",
            "label": "cfa",
            "offset": 0,
            "slot": "1",
            "type": "t_contract(IConstantFlowAgreementV1)1801"
          },
          {
            "astId": 4969,
            "contract": "contracts/dHedge/dHedgeCore.sol:dHedgeCore",
            "label": "poolLogic",
            "offset": 0,
            "slot": "2",
            "type": "t_address"
          },
          {
            "astId": 4971,
            "contract": "contracts/dHedge/dHedgeCore.sol:dHedgeCore",
            "label": "owner",
            "offset": 0,
            "slot": "3",
            "type": "t_address"
          },
          {
            "astId": 4973,
            "contract": "contracts/dHedge/dHedgeCore.sol:dHedgeCore",
            "label": "bank",
            "offset": 0,
            "slot": "4",
            "type": "t_address"
          },
          {
            "astId": 4975,
            "contract": "contracts/dHedge/dHedgeCore.sol:dHedgeCore",
            "label": "isActive",
            "offset": 20,
            "slot": "4",
            "type": "t_bool"
          },
          {
            "astId": 4977,
            "contract": "contracts/dHedge/dHedgeCore.sol:dHedgeCore",
            "label": "currIndex",
            "offset": 0,
            "slot": "5",
            "type": "t_uint256"
          },
          {
            "astId": 4985,
            "contract": "contracts/dHedge/dHedgeCore.sol:dHedgeCore",
            "label": "lendingData",
            "offset": 0,
            "slot": "6",
            "type": "t_mapping(t_uint256,t_mapping(t_address,t_array(t_uint256)3_storage))"
          },
          {
            "astId": 4989,
            "contract": "contracts/dHedge/dHedgeCore.sol:dHedgeCore",
            "label": "superToken",
            "offset": 0,
            "slot": "7",
            "type": "t_mapping(t_address,t_address)"
          },
          {
            "astId": 4996,
            "contract": "contracts/dHedge/dHedgeCore.sol:dHedgeCore",
            "label": "userFlows",
            "offset": 0,
            "slot": "8",
            "type": "t_mapping(t_address,t_mapping(t_address,t_struct(FlowData)3526_storage))"
          },
          {
            "astId": 5000,
            "contract": "contracts/dHedge/dHedgeCore.sol:dHedgeCore",
            "label": "redeemData",
            "offset": 0,
            "slot": "9",
            "type": "t_mapping(t_address,t_uint256)"
          },
          {
            "astId": 5003,
            "contract": "contracts/dHedge/dHedgeCore.sol:dHedgeCore",
            "label": "tokenSet",
            "offset": 0,
            "slot": "10",
            "type": "t_struct(AddressSet)1195_storage"
          }
        ],
        "numberOfBytes": "384"
      },
      "t_uint256": {
        "encoding": "inplace",
        "label": "uint256",
        "numberOfBytes": "32"
      }
    }
  }
}